:100000001AC2000040C200003EC200003CC2000014
:100010003AC2000038C2000036C2000034C20000FC
:1000200032C2000030C200002EC200002CC200000C
:100030006FC2000028C2000026C2000041C20000BA
:1000400022C2000020C2000012C3000099C20000BA
:10005000D8C2000018C2000016C2000014C200007E
:1000600012C2000010C200000EC200000CC200004C
:100070000AC2000008C2000006C2000004C200005C
:1000800002C2000021C30000FEC100000000000009
:100090000000004F00000007000700147F147F14C9
:1000A000242A7F2A1223130864623649552240000D
:1000B00005030000001C2241000041221C0014081E
:1000C0003E081408083E08080050300000080808E0
:1000D0000808006060000020100804023E514945F5
:1000E0003E00427F400042615149462141454B312B
:1000F0001814127F1027454545393C4A49493001BB
:10010000710905033649494936064949291E003611
:100110003600000056360000081422410014141462
:100120001414004122140802015109063249714198
:100130003E7E1111117E7F494949363E414141229F
:100140007F4141221C7F494949417F090909013EFC
:100150004149493A7F0808087F00417F410020401B
:10016000413F017F081422417F404040407F020C04
:10017000027F7F0408107F3E4141413E7F0909090B
:10018000063E4151215E7F091929464649494931B8
:1001900001017F01013F4040403F1F2040201F3FA1
:1001A0004070403F631408146307087008076151EA
:1001B000494543007F4141000204081020004141AD
:1001C0007F0004020102044040404040000102045C
:1001D0000020545454787F484444383844444420E0
:1001E000384444487F3854545418087E0901020C9E
:1001F0005252523E7F0804047800447D4000204063
:10020000443D007F1028440000417F40007C0418DA
:1002100004787C0804047838444444387C1414146A
:1002200008081414187C7C0804040848545454200A
:10023000043F4440203C4040207C1C2040201C3C8B
:100240004030403C44281028440C5050503C4464FA
:10025000544C44000836410000007F000000413645
:100260000800020102020114141414140E0A0E00F4
:100270000024242F24247F7F7F7F7F7F7F7F7F7FC9
:100280007F7F7F7F7F7F7F7F7F7F7F7F7F7F7F7F7E
:100290007F7F7F7F7F7F7F7F7F7F7F7F7F7F7F7F6E
:1002A0007F7F7F7F7F7F7F7F7F7F7F7F7F7F7F7F5E
:1002B0007F7F7F7F7F7F7F7F7F7F7F7F7E11111199
:1002C0007E7F494949337F494949367F010101030E
:1002D000E0514F41FF7F4949494177087F08774105
:1002E000494949367F1008047F7C2112097C7F0828
:1002F00014224120413F017F7F020C027F7F0808CA
:10030000087F3E4141413E7F0101017F7F0909098C
:10031000063E4141412201017F01014728100807A3
:100320001C227F221C63140814637F404040FF0797
:100330000808087F7F407F407F7F407F40FF017F2C
:100340004848307F4830007F007F4848302241498C
:10035000493E7F083E413E462919097F20545454A6
:10036000783C4A4A49317C545428007C0404040CEB
:10037000E0544C44FC38545454186C107C106C44B9
:10038000445454287C2010087C7C4122117C7C1031
:1003900028440020443C047C7C0810087C7C10101D
:1003A000107C38444444387C0404047C7C141414C9
:1003B00008384444442004047C04040C5050503C4D
:1003C0003048FC483044281028447C404040FC0C15
:1003D0001010107C7C407C407C7C407C40FC047C89
:1003E0005050207C5050207C7C5050200028445499
:1003F00054387C10384438085434147C2020CFC83A
:100400002020CCCA20203A20252E32582E252E32EC
:100410005800C2E5F0F1E8E820CFCE00CDE5F220AB
:10042000F1E2FFE7E820F120C1D1CF212121000036
:10043000A503C306BC0711241FBECFEFD0E1DEBF6A
:10044000CDBF11E0A0E0B1E0E0E0F9E100E00BBFDA
:1004500002C007900D92A430B107D9F726E0A4E0BE
:10046000B1E001C01D92A834B207E1F712E0CBE180
:10047000D2E003C02197FE014FD7C831D107D1F791
:1004800003D00C947E0CBCCD00E021E040E060E0A5
:100490007BE485E091E0E4D3FBD47894809118016B
:1004A000882361F010921801AAD413D5CBD4682FF9
:1004B00085E091E04AD486E191E08DD3A895EECF16
:1004C0001F920F920FB60F9211240BB60F922F931B
:1004D0003F934F935F936F937F938F939F93AF93CC
:1004E000BF93EF93FF932FD2EDD2FF91EF91BF9186
:1004F000AF919F918F917F916F915F914F913F91BC
:100500002F910F900BBE0F900FBE0F901F9018955C
:100510001F920F920FB60F9211240BB60F922F93CA
:100520003F934F935F936F937F938F939F93AF937B
:10053000BF93EF93FF9319D180910401882319F0A1
:1005400081508093040180910401811106C081E0F3
:10055000809318018AE080930401FF91EF91BF918D
:10056000AF919F918F917F916F915F914F913F914B
:100570002F910F900BBE0F900FBE0F901F901895EC
:100580001F920F920FB60F9211240BB60F928F93FA
:100590009F93AF93BF93EF93FF9380910501909149
:1005A00009018917D0F4A0910A01B0910B01E091E3
:1005B0000601F0910701E80FF11D80818C93E09115
:1005C0000601F09107018091050191E0980F909349
:1005D0000501E80FF11D108207C0E0911201F091B2
:1005E000130180818F7D8083FF91EF91BF91AF9147
:1005F0009F918F910F900BBE0F900FBE0F901F9089
:1006000018951F920F920FB60F9211240BB60F92EE
:100610002F933F934F935F936F937F938F939F930A
:10062000AF93BF93EF93FF93E5E0F1E01082148264
:10063000A585B6858C9180688C930584F685E02D20
:1006400080818F7B808348D4FF91EF91BF91AF91E0
:100650009F918F917F916F915F914F913F912F91DA
:100660000F900BBE0F900FBE0F901F9018951F920A
:100670000F920FB60F9211240BB60F922F933F9348
:100680004F935F936F937F938F939F93AF93BF939A
:10069000EF93FF939BB18CB19C7161E009F460E032
:1006A00021D4FF91EF91BF91AF919F918F917F9155
:1006B0006F915F914F913F912F910F900BBE0F90D3
:1006C0000FBE0F901F9018951F920F920FB60F92AA
:1006D00011248F9380917100887F883241F148F412
:1006E000803199F0883169F08830E1F48091160109
:1006F0000FC0803581F0883599F0803499F485EC0D
:1007000017C01092730085E813C0809116018160B4
:1007100080937300F8CF8091730080931701F3CF1B
:1007200084E906C08CE98093170184E801C085EA5A
:1007300080937400809174008068809374008F911E
:100740000F900FBE0F901F90189568E486E191E01E
:1007500030D220E94BE255E060E085E091E046C20E
:100760008091190190911A01089523B330B36091DB
:100770006300432F032E000C550B40955095852F99
:10078000881F8827881F90E061FD03C042E050E089
:1007900002C040E050E0842B952B20FD03C044E0D4
:1007A00050E002C040E050E0842B952B60FD03C078
:1007B00048E050E002C040E050E0842B952B21FD42
:1007C00003C040E150E002C040E050E0842B952B94
:1007D00022FD03C040E250E002C040E050E0842B24
:1007E000952B36FD03C040E450E002C040E050E0ED
:1007F000842B952B23FD03C040E850E002C040E06D
:1008000050E0842B952B24FD03C020E031E002C092
:1008100020E030E0822B932B90931A0180931901F2
:100820000895CF93DF93603240F067FD02C06052BD
:1008300005C0603B10F0605501C060E0DC01AF5DB9
:10084000BE4F85E0689FB001112480E090E0ED018B
:10085000FC01E60FF71FE457FF4FE491ED9301967B
:1008600085309105A9F71D82DF91CF91089595B349
:10087000962B95BBE2E6F0E090819D7F908390817E
:100880009B7F9083000000009081986090838BBBD9
:10089000000000008081877F808385E08A95F1F7E2
:1008A000000085B36095682365BB0895E1E2F1E03F
:1008B000119285E0E132F807D9F7089595B3962BA8
:1008C00095BBE2E6F0E090819260908390819B7FFF
:1008D0009083000000008BBB8081886080830000D3
:1008E00000008081877F80838AE08A95F1F700C0CD
:1008F00085B36095682365BB0895AD9907C0AD9A2F
:100900008FE39CE90197F1F700C000008FEF9FEFA4
:100910009093200180931F019AE09A95F1F700C00F
:1009200060EC84ECA4DF8AE08A95F1F700C060EC0B
:100930008FE39DDF9AE19A95F1F700C0089581E079
:1009400080931D01089580911D01882309F448C0FA
:1009500080911C01811110C080911B0160EC8854B2
:1009600086DF8AE18A95F1F700C060EC80E47FDFE2
:100970009AE19A95F1F700C080911C01E0911B016A
:10098000803400F590E8E99FF0011124EF5DFE4FFF
:10099000E80FF11D60E8808191DF80911B01E091FB
:1009A0001C01F0E090E8899FE00DF11D1124EF5942
:1009B000FE4F60E4808182DF80911C018F5F809315
:1009C0001C010895E73030F4EF5FE0931B011092B3
:1009D0001C01089510921B0110921C0110921D0120
:1009E00008958F929F92AF92BF92CF92DF92EF9233
:1009F000FF920F931F93CF93DF93683008F044C0AA
:100A0000162FC62FD0E024E1629F50011124982EAA
:100A10007C0194E8C92ED12C24E1822E0E2D0919D7
:100A2000F701802F90E08A159B0594F48FEFE81A68
:100A3000F80A6081C601F5DE802F682D3FD493311E
:100A400019F4E8E0CE0ED11CF6E0CF0ED11CE6CFB3
:100A5000D695DC2FCC27D795C795CC5FDE4F64E1C8
:100A6000169F102D112404E1183780F4F7016191CD
:100A70007F01CE01D6DE812F602F20D4933109F47F
:100A800028961F5F2696F0CF80E001C081E0DF91BD
:100A9000CF911F910F91FF90EF90DF90CF90BF907B
:100AA000AF909F908F90089580931E01823019F02F
:100AB00080E090E002C080E395E79093020180938C
:100AC0000101089580911E01813029F492B380E2E2
:100AD000892782BB08958091010190910201892BA1
:100AE000C9F092B380E2892782BB809100018823FC
:100AF00021F0815080930001089587EC80930001DC
:100B000080910101909102010197909302018093DD
:100B10000101089595980895873008F048C0E4E2EF
:100B2000F1E02EE931E09AE591932E173F07E1F7C6
:100B3000E1EAF1E041E255E09FEF2FEF90839283ED
:100B4000DF01A358BF4F9C9312969C93E058FF4F30
:100B50004E175F0791F72093A0012093210198E1A0
:100B600090939F01909322019BED90939E0190930F
:100B70002301E82FF0E03196F695FE2FEE27F7954A
:100B8000E795DF01AC5DBE4F8AE79AE59D93815002
:100B9000E9F7EF5DFE4FDF01A258BF4F88E18C936C
:100BA000818311978BED8C93828381E0089580E09F
:100BB0000895FC0192B3936092BB86EC8093700021
:100BC00081E08093710085E880937400660F6083F4
:100BD0008CE9818308952CE9FC012183E4E7F0E0AE
:100BE000808180E8808385E280830895FC015283C0
:100BF00041832383611117C08CE290E09683858343
:100C000080E990E09087878389E290E092878187EE
:100C100085E990E0948783878AE290E096878587CC
:100C20008BE290E018C06130C1F48CE990E09683CB
:100C3000858388E990E09087878389E990E09287AF
:100C400081878DE990E0948783878AE990E0968791
:100C500085878BE990E0908B8787148210820895B6
:100C60008F929F92AF92BF92CF92DF92EF92FF92BC
:100C70000F931F93CF93DF93EC01E42EF22E61309C
:100C80008BE4780720F010E060E07BE401C011E025
:100C90004B01A12CB12CD501C401975FA24CBF4FD1
:100CA000BC01CD0122E0660F771F881F991F2A958E
:100CB000D1F7A5019401E3E0220F331F441F551F14
:100CC000EA95D1F707D3BA01A90141505109610949
:100CD000710982E08F1550F081E0F81629F082E06A
:100CE000F81205C080E304C080E202C010E080E09A
:100CF000023018F4013019F401C010E08860E110EE
:100D000010E08660EF81F885C52ED62EE72EFF24F1
:100D1000C082E985FA854083EF85F88992E0908367
:100D2000EB85FC858083ED85FE8588E98083812FB6
:100D3000DF91CF911F910F91FF90EF90DF90CF90B7
:100D4000BF90AF909F908F900895CF93DF93FC0159
:100D50006623B1F0A585B6858C918F778C93A5819C
:100D6000B681C181D28188818C93A181B2811C928C
:100D700081E08083A585B6858C9180668C936483A1
:100D8000DF91CF91089580B58B7F80BD8FEF8ABBB7
:100D90001BBA17BA88BB90EE94BB9FE195BB90E35A
:100DA00091BB9FEC92BB90EC92B983B99EE090937B
:100DB000610091EF9093620010926400809365004F
:100DC00017BE8BE083BF88E181BF87B7826087BF92
:100DD0001FBC8CE08EBD10927A001DBC1CBC80E74D
:100DE00092E09BBD8ABD87B7806187BF9CE088E1A8
:100DF0000FB6F894A89581BD0FBE91BD089580915E
:100E00000301833018F48F5F8093030186EC95E033
:100E1000AFD18091C805833061F486EC95E0D6D1DE
:100E2000882339F06BEB75E086EC95E036D11092B3
:100E3000030181E090910301933008F080E08093FA
:100E400025050895CF93DF9300D000D0CDB7DEB74E
:100E500086EC95E08DD18091C805813089F4909120
:100E6000260580912705198224E02A839B838C83A1
:100E7000AE014F5F5F4F61E086EC95E01BD201C091
:100E800080E00F900F900F900F90DF91CF91089519
:100E9000EBEBF5E08FEC95E09183808388E782832C
:100EA00081E295E09483838384E295E09683858351
:100EB00082E295E09087878383E295E0928781873D
:100EC000E6ECF5E081E0868313828283108615DDEF
:100ED000EDCC81E295E06EC0E6ECF5E0138281E0B6
:100EE00082830895662331F01092C90581E08093D2
:100EF000C80508959091C905911105C0853519F46B
:100F000022E02093C8052091C8052230A1F5E09188
:100F1000C605F091C705E90FF11D8083913051F0AE
:100F200028F0923019F1933049F017C091E08535DF
:100F3000F9F41FC08A3AE1F492E01BC0482F50E058
:100F40002091CB0530E0255031094217530784F436
:100F50008B5F8093CA0594E00CC09F5F8091CA05A7
:100F6000981738F083E08093C80503C093E001C070
:100F700090E09093C905089581E295E006D040E99C
:100F80006BE275E086EC95E07DC0FC011482168270
:100F9000158281E080831782108611861182128269
:100FA00083CDEFECF5E080E2819396E0E834F90739
:100FB000D9F708951F93CF93DF93EC0189858F5F55
:100FC0008987823010F099DC198688858F5F888741
:100FD0008A3028F09F8181E089278F831886C0DBC3
:100FE0009E838D838C81811131C081E05DDDCE01D6
:100FF000D8DF81E088838F81811103C082E194E092
:1010000002C08CE194E09F938F931F9215E11F9390
:101010008FEC95E09F938F9388D11F921F921F9220
:1010200084E08F938CEF93E09F938F931F921F9395
:1010300083EE95E09F938F9378D18DB79EB74096BE
:101040000FB6F8949EBF0FBE8DBF11C08981882353
:1010500061F08F81882349F0EA81E150E73728F475
:10106000F0E0E153FA4F8FE580838B811DDD1EDCBC
:10107000888152DD68818FEC95E0B3DCDF91CF9100
:101080001F915DCCFC0171836083458313821482C0
:10109000178210861282168208950F931F93CF93A2
:1010A000DF93DC01EB0116968C91169712968C93C8
:1010B0001297ED91FC9111978281813109F04BC01B
:1010C0008381803809F047C084E09CEF980F7A81D3
:1010D0004D915C91119761E0680F282F30E09717D0
:1010E00058F4FA01E20FF31F8081E881F981E90FDA
:1010F000F11D8083862FE9CF0B811C81420F531F86
:10110000FA0180818770F80180838D919C911197FD
:101110004D815E81FC01E20FF31F2081221F2227F7
:10112000221FFA01208349855A85262F30E0820F3D
:10113000931FFC0180818F77FA018083EF81F8850E
:101140008D919C911197EC01C20FD31F8881881F4C
:101150008827881F808381E012962C91129716961B
:101160009C91291380E0DF91CF911F910F910895F9
:10117000FC019781828198130CC08681981759F0E1
:1011800090859F5F9087953030F0813009F413820D
:101190008283878310860895FC019481915042E0F8
:1011A00050E060E020813181491740F4D901A40F5B
:1011B000B51F8C91680F4F5F5F4FF4CFF901E90FB6
:1011C000F11D81E09081961380E00895CF93DF9325
:1011D000FC012281233041F4EC01DEDF811105C0E6
:1011E0001B8291E09A8301C080E0DF91CF91089546
:1011F000DC01ED91FC91119723812B5F15968C9169
:10120000821788F092E080E030E021503109492FC8
:1012100050E04217530744F4DF01A40FB51F4C916F
:10122000840F9F5FF4CF80E00895EF92FF921F93A9
:10123000CF93DF93FC01A42FB0E0858190E0059768
:10124000A817B9077CF5A081B18185E58C93A081B1
:10125000B1818AEA11968C93A081B18112966C9328
:10126000A081B18113964C93D90154E0540F24E02E
:10127000E080F180822F90E0251739F03D91E70161
:10128000C80FD91F38832F5FF3CFEF0115E0140F7C
:10129000E80EF91ECF01ACDFF70180831C8386E0E6
:1012A0008A8301C010E0812FDF91CF911F91FF90C1
:1012B000EF900895FA01422F9F01B7CF991B79E073
:1012C00004C0991F961708F0961B881F7A95C9F7D6
:1012D00080950895A1E21A2EAA1BBB1BFD010DC02B
:1012E000AA1FBB1FEE1FFF1FA217B307E407F507D6
:1012F00020F0A21BB30BE40BF50B661F771F881FB2
:10130000991F1A9469F760957095809590959B0147
:10131000AC01BD01CF010895EE0FFF1F0024001C9A
:101320000BBE0790F691E02D09940F931F93CF9376
:10133000DF93CDB7DEB72E970FB6F894DEBF0FBEA2
:10134000CDBF0D891E898F89988D2EE02C831A833D
:10135000098397FF02C080E090E801979E838D8308
:10136000AE01455E5F4F698D7A8DCE01019619D031
:101370004D815E8157FD0AC02F8138854217530782
:101380000CF49A01F801E20FF31F10822E960FB6AB
:10139000F894DEBF0FBECDBFDF91CF911F910F91AB
:1013A00008952F923F924F925F926F927F928F9209
:1013B0009F92AF92BF92CF92DF92EF92FF920F93E4
:1013C0001F93CF93DF93CDB7DEB72B970FB6F8946B
:1013D000DEBF0FBECDBF6C017B018A01FC0117820D
:1013E0001682838181FFBFC1CE0101963C01F601C7
:1013F0009381F70193FD859193FF81917F0188236C
:1014000009F4ADC1853239F493FD859193FF819143
:101410007F01853221F4B60190E0D6D1E8CF912C3E
:10142000212C312CFFE1F315D8F08B3279F038F410
:10143000803279F08332A1F4232D20611DC08D32DA
:1014400061F0803369F4232D216016C0832D826002
:10145000382EE32DE4603E2E2AC0F32DF8601DC027
:1014600037FC2DC020ED280F2A3040F08E32B9F421
:1014700036FC75C1232D2064322E19C036FE06C0FD
:101480008AE0989E200D1124922E11C0EAE02E9E33
:10149000200D1124222EF32DF0623F2E08C08C3631
:1014A00021F4832D8068382E02C0883641F4F7017C
:1014B00093FD859193FF81917F018111B3CF982F87
:1014C0009F7D9554933028F40C5F1F4F9FE39983C1
:1014D0000DC0833631F0833771F0833509F055C084
:1014E00020C0F801808189830E5F1F4F8824839478
:1014F000912C530112C02801F2E04F0E511CF8014B
:10150000A080B18036FE03C0692D70E002C06FEF8D
:101510007FEFC5014ED14C018201F32DFF773F2EA5
:1015200015C0280122E0420E511CF801A080B180B4
:1015300036FE03C0692D70E002C06FEF7FEFC5017A
:101540002DD14C01F32DF0683F2E820133FC19C0E0
:10155000822D90E088169906A0F4B60180E290E012
:1015600033D12A94F5CFF50137FC859137FE81916F
:101570005F01B60190E028D121102A9421E0821A5F
:1015800091088114910479F7E1C0843611F089360D
:1015900039F5F80137FE07C060817181828193813E
:1015A0000C5F1F4F08C060817181072E000C880BF3
:1015B000990B0E5F1F4FF32DFF763F2E97FF09C04B
:1015C00090958095709561957F4F8F4F9F4FF068F4
:1015D0003F2E2AE030E0A30133D1882E861844C084
:1015E000853731F4232D2F7EB22E2AE030E025C03E
:1015F000932D997FB92E8F36C1F018F4883579F084
:10160000AEC0803719F0883721F0A9C0E92FE0611A
:10161000BE2EB4FE0DC0FB2DF460BF2E09C034FEFB
:101620000AC0292F2660B22E06C028E030E005C08F
:1016300020E130E002C020E132E0F801B7FE07C04F
:1016400060817181828193810C5F1F4F06C0608130
:10165000718180E090E00E5F1F4FA301F1D0882ED2
:101660008618FB2DFF773F2E36FE0DC0232D2E7FD3
:10167000A22E891458F434FE0BC032FC09C0832D0D
:101680008E7EA82E05C0B82CA32C03C0B82C01C098
:10169000B92CA4FE0FC0FE01E80DF11D808180333E
:1016A00021F49A2D997EA92E09C0A2FE06C0B394FA
:1016B000B39404C08A2D867809F0B394A3FC10C0BB
:1016C000A0FE06C0B21480F4280C922C9B180DC00A
:1016D000B21458F4B60180E290E076D0B394F8CF1B
:1016E000B21418F42B1802C0982C212CA4FE0FC0A1
:1016F000B60180E390E068D0A2FE16C0A1FC03C052
:1017000088E790E002C088E590E0B6010CC08A2D21
:10171000867851F0A1FE02C08BE201C080E2A7FCF6
:101720008DE2B60190E050D0891430F4B60180E328
:1017300090E04AD09A94F8CF8A94F301E80DF11D15
:101740008081B60190E040D08110F6CF222009F4CC
:101750004ECEB60180E290E037D02A94F7CFF60162
:101760008681978102C08FEF9FEF2B960FB6F8947A
:10177000DEBF0FBECDBFDF91CF911F910F91FF90C4
:10178000EF90DF90CF90BF90AF909F908F907F9021
:101790006F905F904F903F902F900895FC010590BF
:1017A000615070400110D8F7809590958E0F9F1F63
:1017B0000895FC016150704001900110D8F78095A8
:1017C00090958E0F9F1F08950F931F93CF93DF93D4
:1017D000FB01238121FD03C08FEF9FEF2CC022FF6F
:1017E00016C046815781248135814217530744F43E
:1017F000A081B1819D012F5F3F4F318320838C9366
:10180000268137812F5F3F4F3783268314C08B019A
:10181000EC01FB010084F185E02D0995892BE1F6AF
:10182000D80116968D919C911797019617969C93C7
:101830008E931697CE01DF91CF911F910F9108954E
:10184000FA01AA27283051F1203181F1E8946F93F1
:101850006E7F6E5F7F4F8F4F9F4FAF4FB1E03ED097
:10186000B4E03CD0670F781F891F9A1FA11D680F35
:10187000791F8A1F911DA11D6A0F711D811D911D68
:10188000A11D20D009F468943F912AE0269F1124DD
:101890003019305D3193DEF6CF010895462F477041
:1018A000405D4193B3E00FD0C9F7F6CF462F4F709C
:1018B000405D4A3318F0495D31FD4052419302D0FA
:1018C000A9F7EACFB4E0A6959795879577956795A0
:1018D000BA95C9F700976105710508959B01AC01A0
:1018E0000A2E06945795479537952795BA95C9F7C7
:1018F000620F731F841F951FA01D0895F894FFCFDA
:04190000C730750374
:00000001FF
