:1000000016C200003CC200003AC2000038C2000024
:1000100036C2000034C2000032C2000030C200000C
:100020002EC200002CC200002AC2000028C200001C
:100030006BC2000024C2000022C200003DC20000CA
:100040001EC200001CC200000EC3000095C20000CA
:10005000D4C2000014C2000012C2000010C200008E
:100060000EC200000CC200000AC2000008C200005C
:1000700006C2000004C2000002C2000000C200006C
:10008000FEC100001DC30000FAC100000000000016
:100090000000004F00000007000700147F147F14C9
:1000A000242A7F2A1223130864623649552240000D
:1000B00005030000001C2241000041221C0014081E
:1000C0003E081408083E08080050300000080808E0
:1000D0000808006060000020100804023E514945F5
:1000E0003E00427F400042615149462141454B312B
:1000F0001814127F1027454545393C4A49493001BB
:10010000710905033649494936064949291E003611
:100110003600000056360000081422410014141462
:100120001414004122140802015109063249714198
:100130003E7E1111117E7F494949363E414141229F
:100140007F4141221C7F494949417F090909013EFC
:100150004149493A7F0808087F00417F410020401B
:10016000413F017F081422417F404040407F020C04
:10017000027F7F0408107F3E4141413E7F0909090B
:10018000063E4151215E7F091929464649494931B8
:1001900001017F01013F4040403F1F2040201F3FA1
:1001A0004070403F631408146307087008076151EA
:1001B000494543007F4141000204081020004141AD
:1001C0007F0004020102044040404040000102045C
:1001D0000020545454787F484444383844444420E0
:1001E000384444487F3854545418087E0901020C9E
:1001F0005252523E7F0804047800447D4000204063
:10020000443D007F1028440000417F40007C0418DA
:1002100004787C0804047838444444387C1414146A
:1002200008081414187C7C0804040848545454200A
:10023000043F4440203C4040207C1C2040201C3C8B
:100240004030403C44281028440C5050503C4464FA
:10025000544C44000836410000007F000000413645
:100260000800020102020114141414140E0A0E00F4
:100270000024242F24247F7F7F7F7F7F7F7F7F7FC9
:100280007F7F7F7F7F7F7F7F7F7F7F7F7F7F7F7F7E
:100290007F7F7F7F7F7F7F7F7F7F7F7F7F7F7F7F6E
:1002A0007F7F7F7F7F7F7F7F7F7F7F7F7F7F7F7F5E
:1002B0007F7F7F7F7F7F7F7F7F7F7F7F7E11111199
:1002C0007E7F494949337F494949367F010101030E
:1002D000E0514F41FF7F4949494177087F08774105
:1002E000494949367F1008047F7C2112097C7F0828
:1002F00014224120413F017F7F020C027F7F0808CA
:10030000087F3E4141413E7F0101017F7F0909098C
:10031000063E4141412201017F01014728100807A3
:100320001C227F221C63140814637F404040FF0797
:100330000808087F7F407F407F7F407F40FF017F2C
:100340004848307F4830007F007F4848302241498C
:10035000493E7F083E413E462919097F20545454A6
:10036000783C4A4A49317C545428007C0404040CEB
:10037000E0544C44FC38545454186C107C106C44B9
:10038000445454287C2010087C7C4122117C7C1031
:1003900028440020443C047C7C0810087C7C10101D
:1003A000107C38444444387C0404047C7C141414C9
:1003B00008384444442004047C04040C5050503C4D
:1003C0003048FC483044281028447C404040FC0C15
:1003D0001010107C7C407C407C7C407C40FC047C89
:1003E0005050207C5050207C7C5050200028445499
:1003F00054387C10384438085434147C20C2E5F05A
:10040000F1E8FF20CFC83A20252E32582E252E3273
:10041000580020CDE5F220F1E2FFE7E820F120C10D
:10042000D1CF212121200000A10392068B071124A6
:100430001FBECFEFD0E1DEBFCDBF11E0A0E0B1E045
:10044000E0EAF8E100E00BBF02C007900D92A8308F
:10045000B107D9F726E0A8E0B1E001C01D92AA34A7
:10046000B207E1F712E0C7E1D2E003C02197FE0135
:1004700023D7C431D107D1F703D00C944E0CC0CD93
:1004800000E021E040E060E07BE489E091E0B7D368
:10049000CED4789480911C01882361F010921C01C5
:1004A0007DD4E6D49ED4682F89E091E01DD48AE102
:1004B00091E060D3A895EECF1F920F920FB60F92E6
:1004C00011240BB60F922F933F934F935F936F932B
:1004D0007F938F939F93AF93BF93EF93FF9304D238
:1004E000C0D2FF91EF91BF91AF919F918F917F917A
:1004F0006F915F914F913F912F910F900BBE0F9095
:100500000FBE0F901F9018951F920F920FB60F926B
:1005100011240BB60F922F933F934F935F936F93DA
:100520007F938F939F93AF93BF93EF93FF9321D1CB
:1005300080910801882319F08150809308018091EF
:100540000801811106C081E080931C018AE080933C
:100550000801FF91EF91BF91AF919F918F917F9192
:100560006F915F914F913F912F910F900BBE0F9024
:100570000FBE0F901F9018951F920F920FB60F92FB
:1005800011240BB60F928F939F93AF93BF93EF936A
:10059000FF938091090190910D018917D0F4A091EA
:1005A0000E01B0910F01E0910A01F0910B01E80FEB
:1005B000F11D80818C93E0910A01F0910B018091F3
:1005C000090191E0980F90930901E80FF11D108245
:1005D00007C0E0911601F091170180818F7D808323
:1005E000FF91EF91BF91AF919F918F910F900BBEB3
:1005F0000F900FBE0F901F9018951F920F920FB67D
:100600000F9211240BB60F922F933F934F935F934A
:100610006F937F938F939F93AF93BF93EF93FF93CA
:10062000E9E0F1E010821482A585B6858C9180689E
:100630008C930584F685E02D80818F7B80831BD48D
:10064000FF91EF91BF91AF919F918F917F916F91AA
:100650005F914F913F912F910F900BBE0F900FBE66
:100660000F901F9018951F920F920FB60F921124A2
:100670000BB60F922F933F934F935F936F937F939C
:100680008F939F93AF93BF93EF93FF939BB18CB1E5
:100690009C7161E009F460E0F4D3FF91EF91BF91A8
:1006A000AF919F918F917F916F915F914F913F910A
:1006B0002F910F900BBE0F900FBE0F901F901895AB
:1006C0001F920F920FB60F9211248F938091710099
:1006D000887F883241F148F4803199F0883169F09F
:1006E0008830E1F480911A010FC0803581F088359F
:1006F00099F0803499F485EC17C01092730085E866
:1007000013C080911A01816080937300F8CF8091AB
:10071000730080931B01F3CF84E906C08CE98093BA
:100720001B0184E801C085EA809374008091740005
:100730008068809374008F910F900FBE0F901F9070
:10074000189568E48AE191E003D220E94DE255E092
:1007500060E089E091E019C220910201309103012B
:100760008091000190910101822B932B80959095AF
:10077000089520B3229526952695237030E0A9018F
:100780005E6F80916300837024E0829FC00111241A
:100790009C01242B352B83B38F7140E1849FC001D2
:1007A0001124822B932B20910201309103012827E1
:1007B0003927309301012093000190930301809326
:1007C00002010895CF93DF93603240F067FD02C0CD
:1007D000605205C0603B10F0605501C060E0DC0174
:1007E000AD5DBE4F85E0689FB001112480E090E0D0
:1007F000ED01FC01E60FF71FE457FF4FE491ED9385
:10080000019685309105A9F71D82DF91CF9108955A
:1008100095B3962B95BBE2E6F0E090819D7F9083A7
:1008200090819B7F9083000000009081986090836E
:100830008BBB000000008081877F808385E08A95E4
:10084000F1F7000085B36095682365BB0895E3E286
:10085000F1E0119285E0E332F807D9F7089595B3F6
:10086000962B95BBE2E6F0E09081926090839081B8
:100870009B7F9083000000008BBB80818860808319
:10088000000000008081877F80838AE08A95F1F7ED
:1008900000C085B36095682365BB0895AD9907C016
:1008A000AD9A8FE39CE90197F1F700C000008FEF4C
:1008B0009FEF90932201809321019AE09A95F1F79E
:1008C00000C060EC84ECA4DF8AE08A95F1F700C0F8
:1008D00060EC8FE39DDF9AE19A95F1F700C00895EF
:1008E00081E080931F01089580911F01882309F4FE
:1008F00048C080911E01811110C080911D0160ECE3
:10090000885486DF8AE18A95F1F700C060EC80E4C4
:100910007FDF9AE19A95F1F700C080911E01E09186
:100920001D01803400F590E8E99FF0011124ED5D90
:10093000FE4FE80FF11D60E8808191DF80911D017D
:10094000E0911E01F0E090E8899FE00DF11D112477
:10095000ED59FE4F60E4808182DF80911E018F5F40
:1009600080931E010895E73030F4EF5FE0931D019E
:1009700010921E01089510921D0110921E011092F6
:100980001F0108958F929F92AF92BF92CF92DF92F4
:10099000EF92FF920F931F93CF93DF93683008F08D
:1009A00044C0162FC62FD0E024E1629F50011124CD
:1009B000982E7C0194E8C92ED12C24E1822E0E2D94
:1009C0000919F701802F90E08A159B0594F48FEFA9
:1009D000E81AF80A6081C601F5DE802F682D3ED442
:1009E000933119F4E8E0CE0ED11CF6E0CF0ED11C05
:1009F000E6CFD695DC2FCC27D795C795CC5FDE4FB9
:100A000064E1169F102D112404E1183780F4F701DA
:100A100061917F01CE01D6DE812F602F1FD49331EB
:100A200009F428961F5F2696F0CF80E001C081E090
:100A3000DF91CF911F910F91FF90EF90DF90CF90BA
:100A4000BF90AF909F908F900895823039F480E3EB
:100A500095E7909306018093050108958093200106
:100A6000089580912001813029F492B380E2892792
:100A700082BB08958091050190910601892BC9F0F0
:100A800092B380E2892782BB80910401882321F000
:100A9000815080930401089587EC80930401809134
:100AA000050190910601019790930601809305013D
:100AB000089595980895873008F048C0E6E2F1E07F
:100AC00020EA31E09AE591932E173F07E1F7E3EA38
:100AD000F1E043E255E09FEF2FEF90839283DF0137
:100AE000A358BF4F9C9312969C93E058FF4F4E170C
:100AF0005F0791F72093A2012093230198E190933F
:100B0000A101909324019BED9093A0019093250166
:100B1000E82FF0E03196F695FE2FEE27F795E79552
:100B2000DF01AA5DBE4F8AE79AE59D938150E9F700
:100B3000ED5DFE4FDF01A258BF4F88E18C938183AA
:100B400011978BED8C93828381E0089580E0089566
:100B5000FC0192B3936092BB86EC8093700081E0BD
:100B60008093710085E880937400660F60838CE940
:100B7000818308952CE9FC012183E4E7F0E0808182
:100B800080E8808385E280830895FC01528341835D
:100B90002383611117C08CE290E09683858380E9FE
:100BA00090E09087878389E290E09287818785E94A
:100BB00090E0948783878AE290E0968785878BE22E
:100BC00090E018C06130C1F48CE990E09683858391
:100BD00088E990E09087878389E990E09287818710
:100BE0008DE990E0948783878AE990E096878587EE
:100BF0008BE990E0908B87871482108208958F9202
:100C00009F92AF92BF92CF92DF92EF92FF920F939B
:100C10001F93CF93DF93EC01E42EF22E61308BE42F
:100C2000780720F010E060E07BE401C011E04B01A8
:100C3000A12CB12CD501C401975FA24CBF4FBC01C0
:100C4000CD0122E0660F771F881F991F2A95D1F7E3
:100C5000A5019401E3E0220F331F441F551FEA95BD
:100C6000D1F708D3BA01A9014150510961097109AD
:100C700082E08F1550F081E0F81629F082E0F8123A
:100C800005C080E304C080E202C010E080E00230D2
:100C900018F4013019F401C010E08860E11010E090
:100CA0008660EF81F885C52ED62EE72EFF24C08200
:100CB000E985FA854083EF85F88992E09083EB859A
:100CC000FC858083ED85FE8588E98083812FDF9117
:100CD000CF911F910F91FF90EF90DF90CF90BF9039
:100CE000AF909F908F900895CF93DF93FC01662380
:100CF000B1F0A585B6858C918F778C93A581B6814F
:100D0000C181D28188818C93A181B2811C9281E0C2
:100D10008083A585B6858C9180668C936483DF91F2
:100D2000CF91089580B58B7F80BD8FEF8ABB1BBAB2
:100D300017BA88BB90EE94BB9FE195BB90E391BB43
:100D40009FEC92BB90EC92B983B99EE090936100C6
:100D500091EF90936200109264008093650017BE3B
:100D60008BE083BF88E181BF87B7826087BF1FBCEC
:100D70008CE08EBD10927A001DBC1CBC80E792E016
:100D80009BBD8ABD87B7806187BF9CE088E10FB6B5
:100D9000F894A89581BD0FBE91BD0895809107017B
:100DA000833018F48F5F8093070188EC95E0B0D111
:100DB0008091CA05833061F488EC95E0D7D188230F
:100DC00029F06DEB75E088EC95E037D110920701C2
:100DD00081E090910701933008F080E0809327052F
:100DE0000895CF93DF9300D000D0CDB7DEB788EC65
:100DF00095E08ED18091CA05813089F480912805D3
:100E00009091290524E029831A829B838C83AE016B
:100E10004F5F5F4F61E088EC95E01CD201C080E03D
:100E20000F900F900F900F90DF91CF910895EDEB01
:100E3000F5E081ED95E09183808388E7828383E20A
:100E400095E09483838386E295E09683858384E2AC
:100E500095E09087878385E295E092878187E8EC2B
:100E6000F5E081E0868313828283108617DDEFCC64
:100E700083E295E06EC0E8ECF5E0138281E08283C6
:100E80000895662331F01092CB0581E08093CA0566
:100E900008959091CB05911105C0853519F422E094
:100EA0002093CA052091CA052230A1F5E091C8051A
:100EB000F091C905E90FF11D8083913051F028F0C0
:100EC000923019F1933049F017C091E08535F9F46B
:100ED0001FC08A3AE1F492E01BC0482F50E02091F5
:100EE000CD0530E0255031094217530784F48B5F5C
:100EF0008093CC0594E00CC09F5F8091CC0598173F
:100F000038F083E08093CA0503C093E001C090E00D
:100F10009093CB05089583E295E006D040E96DE219
:100F200075E088EC95E07EC0FC0114821682158283
:100F300081E080831782108611861182128285CD0E
:100F4000E1EDF5E080E2819396E0EA34F907D9F724
:100F50000895CF93DF93EC0189858F5F8987823075
:100F600010F09CDC198688858F5F88878A3028F08E
:100F70009F8181E089278F831886EEDB9E838D8396
:100F80008C81811135C081E060DDCE01D9DF81E047
:100F900088838F81882391F082E194E09F938F93DF
:100FA0001F9285E18F9381ED95E09F938F938DD173
:100FB0000F900F900F900F900F900F901F921F9215
:100FC0001F9284E08F938CEF93E09F938F931F92F7
:100FD00084E18F9389EF95E09F938F9376D18DB7BE
:100FE0009EB70A960FB6F8949EBF0FBE8DBF11C074
:100FF0008981882361F08F81882349F0EA81E1505B
:10100000E73728F4F0E0EF52FA4F8FE580838B81C9
:101010001CDD888150DD688181ED95E0B3DCDF91D6
:10102000CF915ECCFC01718360834583138214826F
:10103000178210861282168208950F931F93CF9302
:10104000DF93DC01EB0116968C91169712968C9328
:101050001297ED91FC9111978281813109F04BC07B
:101060008381803809F047C084E09CEF980F7A8133
:101070004D915C91119761E0680F282F30E0971730
:1010800058F4FA01E20FF31F8081E881F981E90F3A
:10109000F11D8083862FE9CF0B811C81420F531FE6
:1010A000FA0180818770F80180838D919C9111975E
:1010B0004D815E81FC01E20FF31F2081221F222758
:1010C000221FFA01208349855A85262F30E0820F9E
:1010D000931FFC0180818F77FA018083EF81F8856F
:1010E0008D919C911197EC01C20FD31F8881881FAD
:1010F0008827881F808381E012962C91129716967C
:101100009C91291380E0DF91CF911F910F91089559
:10111000FC019781828198130CC08681981759F041
:1011200090859F5F9087953030F0813009F413826D
:101130008283878310860895FC019481915042E058
:1011400050E060E020813181491740F4D901A40FBB
:10115000B51F8C91680F4F5F5F4FF4CFF901E90F16
:10116000F11D81E09081961380E00895CF93DF9385
:10117000FC012281233041F4EC01DEDF811105C046
:101180001B8291E09A8301C080E0DF91CF910895A6
:10119000DC01ED91FC91119723812B5F15968C91C9
:1011A000821788F092E080E030E021503109492F29
:1011B00050E04217530744F4DF01A40FB51F4C91D0
:1011C000840F9F5FF4CF80E00895EF92FF921F930A
:1011D000CF93DF93FC01A42FB0E0858190E00597C9
:1011E000A817B9077CF5A081B18185E58C93A08112
:1011F000B1818AEA11968C93A081B18112966C9389
:10120000A081B18113964C93D90154E0540F24E08E
:10121000E080F180822F90E0251739F03D91E701C1
:10122000C80FD91F38832F5FF3CFEF0115E0140FDC
:10123000E80EF91ECF01ACDFF70180831C8386E046
:101240008A8301C010E0812FDF91CF911F91FF9021
:10125000EF900895FA01422F9F01B7CF991B79E0D3
:1012600004C0991F961708F0961B881F7A95C9F736
:1012700080950895A1E21A2EAA1BBB1BFD010DC08B
:10128000AA1FBB1FEE1FFF1FA217B307E407F50736
:1012900020F0A21BB30BE40BF50B661F771F881F12
:1012A000991F1A9469F760957095809590959B01A8
:1012B000AC01BD01CF010895EE0FFF1F0024001CFB
:1012C0000BBE0790F691E02D09940F931F93CF93D7
:1012D000DF93CDB7DEB72E970FB6F894DEBF0FBE03
:1012E000CDBF0D891E898F89988D2EE02C831A839E
:1012F000098397FF02C080E090E801979E838D8369
:10130000AE01455E5F4F698D7A8DCE01019619D091
:101310004D815E8157FD0AC02F81388542175307E2
:101320000CF49A01F801E20FF31F10822E960FB60B
:10133000F894DEBF0FBECDBFDF91CF911F910F910B
:1013400008952F923F924F925F926F927F928F9269
:101350009F92AF92BF92CF92DF92EF92FF920F9344
:101360001F93CF93DF93CDB7DEB72B970FB6F894CB
:10137000DEBF0FBECDBF6C017B018A01FC0117826D
:101380001682838181FFBFC1CE0101963C01F60127
:101390009381F70193FD859193FF81917F018823CC
:1013A00009F4ADC1853239F493FD859193FF8191A4
:1013B0007F01853221F4B60190E0D6D1E8CF912C9F
:1013C000212C312CFFE1F315D8F08B3279F038F471
:1013D000803279F08332A1F4232D20611DC08D323B
:1013E00061F0803369F4232D216016C0832D826063
:1013F000382EE32DE4603E2E2AC0F32DF8601DC088
:1014000037FC2DC020ED280F2A3040F08E32B9F481
:1014100036FC75C1232D2064322E19C036FE06C05D
:101420008AE0989E200D1124922E11C0EAE02E9E93
:10143000200D1124222EF32DF0623F2E08C08C3691
:1014400021F4832D8068382E02C0883641F4F701DC
:1014500093FD859193FF81917F018111B3CF982FE7
:101460009F7D9554933028F40C5F1F4F9FE3998321
:101470000DC0833631F0833771F0833509F055C0E4
:1014800020C0F801808189830E5F1F4F88248394D8
:10149000912C530112C02801F2E04F0E511CF801AB
:1014A000A080B18036FE03C0692D70E002C06FEFEE
:1014B0007FEFC5014ED14C018201F32DFF773F2E06
:1014C00015C0280122E0420E511CF801A080B18015
:1014D00036FE03C0692D70E002C06FEF7FEFC501DB
:1014E0002DD14C01F32DF0683F2E820133FC19C041
:1014F000822D90E088169906A0F4B60180E290E073
:1015000033D12A94F5CFF50137FC859137FE8191CF
:101510005F01B60190E028D121102A9421E0821ABF
:1015200091088114910479F7E1C0843611F089366D
:1015300039F5F80137FE07C060817181828193819E
:101540000C5F1F4F08C060817181072E000C880B53
:10155000990B0E5F1F4FF32DFF763F2E97FF09C0AB
:1015600090958095709561957F4F8F4F9F4FF06854
:101570003F2E2AE030E0A30133D1882E861844C0E4
:10158000853731F4232D2F7EB22E2AE030E025C09E
:10159000932D997FB92E8F36C1F018F4883579F0E4
:1015A000AEC0803719F0883721F0A9C0E92FE0617B
:1015B000BE2EB4FE0DC0FB2DF460BF2E09C034FE5C
:1015C0000AC0292F2660B22E06C028E030E005C0F0
:1015D00020E130E002C020E132E0F801B7FE07C0B0
:1015E00060817181828193810C5F1F4F06C0608191
:1015F000718180E090E00E5F1F4FA301F1D0882E33
:101600008618FB2DFF773F2E36FE0DC0232D2E7F33
:10161000A22E891458F434FE0BC032FC09C0832D6D
:101620008E7EA82E05C0B82CA32C03C0B82C01C0F8
:10163000B92CA4FE0FC0FE01E80DF11D808180339E
:1016400021F49A2D997EA92E09C0A2FE06C0B3945A
:10165000B39404C08A2D867809F0B394A3FC10C01B
:10166000A0FE06C0B21480F4280C922C9B180DC06A
:10167000B21458F4B60180E290E076D0B394F8CF7B
:10168000B21418F42B1802C0982C212CA4FE0FC001
:10169000B60180E390E068D0A2FE16C0A1FC03C0B2
:1016A00088E790E002C088E590E0B6010CC08A2D82
:1016B000867851F0A1FE02C08BE201C080E2A7FC57
:1016C0008DE2B60190E050D0891430F4B60180E389
:1016D00090E04AD09A94F8CF8A94F301E80DF11D76
:1016E0008081B60190E040D08110F6CF222009F42D
:1016F0004ECEB60180E290E037D02A94F7CFF601C3
:101700008681978102C08FEF9FEF2B960FB6F894DA
:10171000DEBF0FBECDBFDF91CF911F910F91FF9024
:10172000EF90DF90CF90BF90AF909F908F907F9081
:101730006F905F904F903F902F900895FC0105901F
:10174000615070400110D8F7809590958E0F9F1FC3
:101750000895FC016150704001900110D8F7809508
:1017600090958E0F9F1F08950F931F93CF93DF9334
:10177000FB01238121FD03C08FEF9FEF2CC022FFCF
:1017800016C046815781248135814217530744F49E
:10179000A081B1819D012F5F3F4F318320838C93C6
:1017A000268137812F5F3F4F3783268314C08B01FB
:1017B000EC01FB010084F185E02D0995892BE1F610
:1017C000D80116968D919C911797019617969C9328
:1017D0008E931697CE01DF91CF911F910F910895AF
:1017E000FA01AA27283051F1203181F1E8946F9352
:1017F0006E7F6E5F7F4F8F4F9F4FAF4FB1E03ED0F8
:10180000B4E03CD0670F781F891F9A1FA11D680F95
:10181000791F8A1F911DA11D6A0F711D811D911DC8
:10182000A11D20D009F468943F912AE0269F11243D
:101830003019305D3193DEF6CF010895462F4770A1
:10184000405D4193B3E00FD0C9F7F6CF462F4F70FC
:10185000405D4A3318F0495D31FD4052419302D05A
:10186000A9F7EACFB4E0A695979587957795679500
:10187000BA95C9F700976105710508959B01AC0100
:101880000A2E06945795479537952795BA95C9F727
:10189000620F731F841F951FA01D0895F894FFCF3A
:0818A000FFFFFF01C7307503D3
:00000001FF
