:100000000C9422260C944B260C944B260C944B26D5
:100010000C944B260C944B260C944B260C944B269C
:100020000C944B260C944B260C944B260C944B268C
:100030000C948C270C944B260C944B260C94632721
:100040000C944B260C944B260C9499280C9446281F
:100050000C946F280C944B260C944B260C944B2636
:100060000C944B260C944B260C944B260C944B264C
:100070000C944B260C944B260C9417280C94C427F4
:100080000C94ED270C94C6280C944B26A643B4433D
:10009000C643CC43C043BA439E43BE4AE24A064BE2
:1000A000244B444B644B824BA24B1F4C3D4C5D4C4C
:1000B000C24BE54B024C7D4C9A4CB84CD64C485D3B
:1000C000695C705C705C795C835C835CAA5CD05C0E
:1000D0009761F8619961B761EC610262CE61A861D4
:1000E000C561E461666798679C67B167DB67ED6728
:1000F0002F680B681D68ED672C862F863286358643
:1001000038863B86478647864786478647864786A2
:10011000478647863E8641864486E98685868E8662
:10012000A786BF86D086E9862B9A309A2D9A309A78
:100130002D9A309A339A339A58015601540150013E
:100140004E014A014601322C3300312C330033007A
:10015000312C32003200310000D0C7D1CA0000007B
:1001600000000000D0C7D1CAEC000000000000D0A1
:10017000C7D1CA2D322035EA0000D0C7D1CA2D33ED
:100180002038EA0000C0C2C0CDD20000000000004C
:10019000C0C2C0CDD220CFD0C40000C0C2C0CDD21A
:1001A00020CFD0CC0000C0CACFC020CFD0C4000028
:1001B00000C0CACFC020CFD0CC000000CAC5C4D078
:1001C00020CFD0C4000000CAC5C4D020CFD0CC00FE
:1001D0000000D3CFCA2DD620CFD0C40000D3CFCAC1
:1001E0002DD620CFD0CC0000C2D7D2CE20CFD0C4C5
:1001F000000000C2D7D2CE20CFD0CC000000C0CDAE
:10020000CAC020CFD0C4000000C0CDCAC020CFD00B
:10021000CC000000D0343030EC000000000000CFF3
:10022000C2C72D39300000000000C0C2C7CA2D3837
:100230003000000000CFC2C7D32DC5000000000071
:10024000CFC2C7CB00000000000000CBC8CDC8DF84
:100250002DD000000000CFC2C7CA0000000000007F
:1002600000CFC2C7D300000000000000CFC2C7000B
:1002700000000000000000D034303000000000001A
:1002800000000D12E611BF11981171114A112311CE
:10029000FC10D510AE108710601039101210EB0F43
:1002A000C40F9D0F760F4F0F280F010FDA0EB30EFC
:1002B0008C0E650E3E0E170EF00DC90DA20D7B0DB6
:1002C000540D2D0D060DDF0CB80C910C6A0C430C6F
:1002D0001C0CF50BCE0BA70B800B590B320B0B0B29
:1002E000E40ABD0A960A6F0A480A210AFA09D309E4
:1002F000AC0985095E0937091009E908C2089B089D
:1003000074084D082608FF07D807B1078A07630756
:100310003C071507EE06C706A006790652062B060F
:100320000406DD05B6058F05680541051A05F304C9
:10033000CC04A5047E04570430040904E203BB0383
:1003400094036D034603D0E5E6E8EC0000000000EE
:100350000000000000000000000000000100008616
:100360001F010000040001010001000001D2E5F1BD
:10037000F2EEE2FBE920F1E8E3EDE0EB0000000043
:100380000000000100003412010000A20001010081
:1003900001000001CFE5F0E5EDE0E7EDE0F7E5ED88
:1003A000E8E520CFD0C40000002B0100004B19204D
:1003B0000000610001010301000301CFE5F0E5ED5C
:1003C000E0E7EDE0F7E5EDE8E520CFD0CC00000078
:1003D0001B0100004B192000006100010103010016
:1003E0000301D2F0E0EDE7E8F2EDFBE520EAEEEC08
:1003F000E0EDE4FB00000037050100701F60000025
:1004000002000101060B000001C2F0E5ECFF20EE46
:10041000E6E8E4E0EDE8FF20EAEEEC2E000037022B
:1004200002062548010000FF000101020A00000148
:10043000D1F2EEEFEEE2FBE520E1E8F2FB00000096
:10044000000000000000010000A21D0100000200E9
:1004500001010001000000D7E5F2EDEEF1F2FC0031
:10046000000000000000000000000000000100008B
:10047000B81D010000030001010001000000C1E8F7
:10048000F2FB20E4E0EDEDFBF500000000000000D1
:1004900000000000010000D91D0100000100010161
:1004A0000001000000D1EAEEF0EEF1F2FC20EFE5F1
:1004B000F0E5E4E0F7E80000000000010000E41DC2
:1004C000010000060001010001000000CFF0EEF283
:1004D000EEEAEEEB0000000000000000000000006B
:1004E0000000010000261E010000030001010001C0
:1004F000000000C8EDF2E5F0F4E5E9F120F1E2FFDB
:10050000E7E800000000000000010000471E0100B5
:1005100000020001010001000000CFEEE2FBF8E55F
:10052000EDE8E520E1E5E7EEEFE0F12DF2E8001679
:10053000010000701F010000020001010101000024
:1005400001D1E8E3EDE0EBE8E7E0F6E8FF20EAEED2
:10055000ECE0EDE400001D050100701F200000022A
:100560000001010501000301CAEEF0F0E5EAF6E83A
:10057000FF20F7E0F1F2EEF2FB00000000150205AB
:100580000A2548019CFF640001010101000001CF20
:10059000F0E8E5EC20F2E5F1F2EEE2EEE920EAEE39
:1005A000EC2E000012010100701F0100000200018A
:1005B000010101000001CAEEEBE8F7E5F1F2E2EE1D
:1005C00020EAEEECE0EDE4000000001C0202002551
:1005D00048010400200004040101000001CAEEECFF
:1005E000E0EDE4E020CFD0CC20E220D6CF00000028
:1005F000000019020200254820010020000101032B
:1006000001000301C1EBEEEAE8F0EEE22E20EAEE93
:10061000ECE0EDE4FB20D6CF0018050100701F20B0
:100620000000020001010501000301D2F0E0EDF13C
:10063000EBFFF6E8FF20D6CF00000000000000002E
:1006400017010100701F01000002000101010100FB
:100650000001C7E0E4E5F0E6EAE020EDE020E2FB9F
:10066000EAEB2EEAEEEC0013020206254820000019
:10067000E803320A0301000301C1EBEEEAE8F0EE01
:10068000E22E20EAEEECE0EDE4FB000000001405B1
:100690000100701F2000000200010105010003019C
:1006A000C7E0E4E5F0E6EAE020EDE020F4E8EAF176
:1006B0002EEAEEEC001102020625480100000A00B5
:1006C00001010101000001D1E8E3EDE0EBE8E7E022
:1006D000F6E8FF20EAEEECE0EDE400002E05010074
:1006E000701F200000020001010501000201CAD1B3
:1006F00020EFEE20F3ECEEEBF7E0EDE8FE0000007B
:100700000000002D010000761D0100000200010123
:100710000303000001D1EDE8E6E5EDE8E520F3F0A4
:10072000EEE2EDFF20D2CC0000002D0202092548A8
:10073000010000140001010302000001D1EDE8E610
:10074000E5EDE8E520F3F0EEE2EDFF20CAD1000090
:10075000002D0202092548010000140001010301D7
:10076000000001CAEEF0F0E5EAF6E8FF20F7E0F15C
:10077000F2EEF2FB000000002302050A2548019C6E
:10078000FF640001010101000001CAEEEBE8F7E59A
:10079000F1F2E2EE20EAEEECE0EDE420C000002908
:1007A00002020025480100002000010101010100B2
:1007B00001CAEEEBE8F7E5F1F2E2EE20EAEEECE05A
:1007C000EDE4000000002C02020025480104002096
:1007D0000004040101000001C1EBEEEAE8F0EEE2E2
:1007E0002E20EAEEECE0EDE4FB20D6CF0028050158
:1007F00000701F200000020001010501000201D26B
:10080000F0E0EDF1EBFFF6E8FF20D6CF00000000AE
:100810000000000027010100701F0100000200011C
:10082000010101000001C1EBEEEAE8F0EEE22E204A
:10083000EAEEECE0EDE4FB000000002405010070AE
:100840001F200000020001010501000201D1EBE5BB
:10085000E4FFF9E8E520EAEEECE0EDE4FB0000005F
:10086000000025050100701F2000000200010105A5
:1008700001000201D2E5F1F2EEE2E0FF20EAEEEC47
:10088000E0EDE4E0000000000026010100701F011F
:100890000000020001010101000001C4EBE8F2E5E3
:1008A000EBFCEDEEF1F2FC20EAEEECE0EDE4FB0017
:1008B000220202062548011E00F4010A0A01010075
:1008C0000001C4EBE8F2E5EBFCEDEEF1F2FC20EA0E
:1008D000EEECE0EDE4FB00220202062548011E00DA
:1008E000640001010101000001C7E0E4E5F0E6EA6F
:1008F000E020F1F0E0E1E0F22E20CFD0C4002102B0
:100900000206254801000014000101010100000158
:10091000CEE4EDEEF1F2EEF0EEEDEDE8E920F0E5FB
:10092000E6E8EC00000A010100701F01000002006F
:1009300001010101000000D1E4E2E8E320C2D72078
:10094000CFD0C420EEF220CFD3D1CA000502020CD2
:100950002548010000FF0001010204000001D1E46C
:10096000E2E8E320CFD0CC0000000000000000004F
:100970000000000502020C2548010000FF000101F3
:100980000203000001D1E4E2E8E320E7E0E42EF412
:10099000F0EEEDF2E020CFD0C4000502020C2548B5
:1009A000010000FF0001010202000001D1E4E2E8C1
:1009B000E320EFE5F02EF4F0EEEDF2E020CFD0C42E
:1009C000000502020C2548010000FF0001010201A0
:1009D000000001D7E0F1F2EEF2E020CFD0CC000031
:1009E000000000000000000009010000AA1E010034
:1009F00000050001010101000001D7E0F1F2EEF273
:100A0000E020CFD0C400000000000000000000087B
:100A1000010000AA1E010000050001010101000003
:100A200001D1EDE8E6E5EDE8E520F3F0EEE2EDFFDB
:100A300020C0CA00000007010100701F0100000271
:100A40000001010101000001D2E8EF20EFF0E8E52C
:100A5000ECEDE8EAE0000000000000000007010003
:100A600000E11E010000030001010101000001C7B7
:100A7000E0E3F0F3E1EB2E20F7F3E2F1F2E22E20D7
:100A8000D0C700000602020925480200002000012C
:100A9000010301000101C7E0E3F0F3E1EBE5EDE85C
:100AA000E520F7F3E2F1F2E2E8F20006020209259E
:100AB00048010000200001010101000001CFEEF01B
:100AC000EEE320EFF0E5E4F3EFF02E20EFEE20D0A0
:100AD000C7000902020925480100001000010101B8
:100AE00001000001CAEEECEFE5EDF1E0F6E8FF20D1
:100AF000E7E0E4E5F0E6EAE8000402020C2548023B
:100B00000000120001010201000101CAEEECEFE554
:100B1000EDF1E0F6E8FF20E7E0E4E5F0E6EAE800E2
:100B20000402020C2548020000120002010201002A
:100B30000101CFE5F0E5EAF0FBF2E8E520E8ECEFB3
:100B4000F3EBFCF1EEE2000502020C254801000087
:100B5000360001010101000001CFE5F0E5EAF0FBFC
:100B6000F2E8E520E8ECEFF3EBFCF1EEE200050241
:100B7000020C2548011200360002010101000001AB
:100B8000CFE5F0E5EAF0FBF2E8E520E8ECEFF3EB87
:100B9000FCF1EEE2000502020C25480100003600DF
:100BA00002010101000001C4EEEF2E20E2F0E5ECAD
:100BB000FF20E1E5E720ECE0ED2E00000302020853
:100BC0002548010000630001010101000001D2E895
:100BD000EF20E7E0F9E8F2FB000000000000000071
:100BE00000000001010000181F01000008000101C1
:100BF0000101000001CFEEF0EEE320E0E2E0F0E8DA
:100C0000E820EFEE20CAD70000003C020209254888
:100C1000010000160001010304000001D1EEE2EC26
:100C2000E5F1F2E8ECEEF1F2FC000000000000005B
:100C30000037010000590101000003000101020218
:100C4000000001D1EAEEF0EEF1F2FC20D2CC00007F
:100C50000000000000000000370100008C1D0100B2
:100C600000020001010209000001CDE8E6ED2EE7D7
:100C7000EDE0F7E5EDE8E520F2E5ECEFE5F0003733
:100C800002020C2548010000640001010208000076
:100C900001C2E5F0F52EE7EDE0F7E5EDE8E520F23D
:100CA000E5ECEFE5F0003702020C25480100006496
:100CB0000001010207000001CAEEEDF2F0EEEBFCCC
:100CC00020F2E5ECEFE5F0E0F2F3F0FB0037010194
:100CD00000701F010000020001010206000001CFA8
:100CE000EEF0EEE320E0E2E0F0E8E820EFEE204472
:100CF0000000000037020209254801C0FF40000142
:100D0000010205000001CFEEF0EEE320EFF0E5E494
:100D1000F3EFF02E20EFEE20440000370202092509
:100D20004801C0FF400001010204000001D2E5EBD0
:100D3000E5ECE5F5E0EDE8EAE00000000000000089
:100D4000000037010100701F0100000200010102D4
:100D500003000001D2E8EF20EBE8EDE8E800000036
:100D600000000000000000000002010000021F015E
:100D70000100020001010101000001D1EEE2ECE5F9
:100D8000F1F2E8ECEEF1F2FC0000000000000000DF
:100D90003701000085010100000D00010102020081
:100DA0000001D0E5E7E5F0E2E8F0EEE2E0EDE8E5AD
:100DB0000000000000000033010100701F0100006E
:100DC000020001010301000001CAEEF0F0E5EAF6BD
:100DD000E8FF20E2F0E5ECE5EDE820C0CA003902CA
:100DE000020D254801000014000101030900000163
:100DF000CFE5F0E8EEE420EFEEE2F22EE1E5E3EB02
:100E00002E20C0CA00390202072548010100FF0058
:100E100001010308000001CFE5F0E8EEE420E1E580
:100E2000E3EBEEE3EE20C0CA000000003902020747
:100E30002548010100FF0001010307000001D2E87D
:100E4000EF20E0E2F2EEEAEEEDF2F0EEEBFF000072
:100E500000000039010000731E01010003000101C0
:100E60000306000001C4EEEFF3F1F2E8ECE0FF202E
:100E7000EFEEECE5F5E0000000003902020C254839
:100E8000011400500014010305000001CFEEF0EE44
:100E9000E320EFEE20EFEEECE5F5E50000000000CA
:100EA00000390202072548010000FF000101030488
:100EB000000001C4EEEFF3F1F2E8ECFBE520EFF007
:100EC000EEE2E0EBFB0000003902020C25480100D5
:100ED00000500002010303000001CFF0E8E7EDE05D
:100EE000EA20F7E5F2EDEEF1F2E80000000000394B
:100EF0000100005D1E01010002000101030200006B
:100F000001CFF0EEF2EEEAEEEB20EEE1ECE5EDE003
:100F100000000000000039010000941E01010002E1
:100F20000001010301000001CAEEF0F0E5EAF6E875
:100F3000FF20F2EEEAE000000000000000330405AC
:100F40000125480119FCE70301010802000000CA5D
:100F5000EEF0F0E5EAF6E8FF20EDE0EFF0FFE6E581
:100F6000EDE8FF0033030404254801A8FD58020101
:100F7000010701000000D2E8EF20E4E5F2E5EAF223
:100F8000EEF0E00000000000000000350202002545
:100F900048010100030001010202000001D1EDE857
:100FA000E6E5EDE8E520EEF2E2E5F2E020C0CA0079
:100FB0000000390202092548010000140001010364
:100FC00001000001D1EEE2ECE5F1F2E8ECEEF1F225
:100FD000FC000000000000000037010000140201C6
:100FE00000000A0001010201000001D7E0F1F2EE69
:100FF000F2E000000000000000000000000000001F
:101000003A02020B2548010000E803010104010037
:10101000000155E2FBF520EDEEECE8EDE0EBFCED38
:10102000EEE500000000003602020425480112002F
:10103000320001010101000001D1E5F2E5E2EEE933
:1010400020E0E4F0E5F100000000000000003802BC
:1010500002002548010100F7000101010100000024
:10106000C7E0E3F0F3E1EB2E20F7F3E2F1F2E22E3A
:1010700020CFD0CC003C0202092548020000160017
:1010800001010302000101D3E4E5F0E62E20F0E5C2
:10109000EBE520EAEEEC2E20CFD0CC0036010100AB
:1010A000701F010000020001010101000001D3E4F2
:1010B000E5F0E62E20F0E5EBE520EAEEEC2E20CF81
:1010C000D0C40037010100701F01000002000101BF
:1010D0000201000001C2F0E5ECFF20EFE5F0E5E7DA
:1010E000E0EFF3F1EAE000000000390202072548D2
:1010F000010000050001010101000001CFEEF0EE4A
:10110000E320EFF0E5E4F3EFF02E20EFEE20CA430A
:10111000003C0202092548010000160001010301FC
:10112000000001CFEEF0EEE320EFF0E5E4F3EFF0A6
:10113000E5E6E4E5EDE8FF003C0202092548010090
:1011400000160001010301000001CAEEEDF2F0EE0D
:10115000EBFC20E2FBF52EF1E8E3EDE0EBE0003DF7
:10116000010100701F0100000200010101010000E7
:1011700001CDEEECE5F020E0EFEFE0F0E0F2E00092
:101180000000000000003B0202002548010100FFB2
:101190000001010101000001CDEEECE5F020E0EFDF
:1011A000EFE0F0E0F2E0000000000000003B02028F
:1011B000002548010100030001010101020001D1E5
:1011C000E8EDF5F0EEEDE8E7E0F6E8FF20F7E0F116
:1011D000EEE20000350100002A19010000030001C1
:1011E000010201000001D1E8EDF5F0EEEDE8E7E0E5
:1011F000F6E8FF20F7E0F1EEE200003501010070B3
:101200001F010000020001010201000001000000B6
:1012100000000000000000000000000000000000CE
:10122000000000000100254801000001000101004C
:1012300001000001E2FBEAEB2E000000000000CA02
:10124000D7000000000000000000CAD731000000F5
:101250000000000000CAD7320000000000000000BB
:10126000CAD7330000000000000000CAD7340000D5
:10127000000000000000CAD731000000000000009C
:1012800000CAD73120F120E1EBEEEA00CAD73200E4
:1012900000000000000000CAD73220F120E1EBEE90
:1012A000EA00D0C7000000000000000000CAEEEC19
:1012B000E0EDE4E031000000CAEEECE0EDE4E03205
:1012C000000000CAEEECE0EDE4E033000000CAEEFE
:1012D000ECE0EDE4E034000000CAEEECE0EDE4E028
:1012E00035000000CAEEECE0EDE4E036000000CA94
:1012F000EEECE0EDE4E037000000CAEEECE0EDE4F7
:10130000E038000000CAEEEC312BE1EBEEEA000021
:10131000CAEEEC322BE1EBEEEA0000CAEEEC332B26
:10132000E1EBEEEA0000CAEEEC342BE1EBEEEA0072
:1013300000CAEEEC352BE1EBEEEA0000CAEEEC362B
:101340002BE1EBEEEA0000CAEEEC372BE1EBEEEA24
:101350000000CAEEEC382BE1EBEEEA0000CAEEEC3E
:10136000E0EDE4E031000000CAEEECE0EDE4E03254
:10137000000000CAEEECE0EDE4E033000000CAEE4D
:10138000ECE0EDE4E034000000CAEEECE0EDE4E077
:1013900035000000CAEEECE0EDE4E036000000CAE3
:1013A000EEECE0EDE4E037000000CAEEECE0EDE446
:1013B000E038000000CAEEECE0EDE4E039000000A7
:1013C000CAEEECE0EDE4E031300000CAEEECE0ED16
:1013D000E4E031310000CAEEECE0EDE4E03132004F
:1013E00000CAEEECE0EDE4E031330000CAEEECE0E0
:1013F000EDE4E031340000CAEEECE0EDE4E031353C
:101400000000CAEEECE0EDE4E031360000CAEEEC9C
:10141000E0EDE4E031370000CAEEECE0EDE4E0316D
:10142000380000CAEEECE0EDE4E031390000CAEE2D
:10143000ECE0EDE4E032300000CAEEECE0EDE4E098
:1014400032310000CAEEECE0EDE4E032320000CAD6
:10145000EEECE0EDE4E032330000CAEEECE0EDE467
:10146000E032340000CAEEECE0EDE4E0323500009A
:10147000CAEEECE0EDE4E032360000CAEEECE0ED5E
:10148000E4E032370000CAEEECE0EDE4E032380090
:1014900000CAEEECE0EDE4E032390000CAEEECE028
:1014A000EDE4E033300000CAEEECE0EDE4E033318F
:1014B0000000CAEEECE0EDE4E033320000CAD720D1
:1014C000E820D0C700000000CAD73120E820D0C7EC
:1014D000000000CAD73220E820D0C7000000CAD7D9
:1014E0003320E820D0C7000000CAD73420E820D03D
:1014F000C7000000CAD1000000000000000000CAC0
:10150000EEECE0EDE4E031410000CAEEECE0EDE4A9
:10151000E032410000CAEEECE0EDE4E033410000CF
:10152000CAEEECE0EDE4E034410000CAEEECE0EDA0
:10153000E4E035410000CAEEECE0EDE4E0364100C5
:1015400000CAEEECE0EDE4E037410000CAEEECE06A
:10155000EDE4E038410000CAEEECE0EDE4E03941B2
:101560000000CAEEECE0EDE4E031304100CAEEEC00
:10157000E0EDE4E031314100CAEEECE0EDE4E031D1
:10158000324100CAEEECE0EDE4E031334100CAEE56
:10159000ECE0EDE4E031344100CAEEECE0EDE4E0F3
:1015A00031354100CAEEECE0EDE4E031364100CAED
:1015B000EEECE0EDE4E031374100CAEEECE0EDE4C2
:1015C000E031384100CAEEECE0EDE4E031394100B1
:1015D000CAEEECE0EDE4E032304100CAEEECE0EDC2
:1015E000E4E032314100CAEEECE0EDE4E0323241B9
:1015F00000CAEEECE0EDE4E032334100CAEEECE08C
:10160000EDE4E032344100CAEEECE0EDE4E03235E6
:101610004100CAEEECE0EDE4E032364100CAEEEC07
:10162000E0EDE4E032374100CAEEECE0EDE4E03218
:10163000384100CAEEECE0EDE4E032394100CAEE98
:10164000ECE0EDE4E033304100CAEEECE0EDE4E044
:1016500033314100CAEEECE0EDE4E033324100CA40
:10166000EEECE0EDE4E031420000CAEEECE0EDE447
:10167000E032420000CAEEECE0EDE4E0334200006C
:10168000CAEEECE0EDE4E034420000CAEEECE0ED3E
:10169000E4E035420000CAEEECE0EDE4E036420062
:1016A00000CAEEECE0EDE4E037420000CAEEECE008
:1016B000EDE4E038420000CAEEECE0EDE4E039424F
:1016C0000000CAEEECE0EDE4E031304200CAEEEC9E
:1016D000E0EDE4E031314200CAEEECE0EDE4E0316F
:1016E000324200CAEEECE0EDE4E031334200CAEEF3
:1016F000ECE0EDE4E031344200CAEEECE0EDE4E091
:1017000031354200CAEEECE0EDE4E031364200CA89
:10171000EEECE0EDE4E031374200CAEEECE0EDE45F
:10172000E031384200CAEEECE0EDE4E0313942004D
:10173000CAEEECE0EDE4E032304200CAEEECE0ED5F
:10174000E4E032314200CAEEECE0EDE4E032324255
:1017500000CAEEECE0EDE4E032334200CAEEECE029
:10176000EDE4E032344200CAEEECE0EDE4E0323584
:101770004200CAEEECE0EDE4E032364200CAEEECA4
:10178000E0EDE4E032374200CAEEECE0EDE4E032B6
:10179000384200CAEEECE0EDE4E032394200CAEE35
:1017A000ECE0EDE4E033304200CAEEECE0EDE4E0E2
:1017B00033314200CAEEECE0EDE4E033324200CADD
:1017C000EEECE0EDE4E031430000CAEEECE0EDE4E5
:1017D000E032430000CAEEECE0EDE4E03343000009
:1017E000CAEEECE0EDE4E034430000CAEEECE0EDDC
:1017F000E4E035430000CAEEECE0EDE4E0364300FF
:1018000000CAEEECE0EDE4E037430000CAEEECE0A5
:10181000EDE4E038430000CAEEECE0EDE4E03943EB
:101820000000CAEEECE0EDE4E031304300CAEEEC3B
:10183000E0EDE4E031314300CAEEECE0EDE4E0310C
:10184000324300CAEEECE0EDE4E031334300CAEE8F
:10185000ECE0EDE4E031344300CAEEECE0EDE4E02E
:1018600031354300CAEEECE0EDE4E031364300CA26
:10187000EEECE0EDE4E031374300CAEEECE0EDE4FD
:10188000E031384300CAEEECE0EDE4E031394300EA
:10189000CAEEECE0EDE4E032304300CAEEECE0EDFD
:1018A000E4E032314300CAEEECE0EDE4E0323243F2
:1018B00000CAEEECE0EDE4E032334300CAEEECE0C7
:1018C000EDE4E032344300CAEEECE0EDE4E0323522
:1018D0004300CAEEECE0EDE4E032364300CAEEEC41
:1018E000E0EDE4E032374300CAEEECE0EDE4E03254
:1018F000384300CAEEECE0EDE4E032394300CAEED2
:10190000ECE0EDE4E033304300CAEEECE0EDE4E07F
:1019100033314300CAEEECE0EDE4E033324300EE55
:10192000F8E8E1EAE00000000000E2FBEAEB2E004C
:101930000000000000EAE0EDE0EB20F1E22E000004
:10194000C0D1D320D2CF0000000000300000000042
:101950000000000000003141000000000000000015
:101960000032410000000000000000003341000090
:1019700000000000000000344100000000000000F2
:10198000000035410000000000000000003641006A
:1019900000000000000000003741000000000000CF
:1019A0000000003841000000000000000000394144
:1019B0000000000000000000003130410000000085
:1019C0000000000031314100000000000000003143
:1019D00032410000000000000000313341000000EF
:1019E0000000000000313441000000000000000051
:1019F0003135410000000000000000313641000098
:101A0000000000000000313741000000000000002D
:101A10000031384100000000000000003139410071
:101A20000000000000000032304100000000000013
:101A3000000032314100000000000000003232415D
:101A400000000000000000003233410000000000F0
:101A50000000003234410000000000000000323578
:101A6000410000000000000000323641000000008C
:101A7000000000003237410000000000000000328A
:101A80003841000000000000000032394100000031
:101A900000000000003330410000000000000000A2
:101AA00033314100000000000000003332410000EB
:101AB00000000000000031420000000000000000B3
:101AC000003242000000000000000000334200002D
:101AD0000000000000000034420000000000000090
:101AE0000000354200000000000000000036420007
:101AF000000000000000000037420000000000006D
:101B000000000038420000000000000000003942E0
:101B10000000000000000000003130420000000022
:101B200000000000313142000000000000000031E0
:101B3000324200000000000000003133420000008B
:101B400000000000003134420000000000000000EE
:101B50003135420000000000000000313642000034
:101B600000000000000031374200000000000000CB
:101B7000003138420000000000000000313942000E
:101B800000000000000000323042000000000000B1
:101B900000003231420000000000000000323242FA
:101BA000000000000000000032334200000000008E
:101BB0000000003234420000000000000000323516
:101BC0004200000000000000003236420000000029
:101BD0000000000032374200000000000000003228
:101BE00038420000000000000000323942000000CE
:101BF0000000000000333042000000000000000040
:101C00003331420000000000000000333242000087
:101C10000000000000003143000000000000000050
:101C200000324300000000000000000033430000C9
:101C3000000000000000003443000000000000002D
:101C400000003543000000000000000000364300A3
:101C5000000000000000000037430000000000000A
:101C6000000000384300000000000000000039437D
:101C700000000000000000000031304300000000C0
:101C8000000000003131430000000000000000317E
:101C90003243000000000000000031334300000028
:101CA000000000000031344300000000000000008C
:101CB00031354300000000000000003136430000D1
:101CC0000000000000003137430000000000000069
:101CD00000313843000000000000000031394300AB
:101CE000000000000000003230430000000000004F
:101CF0000000323143000000000000000032324397
:101D0000000000000000000032334300000000002B
:101D100000000032344300000000000000003235B3
:101D200043000000000000000032364300000000C5
:101D300000000000323743000000000000000032C5
:101D4000384300000000000000003239430000006A
:101D500000000000003330430000000000000000DD
:101D60003331430000000000000000333243000024
:101D7000000000000000CAD1310000000000000097
:101D800000CAD132000000000000000032303000F4
:101D900000000000000000343030000000000000AF
:101DA00000003100000000000000000000320000D0
:101DB0000000000000000000EDE5F200000000005F
:101DC000000000F7E5F20000000000000000EDE573
:101DD000F7E5F200000000000038000000000000FD
:101DE000000000003630300000000000000000312C
:101DF000323030000000000000003234303000008B
:101E00000000000000343830300000000000000006
:101E100039363030000000000000003139323030F7
:101E2000000000000000D1D2C0CDC4C0D0D200005C
:101E3000004D4F444255530000000000CCDDCA2D38
:101E40003130310000000055534200000000000016
:101E500000005253343835000000000000E2EAEB85
:101E60002E00000000000000E2FBEAEB2E00000064
:101E7000000000F2F0E5E2EEE6EDFBE90000EDEE39
:101E8000F0ECE0EBFCEDFBE900F1EFEEEAEEE9ED62
:101E9000FBE90000E1FBF1F2F0FBE900000000ECDF
:101EA000E5E4EBE5EDEDFBE900002D31303030C32A
:101EB000F6000000002D353030C3F60000000000B1
:101EC00030C3F600000000000000002B353030C3A6
:101ED000F600000000002B31303030C3F600000067
:101EE00000E0EAF22BEFE0F1F1000000E0EAF2E8B6
:101EF000E2EDFBE9000000EFE0F1F1E8E2EDFBE9E3
:101F000000003220EAEEEDF6E5E2E0FF003320EAE1
:101F1000EEEDF6E5E2E0FF00C4D4C72DCFF0CFE44C
:101F2000000000C4D4C72DCCCA3100000000C4D4C6
:101F3000C72DCCCA3200000000C4D4C72D4C3630A7
:101F400000000000CDC72DCFF0CFE400000000CD91
:101F5000C72DCCCA000000000000CFCFC72DCFF0A6
:101F6000CFE4000000CFCFC72DCCCA000000000096
:101F7000E2FBEAEB2E000000000000E2EAEB2E009C
:101F8000000000000000C2FBE2E5E4E5ED00000017
:101F900000C2E2E5E4E5ED0000000000D2E5F1F268
:101FA00020310000000000D2E5F1F22032000000F4
:101FB0000000020801060307010504020F0C0B09CB
:101FC0000D0E010102080106030704050102010EBE
:101FD0000B090101010A02080106030701050402B9
:101FE0000F0C10091112130D000000000000004F2B
:101FF00000000007000700147F147F14242A7F2AA2
:10200000122313086462364955224000050300007C
:10201000001C2241000041221C0014083E08140844
:10202000083E080800503000000808080808006052
:1020300060000020100804023E5149453E00427FE6
:10204000400042615149462141454B311814127FED
:102050001027454545393C4A494930017109050376
:102060003649494936064949291E003636000000DE
:1020700056360000081422410014141414140041B0
:102080002214080201510906324971413E7E1111A4
:10209000117E7F494949363E414141227F414122DB
:1020A0001C7F494949417F090909013E4149493A93
:1020B0007F0808087F00417F41002040413F017FA9
:1020C000081422417F404040407F020C027F7F0481
:1020D00008107F3E4141413E7F090909063E4151BA
:1020E000215E7F09192946464949493101017F018D
:1020F000013F4040403F1F2040201F3F4070403F75
:1021000063140814630708700807615149454300C8
:102110007F41410002040810200041417F00040279
:102120000102044040404040000102040020545499
:1021300054787F4844443838444444203844444820
:102140007F3854545418087E0901020C5252523EF2
:102150007F0804047800447D40002040443D007F17
:102160001028440000417F40007C041804787C085B
:1021700004047838444444387C14141408081414B3
:10218000187C7C080404084854545420043F4440FC
:10219000203C4040207C1C2040201C3C4030403CE7
:1021A00044281028440C5050503C4464544C440083
:1021B0000836410000007F0000004136080002019F
:1021C00002020114141414140E0A0E000024242F09
:1021D00024247F7F7F7F7F7F7F7F7F7F7F7F7F7FC5
:1021E0007F7F7F7F7F7F7F7F7F7F7F7F7F7F7F7FFF
:1021F0007F7F7F7F7F7F7F7F7F7F7F7F7F7F7F7FEF
:102200007F7F7F7F7F7F7F7F7F7F7F7F7F7F7F7FDE
:102210007F7F7F7F7F7F7F7F7E1111117E7F494986
:1022200049337F494949367F01010103E0514F415C
:10223000FF7F4949494177087F0877414949493635
:102240007F1008047F7C2112097C7F081422412022
:10225000413F017F7F020C027F7F0808087F3E41DB
:1022600041413E7F0101017F7F090909063E41414D
:10227000412201017F010147281008071C227F220B
:102280001C63140814637F404040FF070808087F60
:102290007F407F407F7F407F40FF017F4848307F05
:1022A0004830007F007F484830224149493E7F083E
:1022B0003E413E462919097F20545454783C4A4AED
:1022C00049317C545428007C0404040CE0544C44F0
:1022D000FC38545454186C107C106C4444545428EA
:1022E0007C2010087C7C4122117C7C10284400203A
:1022F000443C047C7C0810087C7C1010107C384422
:102300004444387C0404047C7C1414140838444489
:10231000442004047C04040C5050503C3048FC48D9
:102320003044281028447C404040FC0C1010107CA5
:102330007C407C407C7C407C40FC047C5050207C79
:102340005050207C7C5050200028445454387C103D
:10235000384438085434147C004226720107312670
:102360008A010123268A0103A5258A010615268AEA
:10237000010109268A0104FE258A0101F6258A0148
:1023800007E9258A0106DF258A0105D62572010E97
:10239000CC258A0106C325720103B6258A0106955C
:1023A000259A0000842572010873257201096A25A7
:1023B0007201065B255100004A2572010A39257217
:1023C00001102825720110172572011106257201CE
:1023D00012F524720113E524720104D5247201045C
:1023E000C524720105B52472010DA624720106955B
:1023F00024720102852472010B752472010C65247C
:1024000072010F552472010248247201013D2472A9
:1024100001022C248A01001C248A0101CEE4EDEE85
:10242000F1F22EF0E5E62E20E2EAEB00CEE4EDEE4E
:10243000F1F22EF0E5E62E20E2FBEAEB00D1E1F02E
:10244000EEF120E2F1E5F500D1E1F0EEF120F1E26C
:10245000EEE5E3EE00D1E1F0EEF120F3E4E0EBE5B0
:10246000EDEDFBF500D1E1F0EEF120F3E4E0EBE57A
:10247000ED2E203300D1E1F0EEF120F3E4E0EBE5C6
:10248000ED2E203200D1E1F0EEF120F3E4E0EBE5B7
:10249000ED2E203100D1E1F0EEF120F3E4E0EBE5A8
:1024A000EDEDEEE3EE00CFF3F1EA20F3E4E0EBE54F
:1024B000EDEDFBF500CFF3F1EA20F3E4E0EBE5ED21
:1024C000ED2E203300CFF3F1EA20F3E4E0EBE5ED6D
:1024D000ED2E203200CFF3F1EA20F3E4E0EBE5ED5E
:1024E000ED2E203100CFF3F1EA20F3E4E0EBE5ED4F
:1024F000EDEEE3EE00CFF3F1EA20F3E4E0EB2DFBA9
:10250000F520CCC0CD00CFF3F1EA20F3E4E0EB2ED0
:1025100020CCC0CD203300CFF3F1EA20F3E4E0EB90
:102520002E20CCC0CD203200CFF3F1EA20F3E4E03E
:10253000EB2E20CCC0CD203100CFF3F1EA20F3E424
:10254000E0EBE5ED2E20CCC0CD00CFF3F1EA20C0CA
:10255000CA20F3E4E0EBE5EDED2E00CFF3F1EA2045
:10256000EFF0E8E5ECEDE8EAE000CFF3F1EA20CFA8
:10257000D0C400CFF3F1EA20EDE0EBE0E42E20E25E
:10258000FBEAEB00CFF3F1EA20EDE0EBE0E42E20F4
:10259000E2EAEB2E00D1E1F0EEF120E8EDE4E8EA2A
:1025A000E0F6E8E800C0CA20EAEEEDF2F02EEFF027
:1025B000EEE2E5F02E00C0CA20E8F1EFFBF2E0ED1C
:1025C000E8FF00D1E1F0EEF120C0CA00C0CA20E768
:1025D000E0EFF0EEF100D0E5E6E8EC20C0CA00C084
:1025E000CA20E1E5E3EBFBE900CFF3F1EA20C0CA42
:1025F00020F1E2EEE900C0CA20EFF3F1EA00C0CA20
:1026000020E2EAEBFEF7E5ED00C0CA20E2FBEAEBD0
:10261000FEF7E5ED00C0CA20EDEEF0ECE0EBFCEDDE
:10262000FBE900C0CA20F3F1EAEEF0E5EDEDFBE9CD
:1026300000C0CA20E0E2F2EEECE0F2E8F7E5F1EAF1
:102640002E00C2FBE7EEE20000D3E425733A20CD72
:10265000E5E8F1EFF02E20F62EC2DBD500D3E4251D
:10266000733A20CDE5E8F1EFF02E20C4D4C700D3B3
:10267000E425733A20CFEEECE5F5E020E220EBE82C
:10268000ED00D3E425733A20C0CA202D20CDE5F219
:1026900020EEF2E200C0CA202D20CDE5F220EEF2BD
:1026A000E2E5F2E020257300C0CA202D20D1EDE83C
:1026B000E62EE7E0EFE0F1E020257300D1EEE1FB4C
:1026C000F2E8E5202D2025640020C8E7ECE5EDE8E0
:1026D000F2FC20EFE0F0E0ECE5F2F020200020201A
:1026E000ECEEE6EDEE20F2EEEBFCEAEE20E220204E
:1026F0002020002020F0E5E6E8ECE520C2DBC2C5A2
:10270000C4C5CD2020202000F7F2E5EDE8E52E2E0F
:1027100000F7F2E5EDE8E52E00256400EEF8E8E1CB
:10272000EAE021212100C7EDE0F7E5EDE8E53A20F8
:102730000025642E2EB125640025642E2E2564000C
:10274000E2EAEB2E2FE2FBEAEB2E00F1EFE8F1EEEE
:10275000EA00C4E8E0EFE0E7EEED3A2000CDEEEC71
:10276000E5F03A2025752F257500CDEEECE5F03A21
:102770002000CFE0F0E0ECE5F2F03A257520C2F160
:10278000E5E3EE3A257500CFF0E5E4F3EFF02E2017
:1027900025632D2530345800CDE5E8F1EFF02E20EB
:1027A00025632D253034580064463D25303264C3FE
:1027B000F600543D25303264B04300443D253032AC
:1027C00064E4C10053E43D25303275B00055F8256E
:1027D000753D25303264E4C10055F83D2530326442
:1027E000E4C100523D25303375CEEC00493D253023
:1027F0003375ECC000553D253032752E25303175CE
:10280000C20055EA25753D25303264E4C10055EA21
:102810003D25303264E4C10055E725753D25303251
:1028200064E4C10055E73D25303264E4C100253041
:1028300032753A253032753A2530327500253032FE
:10284000752E253032752E253032750025752E20D7
:1028500000CDEEE2FBE920EFE0F0EEEBFC3A2025C4
:1028600030347500CFE0F0EEEBFC3A2025303475C3
:102870000020202020202020C2E2E5E4E5ED2020F9
:1028800020202020200020202020EDE5EFF0E0E2B5
:10289000E8EBFCEDFBE92020202000202020202078
:1028A0002020EFE0F0EEEBFC202020202020200074
:1028B000C2E2EEE43A2000C2E2EEE43A20253031F2
:1028C000752E2530317500C2E2EEE43A2025303114
:1028D0006400CFD0CC323A2000CFD0CC313A2000A7
:1028E000D1E8E3EDE0EBFB20EFF0E8E5ECEDE8EA22
:1028F000E000D2E5F1F2FB5CCFF0E8E5ECEDE8EAD0
:1029000000D1E8E3EDE0EBFB20EFE5F0E5E4E0F2F9
:10291000F7E8EAE000D2E5F1F2FB5CCFE5F0E5E4B0
:10292000E0F2F7E8EA0020202020CFE5F0E5E9E436
:10293000E8F2E520E2202020202000202020F0E501
:10294000E6E8EC20C2DBC2C5C4C5CD2020202000B3
:10295000CDE0F1F2F0EEE9EAE05CD2E5F1F2FB0065
:10296000D2E5F1F220EFF0E8E5ECEDE8EAE000D2A4
:10297000E5F1F220EFE5F0E5E4E0F2F7E8EAE00067
:10298000CCE5EDFE5CC8E7ECE5F0E5EDE8FF00CD59
:10299000E0F1F2F0EEE9EAE05CC2F0E5ECFF26E4FB
:1029A000E0F2E000D1E5EAF3EDE4FB00CCE8EDF382
:1029B000F2FB00D7E0F1FB00C4E5EDFC00CCE5F153
:1029C000FFF600C3EEE400CDE0F1F2F0EEE9EAE05C
:1029D0005CC8EDF2E5F0F4E5E9F100CFE0F0E0EC01
:1029E000E5F2F0FB5CCAEEEBFCF6EE00CFE0F0E0C7
:1029F000ECE5F2F0FB5CCEE1F9E8E500CFE0F0E0D9
:102A0000ECE5F2F0FB5CCFE5F0E5E4E0F2F7E8EAB4
:102A100000CFE0F0E0ECE5F2F0FB5CCFF0E8E5ECB5
:102A2000EDE8EA00CFE0F0E0ECE5F2F0FB5CC7E0B7
:102A3000F9E8F2E000CDE0F1F2F0EEE9EAE05CCF97
:102A4000E0F0E0ECE5F2F0FB00CAEEEBFCF6EE00A5
:102A5000CEE1F9E8E500CFE5F0E5E4E0F2F7E8EAF9
:102A600000CFF0E8E5ECEDE8EA00C7E0F9E8F2E0D5
:102A700000CDE0F1F2F0EEE9EAE05CD0E5E6E8EC6A
:102A800000CCE5EDFE5CCDE0F1F2F0EEE9EAE0002D
:102A9000C8EDF2E5F0F4E5E9F100CFE0F0EEEBFC93
:102AA00000CFE0F0E0ECE5F2F0FB00C2F0E5ECFF77
:102AB00020E820E4E0F2E000D0E5E6E8EC00CCE538
:102AC000EDFE5CD3EFF0E0E2EBE5EDE8E500C6F308
:102AD000F0EDE0EB5CCFE5F0E5E4E0F2F7E8EA00EA
:102AE000C6F3F0EDE0EB5CCFF0E8E5ECEDE8EA00F2
:102AF000C6F3F0EDE0EB5CC7E0F9E8F2E000C6F306
:102B0000F0EDE0EB5CD1EEE1FBF2E8FF00CCE5EDAF
:102B1000FE5CC6F3F0EDE0EB00CFE5F0E5E4E0F2BB
:102B2000F7E8EA00CFF0E8E5ECEDE8EA00C7E0F905
:102B3000E8F2E000D1EEE1FBF2E8FF003A202530B8
:102B400032582E2530325800CCE5EDFE5CC8EDF44D
:102B5000EEF0ECE0F6E8FF00CCE5EDFE00C8E7ECB7
:102B6000E5F0E5EDE8FF00C8EDF4EEF0ECE0F6E8A6
:102B7000FF00D2E5F1F2FB00CDE0F1F2F0EEE9EA80
:102B8000E000D3EFF0E0E2EBE5EDE8E500C6F3F0BE
:102B9000EDE0EB00EEF8E8E1EAE000D1EEE2ECE592
:102BA000F1F2E8EC2E200020202020C8EDE8F6E825
:102BB000E0EBE8E7E0F6E8FF20202000202020ED11
:102BC000E520EEEFF0E5E4E5EBE5ED212121202025
:102BD0000020202020D2E8EF20E0EFEFE0F0E0F24C
:102BE000E02020202000CFF0E5E4F3EFF0E5E6E47C
:102BF000E5EDE8E500CDE5E8F1EFF0E0E2EDEEF13E
:102C0000F2FC0020CDE5F220F1E2FFE7E820F12020
:102C1000C1D1CF2121212000CFD0C400CFD0CC0002
:102C2000C7C0D900D1EEE1FBF2E8E5202D202564F4
:102C3000000000000000000000CDE5E8F1EFF0200A
:102C4000F7F22FE7E0EF20464C4153480000CDE576
:102C5000E8F1EFF020F7F22FE7E0EF203252414D9C
:102C6000000000CDE5E8F1EFF020F7F22FE7E0EF0C
:102C700020CFCBC8D1000000CAEEEBFCF6EE20ED71
:102C8000E0F0F3F8E5EDEE000000000000CDE5E82F
:102C9000F1EFF020F2E5F1F2E020CFD0C400000027
:102CA0000000CDE5E8F1EFF020E2FBEAEB2EF2E5E3
:102CB000F1F220CFD0C400CDE5E8F1EFF020F2E54D
:102CC000F1F2E020CFD0CC0000000000CDE5E8F12B
:102CD000EFF020F7F22EEAEEECE0EDE420C1D1CAED
:102CE00000CDE5F220E1EBEEEAE020C1D1CA000020
:102CF000000000000000CEF8E8E1EAE020E2E5F0A4
:102D0000F1E8E820C1D1CA00000000CEF2EAE0E715
:102D100020F0E5E7E5F0E22E20EBE8EDE8E8000042
:102D2000CDE5E8F1EFF0E0E2EDEEF1F2FC20F7E0C6
:102D3000F1EEE20000CAEEEBFCF6EE20E2EEF1F17D
:102D4000F2E0EDEEE2EBE5EDEE00C4E8F1F2E0EDED
:102D5000F6E8EEEDEDFBE920F1E1F0EEF10000CA5E
:102D6000EEECE0EDE4E020EDE520E2E5F0EDF3EB64
:102D7000E0F1FC00CDE5F220F1E8E3EDE0EBE0204E
:102D8000CCC0CD000000000000C2EAEB2EEFE8F25C
:102D90002FCFE5F0E5E7E0EFF3F1EA000000C8E748
:102DA000ECE5EDE5EDE8E520F0E5E6E8ECE0000037
:102DB000000000CDE5E8F1EFF020F6E5EFE820E2D5
:102DC000FBF52E0000000000C2EEF1F1F2E0ED2D67
:102DD000E520CAD120EDE020CFD0CC0000C2EEF13A
:102DE000F1F2E0ED2DE520CAD120C1D6CA310000B4
:102DF0000000C2EEF1F1F2E0ED2DE520CAD120C1D4
:102E0000D6CA3200000000CDE5F220CAD120C1D6DA
:102E1000CA3100000000000000000000CDE5F220F3
:102E2000CAD120C1D6CA3200000000000000000054
:102E300000C2FBEAEBFEF7E5EDE8E520EFE8F2E0A3
:102E4000EDE8FF000000CDE5F220CAD1000000004F
:102E50000000000000000000000000CDE5F220CAE4
:102E6000D1203520F1E5EAF3EDE400000000000098
:102E7000D3E43A20EFEEF1F220EDE5E8F1EFF0E0F7
:102E8000E2E5ED0000D3E43A20CFD0C420EDE5E840
:102E9000F1EFF0E0E2E5ED000000D3E43A20CFD01E
:102EA000CC20EDE5E8F1EFF0E0E2E5ED000000C850
:102EB000E7ECE5EDE5EDE8E520E4E0F2E02FE2F017
:102EC000E5ECFF00C8E7ECE5EDE5EDE8E520EFE037
:102ED000F0E0ECE5F2F0EEE200D1EEE1FBF2E8E545
:102EE000202D202564000000000000000000D1EE2D
:102EF000E1FBF2E8E5202D20256400000000000041
:102F0000000000D1EEE1FBF2E8E5202D2025640071
:102F10000000000000000000D1EEE1FBF2E8E52037
:102F20002D202564000000000000000000D1EEE12B
:102F3000FBF2E8E5202D20256400000000000000E1
:102F40000000D1EEE1FBF2E8E5202D202564000031
:102F500000000000000000D1EEE1FBF2E8E5202DCA
:102F6000202564000000000000000000D1EEE1FB1D
:102F7000F2E8E5202D20256400000000000000009C
:102F800000D1EEE1FBF2E8E5202D202564000000F1
:102F9000000000000000D1EEE1FBF2E8E5202D206A
:102FA0002564000000000000000000D1EEE1FBF20B
:102FB000E8E5202D2025640000000000000000004E
:102FC000D1EEE1FBF2E8E5202D20256400000000B1
:102FD0000000000000CDE5E8F1EFF020F7F22FE768
:102FE000E0EF20464C4153480000CDE5E8F1EFF01A
:102FF00020F7F22FE7E0EF203252414D000000CDE4
:10300000E5E8F1EFF020F7F22FE7E0EF20CFCBC8B3
:10301000D1000000D1EEE1FBF2E8E5202D2025648F
:10302000000000000000000000CDE5E8F1EFF02016
:10303000F2E5F1F2E020CFD0C40000000000CDE5C1
:10304000E8F1EFF020E2FBEAEB2EF2E5F1F220CF1F
:10305000D0C400CDE5E8F1EFF020F2E5F1F2E02098
:10306000CFD0CC0000000000CDE5E8F1EFF020F774
:10307000F22EEAEEECE0EDE420C1D1CA00CDE5F29B
:1030800020E1EBEEEAE020C1D1CA00000000000020
:103090000000CEF8E8E1EAE020E2E5F0F1E8E8201F
:1030A000C1D1CA00000000CEF2EAE0E720F0E5E777
:1030B000E5F0E22E20EBE8EDE8E80000CDE5E8F1F0
:1030C000EFF0E0E2EDEEF1F2FC20F7E0F1EEE200ED
:1030D00000CDE5F220E1EBEEEAE020C1D1C700002F
:1030E000000000000000CEF8E8E1EAE020E2E5F0B0
:1030F000F1E8E820C1D1C700000000CDE5E8F1EF1C
:10310000F020EFE5F0E5EAEB2DE5E920C1D1C700BD
:10311000CDE5F220F1E8E3EDE0EBE020CCC0CD001E
:103120000000000000C2EAEB2EEFE8F22FCFE5F03E
:10313000E5E7E0EFF3F1EA000000C8E7ECE5EDE5D4
:10314000EDE8E520F0E5E6E8ECE00000000000CD69
:10315000E5E8F1EFF020F6E5EFE820E2FBF52E00E0
:1031600000000000C2EEF1F1F2E0ED2DE520CAD141
:1031700020EDE020CFD0CC0000CEF8E8E1EAE0205E
:10318000F0E0E1EEF2FB20D6CF0000000000C2EE3E
:10319000F1F1F2E0ED2DE520F0E0E1EEF2FB20D6DA
:1031A000CF0000CEF2F1F3F22DE520F1E8E3EDE0FF
:1031B000EBE020CFF3F1EA00CEF2F1F3F22DE520BF
:1031C000F1E8E3ED20CEF1F2E0EDEEE200C2FBEA41
:1031D000EBFEF7E5EDE8E520EFE8F2E0EDE8FF00D3
:1031E0000000CDE5F220CAD1000000000000000080
:1031F00000000000000000CDE5F220CAD1203520FB
:10320000F1E5EAF3EDE4000000000000D3E43A2029
:10321000EFEEF1F220EDE5E8F1EFF0E0E2E5ED00B0
:1032200000D3E43A20CFD0C420EDE5E8F1EFF0E0A0
:10323000E2E5ED000000D3E43A20CFD0CC20EDE56C
:10324000E8F1EFF0E0E2E5ED000000C8E7ECE5EDC5
:10325000E5EDE8E520E4E0F2E02FE2F0E5ECFF0048
:10326000C8E7ECE5EDE5EDE8E520EFE0F0E0ECE5C2
:10327000F2F0EEE200D1EEE1FBF2E8E5202D2025B0
:1032800064000000000000000000D1EEE1FBF2E865
:10329000E5202D202564000000000000000000D182
:1032A000EEE1FBF2E8E5202D20256400000000009F
:1032B00000000000D1EEE1FBF2E8E5202D202564BE
:1032C000000000000000000000D1EEE1FBF2E8E5A4
:1032D000202D202564000000000000000000D1EE39
:1032E000E1FBF2E8E5202D2025640000000000004D
:1032F000000000D1EEE1FBF2E8E5202D202564007E
:103300000000000000000000D1EEE1FBF2E8E52043
:103310002D202564000000000000000000D1EEE137
:10332000FBF2E8E5202D20256400000000000000ED
:103330000000D1EEE1FBF2E8E5202D20256400003D
:1033400000000000000000D1EEE1FBF2E8E5202DD6
:10335000202564000000000000000000D1EEE1FB29
:10336000F2E8E5202D203000000000000000000001
:1033700000CDE5E8F1EFF020F7F22FE7E0EF20468F
:103380004C4153480000C2D720F2F0E0EAF220E2BC
:10339000EEF1F1F2E0EDEEE2EB2E00CDE5E8F1EF3B
:1033A000F020F7F22FE7E0EF20CFCBC8D1000000EC
:1033B000C0E2F2EEEAEEEDF2F0EEEBFC000000000F
:1033C0000000000000D2EEEA20EFEEEAEEFF00007F
:1033D00000000000000000000000CDE5E8F1EFF083
:1033E00020F7F22FE7E0EF203252414D000000CDF0
:1033F000E5E8F1EFF020F0E0E1EEF2FB204453507D
:1034000000000000C2EEF1F1F2E0ED2DE520F0E069
:10341000E1EEF2FB2044535000CDE8E7EAEEE52070
:10342000EDE0EFF02E20E2FBF5EEE4E00000C2FB61
:10343000F1EEEAEEE520EDE0EFF02E20E2FBF5EE16
:10344000E4E000CDE0F0F3F8E5ED20EEE1ECE5EDB1
:1034500020F120D3CC000000CDE5E8F1EFF0E0E270
:10346000EDEEF1F2FC20F7E0F1EEE20000CDE5F246
:1034700020E1EBEEEAE020C1D1C70000000000002F
:103480000000CEF8E8E1EAE020E2E5F0F1E8E8202B
:10349000C1D1C700000000CDE5E8F1EFF020EFE575
:1034A000F0E5EAEB2DE5E920C1D1C700CDE5F2203A
:1034B000F1E8E3EDE0EBE020CCC0CD00000000003F
:1034C00000C2EAEB2EEFE8F22FCFE5F0E5E7E0EF00
:1034D000F3F1EA000000C8E7ECE5EDE5EDE8E520F2
:1034E000F0E5E6E8ECE00000000000CDE5E8F1EFF3
:1034F000F020E7E0EF2E20E2FBF52EF6E5EFE80006
:10350000C8E7ECE5EDE5EDE8E520EFE0F0E0ECE51F
:10351000F2F0EEE200C0CA202D20D1EDE8E6E5EDA4
:10352000E8E520E7E0EFE0F1E000C0CA202D20CD83
:10353000E5F220EEF2E2E5F2E0000000000000CE4D
:10354000F2F1F3F22DE520F1E8E3EDE0EBE020CF3E
:10355000F3F1EA00CEF2F1F3F22DE520F1E8E3ED2C
:1035600020CEF1F2E0EDEEE200C2FBEAEBFEF7E581
:10357000EDE8E520E0EFEFE0F0E0F2E00000CFEE74
:10358000ECE5F5E020E220EBE8EDE8E800000000E3
:10359000000000CDE5E8F1EFF0E0E2EDEEF1F2FC45
:1035A00020C4D4C700000000D3E43A20C0CA202DB4
:1035B00020EDE5F220EEF2E2E5F2E00000D3E43A9D
:1035C00020CFEEECE5F5E020E220EBE8EDE8E800C6
:1035D0000000D3E43A20CDE5E8F1EFF02E20C4D48A
:1035E000C7000000000000D3E43A20CDE5E8F1EF89
:1035F000F02E20F6E5EFE820E2FBF500CFEEF0EE4E
:10360000E320EFEE20EFEEECE5F5E5000000000032
:1036100000C8E7ECE5EDE5EDE8E520E2F0E5ECE5F6
:10362000EDE800000000D7E0F1FB00000000000022
:103630000000000000000000000000CFEEECE5F507
:10364000E00000000000000000000000000000009A
:10365000C4E0EBFCEDE8E900000000000000000021
:103660000000000000D1E1F0EEF120F1E2EEE5E330
:10367000EE000000000000000000D1E1F0EEF120BB
:10368000EEF220F3E4E0EBE5EDEDEEE3EE0000D149
:10369000E1F0EEF120C0CA000000000000000000D0
:1036A00000000000D1E1F0EEF120C0CA20EFEE20D2
:1036B000E2F52EF3EFF02E3100D1E1F0EEF120C073
:1036C000CA20EEF220F3E4E0EBE5ED2E0000CFF3AC
:1036D000F1EA20C0CA000000000000000000000065
:1036E000000000D1EEE1FBF2E8E5202D202564008A
:1036F0000000000000000000C2EAEB2E20EFE8F21C
:10370000E0EDE8FF2FEFE5F0E5E7E0EF00C2FBEAD0
:10371000EBFEF7E5EDE8E520EFE8F2E0EDE8FF008D
:103720000000C8E7ECE5EDE5EDE8E520F0E5E6E8CA
:10373000ECE020F0E0E100D3E4E0EBE5EDEDFBE9C7
:1037400020EDE5E8F1EFF0E0E2E5ED00CDE5E8F1B0
:10375000EFF020F2E5F1F2E020CFD0C4000000004D
:1037600000CDE5E8F1EFF020F2E5F1F2E020CFD076
:10377000CC0000000000CDE5E8F1EFF020E1EBEE39
:10378000EAE020C1D1C70000000000CDE5E8F1EF7C
:10379000F020E1EBEEEAE020C1D1CA000000000019
:1037A000CDE5E8F1EFF020EFE5F0E5EAEB2DE5E916
:1037B00020C1D1C700CDE5F220F1E8E3EDE0EBE078
:1037C00020ECE0EDE8EFF3EB2E00CDE5E8F1EFF0D3
:1037D00020E2FBF5EEE4EDEEE920F6E5EFE800CDC2
:1037E000E5F220D0C7203520F1E5EA20EDE02025E4
:1037F00073000000CEF2F1F3F22DE520F1E8E3EDE5
:10380000E0EBE020CFF3F1EA00CEF2F1F3F22DE5A8
:1038100020F1E8E3EDE0EBE020D1F2EEEF00CDE5C2
:10382000E8F1EFF020F7F2E5EDE8FF20EAEEECE05A
:10383000EDE400D1EDE8E62E20F3F02E20CAD720EB
:10384000EDE0202573000000CDE5E8F1EFF02E203B
:10385000F0E0E1EEF2FB20445350000000C2EEF134
:10386000F1F2E0ED2DE520F0E0E1EEF2FB20445333
:103870005000CDE8E7EAEEE520EDE0EFF02E20E2A3
:10388000FBF5EEE4E00000C2FBF1EEEAEEE520ED30
:10389000E0EFF02E20E2FBF5EEE4E000CDE5F220D3
:1038A000CAD7203520F1E5EA20EDE020257300009D
:1038B00000CDE5F220CAD720EDE0202573000000FE
:1038C000000000000000C2EEF1F1F2E0ED2DE52075
:1038D000CAD720EDE0202573000000C2EEF1F1F21E
:1038E0002E20F3F02ECAD720EDE020257300000033
:1038F000CDE5E8F1EFF020F7F22FE7E0EF203252CC
:10390000414D000000CDE5E8F1EFF020F7F22FE7A0
:10391000E0EF20CFCBC8D1000000CDE5E8F1EFF01B
:1039200020F7F22FE7E0EF20464C4153480000CD4E
:10393000E5E8F1EFF0E0E2EDEEF1F2FC20F7E0F186
:10394000EEE20000D1EDE8E62E20F3F02E20D0C705
:1039500020EDE0202573000000C2EEF1F1F2E0ED71
:103960002DE520D0C720EDE0202573000000CDE537
:10397000F220D0C720EDE0202573000000000000F9
:10398000000000C2EEF1F1F22E20F3F02ED0C7209D
:10399000EDE0202573000000C8E7ECE5EDE5EDE87B
:1039A000E520EFE0F0E0ECE5F2F0EEE200C8E7EC55
:1039B000E5EDE5EDE8E520E4E0F2E02FE2F0E5EC0E
:1039C000FF00CFF0E8E5EC20D0C720E220EEE4EDE8
:1039D000EEF1F2EEF02E00CDE5F220D0C720E2208D
:1039E000EEE4EDEEF1F2EEF02E000000C2D720F290
:1039F000F0E0EAF220E2EEF1F1F2E0EDEEE2EB2EA1
:103A000000C2EAEB2E20EEE4EDEEF1F2EEF02E2015
:103A1000F0E5E6E8EC00C2FBEAEB20EEE4EDEEF1C7
:103A2000F2EEF02E20F0E5E6E8EC00D1E1F0EEF168
:103A300020C2D720F2F0E0EAF220E2EEF1F1F2004B
:103A4000D1EEE1FBF2E8E5202D2025640000000026
:103A50000000000000D1EEE1FBF2E8E5202D20257A
:103A600064000000000000000000D1EEE1FBF2E87D
:103A7000E5202D202564000000000000000000D19A
:103A8000EEE1FBF2E8E5202D203000000000000010
:103A900000000000C2EAEB2E20EFE8F2E0EDE8FFC4
:103AA0002FEFE5F0E5E7E0EF00C2FBEAEBFEF7E51C
:103AB000EDE8E520EFE8F2E0EDE8FF000000C8E700
:103AC000ECE5EDE5EDE8E520F0E5E6E8ECE020F0FA
:103AD000E0E100C8E7ECE5EDE5EDE8E520EFE0F03A
:103AE000E0ECE5F2F0EEE200CDE5E8F1EFF020F2F7
:103AF000E5F1F2E020CFD0C40000000000CDE5E801
:103B0000F1EFF020F2E5F1F2E020CFD0CC000000A0
:103B10000000D1EEE1FBF2E8E5202D2037000000A7
:103B200000000000000000CDE5E8F1EFF020E1EB3F
:103B3000EEEAE020C1D1CA0000000000C8E7ECE5D1
:103B4000EDE5EDE8E520E4E0F2E02FE2F0E5ECFF62
:103B500000D1EEE1FBF2E8E5202D2031300000003D
:103B6000000000000000D1EEE1FBF2E8E5202D208E
:103B70003131000000000000000000D1EEE1FBF256
:103B8000E8E5202D20313200000000000000000098
:103B9000C0E2E0F0E8FF20EFEE204400000000006B
:103BA0000000000000CFF0E5E4F3EFF0E5E6E4E527
:103BB000EDE8E520EFEE20440000CDE5E8F1EFF080
:103BC00020F7F2E5EDE8FF20EAEEECE0EDE400C2DC
:103BD000EEF1F1F2E0EDEEE2EBE5EDE8E520440098
:103BE00000000000CDE5E8F1EFF02E20F0E0E1EE7E
:103BF000F2FB20445350000000C2EEF1F1F2E0ED80
:103C00002DE520F0E0E1EEF2FB2044535000CDE83A
:103C1000E7EAEEE520EDE0EFF02E20E2FBF5EEE442
:103C2000E00000C2FBF1EEEAEEE520EDE0EFF02E61
:103C300020E2FBF5EEE4E000CDE5F220CAD7203526
:103C400020F1E5EA20EDE0202573000000CDE5F24B
:103C500020CAD720EDE020257300000000000000FE
:103C60000000C2EEF1F1F2E0ED2DE520CAD720ED23
:103C7000E0202573000000C2EEF1F1F22EF3F02EE9
:103C800020CAD720EDE0202573000000CDE5E8F143
:103C9000EFF020F7F22FE7E0EF203252414D000025
:103CA00000CDE5E8F1EFF020F7F22FE7E0EF20CFCD
:103CB000CBC8D1000000CDE5E8F1EFF020F7F22FFE
:103CC000E7E0EF20464C4153480000CDE5E8F1EF36
:103CD000F0E0E2EDEEF1F2FC20F7E0F1EEE20000C0
:103CE000D1EDE8E62EF3F02E20CAD720EDE0202516
:103CF0007300000000CEF8E8E1EAE020F0E0E1EE39
:103D0000F2FB20D6CF0000000000C2F5EEE4205206
:103D10005820D6CF20EFF3F1F2000000000000D0D1
:103D2000E0E1EEF2E020D6CF20E2EEF1F1F2E0EDBC
:103D3000EEE2EB00C2FBF1EEEAE0FF20F2E5ECEF91
:103D4000E5F0E0F2F3F0E00000CDE8E7EAE0FF2084
:103D5000F2E5ECEFE5F0E0F2F3F0E0000000CDEE8C
:103D6000F0ECE0EB2E20F2E5ECEFE5F0E0F2F3F022
:103D7000E00000CDE5E8F1EFF02EE4E0F2F7E8EA4C
:103D800020F2E5ECEFE5F000C8F1EFF0E0E22EE420
:103D9000E0F2F7E8EA20F2E5ECEFE5F000D1EEE141
:103DA000FBF2E8E5202D2025640000000000000063
:103DB0000000D1EEE1FBF2E8E5202D2025640000B3
:103DC00000000000000000D1EEE1FBF2E8E5202D4C
:103DD000202564000000000000000000D1EEE1FB9F
:103DE000F2E8E5202D20256400000000000000001E
:103DF00000D1EEE1FBF2E8E5202D20256400000073
:103E0000000000000000D1EEE1FBF2E8E5202D20EB
:103E10002564000000000000000000CAEEECE0EDA8
:103E2000E4E020EFF0E8EDE8ECE0E5F2F1FF00CAB5
:103E3000EEECE0EDE4E020EFE5F0E5E4E0E5F2F1C2
:103E4000FF00CAEEECE0EDE420EDE5F200CEEAEE94
:103E5000EDF7E0EDE8E520EAEEECE0EDE4FB000054
:103E60000000CDE0F7E0EBEE20EAEEECE0EDE4FB65
:103E700000000000000000CEF8E8E1EEF7EDEEE50E
:103E800020E7EDE0F7E5EDE8E500000000000000C8
:103E90000028D6CF290028CED82900CF2564D125E7
:103EA00064CC256420CFC42564CFCC2564C2DBD587
:103EB000256400D1D7C8D2DBC2C0CDC8C520C7C0D9
:103EC000CFC8D1C800C2F0E5ECFF3A2025303275EA
:103ED0003A253032753A253032752E25303375004B
:103EE000C4E0F2E03A20253032752E253032752EAE
:103EF0002530327500CAEEECE0EDE4E03A2025759D
:103F000020257300CAEEECE0EDE4E03A20257500D0
:103F1000D1EEF1F2EEFFEDE8E53A00D0E5E6E8ECAF
:103F20003A00C7E0EFE8F1FC202575202F20257529
:103F3000202825752900C7E0EFE8F1FC2025752031
:103F40002F20257500C6D3D0CDC0CB20CFD3D1D262
:103F500000C7EDE0F7E5EDE8E53A2000C2F5EEE454
:103F600020525820D6CF20EFF3F1F200CEF8E8E14E
:103F7000EAE020F0E0E1EEF2FB20D6CF00CDE5E86C
:103F8000F1EFF02EE2F5EEE42E20EAEEEC00CDE5C6
:103F9000E8F1EFF02EE2EAEB2E20D2E5F1F200CDCF
:103FA000E5E8F1EFF02EE2FBEAEB2ED2E5F1F200CC
:103FB000CDE5E8F1EFF02EF7F22EEAEEECE0EDE4DD
:103FC00000CDE5E8F1EFF02EE2E5F0F12E20C1D1D1
:103FD000CA00CDE5F220E1EBEEEAE020C1D1CA0053
:103FE000CDE8E7EAE8E920F3F0EEE2E5EDFC204475
:103FF00000C2F5EEE420525820D6CF20EFF3F1F2C4
:1040000000CEF8E8E1EAE020F0E0E1EEF2FB20D6B5
:10401000CF00CDE5F220CAD100D1EDE8E62E20F3A5
:10402000F0EEE2EDFF20CFD0CC00CDE5E8F1EFF0EF
:104030002EEAEEEDF2F02EEAEEEC00CDE5E8F1EF3F
:10404000F02EE2EAEB2E20EAEEEC2E00CDE5E8F1D0
:10405000EFF02EE2FBEAEB2EEAEEEC2E00CDE5E8E7
:10406000F1EFF02EE7E0EF2E20C1D1CA00CDE8E756
:10407000EAE8E920F3F0EEE2E5EDFC204400CDE5CE
:10408000F220CAD100CDE5F220CAD700CDE5E8F193
:10409000EFF02EE2E5F0F12E20C1D1CA00CDE5F21D
:1040A00020E1EBEEEAE020C1D1CA00D7E0F1FB004D
:1040B000CFEEECE5F5E000C0E2F2EEEAEEEDF2F074
:1040C000EEEBFC00CFF0E8E5EC20D0C720E220EEDC
:1040D000E4EDEEF100CFEEF0EEE320EFEE20EFEEB8
:1040E000ECE5F5E500CDE5F220F1E8E3EDE0EBE00D
:1040F00020CCC0CD00CDE5F220CAD100CDE8E7EA62
:10410000E8E920F3F0EEE22E20D0C700C0CA2DD19E
:10411000ED2EE7E0EFE0F1E020257300D3E4E0EBE3
:104120002E20EDE5E8F1EFF0E0E2E5ED00CDE5E889
:10413000F1EFF02E20C4D4C700CDE5F220F1E8E382
:10414000EDE0EBE020D0C700CFEEECE5F5E020E2BB
:1041500020EBE8EDE8E800CDE5E8F1EFF02EE7E050
:10416000EF2E20C2DBD500D3E4E0EB2EEEE1ED2E06
:10417000EFEEEC2E257300CDE5E8F1EFF02EF6E53D
:10418000EFFC20C2DBD500D3E4E0EB2EE1E5E72035
:10419000EEF2E22E257300CDE5E8F1EFF02EE2F528
:1041A000EEE42ED1D2CECF00CDE5E8F1EFF02EE255
:1041B000F5EEE42ECFD3D1CA00CDE5E8F1EFF02E35
:1041C000F3E42EC2DBD5257300CDE5E8F1EFF02E48
:1041D000F3E42EC4D4C7257300CDE5F220CAD10084
:1041E000C0CA2DCDE5F220EEF2E2E5F2E025730043
:1041F000C4E0EBFCEDE8E900C2D720F2F0E0EAF21F
:1042000020E2EEF1F1F22E00CDE5E8F1EFF02EEF35
:10421000E5F0E5EAEB2E00CDE5E8F1EFF02EE2E582
:10422000F0F12EC1D1C700CDE5F220E1EBEEEAE0DE
:1042300020C1D1C700CDE5F220CAD120EDE020C1D8
:10424000D6CA3200CDE5F220CAD120EDE020C1D699
:10425000CA3100CEF8E8E1EAE020F0E0E1EEF2FB5E
:1042600020D6CF00D3E4E0EB2ECFD0CC20EDE5E894
:10427000F1EFF000D3E4E0EB2ECFD0C420EDE5E881
:10428000F1EFF000CDE5E8F1EFF02E20E4E0F22EC2
:10429000F2E5ECEF00D3E4E0EB2ECFCED1D220ED6F
:1042A000E5E8F1EFF000CAEEEBFCF6EE20EDE0F011
:1042B000F3F8E5EDEE00CDE8E7EAE0FF20F2E5EC0B
:1042C000EFE5F0E0F200CAEEEBFCF6EE203220ED76
:1042D000E0F0F3F82E00CAEEEC2EEDE520E2E5F07A
:1042E000EDF3EBE0F1FC00C2FBF1EEEAE0FF20F2BF
:1042F000E5ECEFE5F0E0F200CAEEEBFCF6EE203183
:1043000020EDE0F0F3F82E00CEF2EAE0E720F0E551
:10431000E7E5F0E22EEBE8ED00D3F1F2E0EDEEE2BE
:10432000E8F2E520F7E0F1FB00C2D720F2F0E0EA86
:10433000F220E2EEF1F1F22E00CDE5E8F1EFF02E01
:1043400020CCCA20D3CC00C2FBF1EEEAEEE520ED92
:10435000E0EFF02EE2FBF500CDE8E7EAEEE520ED38
:10436000E0EFF02EE2FBF500D2EEEA20EFEEEAEE0F
:10437000FF00CDE5E8F1EFF02EF7F22E20325241AA
:104380004D2000CDE5E8F1EFF02E4453502032529D
:10439000414D2000CFEEECE5F5E020E220EBE8ED2A
:1043A000E8E800C0CA2DD1EDE8E6E5ED2EE7E0EF44
:1043B000E0F1E000C0CA2DCDE5F220EEF2E2E5F238
:1043C000E000CDE5E8F1EFF02EE7E0EF2E325241CC
:1043D0004D00CDE5E8F1EFF02EE7E0EF2E504C492F
:1043E0005300CDE5E8F1EFF02EF7F22E20504C49C6
:1043F0005300CDE5E8F1EFF02EE7E0EF2E464C411B
:10440000534800CDE5E8F1EFF02EF7F22E20464CB0
:10441000415348003F307830453F00D3EFF02E2025
:10442000D2CC00CFD0CC00CFD0C400D0E5F7FC0078
:10443000D1E8F1F2E5EC2E00CFD0C420D6CF253064
:104440003275003F307830373F00CEE6E8E4E0EDEB
:10445000E8E500CF2EEDE5E8F1EFF000CDE5E8F17D
:10446000EFF02E00CDE5F220CAD100CDE5F220CA52
:10447000D700CFD0C420CFC02530327500CFD0C4F4
:1044800020CAD12530317500CFD0C420CAD72530FD
:10449000317500C8F1F5EEE4ED2E003F307830457F
:1044A0003F00CEE4EDEEF1F22E00D3EFF02E20D25D
:1044B000CC00CFD0CC00CFD0C400D0E5F7FC003F7B
:1044C000307830393F003F307830383F00C1CBCAB8
:1044D00020CACC2530327500CEE6E8E4E0EDE8E510
:1044E00000CF2EEDE5E8F1EFF000CDE5E8F1EFF0DB
:1044F0002E00CDE5F220CAD100CDE5F220CAD700CA
:10450000CFD0CC20CFC02530327500CFD0CC20CA40
:10451000D12530317500CFD0CC20CAD725303175A8
:1045200000C8F1F5EEE4ED2E003F307830453F0055
:10453000CEE4EDEEF1F22E00D3EFF02E20D2CC003F
:10454000CFD0CC00CFD0C400D0E5F7FC00CDE5F251
:1045500020CAD100CDE5F220D0C700D3E42EEFF37E
:10456000F1EA00CDE0EB2EEFF3F1EA00CEE6E8E46D
:10457000E0EDE8E500CF2EEDE5E8F1EFF000CDE568
:10458000E8F1EFF02E00CEF1F2E0EDEEE200CFF335
:10459000F1EA00CAEEEDF2F0EEEBFC00C8F1F5EE48
:1045A000E4ED2E00CEF8E8E1EAE000202020000053
:1045B000000000000000203120000000000000008A
:1045C00000203220000000000000000031203200F6
:1045D0000000000000000020332000000000000068
:1045E00000003120330000000000000000322033C2
:1045F0000000000000000000203F2000000000003C
:104600000000002020202020200028CFD0CC3129FD
:104610000028CFD0CC3229002020202020200020CC
:1046200020202020200028CF312C322900202020DB
:1046300020202000202020202020002020202020BA
:10464000200028CFD0CC31290028CFD0CC3329006E
:10465000202020202020002020202020200028CFE3
:10466000312C332900202020202020002020202051
:104670002020002020202020200028CFD0CC32294C
:104680000028CFD0CC33290020202020202000205B
:1046900020202020200028CF322C33290020202069
:1046A0002020200020202020202000C7C0D900008A
:1046B000CFD0CC3100CFD0CC3200CFD0C40000CE90
:1046C000C1D90000CF312C3200CED8C10000C2FBCE
:1046D000E2E5E4E5ED00C3EEF2EEE2000000C2E246
:1046E000E5E4E5ED0000D0E5F7FC00000000D2E5D0
:1046F000F1F200000000D2E5F1F200000000EEF857
:10470000E8E1EAE00000C1D1CF20CCCA202000C1FE
:10471000D1CF20D6D1CF2000D6D1CF20CFCBC8D17A
:1047200000CFC82020CCCA202000C1D1CA20CFD0C1
:10473000C43100C1D1CA20CFD0C43200C1D1CA20F7
:10474000CFD0CC3100C1D1CA20CFD0CC3200C1D122
:10475000C720CFCBC8D100EEF8E8E1EAE0000000C6
:10476000C0CA2DEEF8E8E10000C0CA2DEDEEF0EC75
:104770000000C0CA2DEDEEF0EC0000C0CA2DF3F130
:10478000EAEEF000C0CA2DE2FBEAEB0000C0CA2D41
:10479000E1E5E3EB0000C0CA2DE8F1EFFBF200C059
:1047A000CA2DEFF3F1EA0000C0CA2DEEE4EDEEF100
:1047B00000C0CA2DEEF8E8E10000C0CA2DE0E2F228
:1047C000EE0000C0CA2DEFF0EEE2000025303264AA
:1047D0003A253032643A253032640000000000008F
:1047E000ECC0000000C000000000EAC0000000C2F1
:1047F00000000000EAC2000000ECF10000006300CD
:10480000000000F7E0F10000E4C1000000C3F60082
:104810000000EAC3F60000E3F0E0E400ECE8ED009D
:1048200000CDC5D20000C900CA00CB00CC00CD002D
:10483000CE00CF002D012E012F01300131013201B8
:1048400033013401350136013701380139013A01AC
:104850003B013C013D013E013F014001410142015C
:1048600043014401450146014701480149014A010C
:104870004B014C019001910192019301940195012A
:1048800096019701980199019A019B019C019D0154
:104890009E019F01A001A101A201A301A401A50104
:1048A000A601A701A801A901AA01AB01AC01AD01B4
:1048B000AE01AF01B001C201C301C401C501C6010F
:1048C000C701C801C901CA01CB01CC01CD01CE018C
:1048D000CF01D001D101D201D301D401D501D6013C
:1048E000D701D801D901DA01DB01DC01DD01DE01EC
:1048F000DF01E001E101E501E601E701F401F50175
:10490000F601F701F801F901FA01FB01FC01FD01D3
:10491000FE01FF010002010202020302040205027D
:1049200006020702080209020A020B020C020D022B
:104930000E020F02100211021202130214022602CA
:104940002702280229022A022B022C022D022E0203
:104950002F023002310232023302340235023602B3
:104960003702380239023A023B023C023D023E0263
:104970003F02400241024202430244024502490210
:104980004A024B024C02580259025A025B025C0274
:104990005D025E025F026002610262026302640203
:1049A000650266026702680269026A026B026C02B3
:1049B0006D026E026F027002710272027302740263
:1049C00075027602770278025669727475616C001E
:1049D00000C0C101C30302C2C60607C705C5C4049F
:1049E000CC0C0DCD0FCFCE0E0ACACB0BC90908C80F
:1049F000D81819D91BDBDA1A1EDEDF1FDD1D1CDCFF
:104A000014D4D515D71716D6D21213D311D1D0106E
:104A1000F03031F133F3F23236F6F737F53534F45E
:104A20003CFCFD3DFF3F3EFEFA3A3BFB39F9F838CE
:104A300028E8E929EB2B2AEAEE2E2FEF2DEDEC2CBE
:104A4000E42425E527E7E62622E2E323E12120E02E
:104A5000A06061A163A3A26266A6A767A56564A41E
:104A60006CACAD6DAF6F6EAEAA6A6BAB69A9A8688E
:104A700078B8B979BB7B7ABABE7E7FBF7DBDBC7C7E
:104A8000B47475B577B7B67672B2B373B17170B0EE
:104A900050909151935352929656579755959454DE
:104AA0009C5C5D9D5F9F9E5E5A9A9B5B995958984E
:104AB000884849894B8B8A4A4E8E8F4F8D4D4C8C3E
:104AC00044848545874746868242438341818040AE
:104AD00000C1814001C0804101C0804100C18140CE
:104AE00001C0804100C1814000C1814001C08041BE
:104AF00001C0804100C1814000C1814001C08041AE
:104B000000C1814001C0804101C0804100C181409D
:104B100001C0804100C1814000C1814001C080418D
:104B200000C1814001C0804101C0804100C181407D
:104B300000C1814001C0804101C0804100C181406D
:104B400001C0804100C1814000C1814001C080415D
:104B500001C0804100C1814000C1814001C080414D
:104B600000C1814001C0804101C0804100C181403D
:104B700000C1814001C0804101C0804100C181402D
:104B800001C0804100C1814000C1814001C080411D
:104B900000C1814001C0804101C0804100C181400D
:104BA00001C0804100C1814000C1814001C08041FD
:104BB00001C0804100C1814000C1814001C08041ED
:104BC00000C1814001C0804101C0804100C18140DD
:104BD000C0C2C0CDD2202564256425642D5800C0F4
:104BE000C2C0CDD220CECFD2CE2D2564256425647F
:104BF0002DCE00C0C2C0CDD220D0343030CC2D312B
:104C000030302DC200C0C2C0CDD220CA3430302DC9
:104C100030256425642DC200C0C2C0CDD220D0C7CB
:104C2000D1CA2D2564256425642DC200C0C2C0CD23
:104C3000D220D03430302D3130302DC20000072941
:104C4000632C992E11241FBECFEFD0E1DEBFCDBF64
:104C500011E0A0E0B1E0EAE3F4E401E00BBF02C040
:104C600007900D92A239B107D9F72CE0A2E9B1E083
:104C700001C01D92A938B207E1F716E2C2E2D6E2FE
:104C800004C02197FE010E94859ECF31D107C9F74C
:104C900044D00C941BA20C940000CF93DF93FC0132
:104CA00080819481891798F4C581D681A181B281D0
:104CB000A80FB11D8C91888381819281208131E080
:104CC000320F3083FC01E20FF11D108206C0058413
:104CD000F685E02D80818F7D8083DF91CF910895CF
:104CE000FC0110821482A585B6858C9180688C9316
:104CF0000584F685E02D80818F7B808308950F9356
:104D0000CF93C82F84EA91E04AD5CC2311F0949A2E
:104D100001C09498CF910F91089501E020E040E008
:104D200060EC72E183E991E03AD50AD748E050E0BF
:104D300060E170E088EB91E00E94EBA11FBA1EBA1F
:104D40008091B8019091B901803127E2920708F073
:104D5000B5C09093CE058093CD058091BA01823085
:104D600068F421E090912508981301C020E090910B
:104D70002408922B90932408809325088091BB01EE
:104D8000833068F421E090912708981301C020E057
:104D900090912608922B9093260880932708809163
:104DA000BC01863068F421E090912908981301C075
:104DB00020E090912808922B90932808809329084E
:104DC0008091BD0181110DC091E080912B0881116E
:104DD00001C090E080912A08892B80932A081092C4
:104DE0002B088091BE01833068F421E090912D085A
:104DF000981301C020E090912C08922B90932C08DE
:104E000080932D088091BF01823068F421E0909159
:104E10002F08981301C020E090912E08922B9093B8
:104E20002E0880932F0878948091B701882309F485
:104E300043C01092B701FED5A4D78BD643D6682FB6
:104E400084EA91E022D561D6682F83E991E01DD5EF
:104E50008091CD059091CE059093B9018093B801D2
:104E6000809125088093BA01809127088093BB0127
:104E7000809129088093BC0180912B088093BD010B
:104E800080912D088093BE0180912F088093BF01EF
:104E900048E050E060E170E088EB91E00E94FBA107
:104EA00085EB91E03FD494E6980F923E10F4809306
:104EB000F20585EB91E02BD4A895B6CF1092CE05E4
:104EC0001092CD054ACF1F920F920FB60F92112468
:104ED0000BB60F922F933F934F935F936F937F93F4
:104EE0008F939F93AF93BF93EF93FF93C8D286D3D3
:104EF0000FD7FF91EF91BF91AF919F918F917F91CC
:104F00006F915F914F913F912F910F900BBE0F903A
:104F10000FBE0F901F9018951F920F920FB60F9211
:104F200011240BB60F922F933F934F935F936F9380
:104F30007F938F939F93AF93BF93EF93FF93B5D1DD
:104F400080919201882319F0815080939201809181
:104F50009201811106C081E08093B7018AE08093BD
:104F60009201FF91EF91BF91AF919F918F917F91AE
:104F70006F915F914F913F912F910F900BBE0F90CA
:104F80000FBE0F901F9018951F920F920FB60F92A1
:104F900011240BB60F922F933F934F935F936F9310
:104FA0007F938F939F93AF93BF93EF93FF9384EA85
:104FB00091E073DEFF91EF91BF91AF919F918F913F
:104FC0007F916F915F914F913F912F910F900BBE09
:104FD0000F900FBE0F901F9018951F920F920FB653
:104FE0000F9211240BB60F922F933F934F935F9321
:104FF0006F937F938F939F93AF93BF93EF93FF93A1
:1050000084EA91E06DDE32D6FF91EF91BF91AF91CE
:105010009F918F917F916F915F914F913F912F91D0
:105020000F900BBE0F900FBE0F901F9018951F9200
:105030000F920FB60F9211240BB60F922F933F933E
:105040004F935F936F937F938F939F93AF93BF9390
:10505000EF93FF9390919B0080919C009C7161E085
:1050600009F460E020D6FF91EF91BF91AF919F913D
:105070008F917F916F915F914F913F912F910F9001
:105080000BBE0F900FBE0F901F9018951F920F929E
:105090000FB60F9211240BB60F922F933F934F939D
:1050A0005F936F937F938F939F93AF93BF93EF9390
:1050B000FF9383E991E0F1DDFF91EF91BF91AF9113
:1050C0009F918F917F916F915F914F913F912F9120
:1050D0000F900BBE0F900FBE0F901F9018951F9250
:1050E0000F920FB60F9211240BB60F922F933F938E
:1050F0004F935F936F937F938F939F93AF93BF93E0
:10510000EF93FF9383E991E0EBDDF0D5FF91EF9111
:10511000BF91AF919F918F917F916F915F914F91CF
:105120003F912F910F900BBE0F900FBE0F901F90CD
:1051300018951F920F920FB60F9211240BB60F9273
:105140002F933F934F935F936F937F938F939F938F
:10515000AF93BF93EF93FF939BB18CB19C7161E0D0
:1051600009F460E0C9D5FF91EF91BF91AF919F9194
:105170008F917F916F915F914F913F912F910F9000
:105180000BBE0F900FBE0F901F9018951F920F929D
:105190000FB60F9211248F9380917100887F88320F
:1051A00041F148F4803199F0883169F08830E1F4B8
:1051B0008091B5010FC0803581F0883599F0803439
:1051C00099F485EC17C01092730085E813C08091A4
:1051D000B501816080937300F8CF80917300809354
:1051E000B601F3CF84E906C08CE98093B60184E868
:1051F00001C085EA80937400809174008068809378
:1052000074008F910F900FBE0F901F90189568E457
:1052100085EB91E06AD220E842E35AE061E084EA5B
:1052200091E083D220E842EB59E060E083E991E02D
:105230007CC2833019F484EC9FE109C0843019F4F6
:1052400086ED9FE104C0823031F482EB9FE19093C0
:1052500001018093000108959FEF980F923170F43F
:10526000E82FF0E0CF010197E0910001F0910101FA
:10527000E80FF91F8491813009F0089580E00895C6
:105280008091C1019FEF980F993038F09FE7980FF8
:10529000993010F4875701C080E01092C101089541
:1052A0008091C20165E00C94239E90B3909597FF86
:1052B00002C080E801C080E096FF02C0876025C080
:1052C000909163009095292F237041F090FF02C0C8
:1052D00084601BC091FF19C0826017C093B3909582
:1052E000292F2F7191F090FF02C083600EC091FFB3
:1052F00002C085600AC092FF02C0866006C093FFAC
:1053000002C0886002C094FD89609091C001891735
:1053100041F08093C0018AE0809302011092C201A3
:1053200009C090910201992339F0882379F09150B6
:105330009093020180E00AC094E69093020190915C
:10534000C2019A3018F49F5F9093C2019091C101FD
:10535000911102C08093C1010895CF93DF93603211
:1053600040F067FD02C0605205C0603B10F0605520
:1053700001C060E0DC01A753BE4F85E0689FB0012B
:10538000112480E090E0ED01FC01E60FF71FE851E9
:10539000F04EE491ED93019685309105A9F71D82B9
:1053A000DF91CF91089595B3962B95BBE2E6F0E09F
:1053B00090819D7F908390819B7F9083000000006F
:1053C0009081986090838BBB000000008081877F74
:1053D000808385E08A95F1F7000085B360956823A6
:1053E00065BB0895E9ECF1E0119285E0E93CF8072E
:1053F000D9F7089595B3962B95BBE2E6F0E090813E
:105400009260908390819B7F9083000000008BBB13
:10541000808188608083000000008081877F808396
:105420008AE08A95F1F700C085B36095682365BB73
:105430000895AD9907C0AD9A8FE39CE90197F1F704
:1054400000C000008FEF9FEF9093C8018093C701C9
:105450009AE09A95F1F700C060EC84ECA4DF8AE052
:105460008A95F1F700C060EC8FE39DDF9AE19A9591
:10547000F1F700C0089581E08093C50108958091FF
:10548000C501882309F448C08091C401811110C06E
:105490008091C30160EC885486DF8AE18A95F1F738
:1054A00000C060EC80E47FDF9AE19A95F1F700C0DC
:1054B0008091C401E091C301803400F590E8E99F38
:1054C000F0011124E753FE4FE80FF11D60E88081E1
:1054D00091DF8091C301E091C401F0E090E8899FE1
:1054E000E00DF11D1124E75FFD4F60E4808182DF54
:1054F0008091C4018F5F8093C4010895E73030F438
:10550000EF5FE093C3011092C40108951092C301AC
:105510001092C4011092C50108958F929F92AF928C
:10552000BF92CF92DF92EF92FF920F931F93CF9390
:10553000DF93683008F046C0162FC62FD0E024E174
:10554000629F50011124982E7C0194E8C92ED12C21
:1055500024E1822E0E2D0919F701802F90E08A1583
:105560009B059CF48FEFE81AF80A6081C601F5DE0E
:10557000802F682D0E94239E933119F4E8E0CE0E0F
:10558000D11CF6E0CF0ED11CE5CFD695DC2FCC2771
:10559000D795C795CC5FDE4F64E1169F102D11247F
:1055A00004E1183788F4F70161917F01CE01D5DE5F
:1055B000812F602F0E94239E933109F428961F5F4C
:1055C0002696EFCF80E001C081E0DF91CF911F915F
:1055D0000F91FF90EF90DF90CF90BF90AF909F9092
:1055E0008F900895823039F480E395E79093050118
:1055F0008093040108958093C60108958091C601A7
:10560000813029F492B380E2892782BB089580918A
:10561000040190910501892BC9F092B380E289279A
:1056200082BB80910301882321F081508093030184
:10563000089587EC80930301809104019091050106
:10564000019790930501809304010895959808951A
:10565000873008F048C0ECECF1E026E432E09AE54F
:1056600091932E173F07E1F7E9E4F2E049EC55E0AA
:105670009FEF2FEF90839283DF01A358BF4F9C933E
:1056800012969C93E058FF4F4E175F0791F72093B7
:1056900048022093C90198E1909347029093CA0170
:1056A0009BED909346029093CB01E82FF0E031966A
:1056B000F695FE2FEE27F795E795DF01A453BE4F31
:1056C0008AE79AE59D938150E9F7E753FE4FDF01A2
:1056D000A258BF4F88E18C93818311978BED8C93F7
:1056E000828381E0089580E00895FC0192B3936085
:1056F00092BB86EC8093700081E08093710085E816
:1057000080937400660F60838CE9818308952CE98F
:10571000FC012183E4E7F0E0808180E8808385E27A
:1057200080830895FC0181810895FC0152834183A7
:105730002383611117C08CE290E09683858380E912
:1057400090E09087878389E290E09287818785E95E
:1057500090E0948783878AE290E0968785878BE242
:1057600090E018C06130C1F48CE990E096838583A5
:1057700088E990E09087878389E990E09287818724
:105780008DE990E0948783878AE990E09687858702
:105790008BE990E0908B87871482108208958F9216
:1057A0009F92AF92BF92CF92DF92EF92FF920F93B0
:1057B0001F93CF93DF93EC01E42EF22E61308BE444
:1057C000780720F010E060E07BE401C011E04B01BD
:1057D000A12CB12CD501C401975FA24CBF4FBC01D5
:1057E000CD0122E0660F771F881F991F2A95D1F7F8
:1057F000A5019401E3E0220F331F441F551FEA95D2
:10580000D1F70E94639EBA01A90141505109610973
:10581000710982E08F1550F081E0F81629F082E0DE
:10582000F81205C080E304C080E202C010E080E00E
:10583000023018F4013019F401C010E08860E11062
:1058400010E08660EF81F885C52ED62EE72EFF2466
:10585000C082E985FA854083EF85F88992E09083DC
:10586000EB85FC858083ED85FE8588E98083812F2B
:10587000DF91CF911F910F91FF90EF90DF90CF902C
:10588000BF90AF909F908F900895CF93DF93FC01CE
:105890006623B1F0A585B6858C918F778C93A58111
:1058A000B681C181D28188818C93A181B2811C9201
:1058B00081E08083A585B6858C9180668C93648316
:1058C000DF91CF91089580B58B7F80BD8FEF8ABB2C
:1058D0001BBA17BA88BB90EE94BB9FE195BB90E3CF
:1058E00091BB9FEC92BB90EC92B983B99EE09093F0
:1058F000610091EF909362001092640080936500C4
:1059000017BE8BE083BF88E181BF87B7826087BF06
:105910001FBC8CE08EBD10927A001DBC1CBC80E7C1
:1059200092E09BBD8ABD87B7806187BF9CE088E11C
:105930000FB6F894A89581BD0FBE91BD08950F9341
:105940001F93CF93DF93D82F8B011092FA0BC1E0F6
:10595000C093D70A60E081EC9AE00E94707660E024
:1059600086EE9BE00E94A682D130D1F080F0D2304A
:1059700021F542E3B80181EC9AE00E948C7661E067
:1059800081EC9AE00E947076C093D10816C0C09353
:10599000FE0B1092FB0BC093FA0B1092000C0BC085
:1059A00042E3B80186EE9BE00E94968161E086EEBC
:1059B0009BE00E94A6821092D108DF91CF911F91A7
:1059C0000F910895FC018781811104C0653511F4A0
:1059D00092E096839681923061F5A281B381A80FFF
:1059E000B11D6C93813051F028F08230F1F083309A
:1059F00049F014C081E06535D1F41AC06A3AB9F4AF
:105A000082E016C0262F30E0818590E005972817A8
:105A100039076CF46B5F608784E00AC08F5F908504
:105A2000891730F093E0968303C083E001C080E0E3
:105A300087830895809107018A3018F48F5F8093DF
:105A4000070184EB9AE00E94E99C8091BA0A8330B6
:105A500081F584EB9AE00E947C9D882331F1E091EE
:105A6000B60AF091B70A61E092818091010C981317
:105A700060E084EB9AE00E942C9B6091B60A7091E2
:105A8000B70AFB0192818091010C98130EC080919E
:105A9000FA0B882351F084EF9BE00E94B19C88238D
:105AA00021F084EF9BE00E948D9C1092010C1092DB
:105AB000070181E0909107019A3008F080E080931F
:105AC000CA0508958091FA0B882369F084EF9BE062
:105AD0000E94E99C8091FA0B85508230A0F484EFFB
