:100000000C941C260C9445260C9445260C944526ED
:100010000C9445260C9445260C9445260C944526B4
:100020000C9445260C9445260C9445260C944526A4
:100030000C9486270C9445260C9445260C945D2739
:100040000C9445260C9445260C9493280C94402837
:100050000C9469280C9445260C9445260C9445264E
:100060000C9445260C9445260C9445260C94452664
:100070000C9445260C9445260C9411280C94BE270C
:100080000C94E7270C94C0280C944526A243B04357
:10009000C243C843BC43B6439A43BA4ADE4A024B02
:1000A000204B404B604B7E4B9E4B1B4C394C594C6C
:1000B000BE4BE14BFE4B794C964CB44CD24C445D5C
:1000C000655C6C5C6C5C755C7F5C7F5CA65CCC5C2E
:1000D0009361F4619561B361E861FE61CA61A461F5
:1000E000C161E061666798679C67B167DB67ED6730
:1000F0002F680B681D68ED672B862E863186348647
:1001000037863A86468646864686468646864686AA
:10011000468646863D8640864386E88684868D866A
:10012000A686BE86CF86E886149A199A169A199AD8
:10013000169A199A1C9A1C9A58015601540150019A
:100140004E014A014601322C3300312C330033007A
:10015000312C32003200310000D0C7D1CA0000007B
:1001600000000000D0C7D1CAEC000000000000D0A1
:10017000C7D1CA2D332038EA0000C0C2C0CDD2009A
:100180000000000000C0C2C0CDD220CFD0C400000B
:10019000C0C2C0CDD220CFD0CC0000C0CACFC020BA
:1001A000CFD0C4000000C0CACFC020CFD0CC000048
:1001B00000CAC5C4D020CFD0C4000000CAC5C4D076
:1001C00020CFD0CC000000D3CFCA2DD620CFD0C4B2
:1001D0000000D3CFCA2DD620CFD0CC0000C2D7D2BA
:1001E000CE20CFD0C4000000C2D7D2CE20CFD0CCFA
:1001F000000000C0CDCAC020CFD0C4000000C0CDD8
:10020000CAC020CFD0CC000000D0343030EC000089
:1002100000000000CFC2C72D39300000000000C030
:10022000C2C7CA2D383000000000CFC2C7D32DC5C9
:100230000000000000CFC2C7CB000000000000009B
:10024000CBC8CDC8DF2DD000000000CFC2C7CA0088
:10025000000000000000CFC2C7D300000000000073
:1002600000CFC2C70000000000000000D0343030D2
:10027000000000000000000212DB11B4118D1166B5
:10028000113F111811F110CA10A3107C1055102E37
:10029000100710E00FB90F920F6B0F440F1D0FF6F0
:1002A0000ECF0EA80E810E5A0E330E0C0EE50DBEAB
:1002B0000D970D700D490D220DFB0CD40CAD0C8665
:1002C0000C5F0C380C110CEA0BC30B9C0B750B4E1E
:1002D0000B270B000BD90AB20A8B0A640A3D0A16D7
:1002E0000AEF09C809A1097A0953092C090509DE91
:1002F00008B7089008690842081B08F407CD07A64C
:10030000077F07580731070A07E306BC0695066E04
:100310000647062006F905D205AB0584055D0536BE
:10032000050F05E804C1049A0473044C042504FE77
:1003300003D703B003890362033B03D0E5E6E8EC8F
:1003400000000000000000000000000000000000AD
:10035000000100007B1F01000004000101000100FA
:100360000001D2E5F1F2EEE2FBE920F1E8E3EDE095
:10037000EB00000000000000010000291201000055
:10038000A20001010001000001CFE5F0E5EDE0E78A
:10039000EDE0F7E5EDE8E520CFD0C40000002B014B
:1003A0000000401920000061000101030100030169
:1003B000CFE5F0E5EDE0E7EDE0F7E5EDE8E520CFAE
:1003C000D0CC0000001B010000401920000061009B
:1003D00001010301000301D2F0E0EDE7E8F2EDFBDB
:1003E000E520EAEEECE0EDE4FB000000370501005B
:1003F000651F60000002000101060B000001C2F051
:10040000E5ECFF20EEE6E8E4E0EDE8FF20EAEEECC4
:100410002E0000370202061A48010000FF00010109
:10042000020A000001D1F2EEEFEEE2FBE520E1E886
:10043000F2FB000000000000000000010000971D1A
:10044000010000020001010001000000D7E5F2ED0B
:10045000EEF1F2FC000000000000000000000000CF
:100460000000010000AD1D010000030001010001BA
:10047000000000C1E8F2FB20E4E0EDEDFBF5000038
:10048000000000000000000000010000CE1D01007F
:1004900000010001010001000000D1EAEEF0EEF1E0
:1004A000F2FC20EFE5F0E5E4E0F7E80000000000F2
:1004B000010000D91D01000006000101000100003B
:1004C00000CFF0EEF2EEEAEEEB00000000000000DC
:1004D000000000000000000100001B1E01000003DE
:1004E0000001010001000000C8EDF2E5F0F4E5E9CB
:1004F000F120F1E2FFE7E800000000000000010049
:10050000003C1E010000020001010001000000CFBC
:10051000EEE2FBF8E5EDE8E520E1E5E7EEEFE0F1FE
:100520002DF2E80016010000651F01000002000125
:10053000010101000001D1E8E3EDE0EBE8E7E0F6BE
:10054000E8FF20EAEEECE0EDE400001D05010065A7
:100550001F200000020001010501000301CAEEF0A6
:10056000F0E5EAF6E8FF20F7E0F1F2EEF2FB00003A
:1005700000001502050A1A48019CFF6400010101F0
:1005800001000001CFF0E8E5EC20F2E5F1F2EEE247
:10059000EEE920EAEEEC2E000012010100651F01D9
:1005A0000000020001010101000001CAEEEBE8F7C2
:1005B000E5F1F2E2EE20EAEEECE0EDE4000000000E
:1005C0001C0202001A48010400200004040101007A
:1005D0000001CAEEECE0EDE4E020CFD0CC20E22038
:1005E000D6CF0000000000190202001A48200100C6
:1005F000200001010301000301C1EBEEEAE8F0EE87
:10060000E22E20EAEEECE0EDE4FB20D6CF00180568
:100610000100651F20000002000101050100030127
:10062000D2F0E0EDF1EBFFF6E8FF20D6CF000000BE
:10063000000000000017010100651F01000002001A
:1006400001010101000001C7E0E4E5F0E6EAE02075
:10065000EDE020E2FBEAEB2EEAEEEC0013020206EC
:100660001A48200000E803320A0301000301C1EB2D
:10067000EEEAE8F0EEE22E20EAEEECE0EDE4FB003C
:1006800000000014050100651F20000002000101A8
:100690000501000301C7E0E4E5F0E6EAE020EDE053
:1006A00020F4E8EAF12EEAEEEC00110202061A4804
:1006B0000100000A0001010101000001D1E8E3EDA1
:1006C000E0EBE8E7E0F6E8FF20EAEEECE0EDE4003E
:1006D000002E050100651F20000002000101050138
:1006E000000201CAD120EFEE20F3ECEEEBF7E0EDD3
:1006F000E8FE0000000000002D0100006B1D01005D
:1007000000020001010303000001D1EDE8E6E5ED80
:10071000E8E520F3F0EEE2EDFF20D2CC0000002D62
:100720000202091A4801000014000101030200003E
:1007300001D1EDE8E6E5EDE8E520F3F0EEE2EDFFCE
:1007400020CAD10000002D0202091A48010000143D
:100750000001010301000001CAEEF0F0E5EAF6E84D
:10076000FF20F7E0F1F2EEF2FB00000000230205AB
:100770000A1A48019CFF640001010101000001CA3E
:10078000EEEBE8F7E5F1F2E2EE20EAEEECE0EDE484
:1007900020C00000290202001A48010000200001C8
:1007A000010101010001CAEEEBE8F7E5F1F2E2EE2A
:1007B00020EAEEECE0EDE4000000002C0202001A5A
:1007C00048010400200004040101000001C1EBEE17
:1007D000EAE8F0EEE22E20EAEEECE0EDE4FB20D6D3
:1007E000CF0028050100651F20000002000101055F
:1007F00001000201D2F0E0EDF1EBFFF6E8FF20D6B8
:10080000CF000000000000000027010100651F016B
:100810000000020001010101000001C1EBEEEAE865
:10082000F0EEE22E20EAEEECE0EDE4FB000000004A
:1008300024050100651F20000002000101050100E0
:100840000201D1EBE5E4FFF9E8E520EAEEECE0EDAA
:10085000E4FB000000000025050100651F200000EA
:10086000020001010501000201D2E5F1F2EEE2E031
:10087000FF20EAEEECE0EDE4E000000000002601DD
:100880000100651F010000020001010101000001DB
:10089000C4EBE8F2E5EBFCEDEEF1F2FC20EAEEEC65
:1008A000E0EDE4FB00220202061A48011E00F401FA
:1008B0000A0A0101000001C4EBE8F2E5EBFCEDEEF1
:1008C000F1F2FC20EAEEECE0EDE4FB00220202068D
:1008D0001A48011E00640001010101000001C7E087
:1008E000E4E5F0E6EAE020F1F0E0E1E0F22E20CFEE
:1008F000D0C400210202061A4801000014000101C0
:100900000101000001CEE4EDEEF1F2EEF0EEEDEDCE
:10091000E8E920F0E5E6E8EC00000A010100651FC7
:10092000010000020001010101000000D1E4E2E841
:10093000E320C2D720CFD0C420EEF220CFD3D1CA3B
:10094000000502020C1A48010000FF000101020428
:10095000000001D1E4E2E8E320CFD0CC00000000A9
:1009600000000000000000000502020C1A4801000F
:1009700000FF0001010203000001D1E4E2E8E320EE
:10098000E7E0E42EF4F0EEEDF2E020CFD0C4000575
:1009900002020C1A48010000FF00010102020000DF
:1009A00001D1E4E2E8E320EFE5F02EF4F0EEEDF221
:1009B000E020CFD0C4000502020C1A48010000FF5D
:1009C0000001010201000001D7E0F1F2EEF2E020A7
:1009D000CFD0CC00000000000000000000090100A2
:1009E000009F1E010000050001010101000001D768
:1009F000E0F1F2EEF2E020CFD0C4000000000000F1
:100A000000000000080100009F1E01000005000119
:100A1000010101000001D1EDE8E6E5EDE8E520F394
:100A2000F0EEE2EDFF20C0CA000000070101006502
:100A30001F010000020001010101000001D2E8EFE6
:100A400020EFF0E8E5ECEDE8EAE00000000000004F
:100A5000000007010000D61E010000030001010193
:100A600001000001C7E0E3F0F3E1EB2E20F7F3E231
:100A7000F1F2E22E20D0C70000060202091A480255
:100A80000000200001010301000101C7E0E3F0F3D1
:100A9000E1EBE5EDE8E520F7F3E2F1F2E2E8F20060
:100AA000060202091A4801000020000101010100AC
:100AB0000001CFEEF0EEE320EFF0E5E4F3EFF02EEF
:100AC00020EFEE20D0C700090202091A48010000F9
:100AD000100001010101000001CAEEECEFE5EDF1AB
:100AE000E0F6E8FF20E7E0E4E5F0E6EAE8000402EB
:100AF000020C1A480200001200010102010001016B
:100B0000CAEEECEFE5EDF1E0F6E8FF20E7E0E4E522
:100B1000F0E6EAE8000402020C1A480200001200A3
:100B200002010201000101CFE5F0E5EAF0FBF2E885
:100B3000E520E8ECEFF3EBFCF1EEE2000502020C3D
:100B40001A48010000360001010101000001CFE553
:100B5000F0E5EAF0FBF2E8E520E8ECEFF3EBFCF17E
:100B6000EEE2000502020C1A4801120036000201F2
:100B70000101000001CFE5F0E5EAF0FBF2E8E52035
:100B8000E8ECEFF3EBFCF1EEE2000502020C1A4890
:100B9000010000360002010101000001C4EEEF2E49
:100BA00020E2F0E5ECFF20E1E5E720ECE0ED2E00AF
:100BB00000030202081A480100006300010101015C
:100BC000000001D2E8EF20E7E0F9E8F2FB000000C6
:100BD0000000000000000000010100000D1F0100E6
:100BE00000080001010101000001CFEEF0EEE3205A
:100BF000E0E2E0F0E8E820EFEE20CAD70000003C99
:100C00000202091A48010000160001010304000055
:100C100001D1EEE2ECE5F1F2E8ECEEF1F2FC0000DD
:100C2000000000000000370100005901010000032E
:100C30000001010202000001D1EAEEF0EEF1F2FC47
:100C400020D2CC00000000000000000000370100AE
:100C500000811D010000020001010209000001CD18
:100C6000E8E6ED2EE7EDE0F7E5EDE8E520F2E5EC6E
:100C7000EFE5F0003702020C1A48010000640001A1
:100C8000010208000001C2E5F0F52EE7EDE0F7E50E
:100C9000EDE8E520F2E5ECEFE5F0003702020C1A92
:100CA00048010000640001010207000001CAEEEDE6
:100CB000F2F0EEEBFC20F2E5ECEFE5F0E0F2F3F021
:100CC000FB0037010100651F010000020001010265
:100CD00006000001CFEEF0EEE320E0E2E0F0E8E80D
:100CE00020EFEE204400000000370202091A4801FC
:100CF000C0FF400001010205000001CFEEF0EEE36D
:100D000020EFF0E5E4F3EFF02E20EFEE20440000BA
:100D1000370202091A4801C0FF4000010102040025
:100D20000001D2E5EBE5ECE5F5E0EDE8EAE00000F6
:100D30000000000000000037010100651F010000F5
:100D4000020001010203000001D2E8EF20EBE8ED10
:100D5000E8E80000000000000000000000000201C0
:100D60000000F71E01010002000101010100000165
:100D7000D1EEE2ECE5F1F2E8ECEEF1F2FC0000007D
:100D80000000000000370100007A010100000D00A2
:100D900001010202000001D0E5E7E5F0E2E8F0EE33
:100DA000E2E0EDE8E5000000000000003301010092
:100DB000651F010000020001010301000001CAEEED
:100DC000F0F0E5EAF6E8FF20E2F0E5ECE5EDE820FA
:100DD000C0CA003902020D1A4801000014000101C6
:100DE0000309000001CFE5F0E8EEE420EFEEE2F2C7
:100DF0002EE1E5E3EB2E20C0CA00390202071A48B3
:100E0000010100FF0001010308000001CFE5F0E847
:100E1000EEE420E1E5E3EBEEE3EE20C0CA000000E3
:100E200000390202071A48010100FF00010103070F
:100E3000000001D2E8EF20E0E2F2EEEAEEEDF2F09F
:100E4000EEEBFF000000000039010000681E010108
:100E500000030001010306000001C4EEEFF3F1F20C
:100E6000E8ECE0FF20EFEEECE5F5E00000000039F3
:100E700002020C1A4801140050001401030500007E
:100E800001CFEEF0EEE320EFEE20EFEEECE5F5E53E
:100E9000000000000000390202071A48010000FFAC
:100EA0000001010304000001C4EEEFF3F1F2E8ECED
:100EB000FBE520EFF0EEE2E0EBFB00000039020280
:100EC0000C1A48010000500002010303000001CF8A
:100ED000F0E8E7EDE0EA20F7E5F2EDEEF1F2E80008
:100EE0000000000039010000521E01010002000153
:100EF000010302000001CFF0EEF2EEEAEEEB20EE8D
:100F0000E1ECE5EDE000000000000039010000899F
:100F10001E010100020001010301000001CAEEF000
:100F2000F0E5EAF6E8FF20F2EEEAE000000000005B
:100F30000000330405011A480119FCE70301010808
:100F400002000000CAEEF0F0E5EAF6E8FF20EDE06E
:100F5000EFF0FFE6E5EDE8FF00330304041A480173
:100F6000A8FD580201010701000000D2E8EF20E4CB
:100F7000E5F2E5EAF2EEF0E000000000000000001B
:100F8000350202001A4801010003000101020200BB
:100F90000001D1EDE8E6E5EDE8E520EEF2E2E5F26C
:100FA000E020C0CA000000390202091A480100000E
:100FB000140001010301000001D1EEE2ECE5F1F2C1
:100FC000E8ECEEF1F2FC0000000000000000370148
:100FD000000009020100000A0001010201000001F5
:100FE000D7E0F1F2EEF2E0000000000000000000A7
:100FF00000000000003A02020B1A48010000E8035A
:101000000101040100000155E2FBF520EDEEECE8E2
:10101000EDE0EBFCEDEEE50000000000360202041E
:101020001A48011200320001010101000001D1E55E
:10103000F2E5E2EEE920E0E4F0E5F1000000000076
:10104000000000380202001A48010100F700010107
:101050000101000000C7E0E3F0F3E1EB2E20F7F31D
:10106000E2F1F2E22E20CFD0CC003C0202091A4875
:10107000020000160001010302000101D3E4E5F0C3
:10108000E62E20F0E5EBE520EAEEEC2E20CFD0CCEA
:101090000036010100651F0100000200010101018D
:1010A000000001D3E4E5F0E62E20F0E5EBE520EAD0
:1010B000EEEC2E20CFD0C40037010100651F0100E7
:1010C00000020001010201000001C2F0E5ECFF2076
:1010D000EFE5F0E5E7E0EFF3F1EAE00000000039CA
:1010E0000202071A48010000050001010101000089
:1010F00001CFEEF0EEE320EFF0E5E4F3EFF02E2089
:10110000EFEE20CA43003C0202091A480100001613
:101110000001010301000001CFEEF0EEE320EFF04B
:10112000E5E4F3EFF0E5E6E4E5EDE8FF003C02027C
:10113000091A48010000160001010301000001CA5C
:10114000EEEDF2F0EEEBFC20E2FBF52EF1E8E3ED44
:10115000E0EBE0003D010100651F0100000200011D
:10116000010101000001CDEEECE5F020E0EFEFE041
:10117000F0E0F2E0000000000000003B0202001A74
:1011800048010100FF0001010101000001CDEEEC6A
:10119000E5F020E0EFEFE0F0E0F2E000000000001A
:1011A00000003B0202001A48010100030001010196
:1011B00001020001D1E8EDF5F0EEEDE8E7E0F6E838
:1011C000FF20F7E0F1EEE20000350100001F1901F9
:1011D0000000030001010201000001D1E8EDF5F07B
:1011E000EEEDE8E7E0F6E8FF20F7E0F1EEE20000E0
:1011F00035010100651F010000020001010201002C
:1012000000010000000000000000000000000000DD
:1012100000000000000000000001001A480100006A
:10122000010001010001000001E2FBEAEB2E0000D9
:1012300000000000CAD7000000000000000000CA43
:10124000D7310000000000000000CAD732000000C3
:101250000000000000CAD7330000000000000000BA
:10126000CAD7340000000000000000CAD7310000D7
:10127000000000000000CAD73120F120E1EBEEEAC7
:1012800000CAD7320000000000000000CAD7322098
:10129000F120E1EBEEEA00D0C70000000000000002
:1012A0000000CAEEECE0EDE4E031000000CAEEEC34
:1012B000E0EDE4E032000000CAEEECE0EDE4E03303
:1012C000000000CAEEECE0EDE4E034000000CAEEFD
:1012D000ECE0EDE4E035000000CAEEECE0EDE4E027
:1012E00036000000CAEEECE0EDE4E037000000CA92
:1012F000EEECE0EDE4E038000000CAEEEC312BE16A
:10130000EBEEEA0000CAEEEC322BE1EBEEEA000075
:10131000CAEEEC332BE1EBEEEA0000CAEEEC342B24
:10132000E1EBEEEA0000CAEEEC352BE1EBEEEA0071
:1013300000CAEEEC362BE1EBEEEA0000CAEEEC3729
:101340002BE1EBEEEA0000CAEEEC382BE1EBEEEA23
:101350000000CAEEECE0EDE4E031000000CAEEEC83
:10136000E0EDE4E032000000CAEEECE0EDE4E03352
:10137000000000CAEEECE0EDE4E034000000CAEE4C
:10138000ECE0EDE4E035000000CAEEECE0EDE4E076
:1013900036000000CAEEECE0EDE4E037000000CAE1
:1013A000EEECE0EDE4E038000000CAEEECE0EDE445
:1013B000E039000000CAEEECE0EDE4E0313000007E
:1013C000CAEEECE0EDE4E031310000CAEEECE0ED15
:1013D000E4E031320000CAEEECE0EDE4E03133004D
:1013E00000CAEEECE0EDE4E031340000CAEEECE0DF
:1013F000EDE4E031350000CAEEECE0EDE4E031363A
:101400000000CAEEECE0EDE4E031370000CAEEEC9B
:10141000E0EDE4E031380000CAEEECE0EDE4E0316C
:10142000390000CAEEECE0EDE4E032300000CAEE34
:10143000ECE0EDE4E032310000CAEEECE0EDE4E097
:1014400032320000CAEEECE0EDE4E032330000CAD4
:10145000EEECE0EDE4E032340000CAEEECE0EDE466
:10146000E032350000CAEEECE0EDE4E03236000098
:10147000CAEEECE0EDE4E032370000CAEEECE0ED5D
:10148000E4E032380000CAEEECE0EDE4E03239008E
:1014900000CAEEECE0EDE4E033300000CAEEECE030
:1014A000EDE4E033310000CAEEECE0EDE4E033328D
:1014B0000000CAD720E820D0C700000000CAD731FA
:1014C00020E820D0C7000000CAD73220E820D0C7CB
:1014D000000000CAD73320E820D0C7000000CAD7D8
:1014E0003420E820D0C7000000CAD100000000006E
:1014F00000000000CAEEECE0EDE4E031410000CA7B
:10150000EEECE0EDE4E032410000CAEEECE0EDE4A8
:10151000E033410000CAEEECE0EDE4E034410000CD
:10152000CAEEECE0EDE4E035410000CAEEECE0ED9F
:10153000E4E036410000CAEEECE0EDE4E0374100C3
:1015400000CAEEECE0EDE4E038410000CAEEECE069
:10155000EDE4E039410000CAEEECE0EDE4E03130CA
:101560004100CAEEECE0EDE4E031314100CAEEECBE
:10157000E0EDE4E031324100CAEEECE0EDE4E031D0
:10158000334100CAEEECE0EDE4E031344100CAEE54
:10159000ECE0EDE4E031354100CAEEECE0EDE4E0F2
:1015A00031364100CAEEECE0EDE4E031374100CAEB
:1015B000EEECE0EDE4E031384100CAEEECE0EDE4C1
:1015C000E031394100CAEEECE0EDE4E032304100B8
:1015D000CAEEECE0EDE4E032314100CAEEECE0EDC1
:1015E000E4E032324100CAEEECE0EDE4E0323341B7
:1015F00000CAEEECE0EDE4E032344100CAEEECE08B
:10160000EDE4E032354100CAEEECE0EDE4E03236E4
:101610004100CAEEECE0EDE4E032374100CAEEEC06
:10162000E0EDE4E032384100CAEEECE0EDE4E03217
:10163000394100CAEEECE0EDE4E033304100CAEE9F
:10164000ECE0EDE4E033314100CAEEECE0EDE4E043
:1016500033324100CAEEECE0EDE4E031420000CA72
:10166000EEECE0EDE4E032420000CAEEECE0EDE446
:10167000E033420000CAEEECE0EDE4E0344200006A
:10168000CAEEECE0EDE4E035420000CAEEECE0ED3D
:10169000E4E036420000CAEEECE0EDE4E037420060
:1016A00000CAEEECE0EDE4E038420000CAEEECE007
:1016B000EDE4E039420000CAEEECE0EDE4E0313068
:1016C0004200CAEEECE0EDE4E031314200CAEEEC5B
:1016D000E0EDE4E031324200CAEEECE0EDE4E0316E
:1016E000334200CAEEECE0EDE4E031344200CAEEF1
:1016F000ECE0EDE4E031354200CAEEECE0EDE4E090
:1017000031364200CAEEECE0EDE4E031374200CA87
:10171000EEECE0EDE4E031384200CAEEECE0EDE45E
:10172000E031394200CAEEECE0EDE4E03230420054
:10173000CAEEECE0EDE4E032314200CAEEECE0ED5E
:10174000E4E032324200CAEEECE0EDE4E032334253
:1017500000CAEEECE0EDE4E032344200CAEEECE028
:10176000EDE4E032354200CAEEECE0EDE4E0323682
:101770004200CAEEECE0EDE4E032374200CAEEECA3
:10178000E0EDE4E032384200CAEEECE0EDE4E032B5
:10179000394200CAEEECE0EDE4E033304200CAEE3C
:1017A000ECE0EDE4E033314200CAEEECE0EDE4E0E1
:1017B00033324200CAEEECE0EDE4E031430000CA0F
:1017C000EEECE0EDE4E032430000CAEEECE0EDE4E4
:1017D000E033430000CAEEECE0EDE4E03443000007
:1017E000CAEEECE0EDE4E035430000CAEEECE0EDDB
:1017F000E4E036430000CAEEECE0EDE4E0374300FD
:1018000000CAEEECE0EDE4E038430000CAEEECE0A4
:10181000EDE4E039430000CAEEECE0EDE4E0313005
:101820004300CAEEECE0EDE4E031314300CAEEECF7
:10183000E0EDE4E031324300CAEEECE0EDE4E0310B
:10184000334300CAEEECE0EDE4E031344300CAEE8D
:10185000ECE0EDE4E031354300CAEEECE0EDE4E02D
:1018600031364300CAEEECE0EDE4E031374300CA24
:10187000EEECE0EDE4E031384300CAEEECE0EDE4FC
:10188000E031394300CAEEECE0EDE4E032304300F1
:10189000CAEEECE0EDE4E032314300CAEEECE0EDFC
:1018A000E4E032324300CAEEECE0EDE4E0323343F0
:1018B00000CAEEECE0EDE4E032344300CAEEECE0C6
:1018C000EDE4E032354300CAEEECE0EDE4E0323620
:1018D0004300CAEEECE0EDE4E032374300CAEEEC40
:1018E000E0EDE4E032384300CAEEECE0EDE4E03253
:1018F000394300CAEEECE0EDE4E033304300CAEED9
:10190000ECE0EDE4E033314300CAEEECE0EDE4E07E
:1019100033324300EEF8E8E1EAE00000000000E2C4
:10192000FBEAEB2E000000000000EAE0EDE0EB2017
:10193000F1E22E0000C0D1D320D2CF000000000081
:1019400030000000000000000000003141000000F5
:101950000000000000003241000000000000000014
:10196000003341000000000000000000344100008E
:1019700000000000000000354100000000000000F1
:101980000000364100000000000000000037410068
:1019900000000000000000003841000000000000CE
:1019A000000000394100000000000000000031305C
:1019B0004100000000000000003131410000000043
:1019C0000000000031324100000000000000003142
:1019D00033410000000000000000313441000000ED
:1019E0000000000000313541000000000000000050
:1019F0003136410000000000000000313741000096
:101A0000000000000000313841000000000000002C
:101A10000031394100000000000000003230410078
:101A20000000000000000032314100000000000012
:101A3000000032324100000000000000003233415B
:101A400000000000000000003234410000000000EF
:101A50000000003235410000000000000000323676
:101A6000410000000000000000323741000000008B
:101A70000000000032384100000000000000003289
:101A80003941000000000000000033304100000038
:101A900000000000003331410000000000000000A1
:101AA000333241000000000000000031420000001D
:101AB00000000000000032420000000000000000B2
:101AC000003342000000000000000000344200002B
:101AD000000000000000003542000000000000008F
:101AE0000000364200000000000000000037420005
:101AF000000000000000000038420000000000006C
:101B000000000039420000000000000000003130F9
:101B100042000000000000000031314200000000DF
:101B200000000000313242000000000000000031DF
:101B30003342000000000000000031344200000089
:101B400000000000003135420000000000000000ED
:101B50003136420000000000000000313742000032
:101B600000000000000031384200000000000000CA
:101B70000031394200000000000000003230420015
:101B800000000000000000323142000000000000B0
:101B900000003232420000000000000000323342F8
:101BA000000000000000000032344200000000008D
:101BB0000000003235420000000000000000323614
:101BC0004200000000000000003237420000000028
:101BD0000000000032384200000000000000003227
:101BE00039420000000000000000333042000000D5
:101BF000000000000033314200000000000000003F
:101C000033324200000000000000003143000000B9
:101C1000000000000000324300000000000000004F
:101C200000334300000000000000000034430000C7
:101C3000000000000000003543000000000000002C
:101C400000003643000000000000000000374300A1
:101C50000000000000000000384300000000000009
:101C60000000003943000000000000000000313097
:101C7000430000000000000000313143000000007C
:101C8000000000003132430000000000000000317D
:101C90003343000000000000000031344300000026
:101CA000000000000031354300000000000000008B
:101CB00031364300000000000000003137430000CF
:101CC0000000000000003138430000000000000068
:101CD00000313943000000000000000032304300B2
:101CE000000000000000003231430000000000004E
:101CF0000000323243000000000000000032334395
:101D0000000000000000000032344300000000002A
:101D100000000032354300000000000000003236B1
:101D200043000000000000000032374300000000C4
:101D300000000000323843000000000000000032C4
:101D40003943000000000000000033304300000071
:101D500000000000003331430000000000000000DC
:101D60003332430000000000000000CAD1310000FF
:101D7000000000000000CAD1320000000000000096
:101D8000003230300000000000000000343030002D
:101D90000000000000000031000000000000000012
:101DA00000003200000000000000000000EDE5F23D
:101DB0000000000000000000F7E5F2000000000055
:101DC000000000EDE5F7E5F200000000000038003B
:101DD000000000000000000000363030000000006D
:101DE00000000000313230300000000000000032FE
:101DF0003430300000000000000034383030000083
:101E00000000000000393630300000000000000003
:101E10003139323030000000000000D1D2C0CDC4D2
:101E2000C0D0D20000004D4F444255530000000086
:101E300000CCDDCA2D313031000000005553420086
:101E4000000000000000005253343835000000004C
:101E50000000E2EAEB2E00000000000000E2FBEAD6
:101E6000EB2E000000000000F2F0E5E2EEE6EDFBF4
:101E7000E90000EDEEF0ECE0EBFCEDFBE900F1EF4A
:101E8000EEEAEEE9EDFBE90000E1FBF1F2F0FBE93F
:101E900000000000ECE5E4EBE5EDEDFBE900002DD2
:101EA00031303030C3F6000000002D353030C3F63D
:101EB000000000000030C3F6000000000000000039
:101EC0002B353030C3F600000000002B31303030AD
:101ED000C3F600000000E0EAF22BEFE0F1F10000B1
:101EE00000E0EAF2E8E2EDFBE9000000EFE0F1F1EA
:101EF000E8E2EDFBE900003220EAEEEDF6E5E2E093
:101F0000FF003320EAEEEDF6E5E2E0FF00C4D4C7BF
:101F10002DCFF0CFE4000000C4D4C72DCCCA3100CF
:101F2000000000C4D4C72DCCCA3200000000C4D4C5
:101F3000C72D4C363000000000CDC72DCFF0CFE4C8
:101F400000000000CDC72DCCCA000000000000CF6B
:101F5000CFC72DCFF0CFE4000000CFCFC72DCCCA24
:101F60000000000000E2FBEAEB2E00000000000091
:101F7000E2EAEB2E00000000000000C2FBE2E5E414
:101F8000E5ED00000000C2E2E5E4E5ED0000000040
:101F900000D2E5F1F220310000000000D2E5F1F2BC
:101FA00020320000000000020801060307010504BA
:101FB000020F0C0B090D0E010102080106030704B4
:101FC000050102010E0B090101010A0208010603C5
:101FD00007010504020F0C10091112130D00000077
:101FE000000000004F00000007000700147F147F6E
:101FF00014242A7F2A12231308646236495522408A
:102000000005030000001C2241000041221C0014B6
:10201000083E081408083E08080050300000080870
:10202000080808006060000020100804023E5149C2
:10203000453E00427F400042615149462141454BA7
:10204000311814127F1027454545393C4A4949301B
:1020500001710905033649494936064949291E00D7
:1020600036360000005636000008142241001414D1
:102070001414140041221408020151090632497156
:10208000413E7E1111117E7F494949363E41414111
:10209000227F4141221C7F494949417F09090901A9
:1020A0003E4149493A7F0808087F00417F410020AE
:1020B00040413F017F081422417F404040407F0261
:1020C0000C027F7F0408107F3E4141413E7F090999
:1020D00009063E4151215E7F091929464649494971
:1020E0003101017F01013F4040403F1F2040201F40
:1020F0003F4070403F63140814630708700807618D
:1021000051494543007F414100020408102000412D
:10211000417F0004020102044040404040000102AF
:10212000040020545454787F48444438384444448C
:1021300020384444487F3854545418087E0901021A
:102140000C5252523E7F0804047800447D40002027
:1021500040443D007F1028440000417F40007C0443
:102160001804787C0804047838444444387C1414F7
:102170001408081414187C7C0804040848545454A7
:1021800020043F4440203C4040207C1C2040201C38
:102190003C4030403C44281028440C5050503C44B3
:1021A00064544C44000836410000007F00000041A8
:1021B000360800020102020114141414140E0A0E4F
:1021C000000024242F24247F7F7F7F7F7F7F7F7FD9
:1021D0007F7F7F7F7F7F7F7F7F7F7F7F7F7F7F7F0F
:1021E0007F7F7F7F7F7F7F7F7F7F7F7F7F7F7F7FFF
:1021F0007F7F7F7F7F7F7F7F7F7F7F7F7F7F7F7FEF
:102200007F7F7F7F7F7F7F7F7F7F7F7F7F7E1111BB
:10221000117E7F494949337F494949367F01010190
:1022200003E0514F41FF7F4949494177087F0877D3
:1022300041494949367F1008047F7C2112097C7F7F
:102240000814224120413F017F7F020C027F7F085A
:1022500008087F3E4141413E7F0101017F7F09091E
:1022600009063E4141412201017F01014728100832
:10227000071C227F221C63140814637F404040FF28
:10228000070808087F7F407F407F7F407F40FF0135
:102290007F4848307F4830007F007F4848302241E7
:1022A00049493E7F083E413E462919097F20545442
:1022B00054783C4A4A49317C545428007C04040434
:1022C0000CE0544C44FC38545454186C107C106C82
:1022D00044445454287C2010087C7C4122117C7C8E
:1022E0001028440020443C047C7C0810087C7C10AE
:1022F00010107C38444444387C0404047C7C14145E
:102300001408384444442004047C04040C50505005
:102310003C3048FC483044281028447C404040FC75
:102320000C1010107C7C407C407C7C407C40FC0489
:102330007C5050207C5050207C7C50502000284401
:102340005454387C10384438085434147C003726F0
:1023500072010726268A010118268A01039A258A16
:1023600001060A268A0101FE258A0104F3258A0155
:1023700001EB258A0107DE258A0106D4258A01059D
:10238000CB2572010EC1258A0106B825720103AB67
:10239000258A01068A259A00007925720108682598
:1023A0007201095F2572010650255100003F257218
:1023B000010A2E257201101D257201100C257201D3
:1023C00011FB24720112EA24720113DA247201044F
:1023D000CA24720104BA24720105AA2472010D9B59
:1023E000247201068A247201027A2472010B6A2483
:1023F00072010C5A2472010F4A247201023D2472A8
:102400000101322472010221248A010011248A016F
:1024100001CEE4EDEEF1F22EF0E5E62E20E2EAEB5D
:1024200000CEE4EDEEF1F22EF0E5E62E20E2FBEA3E
:10243000EB00D1E1F0EEF120E2F1E5F500D1E1F0C1
:10244000EEF120F1E2EEE5E3EE00D1E1F0EEF12075
:10245000F3E4E0EBE5EDEDFBF500D1E1F0EEF1208A
:10246000F3E4E0EBE5ED2E203300D1E1F0EEF120D6
:10247000F3E4E0EBE5ED2E203200D1E1F0EEF120C7
:10248000F3E4E0EBE5ED2E203100D1E1F0EEF120B8
:10249000F3E4E0EBE5EDEDEEE3EE00CFF3F1EA205F
:1024A000F3E4E0EBE5EDEDFBF500CFF3F1EA20F32B
:1024B000E4E0EBE5EDED2E203300CFF3F1EA20F37D
:1024C000E4E0EBE5EDED2E203200CFF3F1EA20F36E
:1024D000E4E0EBE5EDED2E203100CFF3F1EA20F35F
:1024E000E4E0EBE5EDEDEEE3EE00CFF3F1EA20F30F
:1024F000E4E0EB2DFBF520CCC0CD00CFF3F1EA20DA
:10250000F3E4E0EB2E20CCC0CD203300CFF3F1EA92
:1025100020F3E4E0EB2E20CCC0CD203200CFF3F14D
:10252000EA20F3E4E0EB2E20CCC0CD203100CFF345
:10253000F1EA20F3E4E0EBE5ED2E20CCC0CD00CFB6
:10254000F3F1EA20C0CA20F3E4E0EBE5EDED2E0064
:10255000CFF3F1EA20EFF0E8E5ECEDE8EAE000CFB8
:10256000F3F1EA20CFD0C400CFF3F1EA20EDE0EBA5
:10257000E0E42E20E2FBEAEB00CFF3F1EA20EDE00D
:10258000EBE0E42E20E2EAEB2E00D1E1F0EEF120C8
:10259000E8EDE4E8EAE0F6E8E800C0CA20EAEEED9B
:1025A000F2F02EEFF0EEE2E5F02E00C0CA20E8F1E6
:1025B000EFFBF2E0EDE8FF00D1E1F0EEF120C0CA60
:1025C00000C0CA20E7E0EFF0EEF100D0E5E6E8EC6D
:1025D00020C0CA00C0CA20E1E5E3EBFBE900CFF36D
:1025E000F1EA20C0CA20F1E2EEE900C0CA20EFF310
:1025F000F1EA00C0CA20E2EAEBFEF7E5ED00C0CA4E
:1026000020E2FBEAEBFEF7E5ED00C0CA20EDEEF0BC
:10261000ECE0EBFCEDFBE900C0CA20F3F1EAEEF0E0
:10262000E5EDEDFBE900C0CA20E0E2F2EEECE0F2FD
:10263000E8F7E5F1EA2E00C2FBE7EEE20000D3E4A2
:1026400025733A20CDE5E8F1EFF02E20F62EC2DB1F
:10265000D500D3E425733A20CDE5E8F1EFF02E2044
:10266000C4D4C700D3E425733A20CFEEECE5F5E0FF
:1026700020E220EBE8ED00D3E425733A20C0CA2025
:102680002D20CDE5F220EEF2E200C0CA202D20CDB3
:10269000E5F220EEF2E2E5F2E020257300C0CA2068
:1026A0002D20D1EDE8E62EE7E0EFE0F1E020257304
:1026B00000D1EEE1FBF2E8E5202D2025640020C8E2
:1026C000E7ECE5EDE8F2FC20EFE0F0E0ECE5F2F01D
:1026D0002020002020ECEEE6EDEE20F2EEEBFCEA0E
:1026E000EE20E220202020002020F0E5E6E8ECE5C6
:1026F00020C2DBC2C5C4C5CD2020202000F7F2E5F2
:10270000EDE8E52E2E00F7F2E5EDE8E52E00256474
:1027100000EEF8E8E1EAE021212100C7EDE0F7E56D
:10272000EDE8E53A200025642E2EB12564002564ED
:102730002E2E256400E2EAEB2E2FE2FBEAEB2E00C0
:10274000F1EFE8F1EEEA00C4E8E0EFE0E7EEED3AA1
:102750002000CDEEECE5F03A2025752F257500CD53
:10276000EEECE5F03A2000CFE0F0E0ECE5F2F03AF4
:10277000257520C2F1E5E3EE3A257500CFF0E5E4DA
:10278000F3EFF02E2025632D2530345800CDE5E8F9
:10279000F1EFF02E2025632D253034580064463D9E
:1027A00025303264C3F600543D25303264B0430016
:1027B000443D25303264E4C10053E43D2530327598
:1027C000B00055F825753D25303264E4C10055F858
:1027D0003D25303264E4C100523D25303375CEECE6
:1027E00000493D25303375ECC000553D253032752C
:1027F0002E25303175C20055EA25753D25303264ED
:10280000E4C10055EA3D25303264E4C10055E725B6
:10281000753D25303264E4C10055E73D2530326412
:10282000E4C100253032753A253032753A25303210
:102830007500253032752E253032752E25303275D3
:102840000025752E2000CDEEE2FBE920EFE0F0EE52
:10285000EBFC3A202530347500CFE0F0EEEBFC3A8B
:1028600020253034750020202020202020C2E2E5E1
:10287000E4E5ED202020202020200020202020ED55
:10288000E5EFF0E0E2E8EBFCEDFBE92020202000A2
:1028900020202020202020EFE0F0EEEBFC20202064
:1028A0002020202000C2E2EEE43A2000C2E2EEE462
:1028B0003A20253031752E2530317500C2E2EEE424
:1028C0003A202530316400CFD0CC323A2000CFD02E
:1028D000CC313A2000D1E8E3EDE0EBFB20EFF0E86B
:1028E000E5ECEDE8EAE000D2E5F1F2FB5CCFF0E8E0
:1028F000E5ECEDE8EA00D1E8E3EDE0EBFB20EFE505
:10290000F0E5E4E0F2F7E8EAE000D2E5F1F2FB5CA2
:10291000CFE5F0E5E4E0F2F7E8EA0020202020CF60
:10292000E5F0E5E9E4E8F2E520E2202020202000BF
:10293000202020F0E5E6E8EC20C2DBC2C5C4C5CD0E
:102940002020202000CDE0F1F2F0EEE9EAE05CD2B8
:10295000E5F1F2FB00D2E5F1F220EFF0E8E5ECED75
:10296000E8EAE000D2E5F1F220EFE5F0E5E4E0F29C
:10297000F7E8EAE000CCE5EDFE5CC8E7ECE5F0E561
:10298000EDE8FF00CDE0F1F2F0EEE9EAE05CC2F044
:10299000E5ECFF26E4E0F2E000D1E5EAF3EDE4FB4C
:1029A00000CCE8EDF3F2FB00D7E0F1FB00C4E5ED6D
:1029B000FC00CCE5F1FFF600C3EEE400CDE0F1F25F
:1029C000F0EEE9EAE05CC8EDF2E5F0F4E5E9F100EB
:1029D000CFE0F0E0ECE5F2F0FB5CCAEEEBFCF6EEEB
:1029E00000CFE0F0E0ECE5F2F0FB5CCEE1F9E8E5E9
:1029F00000CFE0F0E0ECE5F2F0FB5CCFE5F0E5E4E1
:102A0000E0F2F7E8EA00CFE0F0E0ECE5F2F0FB5CA2
:102A1000CFF0E8E5ECEDE8EA00CFE0F0E0ECE5F23D
:102A2000F0FB5CC7E0F9E8F2E000CDE0F1F2F0EE97
:102A3000E9EAE05CCFE0F0E0ECE5F2F0FB00CAEEA2
:102A4000EBFCF6EE00CEE1F9E8E500CFE5F0E5E4D9
:102A5000E0F2F7E8EA00CFF0E8E5ECEDE8EA00C7DD
:102A6000E0F9E8F2E000CDE0F1F2F0EEE9EAE05C56
:102A7000D0E5E6E8EC00CCE5EDFE5CCDE0F1F2F06F
:102A8000EEE9EAE000C8EDF2E5F0F4E5E9F100CFA7
:102A9000E0F0EEEBFC00CFE0F0E0ECE5F2F0FB0064
:102AA000C2F0E5ECFF20E820E4E0F2E000D0E5E64B
:102AB000E8EC00CCE5EDFE5CD3EFF0E0E2EBE5ED19
:102AC000E8E500C6F3F0EDE0EB5CCFE5F0E5E4E02F
:102AD000F2F7E8EA00C6F3F0EDE0EB5CCFF0E8E5F2
:102AE000ECEDE8EA00C6F3F0EDE0EB5CC7E0F9E8F6
:102AF000F2E000C6F3F0EDE0EB5CD1EEE1FBF2E8D2
:102B0000FF00CCE5EDFE5CC6F3F0EDE0EB00CFE5B9
:102B1000F0E5E4E0F2F7E8EA00CFF0E8E5ECEDE814
:102B2000EA00C7E0F9E8F2E000D1EEE1FBF2E8FFED
:102B3000003A20253032582E2530325800CCE5EDB1
:102B4000FE5CC8EDF4EEF0ECE0F6E8FF00CCE5ED5D
:102B5000FE00C8E7ECE5F0E5EDE8FF00C8EDF4EEB7
:102B6000F0ECE0F6E8FF00D2E5F1F2FB00CDE0F199
:102B7000F2F0EEE9EAE000D3EFF0E0E2EBE5EDE8B9
:102B8000E500C6F3F0EDE0EB00EEF8E8E1EAE00086
:102B9000D1EEE2ECE5F1F2E8EC2E2000202020203E
:102BA000C8EDE8F6E8E0EBE8E7E0F6E8FF202020F3
:102BB00000202020EDE520EEEFF0E5E4E5EBE5ED8B
:102BC00021212120200020202020D2E8EF20E0EF4A
:102BD000EFE0F0E0F2E02020202000CFF0E5E4F389
:102BE000EFF0E5E6E4E5EDE8E500CDE5E8F1EFF04E
:102BF000E0E2EDEEF1F2FC0020CDE5F220F1E2FFA3
:102C0000E7E820F120C1D1CF2121212000CFD0C47D
:102C100000CFD0CC00C7C0D900D1EEE1FBF2E8E58F
:102C2000202D202564000000000000000000CDE5FC
:102C3000E8F1EFF020F7F22FE7E0EF20464C4153A8
:102C4000480000CDE5E8F1EFF020F7F22FE7E0EFE4
:102C5000203252414D000000CDE5E8F1EFF020F7C1
:102C6000F22FE7E0EF20CFCBC8D1000000CAEEEB97
:102C7000FCF6EE20EDE0F0F3F8E5EDEE00000000EC
:102C80000000CDE5E8F1EFF020F2E5F1F2E020CF31
:102C9000D0C40000000000CDE5E8F1EFF020E2FB39
:102CA000EAEB2EF2E5F1F220CFD0C400CDE5E8F159
:102CB000EFF020F2E5F1F2E020CFD0CC00000000F0
:102CC00000CDE5E8F1EFF020F7F22EEAEEECE0EDD2
:102CD000E420C1D1CA00CDE5F220E1EBEEEAE0202C
:102CE000C1D1CA0000000000000000CEF8E8E1EA0F
:102CF000E020E2E5F0F1E8E820C1D1CA00000000E0
:102D0000CEF2EAE0E720F0E5E7E5F0E22E20EBE89E
:102D1000EDE8E80000CDE5E8F1EFF0E0E2EDEEF1FE
:102D2000F2FC20F7E0F1EEE20000CAEEEBFCF6EE7A
:102D300020E2EEF1F1F2E0EDEEE2EBE5EDEE00C4C3
:102D4000E8F1F2E0EDF6E8EEEDEDFBE920F1E1F07F
:102D5000EEF10000CAEEECE0EDE4E020EDE520E26B
:102D6000E5F0EDF3EBE0F1FC00CDE5F220F1E8E376
:102D7000EDE0EBE020CCC0CD000000000000C2EA96
:102D8000EB2EEFE8F22FCFE5F0E5E7E0EFF3F1EA25
:102D9000000000C8E7ECE5EDE5EDE8E520F0E5E64C
:102DA000E8ECE00000000000CDE5E8F1EFF020F6EF
:102DB000E5EFE820E2FBF52E0000000000C2EEF196
:102DC000F1F2E0ED2DE520CAD120EDE020CFD0CC0E
:102DD0000000C2EEF1F1F2E0ED2DE520CAD120C1F4
:102DE000D6CA3100000000C2EEF1F1F2E0ED2DE5AF
:102DF00020CAD120C1D6CA3200000000CDE5F220A1
:102E0000CAD120C1D6CA3100000000000000000075
:102E100000CDE5F220CAD120C1D6CA3200000000A0
:102E2000000000000000C2FBEAEBFEF7E5EDE8E57C
:102E300020EFE8F2E0EDE8FF000000CDE5F220CA67
:102E4000D1000000000000000000000000000000B1
:102E5000CDE5F220CAD1203520F1E5EAF3EDE4001A
:102E60000000000000D3E43A20EFEEF1F220EDE59F
:102E7000E8F1EFF0E0E2E5ED0000D3E43A20CFD056
:102E8000C420EDE5E8F1EFF0E0E2E5ED000000D36D
:102E9000E43A20CFD0CC20EDE5E8F1EFF0E0E2E538
:102EA000ED000000C8E7ECE5EDE5EDE8E520E4E045
:102EB000F2E02FE2F0E5ECFF00C8E7ECE5EDE5ED30
:102EC000E8E520EFE0F0E0ECE5F2F0EEE200D1EE34
:102ED000E1FBF2E8E5202D20256400000000000061
:102EE000000000D1EEE1FBF2E8E5202D2025640092
:102EF0000000000000000000D1EEE1FBF2E8E52058
:102F00002D202564000000000000000000D1EEE14B
:102F1000FBF2E8E5202D2025640000000000000001
:102F20000000D1EEE1FBF2E8E5202D202564000051
:102F300000000000000000D1EEE1FBF2E8E5202DEA
:102F4000202564000000000000000000D1EEE1FB3D
:102F5000F2E8E5202D2025640000000000000000BC
:102F600000D1EEE1FBF2E8E5202D20256400000011
:102F7000000000000000D1EEE1FBF2E8E5202D208A
:102F80002564000000000000000000D1EEE1FBF22B
:102F9000E8E5202D2025640000000000000000006E
:102FA000D1EEE1FBF2E8E5202D20256400000000D1
:102FB0000000000000D1EEE1FBF2E8E5202D202525
:102FC00064000000000000000000CDE5E8F1EFF033
:102FD00020F7F22FE7E0EF20464C4153480000CDA8
:102FE000E5E8F1EFF020F7F22FE7E0EF2032524171
:102FF0004D000000CDE5E8F1EFF020F7F22FE7E01B
:10300000EF20CFCBC8D1000000D1EEE1FBF2E8E524
:10301000202D202564000000000000000000CDE508
:10302000E8F1EFF020F2E5F1F2E020CFD0C40000AB
:10303000000000CDE5E8F1EFF020E2FBEAEB2EF234
:10304000E5F1F220CFD0C400CDE5E8F1EFF020F2B9
:10305000E5F1F2E020CFD0CC0000000000CDE5E8A3
:10306000F1EFF020F7F22EEAEEECE0EDE420C1D132
:10307000CA00CDE5F220E1EBEEEAE020C1D1CA00C2
:1030800000000000000000CEF8E8E1EAE020E2E500
:10309000F0F1E8E820C1D1CA00000000CEF2EAE079
:1030A000E720F0E5E7E5F0E22E20EBE8EDE8E800C8
:1030B00000CDE5E8F1EFF0E0E2EDEEF1F2FC20F713
:1030C000E0F1EEE20000CDE5F220E1EBEEEAE020F7
:1030D000C1D1C70000000000000000CEF8E8E1EA1E
:1030E000E020E2E5F0F1E8E820C1D1C700000000EF
:1030F000CDE5E8F1EFF020EFE5F0E5EAEB2DE5E9CD
:1031000020C1D1C700CDE5F220F1E8E3EDE0EBE02E
:1031100020CCC0CD000000000000C2EAEB2EEFE89A
:10312000F22FCFE5F0E5E7E0EFF3F1EA000000C8A9
:10313000E7ECE5EDE5EDE8E520F0E5E6E8ECE000BC
:1031400000000000CDE5E8F1EFF020F6E5EFE82023
:10315000E2FBF52E0000000000C2EEF1F1F2E0ED1E
:103160002DE520CAD120EDE020CFD0CC0000CEF854
:10317000E8E1EAE020F0E0E1EEF2FB20D6CF00004B
:10318000000000C2EEF1F1F2E0ED2DE520F0E0E10B
:10319000EEF2FB20D6CF0000CEF2F1F3F22DE520C7
:1031A000F1E8E3EDE0EBE020CFF3F1EA00CEF2F15D
:1031B000F3F22DE520F1E8E3ED20CEF1F2E0EDEEC3
:1031C000E200C2FBEAEBFEF7E5EDE8E520EFE8F20E
:1031D000E0EDE8FF000000CDE5F220CAD1000000DC
:1031E000000000000000000000000000CDE5F2201B
:1031F000CAD1203520F1E5EAF3EDE400000000003B
:1032000000D3E43A20EFEEF1F220EDE5E8F1EFF043
:10321000E0E2E5ED0000D3E43A20CFD0C420EDE5B4
:10322000E8F1EFF0E0E2E5ED000000D3E43A20CF72
:10323000D0CC20EDE5E8F1EFF0E0E2E5ED000000B4
:10324000C8E7ECE5EDE5EDE8E520E4E0F2E02FE2AB
:10325000F0E5ECFF00C8E7ECE5EDE5EDE8E520EF93
:10326000E0F0E0ECE5F2F0EEE200D1EEE1FBF2E8B6
:10327000E5202D202564000000000000000000D1A2
:10328000EEE1FBF2E8E5202D2025640000000000BF
:1032900000000000D1EEE1FBF2E8E5202D202564DE
:1032A000000000000000000000D1EEE1FBF2E8E5C4
:1032B000202D202564000000000000000000D1EE59
:1032C000E1FBF2E8E5202D2025640000000000006D
:1032D000000000D1EEE1FBF2E8E5202D202564009E
:1032E0000000000000000000D1EEE1FBF2E8E52064
:1032F0002D202564000000000000000000D1EEE158
:10330000FBF2E8E5202D202564000000000000000D
:103310000000D1EEE1FBF2E8E5202D20256400005D
:1033200000000000000000D1EEE1FBF2E8E5202DF6
:10333000202564000000000000000000D1EEE1FB49
:10334000F2E8E5202D2025640000000000000000C8
:1033500000D1EEE1FBF2E8E5202D20300000000076
:10336000000000000000CDE5E8F1EFF020F7F22FBB
:10337000E7E0EF20464C4153480000C2D720F2F06E
:10338000E0EAF220E2EEF1F1F2E0EDEEE2EB2E0007
:10339000CDE5E8F1EFF020F7F22FE7E0EF20CFCB1B
:1033A000C8D1000000C0E2F2EEEAEEEDF2F0EEEB82
:1033B000FC000000000000000000D2EEEA20EFEE6A
:1033C000EAEEFF000000000000000000000000CD59
:1033D000E5E8F1EFF020F7F22FE7E0EF203252417D
:1033E0004D000000CDE5E8F1EFF020F0E0E1EEF275
:1033F000FB2044535000000000C2EEF1F1F2E0ED7A
:103400002DE520F0E0E1EEF2FB2044535000CDE842
:10341000E7EAEEE520EDE0EFF02E20E2FBF5EEE44A
:10342000E00000C2FBF1EEEAEEE520EDE0EFF02E69
:1034300020E2FBF5EEE4E000CDE0F0F3F8E5ED206E
:10344000EEE1ECE5ED20F120D3CC000000CDE5E885
:10345000F1EFF0E0E2EDEEF1F2FC20F7E0F1EEE268
:103460000000CDE5F220E1EBEEEAE020C1D1C7009B
:1034700000000000000000CEF8E8E1EAE020E2E50C
:10348000F0F1E8E820C1D1C700000000CDE5E8F187
:10349000EFF020EFE5F0E5EAEB2DE5E920C1D1C73B
:1034A00000CDE5F220F1E8E3EDE0EBE020CCC0CD8B
:1034B000000000000000C2EAEB2EEFE8F22FCFE59B
:1034C000F0E5E7E0EFF3F1EA000000C8E7ECE5ED36
:1034D000E5EDE8E520F0E5E6E8ECE00000000000BE
:1034E000CDE5E8F1EFF020E7E0EF2E20E2FBF52E4E
:1034F000F6E5EFE800C8E7ECE5EDE5EDE8E520EFFF
:10350000E0F0E0ECE5F2F0EEE200C0CA202D20D1C0
:10351000EDE8E6E5EDE8E520E7E0EFE0F1E000C00A
:10352000CA202D20CDE5F220EEF2E2E5F2E0000027
:1035300000000000CEF2F1F3F22DE520F1E8E3ED1A
:10354000E0EBE020CFF3F1EA00CEF2F1F3F22DE56B
:1035500020F1E8E3ED20CEF1F2E0EDEEE200C2FB77
:10356000EAEBFEF7E5EDE8E520E0EFEFE0F0E0F272
:10357000E00000CFEEECE5F5E020E220EBE8EDE83E
:10358000E800000000000000CDE5E8F1EFF0E0E227
:10359000EDEEF1F2FC20C4D4C700000000D3E43A01
:1035A00020C0CA202D20EDE5F220EEF2E2E5F2E0A7
:1035B0000000D3E43A20CFEEECE5F5E020E220EB8A
:1035C000E8EDE8E8000000D3E43A20CDE5E8F1EFCB
:1035D000F02E20C4D4C7000000000000D3E43A203D
:1035E000CDE5E8F1EFF02E20F6E5EFE820E2FBF57F
:1035F00000CFEEF0EEE320EFEE20EFEEECE5F5E5A8
:10360000000000000000C8E7ECE5EDE5EDE8E5208E
:10361000E2F0E5ECE5EDE800000000D7E0F1FB00AA
:10362000000000000000000000000000000000009A
:10363000CFEEECE5F5E00000000000000000000027
:103640000000000000C4E0EBFCEDE8E90000000031
:1036500000000000000000000000D1E1F0EEF120C9
:10366000F1E2EEE5E3EE000000000000000000D112
:10367000E1F0EEF120EEF220F3E4E0EBE5EDEDEE2B
:10368000E3EE0000D1E1F0EEF120C0CA000000003E
:10369000000000000000000000D1E1F0EEF120C0C9
:1036A000CA20EFEE20E2F52EF3EFF02E3100D1E14B
:1036B000F0EEF120C0CA20EEF220F3E4E0EBE5EDFD
:1036C0002E0000CFF3F1EA20C0CA00000000000085
:1036D0000000000000000000D1EEE1FBF2E8E52070
:1036E0002D202564000000000000000000C2EAEB6D
:1036F0002E20EFE8F2E0EDE8FF2FEFE5F0E5E7E060
:10370000EF00C2FBEAEBFEF7E5EDE8E520EFE8F2BB
:10371000E0EDE8FF000000C8E7ECE5EDE5EDE8E5E9
:1037200020F0E5E6E8ECE020F0E0E100D3E4E0EBB7
:10373000E5EDEDFBE920EDE5E8F1EFF0E0E2E5EDA8
:1037400000CDE5E8F1EFF020F2E5F1F2E020CFD096
:10375000C40000000000CDE5E8F1EFF020F2E5F153
:10376000F2E020CFD0CC0000000000CDE5E8F1EF82
:10377000F020E1EBEEEAE020C1D1C700000000003C
:10378000CDE5E8F1EFF020E1EBEEEAE020C1D1CAAF
:103790000000000000CDE5E8F1EFF020EFE5F0E5F6
:1037A000EAEB2DE5E920C1D1C700CDE5F220F1E833
:1037B000E3EDE0EBE020ECE0EDE8EFF3EB2E00CD05
:1037C000E5E8F1EFF020E2FBF5EEE4EDEEE920F6BE
:1037D000E5EFE800CDE5F220D0C7203520F1E5EA9D
:1037E00020EDE0202573000000CEF2F1F3F22DE58C
:1037F00020F1E8E3EDE0EBE020CFF3F1EA00CEF2D8
:10380000F1F3F22DE520F1E8E3EDE0EBE020D1F279
:10381000EEEF00CDE5E8F1EFF020F7F2E5EDE8FF9F
:1038200020EAEEECE0EDE400D1EDE8E62E20F3F046
:103830002E20CAD720EDE0202573000000CDE5E85A
:10384000F1EFF02E20F0E0E1EEF2FB2044535000C7
:103850000000C2EEF1F1F2E0ED2DE520F0E0E1EE46
:10386000F2FB2044535000CDE8E7EAEEE520EDE01E
:10387000EFF02E20E2FBF5EEE4E00000C2FBF1EEFB
:10388000EAEEE520EDE0EFF02E20E2FBF5EEE4E0DD
:1038900000CDE5F220CAD7203520F1E5EA20EDE0A1
:1038A000202573000000CDE5F220CAD720EDE020EE
:1038B0002573000000000000000000C2EEF1F1F2EC
:1038C000E0ED2DE520CAD720EDE0202573000000B3
:1038D000C2EEF1F1F22E20F3F02ECAD720EDE02057
:1038E0002573000000CDE5E8F1EFF020F7F22FE7B7
:1038F000E0EF203252414D000000CDE5E8F1EFF05D
:1039000020F7F22FE7E0EF20CFCBC8D1000000CDA9
:10391000E5E8F1EFF020F7F22FE7E0EF20464C4129
:1039200053480000CDE5E8F1EFF0E0E2EDEEF1F212
:10393000FC20F7E0F1EEE20000D1EDE8E62E20F306
:10394000F02E20D0C720EDE0202573000000C2EE4D
:10395000F1F1F2E0ED2DE520D0C720EDE020257358
:10396000000000CDE5F220D0C720EDE02025730057
:103970000000000000000000C2EEF1F1F22E20F382
:10398000F02ED0C720EDE0202573000000C8E7EC42
:10399000E5EDE5EDE8E520EFE0F0E0ECE5F2F0EE56
:1039A000E200C8E7ECE5EDE5EDE8E520E4E0F2E073
:1039B0002FE2F0E5ECFF00CFF0E8E5EC20D0C720E7
:1039C000E220EEE4EDEEF1F2EEF02E00CDE5F22095
:1039D000D0C720E220EEE4EDEEF1F2EEF02E000092
:1039E00000C2D720F2F0E0EAF220E2EEF1F1F2E0DC
:1039F000EDEEE2EB2E00C2EAEB2E20EEE4EDEEF16E
:103A0000F2EEF02E20F0E5E6E8EC00C2FBEAEB2057
:103A1000EEE4EDEEF1F2EEF02E20F0E5E6E8EC005B
:103A2000D1E1F0EEF120C2D720F2F0E0EAF220E29C
:103A3000EEF1F1F200D1EEE1FBF2E8E5202D2025D8
:103A400064000000000000000000D1EEE1FBF2E89D
:103A5000E5202D202564000000000000000000D1BA
:103A6000EEE1FBF2E8E5202D2025640000000000D7
:103A700000000000D1EEE1FBF2E8E5202D2030004F
:103A8000000000000000000000C2EAEB2E20EFE87A
:103A9000F2E0EDE8FF2FEFE5F0E5E7E0EF00C2FB35
:103AA000EAEBFEF7E5EDE8E520EFE8F2E0EDE8FF10
:103AB000000000C8E7ECE5EDE5EDE8E520F0E5E61F
:103AC000E8ECE020F0E0E100C8E7ECE5EDE5EDE84A
:103AD000E520EFE0F0E0ECE5F2F0EEE200CDE5E825
:103AE000F1EFF020F2E5F1F2E020CFD0C4000000C9
:103AF0000000CDE5E8F1EFF020F2E5F1F2E020CFB3
:103B0000D0CC0000000000D1EEE1FBF2E8E5202D72
:103B1000203700000000000000000000CDE5E8F1C3
:103B2000EFF020E1EBEEEAE020C1D1CA0000000096
:103B300000C8E7ECE5EDE5EDE8E520E4E0F2E02F94
:103B4000E2F0E5ECFF00D1EEE1FBF2E8E5202D200C
:103B50003130000000000000000000D1EEE1FBF277
:103B6000E8E5202D203131000000000000000000B9
:103B7000D1EEE1FBF2E8E5202D203132000000001B
:103B80000000000000C0E2E0F0E8FF20EFEE20447B
:103B900000000000000000000000CFF0E5E4F3EFBB
:103BA000F0E5E6E4E5EDE8E520EFEE20440000CDA9
:103BB000E5E8F1EFF020F7F2E5EDE8FF20EAEEECC2
:103BC000E0EDE400C2EEF1F1F2E0EDEEE2EBE5ED66
:103BD000E8E520440000000000CDE5E8F1EFF02E1C
:103BE00020F0E0E1EEF2FB20445350000000C2EE72
:103BF000F1F1F2E0ED2DE520F0E0E1EEF2FB204402
:103C0000535000CDE8E7EAEEE520EDE0EFF02E209E
:103C1000E2FBF5EEE4E00000C2FBF1EEEAEEE520A7
:103C2000EDE0EFF02E20E2FBF5EEE4E000CDE5F272
:103C300020CAD7203520F1E5EA20EDE020257300E9
:103C40000000CDE5F220CAD720EDE020257300006A
:103C500000000000000000C2EEF1F1F2E0ED2DE501
:103C600020CAD720EDE0202573000000C2EEF1F15C
:103C7000F22EF3F02E20CAD720EDE02025730000AD
:103C800000CDE5E8F1EFF020F7F22FE7E0EF20328A
:103C900052414D000000CDE5E8F1EFF020F7F22FA2
:103CA000E7E0EF20CFCBC8D1000000CDE5E8F1EF91
:103CB000F020F7F22FE7E0EF20464C415348000098
:103CC000CDE5E8F1EFF0E0E2EDEEF1F2FC20F7E017
:103CD000F1EEE20000D1EDE8E62EF3F02E20CAD797
:103CE00020EDE020257300000000CEF8E8E1EAE0D6
:103CF00020F0E0E1EEF2FB20D6CF0000000000C291
:103D0000F5EEE420525820D6CF20EFF3F1F2000078
:103D100000000000D0E0E1EEF2E020D6CF20E2EE9D
:103D2000F1F1F2E0EDEEE2EB00C2FBF1EEEAE0FFD2
:103D300020F2E5ECEFE5F0E0F2F3F0E00000CDE892
:103D4000E7EAE0FF20F2E5ECEFE5F0E0F2F3F0E087
:103D5000000000CDEEF0ECE0EB2E20F2E5ECEFE51C
:103D6000F0E0F2F3F0E00000CDE5E8F1EFF02EE452
:103D7000E0F2F7E8EA20F2E5ECEFE5F000C8F1EF59
:103D8000F0E0E22EE4E0F2F7E8EA20F2E5ECEFE51D
:103D9000F000D1EEE1FBF2E8E5202D2025640000E3
:103DA00000000000000000D1EEE1FBF2E8E5202D6C
:103DB000202564000000000000000000D1EEE1FBBF
:103DC000F2E8E5202D20256400000000000000003E
:103DD00000D1EEE1FBF2E8E5202D20256400000093
:103DE000000000000000D1EEE1FBF2E8E5202D200C
:103DF0002564000000000000000000D1EEE1FBF2AD
:103E0000E8E5202D202564000000000000000000EF
:103E1000CAEEECE0EDE4E020EFF0E8EDE8ECE0E500
:103E2000F2F1FF00CAEEECE0EDE4E020EFE5F0E5B2
:103E3000E4E0E5F2F1FF00CAEEECE0EDE420EDE5B0
:103E4000F200CEEAEEEDF7E0EDE8E520EAEEECE098
:103E5000EDE4FB00000000CDE0F7E0EBEE20EAEE41
:103E6000ECE0EDE4FB00000000000000CEF8E8E12B
:103E7000EEF7EDEEE520E7EDE0F7E5EDE8E5000033
:103E800000000000000028D6CF290028CED8290045
:103E9000CF2564D12564CC256420CFC42564CFCC44
:103EA0002564C2DBD5256400D1D7C8D2DBC2C0CD22
:103EB000C8C520C7C0CFC8D1C800C2F0E5ECFF3AE2
:103EC00020253032753A253032753A253032752E3C
:103ED0002530337500C4E0F2E03A20253032752EEB
:103EE000253032752E2530327500CAEEECE0EDE457
:103EF000E03A20257520257300CAEEECE0EDE4E001
:103F00003A20257500D1EEF1F2EEFFEDE8E53A003A
:103F1000D0E5E6E8EC3A00C7E0EFE8F1FC202575D3
:103F2000202F202575202825752900C7E0EFE8F10E
:103F3000FC202575202F20257500C6D3D0CDC0CB01
:103F400020CFD3D1D200C7EDE0F7E5EDE8E53A2088
:103F500000C2F5EEE420525820D6CF20EFF3F1F264
:103F600000CEF8E8E1EAE020F0E0E1EEF2FB20D656
:103F7000CF00CDE5E8F1EFF02EE2F5EEE42E20EAF9
:103F8000EEEC00CDE5E8F1EFF02EE2EAEB2E20D2E8
:103F9000E5F1F200CDE5E8F1EFF02EE2FBEAEB2EE1
:103FA000D2E5F1F200CDE5E8F1EFF02EF7F22EEADE
:103FB000EEECE0EDE400CDE5E8F1EFF02EE2E5F027
:103FC000F12E20C1D1CA00CDE5F220E1EBEEEAE00E
:103FD00020C1D1CA00CDE8E7EAE8E920F3F0EEE23B
:103FE000E5EDFC204400C2F5EEE420525820D6CF87
:103FF00020EFF3F1F200CEF8E8E1EAE020F0E0E1B2
:10400000EEF2FB20D6CF00CDE5F220CAD100D1EDF3
:10401000E8E62E20F3F0EEE2EDFF20CFD0CC00CD8D
:10402000E5E8F1EFF02EEAEEEDF2F02EEAEEEC002C
:10403000CDE5E8F1EFF02EE2EAEB2E20EAEEEC2EF1
:1040400000CDE5E8F1EFF02EE2FBEAEB2EEAEEEC34
:104050002E00CDE5E8F1EFF02EE7E0EF2E20C1D104
:10406000CA00CDE8E7EAE8E920F3F0EEE2E5EDFC8E
:10407000204400CDE5F220CAD100CDE5F220CAD718
:1040800000CDE5E8F1EFF02EE2E5F0F12E20C1D110
:10409000CA00CDE5F220E1EBEEEAE020C1D1CA0092
:1040A000D7E0F1FB00CFEEECE5F5E000C0E2F2EE88
:1040B000EAEEEDF2F0EEEBFC00CFF0E8E5EC20D01C
:1040C000C720E220EEE4EDEEF100CFEEF0EEE320CB
:1040D000EFEE20EFEEECE5F5E500CDE5F220F1E8BE
:1040E000E3EDE0EBE020CCC0CD00CDE5F220CAD17D
:1040F00000CDE8E7EAE8E920F3F0EEE22E20D0C7B1
:1041000000C0CA2DD1ED2EE7E0EFE0F1E0202573ED
:1041100000D3E4E0EB2E20EDE5E8F1EFF0E0E2E59E
:10412000ED00CDE5E8F1EFF02E20C4D4C700CDE5D9
:10413000F220F1E8E3EDE0EBE020D0C700CFEEECB9
:10414000E5F5E020E220EBE8EDE8E800CDE5E8F178
:10415000EFF02EE7E0EF2E20C2DBD500D3E4E0EB5A
:104160002EEEE1ED2EEFEEEC2E257300CDE5E8F11D
:10417000EFF02EF6E5EFFC20C2DBD500D3E4E0EB58
:104180002EE1E5E720EEF2E22E257300CDE5E8F121
:10419000EFF02EE2F5EEE42ED1D2CECF00CDE5E861
:1041A000F1EFF02EE2F5EEE42ECFD3D1CA00CDE54B
:1041B000E8F1EFF02EF3E42EC2DBD5257300CDE558
:1041C000E8F1EFF02EF3E42EC4D4C7257300CDE55B
:1041D000F220CAD100C0CA2DCDE5F220EEF2E2E510
:1041E000F2E0257300C4E0EBFCEDE8E900C2D72063
:1041F000F2F0E0EAF220E2EEF1F1F22E00CDE5E895
:10420000F1EFF02EEFE5F0E5EAEB2E00CDE5E8F179
:10421000EFF02EE2E5F0F12EC1D1C700CDE5F2209E
:10422000E1EBEEEAE020C1D1C700CDE5F220CAD132
:1042300020EDE020C1D6CA3200CDE5F220CAD1205F
:10424000EDE020C1D6CA3100CEF8E8E1EAE020F086
:10425000E0E1EEF2FB20D6CF00D3E4E0EB2ECFD0AE
:10426000CC20EDE5E8F1EFF000D3E4E0EB2ECFD089
:10427000C420EDE5E8F1EFF000CDE5E8F1EFF02E38
:1042800020E4E0F22EF2E5ECEF00D3E4E0EB2ECFF9
:10429000CED1D220EDE5E8F1EFF000CAEEEBFCF66E
:1042A000EE20EDE0F0F3F8E5EDEE00CDE8E7EAE032
:1042B000FF20F2E5ECEFE5F0E0F200CAEEEBFCF6F1
:1042C000EE203220EDE0F0F3F82E00CAEEEC2EEDF9
:1042D000E520E2E5F0EDF3EBE0F1FC00C2FBF1EEEE
:1042E000EAE0FF20F2E5ECEFE5F0E0F200CAEEEBE9
:1042F000FCF6EE203120EDE0F0F3F82E00CEF2EAED
:10430000E0E720F0E5E7E5F0E22EEBE8ED00D3F1A1
:10431000F2E0EDEEE2E8F2E520F7E0F1FB00C2D7D3
:1043200020F2F0E0EAF220E2EEF1F1F22E00CDE52B
:10433000E8F1EFF02E20CCCA20D3CC00C2FBF1EE86
:10434000EAEEE520EDE0EFF02EE2FBF500CDE8E748
:10435000EAEEE520EDE0EFF02EE2FBF500D2EEEA2A
:1043600020EFEEEAEEFF00CDE5E8F1EFF02EF7F2F8
:104370002E203252414D2000CDE5E8F1EFF02E44E1
:104380005350203252414D2000CFEEECE5F5E020B5
:10439000E220EBE8EDE8E800C0CA2DD1EDE8E6E563
:1043A000ED2EE7E0EFE0F1E000C0CA2DCDE5F22010
:1043B000EEF2E2E5F2E000CDE5E8F1EFF02EE7E025
:1043C000EF2E3252414D00CDE5E8F1EFF02EE7E05F
:1043D000EF2E504C495300CDE5E8F1EFF02EF7F207
:1043E0002E20504C495300CDE5E8F1EFF02EE7E0E8
:1043F000EF2E464C41534800CDE5E8F1EFF02EF7A3
:10440000F22E20464C415348003F307830453F0063
:10441000D3EFF02E20D2CC00CFD0CC00CFD0C40030
:10442000D0E5F7FC00D1E8F1F2E5EC2E00CFD0C4E6
:1044300020D6CF25303275003F307830373F00CE60
:10444000E6E8E4E0EDE8E500CF2EEDE5E8F1EFF099
:1044500000CDE5E8F1EFF02E00CDE5F220CAD10065
:10446000CDE5F220CAD700CFD0C420CFC02530324E
:104470007500CFD0C420CAD12530317500CFD0C44B
:1044800020CAD72530317500C8F1F5EEE4ED2E00D5
:104490003F307830453F00CEE4EDEEF1F22E00D310
:1044A000EFF02E20D2CC00CFD0CC00CFD0C400D0A3
:1044B000E5F7FC003F307830393F003F3078303846
:1044C0003F00C1CBCA20CACC2530327500CEE6E809
:1044D000E4E0EDE8E500CF2EEDE5E8F1EFF000CD0A
:1044E000E5E8F1EFF02E00CDE5F220CAD100CDE5F0
:1044F000F220CAD700CFD0CC20CFC02530327500F3
:10450000CFD0CC20CAD12530317500CFD0CC20CA35
:10451000D72530317500C8F1F5EEE4ED2E003F30BF
:104520007830453F00CEE4EDEEF1F22E00D3EFF00F
:104530002E20D2CC00CFD0CC00CFD0C400D0E5F715
:10454000FC00CDE5F220CAD100CDE5F220D0C700B5
:10455000D3E42EEFF3F1EA00CDE0EB2EEFF3F1EA36
:1045600000CEE6E8E4E0EDE8E500CF2EEDE5E8F189
:10457000EFF000CDE5E8F1EFF02E00CEF1F2E0ED46
:10458000EEE200CFF3F1EA00CAEEEDF2F0EEEBFC62
:1045900000C8F1F5EEE4ED2E00CEF8E8E1EAE00027
:1045A000202020000000000000000020312000003A
:1045B0000000000000002032200000000000000089
:1045C00000312032000000000000000020332000F5
:1045D0000000000000000031203300000000000057
:1045E00000003220330000000000000000203F20C7
:1045F00000000000000000002020202020200028D3
:10460000CFD0CC31290028CFD0CC32290020202097
:10461000202020002020202020200028CF312C32F4
:1046200029002020202020200020202020202000E1
:104630002020202020200028CFD0CC31290028CFD6
:10464000D0CC332900202020202020002020202032
:1046500020200028CF312C332900202020202020AA
:1046600000202020202020002020202020200028A2
:10467000CFD0CC32290028CFD0CC33290020202025
:10468000202020002020202020200028CF322C3382
:104690002900202020202020002020202020200071
:1046A000C7C0D90000CFD0CC3100CFD0CC3200CFA2
:1046B000D0C40000CEC1D90000CF312C3200CED8FA
:1046C000C10000C2FBE2E5E4E5ED00C3EEF2EEE27C
:1046D000000000C2E2E5E4E5ED0000D0E5F7FC00F3
:1046E000000000D2E5F1F200000000D2E5F1F20096
:1046F000000000EEF8E8E1EAE00000C1D1CF20CCF4
:10470000CA202000C1D1CF20D6D1CF2000D6D1CF12
:1047100020CFCBC8D100CFC82020CCCA202000C1D8
:10472000D1CA20CFD0C43100C1D1CA20CFD0C43229
:1047300000C1D1CA20CFD0CC3100C1D1CA20CFD046
:10474000CC3200C1D1C720CFCBC8D100EEF8E8E110
:10475000EAE0000000C0CA2DEEF8E8E10000C0CA9F
:104760002DEDEEF0EC0000C0CA2DEDEEF0EC0000F7
:10477000C0CA2DF3F1EAEEF000C0CA2DE2FBEAEB6D
:104780000000C0CA2DE1E5E3EB0000C0CA2DE8F14E
:10479000EFFBF200C0CA2DEFF3F1EA0000C0CA2D12
:1047A000EEE4EDEEF100C0CA2DEEF8E8E10000C045
:1047B000CA2DE0E2F2EE0000C0CA2DEFF0EEE200FA
:1047C00000253032643A253032643A2530326400B4
:1047D0000000000000ECC0000000C000000000EA83
:1047E000C0000000C200000000EAC2000000ECF1BE
:1047F0000000006300000000F7E0F10000E4C100E9
:104800000000C3F6000000EAC3F60000E3F0E0E4B5
:1048100000ECE8ED0000CDC5D20000C900CA00CB15
:1048200000CC00CD00CE00CF002D012E012F013095
:1048300001310132013301340135013601370138CC
:104840000139013A013B013C013D013E013F01407C
:10485000014101420143014401450146014701482C
:104860000149014A014B014C0190019101920193D0
:10487000019401950196019701980199019A019B74
:10488000019C019D019E019F01A001A101A201A324
:1048900001A401A501A601A701A801A901AA01ABD4
:1048A00001AC01AD01AE01AF01B001C201C301C451
:1048B00001C501C601C701C801C901CA01CB01CCAC
:1048C00001CD01CE01CF01D001D101D201D301D45C
:1048D00001D501D601D701D801D901DA01DB01DC0C
:1048E00001DD01DE01DF01E001E101E501E601E7B3
:1048F00001F401F501F601F701F801F901FA01FBF4
:1049000001FC01FD01FE01FF0100020102020203A0
:10491000020402050206020702080209020A020B4B
:10492000020C020D020E020F0210021102120213FB
:1049300002140226022702280229022A022B022C34
:10494000022D022E022F02300231023202330234D3
:1049500002350236023702380239023A023B023C83
:10496000023D023E023F0240024102420243024433
:1049700002450249024A024B024C02580259025AAD
:10498000025B025C025D025E025F02600261026223
:104990000263026402650266026702680269026AD3
:1049A000026B026C026D026E026F02700271027283
:1049B00002730274027502760277027802566972F7
:1049C0007475616C0000C0C101C30302C2C6060752
:1049D000C705C5C404CC0C0DCD0FCFCE0E0ACACB73
:1049E0000BC90908C8D81819D91BDBDA1A1EDEDF73
:1049F0001FDD1D1CDC14D4D515D71716D6D2121303
:104A0000D311D1D010F03031F133F3F23236F6F762
:104A100037F53534F43CFCFD3DFF3F3EFEFA3A3BB2
:104A2000FB39F9F83828E8E929EB2B2AEAEE2E2F92
:104A3000EF2DEDEC2CE42425E527E7E62622E2E342
:104A400023E12120E0A06061A163A3A26266A6A782
:104A500067A56564A46CACAD6DAF6F6EAEAA6A6BF2
:104A6000AB69A9A86878B8B979BB7B7ABABE7E7FF2
:104A7000BF7DBDBC7CB47475B577B7B67672B2B382
:104A800073B17170B05090915193535292965657A2
:104A900097559594549C5C5D9D5F9F9E5E5A9A9B32
:104AA0005B99595898884849894B8B8A4A4E8E8F12
:104AB0004F8D4D4C8C4484854587474686824243C2
:104AC000834181804000C1814001C0804101C0809C
:104AD0004100C1814001C0804100C1814000C181CD
:104AE0004001C0804101C0804100C1814000C181BE
:104AF0004001C0804100C1814001C0804101C080AF
:104B00004100C1814001C0804100C1814000C1819C
:104B10004001C0804100C1814001C0804101C0808E
:104B20004100C1814000C1814001C0804101C0807D
:104B30004100C1814001C0804100C1814000C1816C
:104B40004001C0804101C0804100C1814000C1815D
:104B50004001C0804100C1814001C0804101C0804E
:104B60004100C1814000C1814001C0804101C0803D
:104B70004100C1814001C0804100C1814000C1812C
:104B80004001C0804100C1814001C0804101C0801E
:104B90004100C1814001C0804100C1814000C1810C
:104BA0004001C0804101C0804100C1814000C181FD
:104BB0004001C0804100C1814001C0804101C080EE
:104BC0004100C18140C0C2C0CDD2202564256425EA
:104BD000642D5800C0C2C0CDD220CECFD2CE2D255C
:104BE00064256425642DCE00C0C2C0CDD220D0344F
:104BF0003030CC2D3130302DC200C0C2C0CDD220DB
:104C0000CA3430302D30256425642DC200C0C2C0A6
:104C1000CDD220D0C7D1CA2D2564256425642DC2EC
:104C200000C0C2C0CDD220D03430302D3130302D34
:104C3000C20001295E2C942E11241FBECFEFD0E1BB
:104C4000DEBFCDBF11E0A0E0B1E0ECE0F4E401E0B4
:104C50000BBF02C007900D92A239B107D9F72CE023
:104C6000A2E9B1E001C01D92A139B207E1F716E255
:104C7000CCE1D6E204C02197FE010E946E9EC931AC
:104C8000D107C9F744D00C9404A20C940000CF9330
:104C9000DF93FC0180819481891798F4C581D681C6
:104CA000A181B281A80FB11D8C91888381819281ED
:104CB000208131E0320F3083FC01E20FF11D1082C0
:104CC00006C00584F685E02D80818F7D8083DF918D
:104CD000CF910895FC0110821482A585B6858C9130
:104CE00080688C930584F685E02D80818F7B80839E
:104CF00008950F93CF93C82F84EA91E04BD5CC232E
:104D000011F0949A01C09498CF910F91089501E009
:104D100020E040E060EC72E183E991E03BD50BD705
:104D200048E050E060E170E088EB91E00E94D4A19F
:104D30001FBA1EBA8091B8019091B901803127E263
:104D4000920708F0B5C09093D6058093D505809161
:104D5000BA01823068F421E090912D08981301C0C7
:104D600020E090912C08922B90932C0880932D0892
:104D70008091BB01833068F421E090912F08981353
:104D800001C020E090912E08922B90932E088093E2
:104D90002F088091BC01863068F421E090913108A1
:104DA000981301C020E090913008922B9093300826
:104DB000809331088091BD0181110DC091E08091F7
:104DC0003308811101C090E080913208892B8093D3
:104DD0003208109233088091BE01833068F421E0DC
:104DE00090913508981301C020E090913408922BDF
:104DF00090933408809335088091BF01823068F425
:104E000021E090913708981301C020E09091360876
:104E1000922B909336088093370878948091B7014D
:104E2000882309F443C01092B701FFD5A5D78CD6CB
:104E300044D6682F84EA91E023D562D6682F83E9AF
:104E400091E01ED58091D5059091D6059093B9013A
:104E50008093B80180912D088093BA0180912F082A
:104E60008093BB01809131088093BC01809133080D
:104E70008093BD01809135088093BE0180913708F1
:104E80008093BF0148E050E060E170E088EB91E082
:104E90000E94E4A185EB91E040D494E6980F923E05
:104EA00010F48093FA0585EB91E02CD4A895B6CF49
:104EB0001092D6051092D5054ACF1F920F920FB6C9
:104EC0000F9211240BB60F922F933F934F935F9342
:104ED0006F937F938F939F93AF93BF93EF93FF93C2
:104EE000C9D287D310D7FF91EF91BF91AF919F9116
:104EF0008F917F916F915F914F913F912F910F9083
:104F00000BBE0F900FBE0F901F9018951F920F921F
:104F10000FB60F9211240BB60F922F933F934F931E
:104F20005F936F937F938F939F93AF93BF93EF9311
:104F3000FF93B6D180919201882319F0815080931C
:104F4000920180919201811106C081E08093B701A6
:104F50008AE080939201FF91EF91BF91AF919F9171
:104F60008F917F916F915F914F913F912F910F9012
:104F70000BBE0F900FBE0F901F9018951F920F92AF
:104F80000FB60F9211240BB60F922F933F934F93AE
:104F90005F936F937F938F939F93AF93BF93EF93A1
:104FA000FF9384EA91E073DEFF91EF91BF91AF919F
:104FB0009F918F917F916F915F914F913F912F9131
:104FC0000F900BBE0F900FBE0F901F9018951F9261
:104FD0000F920FB60F9211240BB60F922F933F939F
:104FE0004F935F936F937F938F939F93AF93BF93F1
:104FF000EF93FF9384EA91E06DDE33D6FF91EF915A
:10500000BF91AF919F918F917F916F915F914F91E0
:105010003F912F910F900BBE0F900FBE0F901F90DE
:1050200018951F920F920FB60F9211240BB60F9284
:105030002F933F934F935F936F937F938F939F93A0
:10504000AF93BF93EF93FF9390919B0080919C004F
:105050009C7161E009F460E021D6FF91EF91BF916E
:10506000AF919F918F917F916F915F914F913F9100
:105070002F910F900BBE0F900FBE0F901F901895A1
:105080001F920F920FB60F9211240BB60F922F930F
:105090003F934F935F936F937F938F939F93AF93C0
:1050A000BF93EF93FF9383E991E0F1DDFF91EF91DF
:1050B000BF91AF919F918F917F916F915F914F9130
:1050C0003F912F910F900BBE0F900FBE0F901F902E
:1050D00018951F920F920FB60F9211240BB60F92D4
:1050E0002F933F934F935F936F937F938F939F93F0
:1050F000AF93BF93EF93FF9383E991E0EBDDF1D59D
:10510000FF91EF91BF91AF919F918F917F916F919F
:105110005F914F913F912F910F900BBE0F900FBE5B
:105120000F901F9018951F920F920FB60F92112497
:105130000BB60F922F933F934F935F936F937F9391
:105140008F939F93AF93BF93EF93FF939BB18CB1DA
:105150009C7161E009F460E0CAD5FF91EF91BF91C5
:10516000AF919F918F917F916F915F914F913F91FF
:105170002F910F900BBE0F900FBE0F901F901895A0
:105180001F920F920FB60F9211248F93809171008E
:10519000887F883241F148F4803199F0883169F094
:1051A0008830E1F48091B5010FC0803581F08835F9
:1051B00099F0803499F485EC17C01092730085E85B
:1051C00013C08091B501816080937300F8CF809106
:1051D00073008093B601F3CF84E906C08CE9809315
:1051E000B60184E801C085EA809374008091740060
:1051F0008068809374008F910F900FBE0F901F9066
:10520000189568E485EB91E06BD220E84AE35AE018
:1052100061E084EA91E084D220E84AEB59E060E062
:1052200083E991E07DC2833019F489EB9FE109C0E5
:10523000843019F48BEC9FE104C0823031F487EAAA
:105240009FE1909301018093000108959FEF980FD3
:10525000923170F4E82FF0E0CF010197E091000166
:10526000F0910101E80FF91F8491813009F0089550
:1052700080E008958091C9019FEF980F993038F030
:105280009FE7980F993010F4875701C080E0109283
:10529000C90108958091CA0165E00C940C9E08959F
:1052A00090B3909597FF02C080E801C080E096FF20
:1052B00002C0876025C0909163009095292F2370CC
:1052C00041F090FF02C084601BC091FF19C0826052
:1052D00017C093B39095292F2F7191F090FF02C0C2
:1052E00083600EC091FF02C085600AC092FF02C0B9
:1052F000866006C093FF02C0886002C094FD89608A
:105300009091C801891741F08093C8018AE0809389
:1053100002011092CA0109C090910201992339F04B
:10532000882379F091509093020180E00AC094E6BE
:10533000909302019091CA019A3018F49F5F909364
:10534000CA019091C901911102C08093C9010895C9
:10535000CF93DF93603240F067FD02C0605205C01A
:10536000603B10F0605501C060E0DC01AF52BE4F01
:1053700085E0689FB001112480E090E0ED01FC0120
:10538000E60FF71FE352F04EE491ED93019685305E
:105390009105A9F71D82DF91CF91089595B3962BC2
:1053A00095BBE2E6F0E090819D7F908390819B7FAA
:1053B0009083000000009081986090838BBB000078
:1053C00000008081877F808385E08A95F1F7000067
:1053D00085B36095682365BB0895E1EDF1E0119216
:1053E00085E0E13DF807D9F7089595B3962B95BB75
:1053F000E2E6F0E090819260908390819B7F9083C1
:10540000000000008BBB808188608083000000006A
:105410008081877F80838AE08A95F1F700C085B319
:105420006095682365BB0895AD9907C0AD9A8FE379
:105430009CE90197F1F700C000008FEF9FEF909378
:10544000D0018093CF019AE09A95F1F700C060EC0B
:1054500084ECA4DF8AE08A95F1F700C060EC8FE36A
:105460009DDF9AE19A95F1F700C0089581E080935D
:10547000CD0108958091CD01882309F448C0809121
:10548000CC01811110C08091CB0160EC885486DF83
:105490008AE18A95F1F700C060EC80E47FDF9AE151
:1054A0009A95F1F700C08091CC01E091CB01803456
:1054B00000F590E8E99FF0011124EF52FE4FE80F4C
:1054C000F11D60E8808191DF8091CB01E091CC01FA
:1054D000F0E090E8899FE00DF11D1124EF5EFD4F93
:1054E00060E4808182DF8091CC018F5F8093CC016A
:1054F0000895E73030F4EF5FE093CB011092CC01D8
:1055000008951092CB011092CC011092CD01089514
:105510008F929F92AF92BF92CF92DF92EF92FF92C3
:105520000F931F93CF93DF93683008F046C0162F78
:10553000C62FD0E024E1629F50011124982E7C01F7
:1055400094E8C92ED12C24E1822E0E2D0919F701E1
:10555000802F90E08A159B059CF48FEFE81AF80ADB
:105560006081C601F5DE802F682D0E940C9E93316C
:1055700019F4E8E0CE0ED11CF6E0CF0ED11CE5CF39
:10558000D695DC2FCC27D795C795CC5FDE4F64E14D
:10559000169F102D112404E1183788F4F70161914A
:1055A0007F01CE01D5DE812F602F0E940C9E9331AA
:1055B00009F428961F5F2696EFCF80E001C081E0B6
:1055C000DF91CF911F910F91FF90EF90DF90CF90DF
:1055D000BF90AF909F908F900895823039F480E310
:1055E00095E7909305018093040108958093CE017F
:1055F00008958091CE01813029F492B380E2892709
:1056000082BB08958091040190910501892BC9F016
:1056100092B380E2892782BB80910301882321F025
:10562000815080930301089587EC8093030180915A
:105630000401909105010197909305018093040165
:10564000089595980895873008F048C0E4EDF1E09A
:105650002EE432E09AE591932E173F07E1F7E1E55A
:10566000F2E041ED55E09FEF2FEF90839283DF0151
:10567000A358BF4F9C9312969C93E058FF4F4E1730
:105680005F0791F7209350022093D10198E1909306
:105690004F029093D2019BED90934E029093D301D1
:1056A000E82FF0E03196F695FE2FEE27F795E79577
:1056B000DF01AC52BE4F8AE79AE59D938150E9F72E
:1056C000EF52FE4FDF01A258BF4F88E18C938183D8
:1056D00011978BED8C93828381E0089580E008958B
:1056E000FC0192B3936092BB86EC8093700081E0E2
:1056F0008093710085E880937400660F60838CE965
:10570000818308952CE9FC012183E4E7F0E08081A6
:1057100080E8808385E280830895FC01818108957B
:10572000FC01528341832383611117C08CE290E016
:105730009683858380E990E09087878389E290E073
:105740009287818785E990E0948783878AE290E059
:10575000968785878BE290E018C06130C1F48CE9B0
:1057600090E09683858388E990E09087878389E934
:1057700090E0928781878DE990E0948783878AE91A
:1057800090E0968785878BE990E0908B87871482DD
:10579000108208958F929F92AF92BF92CF92DF9224
:1057A000EF92FF920F931F93CF93DF93EC01E42EC0
:1057B000F22E61308BE4780720F010E060E07BE4AB
:1057C00001C011E04B01A12CB12CD501C401975FA0
:1057D000A24CBF4FBC01CD0122E0660F771F881F8E
:1057E000991F2A95D1F7A5019401E3E0220F331FF9
:1057F000441F551FEA95D1F70E944C9EBA01A9019A
:10580000415051096109710982E08F1550F081E022
:10581000F81629F082E0F81205C080E304C080E2A7
:1058200002C010E080E0023018F4013019F401C029
:1058300010E08860E11010E08660EF81F885C52EE9
:10584000D62EE72EFF24C082E985FA854083EF85B6
:10585000F88992E09083EB85FC858083ED85FE8559
:1058600088E98083812FDF91CF911F910F91FF9065
:10587000EF90DF90CF90BF90AF909F908F90089562
:10588000CF93DF93FC016623B1F0A585B6858C919B
:105890008F778C93A581B681C181D28188818C93C9
:1058A000A181B2811C9281E08083A585B6858C910F
:1058B00080668C936483DF91CF91089580B58B7F50
:1058C00080BD8FEF8ABB1BBA17BA88BB90EE94BB22
:1058D0009FE195BB90E391BB9FEC92BB90EC92B99A
:1058E00083B99EE09093610091EF909362001092D3
:1058F00064008093650017BE8BE083BF88E181BFA1
:1059000087B7826087BF1FBC8CE08EBD10927A0083
:105910001DBC1CBC80E792E09BBD8ABD87B780613F
:1059200087BF9CE088E10FB6F894A89581BD0FBEB3
:1059300091BD08950F931F93CF93DF93D82F8B01C1
:105940001092020CC1E0C093DF0A60E089EC9AE09B
:105950000E946F7660E08EEE9BE00E94A582D130BF
:10596000D1F080F0D23021F542E3B80189EC9AE021
:105970000E948B7661E089EC9AE00E946F76C0937A
:10598000D90816C0C093060C1092030CC093020CE9
:105990001092080C0BC042E3B8018EEE9BE00E940F
:1059A000958161E08EEE9BE00E94A5821092D9085D
:1059B000DF91CF911F910F910895FC018781811193
:1059C00004C0653511F492E096839681923061F5BA
:1059D000A281B381A80FB11D6C93813051F028F0E2
:1059E0008230F1F0833049F014C081E06535D1F4A4
:1059F0001AC06A3AB9F482E016C0262F30E08185D9
:105A000090E00597281739076CF46B5F608784E096
:105A10000AC08F5F9085891730F093E0968303C0AA
:105A200083E001C080E087830895809107018A3078
:105A300018F48F5F809307018CEB9AE00E94D29C50
:105A40008091C20A833081F58CEB9AE00E94659DBB
:105A5000882331F1E091BE0AF091BF0A61E09281A2
:105A60008091090C981360E08CEB9AE00E94159BE2
:105A70006091BE0A7091BF0AFB0192818091090C6E
:105A800098130EC08091020C882351F08CEF9BE09C
:105A90000E949A9C882321F08CEF9BE00E94769CC8
:105AA0001092090C1092070181E0909107019A3041
:105AB00008F080E08093D20508958091020C88233D
:105AC00069F08CEF9BE00E94D29C8091020C855083
:105AD0008230A0F48CEF9BE00C94959C8091F30BAA
