:100000000C94AC260C9412270C9412270C941227F3
:100010000C9412270C9412270C9412270C9412277C
:100020000C9412270C9412270C9412270C9412276C
:100030000C9460B60C9412270C9412270C9498B66A
:100040000C9412270C9412270C948CB50C94F2B4D7
:100050000C94BBB50C9412270C9412270C94122705
:100060000C9412270C9412270C9412270C9412272C
:100070000C9412270C9412270C94F5B50C94B2B47E
:100080000C9426B60C9432B50C9412275066736605
:100090009B66B666D366F0660B672867A767C2677C
:1000A000DF6745676F678B67066822683D685D6834
:1000B00000C1814001C0804101C0804100C1814038
:1000C00001C0804100C1814000C1814001C0804128
:1000D00001C0804100C1814000C1814001C0804118
:1000E00000C1814001C0804101C0804100C1814008
:1000F00001C0804100C1814000C1814001C08041F8
:1001000000C1814001C0804101C0804100C18140E7
:1001100000C1814001C0804101C0804100C18140D7
:1001200001C0804100C1814000C1814001C08041C7
:1001300001C0804100C1814000C1814001C08041B7
:1001400000C1814001C0804101C0804100C18140A7
:1001500000C1814001C0804101C0804100C1814097
:1001600001C0804100C1814000C1814001C0804187
:1001700000C1814001C0804101C0804100C1814077
:1001800001C0804100C1814000C1814001C0804167
:1001900001C0804100C1814000C1814001C0804157
:1001A00000C1814001C0804101C0804100C1814047
:1001B00000C0C101C30302C2C60607C705C5C40407
:1001C000CC0C0DCD0FCFCE0E0ACACB0BC90908C877
:1001D000D81819D91BDBDA1A1EDEDF1FDD1D1CDC67
:1001E00014D4D515D71716D6D21213D311D1D010D7
:1001F000F03031F133F3F23236F6F737F53534F4C7
:100200003CFCFD3DFF3F3EFEFA3A3BFB39F9F83836
:1002100028E8E929EB2B2AEAEE2E2FEF2DEDEC2C26
:10022000E42425E527E7E62622E2E323E12120E096
:10023000A06061A163A3A26266A6A767A56564A486
:100240006CACAD6DAF6F6EAEAA6A6BAB69A9A868F6
:1002500078B8B979BB7B7ABABE7E7FBF7DBDBC7CE6
:10026000B47475B577B7B67672B2B373B17170B056
:100270005090915193535292965657975595945446
:100280009C5C5D9D5F9F9E5E5A9A9B5B99595898B6
:10029000884849894B8B8A4A4E8E8F4F8D4D4C8CA6
:1002A0004484854587474686824243834181804016
:1002B0005669727475616C00C0C2C0CDD220CECFB9
:1002C000D2CE2D2564256425642DCE00C0C2C0CDBC
:1002D000D220CA3430302D25642564C200C0C2C08B
:1002E000CDD220D0C7D1CA2D2564256425642DC266
:1002F00000C0C2C0CDD220D0343030EC2D313030EF
:100300002DC200C900CA00CB00CC00CD00CE00CF6A
:10031000002D012E012F0130013101320133013452
:1003200001350136013701380139013A013B013C01
:10033000013D013E013F01400141014201430144B1
:1003400001450146014701480149014A014B014C61
:1003500001900191019201930194019501960197F9
:1003600001980199019A019B019C019D019E019FA9
:1003700001A001A101A201A301A401A501A601A759
:1003800001A801A901AA01AB01AC01AD01AE01AF09
:1003900001B001C201C301C401C501C601C701C842
:1003A00001C901CA01CB01CC01CD01CE01CF01D0E1
:1003B00001D101D201D301D401D501D601D701D891
:1003C00001D901DA01DB01DC01DD01DE01DF01E041
:1003D00001E101E501E601E701F401F501F601F7AC
:1003E00001F801F901FA01FB01FC01FD01FE01FF29
:1003F00001000201020202030204020502060207D2
:1004000002080209020A020B020C020D020E020F80
:1004100002100211021202130214022602270228FD
:100420000229022A022B022C022D022E022F023058
:100430000231023202330234023502360237023808
:100440000239023A023B023C023D023E023F0240B8
:10045000024102420243024402450249024A024B5F
:10046000024C02580259025A025B025C025D025EB3
:10047000025F026002610262026302640265026658
:10048000026702680269026A026B026C026D026E08
:10049000026F0270027102720273027402750276B8
:1004A000027702780200C2FBE7EEE20000000000E3
:1004B00000000000000000000000720107CFF3F10F
:1004C000EA20C0CA00000000000000000000000098
:1004D000008A0107CFF3F1EA20C0CA20F1E2EEE979
:1004E00000000000000000008A0106D0E5E6E8EC0C
:1004F00020C0CA00000000000000000000000072E0
:10050000010ED1E1F0EEF120C0CA000000000000B1
:10051000000000000000720103D1E1F0EEF120E8DC
:10052000EDE4E8EAE0F6E8E800000000009A0000E8
:10053000CFF3F1EA20F1E2EEE5E3EE20E2EAEB2E82
:1005400000000000720108CFF3F1EA20F1E2EEE5CD
:10055000E3EE20E2FBEAEB2E000000720109CFF38C
:10056000F1EA20EFF0E8E5ECEDE8EAE00000000059
:100570000000510000CFF3F1EA20C0CA20F3E4E00C
:10058000EBE5EDEDEEE3EE000072010ACFF3F1EAE8
:1005900020F3E4E0EBE5EDEDEEE3EE2031000000CA
:1005A000720104CFF3F1EA20F3E4E0EBE5EDEDFBBB
:1005B000F5000000000000720106D1E1F0EEF1004C
:1005C00000000000000000000000000000007201B8
:1005D000010020C8E7ECE5EDE8F2FC20EFE0F0E0F8
:1005E000ECE5F2F02020002020ECEEE6EDEE20F22B
:1005F000EEEBFCEAEE20E220202020002020F0E5B7
:10060000E6E8ECE520C2DBC2C5C4C5CD2020202031
:1006100000C0CA2DEEF8E8E10000C0CA2DEDEEF0F2
:10062000EC0000C0CA2DEDEEF0EC0000C0CA2DF3C6
:10063000F1EAEEF000C0CA2DE2FBEAEB0000C0CA0E
:100640002DE1E5E3EB0000C0CA2DE8F1EFFBF2007D
:10065000C0CA2DEFF3F1EA0000C0CA2DEEE4EDEEC2
:10066000F100C0CA2DEEF8E8E10000C0CA2DE0E2BA
:10067000F2EE0000C0CA2DEFF0EEE20000253032AD
:10068000643A253032643A253032640000000000BC
:1006900000ECC0000000C000000000EAC000000044
:1006A000C200000000EAC2000000ECF1000000639C
:1006B00000000000F7E0F10000E4C1000000C3F614
:1006C000000000EAC3F60000E3F0E0E400F7F2E522
:1006D000EDE8E52E2E00F7F2E5EDE8E52E002564C5
:1006E00000EEF8E8E1EAE021212100C7EDE0F7E5BE
:1006F000EDE8E53A200025642E2EB125640025643E
:100700002E2E256400E2EAEB2E2FE2FBEAEB2E0010
:10071000F1EFE8F1EEEA00C4E8E0EFE0E7EEED3AF1
:100720002000CDEEECE5F03A2025752F257500CDA3
:10073000EEECE5F03A2000CFE0F0E0ECE5F2F03A44
:10074000257520C2F1E5E3EE3A257500C2FBE2E52E
:10075000E4E5ED00C3EEF2EEE2000000C2E2E5E403
:10076000E5ED0000D0E5F7FC00000000D2E5F1F275
:1007700000000000D2E5F1F200000000EEF8E8E130
:10078000EAE000002020200000000000000000003F
:100790002031200000000000000000002032200076
:1007A00000000000000000003120320000000000C6
:1007B00000000000203320000000000000000000C6
:1007C0003120330000000000000000003220330020
:1007D0000000000000000000203F2000000000009A
:1007E00000000000CFF0E5E4F3EFF02E2025632DAC
:1007F0002530345800CDE5E8F1EFF02E2025632DAB
:10080000253034580064463D25303264C3F6005428
:100810003D25303264B04300443D25303264E4C1AC
:1008200000253032753A253032753A253032750060
:10083000253032752E253032752E25303275005315
:10084000E43D25303275B00055F825753D25303230
:1008500064E4C10055F83D25303264E4C10055EA36
:1008600025753D25303264E4C10055EA3D2530321E
:1008700064E4C10055E725753D25303264E4C100CC
:1008800055E73D25303264E4C100523D25303375D3
:10089000CEEC00493D25303375ECC000553D253088
:1008A00032752E25303175C2003F00CDEEE2FBE9F6
:1008B00020EFE0F0EEEBFC3A202530347500CFE07D
:1008C000F0EEEBFC3A20253034750020202020206B
:1008D0002020C2E2E5E4E5ED2020202020202000B9
:1008E00020202020EDE5EFF0E0E2E8EBFCEDFBE975
:1008F000202020200020202020202020EFE0F0EEEB
:10090000EBFC2020202020202000C2E2EEE43A2050
:10091000253031752E2530317500C2E2EEE43A20E3
:100920002530316400C2E2EEE43A2000C7EDE0F782
:10093000E5EDE8E53A2000CFD0CC323A2000CFD028
:10094000CC313A2000D1E8E3EDE0EBFB20EFF0E81A
:10095000E5ECEDE8EAE000D2E5F1F2FB5CCFF0E88F
:10096000E5ECEDE8EA00D1E8E3EDE0EBFB20EFE5B4
:10097000F0E5E4E0F2F7E8EAE000D2E5F1F2FB5C52
:10098000CFE5F0E5E4E0F2F7E8EA0020202020CF10
:10099000E5F0E5E9E4E8F2E520E22020202020006F
:1009A000202020F0E5E6E8EC20C2DBC2C5C4C5CDBE
:1009B000202020200025642E20D2E5F1F220EFF047
:1009C000E8E5ECEDE8EAE00025642E20D2E5F1F25E
:1009D00020EFE5F0E5E4E0F2F7E8EAE000CDE0F151
:1009E000F2F0EEE9EAE05CD2E5F1F2FB00CCE5EDF5
:1009F000FE5CC8E7ECE5F0E5EDE8FF0025642E209D
:100A0000D1E5EAF3EDE4FB0025642E20CCE8EDF31C
:100A1000F2FB0025642E20D7E0F1FB0025642E2098
:100A2000C4E5EDFC0025642E20CCE5F1FFF60025A1
:100A3000642E20C3EEE400CDE0F1F2F0EEE9EAE04E
:100A40005CC2F0E5ECFF26E4E0F2E000CDE0F1F27C
:100A5000F0EEE9EAE05CC8EDF2E5F0F4E5E9F1007A
:100A6000CFE0F0E0ECE5F2F0FB5CCAEEEBFCF6EE7A
:100A700000CFE0F0E0ECE5F2F0FB5CCEE1F9E8E578
:100A800000CFE0F0E0ECE5F2F0FB5CCFE5F0E5E470
:100A9000E0F2F7E8EA00CFE0F0E0ECE5F2F0FB5C32
:100AA000CFF0E8E5ECEDE8EA00CFE0F0E0ECE5F2CD
:100AB000F0FB5CC7E0F9E8F2E00025642E20CAEE06
:100AC000EBFCF6EE0025642E20CEE1F9E8E50025EA
:100AD000642E20CFE5F0E5E4E0F2F7E8EA002564D3
:100AE0002E20CFF0E8E5ECEDE8EA0025642E20C7E3
:100AF000E0F9E8F2E000CDE0F1F2F0EEE9EAE05CE6
:100B0000CFE0F0E0ECE5F2F0FB00CDE0F1F2F0EE4A
:100B1000E9EAE05CD0E5E6E8EC0025642E20C8EDCB
:100B2000F2E5F0F4E5E9F10025642E20CFE0F0EEE7
:100B3000EBFC0025642E20CFE0F0E0ECE5F2F0FBCA
:100B40000025642E20C2F0E5ECFF20E820E4E0F26E
:100B5000E00025642E20D0E5E6E8EC00CCE5EDFED3
:100B60005CCDE0F1F2F0EEE9EAE00025642E20CE63
:100B7000E4EDEEF1F22EF0E5E62E20E2EAEB0025C0
:100B8000642E20CEE4EDEEF1F22EF0E5E62E20E22A
:100B9000FBEAEB0025642E20D1E1F0EEF120E2F13A
:100BA000E5F50025642E20D1E1F0EEF120E8EDE43A
:100BB000E8EAE0F6E8E80025642E20D1E1F0EEF165
:100BC00020F3E4E0EBE5ED2E20330025642E20D168
:100BD000E1F0EEF120F3E4E0EBE5ED2E203200252C
:100BE000642E20D1E1F0EEF120F3E4E0EBE5ED2E10
:100BF00020310025642E20C0CA20E2EAEBFEF7E592
:100C0000ED0025642E20CFF3F1EA20F3E4E0EB2D94
:100C1000FBF520CCC0CD0025642E20CFF3F1EA20D7
:100C2000F3E4E0EB2E20CCC0CD20330025642E2051
:100C3000CFF3F1EA20F3E4E0EB2E20CCC0CD20325C
:100C40000025642E20CFF3F1EA20F3E4E0EB2E2020
:100C5000CCC0CD20310025642E20CFF3F1EA20F363
:100C6000E4E0EBE5EDEDFBF50025642E20CFF3F19C
:100C7000EA20F3E4E0EBE5EDED2E20330025642ED1
:100C800020CFF3F1EA20F3E4E0EBE5EDED2E2032A6
:100C90000025642E20CFF3F1EA20F3E4E0EBE5ED4C
:100CA000ED2E20310025642E20D1E1F0EEF120F36D
:100CB000E4E0EBE5EDEDFBF50025642E20C0CA2055
:100CC000E1E5E3EBFBE90025642E20C0CA20EDEE50
:100CD000F0ECE0EBFCEDFBE90025642E20C0CA201F
:100CE000E8F1EFFBF2E0EDE8FF0025642E20C0CA3A
:100CF00020E2FBEAEBFEF7E5ED0025642E20C0CAFA
:100D000020F3F1EAEEF0E5EDEDFBE90025642E209D
:100D1000C0CA20E0E2F2EEECE0F2E8F7E5F1EA2EFC
:100D20000025642E20CFF3F1EA20CFD0C400256443
:100D30002E20CFF3F1EA20C0CA20F3E4E0EBE5ED8A
:100D4000ED2E0025642E20CFF3F1EA20C0CA20F159
:100D5000E2EEE90025642E20D1E1F0EEF120C0CAD8
:100D60000025642E20C0CA20EAEEEDF2F02EEFF04E
:100D7000EEE2E5F02E0025642E20CFF3F1EA20F319
:100D8000E4E0EBE5ED2E20CCC0CD0025642E20C0A4
:100D9000CA20EFF3F1EA0025642E20CFF3F1EA2018
:100DA000EDE0EBE0E42E20E2FBEAEB0025642E20F0
:100DB000CFF3F1EA20EDE0EBE0E42E20E2EAEB2EC7
:100DC0000025642E20C2FBE7EEE20025642E20D130
:100DD000E1F0EEF120F3E4E0EBE5EDEDEEE3EE0023
:100DE00025642E20D1E1F0EEF120F1E2EEE5E3EE14
:100DF0000025642E20CFF3F1EA20F3E4E0EBE5EDEB
:100E0000EDEEE3EE00CCE5EDFE5CD3EFF0E0E2EBDF
:100E1000E5EDE8E500C7E0EFE8F1FC202575202FBF
:100E2000202575202825752900C7E0EFE8F1FC2072
:100E30002575202F20257500C6D3D0CDC0CB20CF5F
:100E4000D3D1D200D1D7C8D2DBC2C0CDC8C520C74C
:100E5000C0CFC8D1C800CAEEECE0EDE4E03A2025EE
:100E60007500000000000028D6CF290028CED82920
:100E700000C4E0F2E03A20253032752E253032757C
:100E80002E2530327500C2F0E5ECFF3A20253032D5
:100E9000753A253032753A253032752E2530337546
:100EA00000CAEEECE0EDE4E020EFE5F0E5E4E0E59B
:100EB000F2F1FF00CAEEECE0EDE420EDE5F200CE49
:100EC000EAEEEDF7E0EDE8E520EAEEECE0EDE4FB3C
:100ED00000000000CDE0F7E0EBEE20EAEEECE0ED04
:100EE000E4FB00000000000000CEF8E8E1EEF7EDC2
:100EF000EEE520E7EDE0F7E5EDE8E5000000C6F3FC
:100F0000F0EDE0EB5CCFE5F0E5E4E0F2F7E8EA00D5
:100F10002020202020200028CFD0CC32290028CF2C
:100F2000D0CC332900202020202020002020202089
:100F300020200028CF322C33290020202020202000
:100F40000020202020202000CAEEECE0EDE4E03A72
:100F5000202575202573002020202020200028CF68
:100F6000D0CC31290028CFD0CC332900202020201C
:100F70002020002020202020200028CF312C3329C1
:100F800000202020202020002020202020200020C1
:100F900020202020200028CFD0CC31290028CFD0FD
:100FA000CC322900202020202020002020202020BA
:100FB000200028CF312C32290020202020202000A2
:100FC00020202020202000CAEEECE0EDE4E020EF1D
:100FD000F0E8EDE8ECE0E5F2F1FF00C6F3F0EDE05B
:100FE000EB5CCFF0E8E5ECEDE8EA00D1EEF1F2EEF3
:100FF000FFEDE8E53A00CF2564D12564CC256420D7
:10100000CFC42564CFCC2564C2DBD5256400C6F3EC
:10101000F0EDE0EB5CC7E0F9E8F2E000D0E5E6E8EF
:10102000EC3A00D1EEE1FBF2E8E5202D202564004A
:101030000000000000000000CDE5E8F1EFF020F72F
:10104000F22FE7E0EF20464C4153480000C2D72082
:10105000F2F0E0EAF220E2EEF1F1F2E0EDEEE2EBA6
:101060002E00CDE5E8F1EFF020F7F22FE7E0EF20DA
:10107000CFCBC8D1000000C0E2F2EEEAEEEDF2F014
:10108000EEEBFC000000000000000000D2EEEA20C1
:10109000EFEEEAEEFF00000000000000000000009C
:1010A00000CDE5E8F1EFF020F7F22FE7E0EF203296
:1010B00052414D000000CDE5E8F1EFF020F0E0E115
:1010C000EEF2FB2044535000000000C2EEF1F1F2BA
:1010D000E0ED2DE520F0E0E1EEF2FB20445350007E
:1010E000CDE8E7EAEEE520EDE0EFF02E20E2FBF5BB
:1010F000EEE4E00000C2FBF1EEEAEEE520EDE0EF09
:10110000F02E20E2FBF5EEE4E000CDE0F0F3F8E5B0
:10111000ED20EEE1ECE5ED20F120D3CC000000CD98
:10112000E5E8F1EFF0E0E2EDEEF1F2FC20F7E0F1BE
:10113000EEE20000CDE5F220E1EBEEEAE020C1D1E5
:10114000C70000000000000000CEF8E8E1EAE0205F
:10115000E2E5F0F1E8E820C1D1C700000000CDE5EC
:10116000E8F1EFF020EFE5F0E5EAEB2DE5E920C14D
:10117000D1C700CDE5F220F1E8E3EDE0EBE020CCD3
:10118000C0CD000000000000C2EAEB2EEFE8F22F15
:10119000CFE5F0E5E7E0EFF3F1EA000000C8E7ECA7
:1011A000E5EDE5EDE8E520F0E5E6E8ECE00000003F
:1011B0000000CDE5E8F1EFF020E7E0EF2E20E2FBC4
:1011C000F52EF6E5EFE800CEF8E8E120EAEEEDF2E4
:1011D000F02E20E2FBF52EF6E5EFE800C0CA202D48
:1011E00020D1EDE8E6E5EDE8E520E7E0EFE0F1E02D
:1011F00000C0CA202D20CDE5F220EEF2E2E5F2E0BB
:10120000000000000000CEF2F1F3F22DE520F1E83D
:10121000E3EDE0EBE020CFF3F1EA00CEF2F1F3F200
:101220002DE520F1E8E3ED20CEF1F2E0EDEEE20075
:10123000C2FBEAEBFEF7E5EDE8E520E0EFEFE0F0DA
:10124000E0F2E00000CFEEECE5F5E020E220EBE894
:10125000EDE8E800000000000000CDE5E8F1EFF067
:10126000E0E2EDEEF1F2FC20C4D4C700000000D3B0
:10127000E43A20C0CA202D20EDE5F220EEF2E2E5AE
:10128000F2E00000D3E43A20CFEEECE5F5E020E216
:1012900020EBE8EDE8E8000000D3E43A20CDE5E8F3
:1012A000F1EFF02E20C4D4C7000000000000D3E40A
:1012B0003A20CDE5E8F1EFF02E20F6E5EFE820E268
:1012C000FBF500CFEEF0EEE320EFEE20EFEEECE5E5
:1012D000F5E5000000000000D1EEE1FBF2E8E520BA
:1012E0002D202564000000000000000000D1EEE188
:1012F000FBF2E8E5202D202564000000000000003E
:101300000000D1EEE1FBF2E8E5202D20256400008D
:1013100000000000000000D1EEE1FBF2E8E5202D26
:10132000202564000000000000000000D1EEE1FB79
:10133000F2E8E5202D2025640000000000000000F8
:1013400000D1EEE1FBF2E8E5202D2025640000004D
:10135000000000000000D1EEE1FBF2E8E5202D20C6
:101360002564000000000000000000D1EEE1FBF267
:10137000E8E5202D202564000000000000000000AA
:10138000D1EEE1FBF2E8E5202D202564000000000D
:101390000000000000C7C0D90000CFD0CC3100CF82
:1013A000D0CC3200CFD0C40000CEC1D90000CF31A4
:1013B0002C3200CED8C10000D1EEE1FBF2E8E520EE
:1013C0002D203000000000000000000000C2EAEB09
:1013D0002E20EFE8F2E0EDE8FF2FEFE5F0E5E7E0A3
:1013E000EF00C2FBEAEBFEF7E5EDE8E520EFE8F2FF
:1013F000E0EDE8FF000000C8E7ECE5EDE5EDE8E52D
:1014000020F0E5E6E8ECE020F0E0E100C8E7ECE5FC
:10141000EDE5EDE8E520EFE0F0E0ECE5F2F0EEE2FE
:1014200000CDE5E8F1EFF020F2E5F1F2E020CFD0D9
:10143000C40000000000CDE5E8F1EFF020F2E5F196
:10144000F2E020CFD0CC0000000000D1EEE1FBF2B2
:10145000E8E5202D2037000000000000000000001B
:10146000CDE5E8F1EFF020E1EBEEEAE020C1D1CAF2
:101470000000000000C8E7ECE5EDE5EDE8E520E45C
:10148000E0F2E02FE2F0E5ECFF00D1EEE1FBF2E864
:10149000E5202D203130000000000000000000D1C8
:1014A000EEE1FBF2E8E5202D2031310000000000E4
:1014B00000000000D1EEE1FBF2E8E5202D20313202
:1014C000000000000000000000C0E2E0F0E8FF20A3
:1014D000EFEE204400000000000000000000CFF00C
:1014E000E5E4F3EFF0E5E6E4E5EDE8E520EFEE20F6
:1014F000440000CDE5E8F1EFF020F7F2E5EDE8FF7C
:1015000020EAEEECE0EDE400C2EEF1F1F2E0EDEE07
:10151000E2EBE5EDE8E520440000000000CDE5E861
:10152000F1EFF02E20F0E0E1EEF2FB20445350000A
:101530000000C2EEF1F1F2E0ED2DE520F0E0E1EE89
:10154000F2FB2044535000CDE8E7EAEEE520EDE061
:10155000EFF02E20E2FBF5EEE4E00000C2FBF1EE3E
:10156000EAEEE520EDE0EFF02E20E2FBF5EEE4E020
:1015700000CDE5F220CAD7203520F1E5EA20EDE0E4
:10158000202573000000CDE5F220CAD720EDE02031
:101590002573000000000000000000C2EEF1F1F22F
:1015A000E0ED2DE520CAD720EDE0202573000000F6
:1015B000C2EEF1F1F22EF3F02E20CAD720EDE0209A
:1015C0002573000000CDE5E8F1EFF020F7F22FE7FA
:1015D000E0EF203252414D000000CDE5E8F1EFF0A0
:1015E00020F7F22FE7E0EF20CFCBC8D1000000CDED
:1015F000E5E8F1EFF020F7F22FE7E0EF20464C416D
:1016000053480000CDE5E8F1EFF0E0E2EDEEF1F255
:10161000FC20F7E0F1EEE20000D1EDE8E62EF3F079
:101620002E20CAD720EDE020257300000000CEF860
:10163000E8E1EAE020F0E0E1EEF2FB20D6CF0000A6
:10164000000000C2F5EEE420525820D6CF20EFF380
:10165000F1F2000000000000D0E0E1EEF2E020D660
:10166000CF20E2EEF1F1F2E0EDEEE2EB00C2FBF1B1
:10167000EEEAE0FF20F2E5ECEFE5F0E0F2F3F0E077
:101680000000CDE8E7EAE0FF20F2E5ECEFE5F0E06E
:10169000F2F3F0E0000000CDEEF0ECE0EB2E20F2F3
:1016A000E5ECEFE5F0E0F2F3F0E00000CDE5E8F185
:1016B000EFF02EE4E0F2F7E8EA20F2E5ECEFE5F0F7
:1016C00000C8F1EFF0E0E22EE4E0F2F7E8EA20F201
:1016D000E5ECEFE5F000D1EEE1FBF2E8E5202D20AE
:1016E0002564000000000000000000D1EEE1FBF2E4
:1016F000E8E5202D20256400000000000000000027
:10170000D1EEE1FBF2E8E5202D2025640000000089
:101710000000000000D1EEE1FBF2E8E5202D2025DD
:1017200064000000000000000000D1EEE1FBF2E8E0
:10173000E5202D202564000000000000000000C20C
:10174000EAEB2E20EFE8F2E0EDE8FF2FEFE5F0E521
:10175000E7E0EF00C2FBEAEBFEF7E5EDE8E520EF9E
:10176000E8F2E0EDE8FF000000C8E7ECE5EDE5EDAC
:10177000E8E520F0E5E6E8ECE020F0E0E100D3E485
:10178000E0EBE5EDEDFBE920EDE5E8F1EFF0E0E27F
:10179000E5ED00CDE5E8F1EFF020F2E5F1F2E02033
:1017A000CFD0C40000000000CDE5E8F1EFF020F25A
:1017B000E5F1F2E020CFD0CC0000000000CDE5E85C
:1017C000F1EFF020E1EBEEEAE020C1D1C70000002C
:1017D0000000CDE5E8F1EFF020E1EBEEEAE020C11A
:1017E000D1CA0000000000CDE5E8F1EFF020EFE500
:1017F000F0E5EAEB2DE5E920C1D1C700CDE5F22007
:10180000F1E8E3EDE0EBE020ECE0EDE8EFF3EB2EC8
:1018100000CDE5E8F1EFF020E2FBF5EEE4EDEEE9D6
:1018200020F6E5EFE800CDE5F220D0C7203520F125
:10183000E5EA20EDE0202573000000CEF2F1F3F29E
:101840002DE520F1E8E3EDE0EBE020CFF3F1EA0055
:10185000CEF2F1F3F22DE520F1E8E3EDE0EBE0204C
:10186000D1F2EEEF00CDE5E8F1EFF020F7F2E5ED93
:10187000E8FF20EAEEECE0EDE400D1EDE8E62E2012
:10188000F3F02E20CAD720EDE0202573000000CD14
:10189000E5E8F1EFF02E20F0E0E1EEF2FB2044531A
:1018A00050000000C2EEF1F1F2E0ED2DE520F0E095
:1018B000E1EEF2FB2044535000CDE8E7EAEEE520EC
:1018C000EDE0EFF02E20E2FBF5EEE4E00000C2FBDD
:1018D000F1EEEAEEE520EDE0EFF02E20E2FBF5EE92
:1018E000E4E000CDE5F220CAD7203520F1E5EA207A
:1018F000EDE0202573000000CDE5F220CAD720EDF1
:10190000E0202573000000000000000000C2EEF19E
:10191000F1F2E0ED2DE520CAD720EDE0202573009F
:101920000000C2EEF1F1F22E20F3F02ECAD720ED26
:10193000E0202573000000CDE5E8F1EFF020F7F29C
:101940002FE7E0EF203252414D000000CDE5E8F1F5
:10195000EFF020F7F22FE7E0EF20CFCBC8D1000067
:1019600000CDE5E8F1EFF020F7F22FE7E0EF2046B9
:101970004C4153480000CDE5E8F1EFF0E0E2EDEE38
:10198000F1F2FC20F7E0F1EEE20000D1EDE8E62E06
:1019900020F3F02E20D0C720EDE0202573000000BA
:1019A000C2EEF1F1F2E0ED2DE520D0C720EDE02010
:1019B0002573000000CDE5F220D0C720EDE0202502
:1019C00073000000000000000000C2EEF1F1F22EF2
:1019D00020F3F02ED0C720EDE0202573000000C8D2
:1019E000E7ECE5EDE5EDE8E520EFE0F0E0ECE5F231
:1019F000F0EEE200C8E7ECE5EDE5EDE8E520E4E037
:101A0000F2E02FE2F0E5ECFF00CFF0E8E5EC20D0CB
:101A1000C720E220EEE4EDEEF1F2EEF02E00CDE58F
:101A2000F220D0C720E220EEE4EDEEF1F2EEF02E4F
:101A3000000000C2D720F2F0E0EAF220E2EEF1F17D
:101A4000F2E0EDEEE2EB2E00C2EAEB2E20EEE4ED4A
:101A5000EEF1F2EEF02E20F0E5E6E8EC00C2FBEA53
:101A6000EB20EEE4EDEEF1F2EEF02E20F0E5E6E80C
:101A7000EC00D1E1F0EEF120C2D720F2F0E0EAF282
:101A800020E2EEF1F1F200D1EEE1FBF2E8E5202DEB
:101A9000202564000000000000000000D1EEE1FB02
:101AA000F2E8E5202D202564000000000000000081
:101AB00000CDE5E8F1EFF020F7F22FE7E0EF204668
:101AC0004C4153480000CDE5E8F1EFF020F7F22F4C
:101AD000E7E0EF203252414D000000CDE5E8F1EFA4
:101AE000F020F7F22FE7E0EF20CFCBC8D1000000C5
:101AF000CAEEEBFCF6EE20EDE0F0F3F8E5EDEE00DB
:101B00000000000000CDE5E8F1EFF020F2E5F1F291
:101B1000E020CFD0C40000000000CDE5E8F1EFF0F8
:101B200020E2FBEAEB2EF2E5F1F220CFD0C400CDAB
:101B3000E5E8F1EFF020F2E5F1F2E020CFD0CC00C3
:101B400000000000CDE5E8F1EFF020F7F22EEAEE1C
:101B5000ECE0EDE420C1D1CA00CDE5F220E1EBEEEE
:101B6000EAE020C1D1CA0000000000000000CEF869
:101B7000E8E1EAE020E2E5F0F1E8E820C1D1CA00BE
:101B8000000000CEF2EAE0E720F0E5E7E5F0E22E23
:101B900020EBE8EDE8E80000CDE5E8F1EFF0E0E269
:101BA000EDEEF1F2FC20F7E0F1EEE20000CAEEEB20
:101BB000FCF6EE20E2EEF1F1F2E0EDEEE2EBE5ED27
:101BC000EE00C4E8F1F2E0EDF6E8EEEDEDFBE92021
:101BD000F1E1F0EEF10000CAEEECE0EDE4E020ED22
:101BE000E520E2E5F0EDF3EBE0F1FC00CDE5F220DD
:101BF000F1E8E3EDE0EBE020CCC0CD000000000018
:101C000000C2EAEB2EEFE8F22FCFE5F0E5E7E0EFD8
:101C1000F3F1EA000000C8E7ECE5EDE5EDE8E520CA
:101C2000F0E5E6E8ECE00000000000CDE5E8F1EFCB
:101C3000F020F6E5EFE820E2FBF52E0000000000C2
:101C4000C2EEF1F1F2E0ED2DE520CAD120EDE02069
:101C5000CFD0CC0000C2EEF1F1F2E0ED2DE520CACC
:101C6000D120C1D6CA3100000000C2EEF1F1F2E08D
:101C7000ED2DE520CAD120C1D6CA3200000000CD2A
:101C8000E5F220CAD120C1D6CA3100000000000010
:101C900000000000CDE5F220CAD120C1D6CA320032
:101CA000000000000000000000C2FBEAEBFEF7E5C8
:101CB000EDE8E520EFE8F2E0EDE8FF000000CDE51B
:101CC000F220CAD100000000000000000000000067
:101CD000000000CDE5F220CAD1203520F1E5EAF37D
:101CE000EDE4000000000000D3E43A20EFEEF1F252
:101CF00020EDE5E8F1EFF0E0E2E5ED0000D3E43AB5
:101D000020CFD0C420EDE5E8F1EFF0E0E2E5ED0012
:101D10000000D3E43A20CFD0CC20EDE5E8F1EFF09D
:101D2000E0E2E5ED000000C8E7ECE5EDE5EDE8E513
:101D300020E4E0F2E02FE2F0E5ECFF00C8E7ECE59C
:101D4000EDE5EDE8E520EFE0F0E0ECE5F2F0EEE2C5
:101D500000D1EEE1FBF2E8E5202D20256400000033
:101D6000000000000000D1EEE1FBF2E8E5202D20AC
:101D70002564000000000000000000D1EEE1FBF24D
:101D8000E8E5202D20256400000000000000000090
:101D9000D1EEE1FBF2E8E5202D20256400000000F3
:101DA0000000000000D1EEE1FBF2E8E5202D202547
:101DB00064000000000000000000D1EEE1FBF2E84A
:101DC000E5202D202564000000000000000000D167
:101DD000EEE1FBF2E8E5202D202564000000000084
:101DE00000000000D1EEE1FBF2E8E5202D202564A3
:101DF000000000000000000000D1EEE1FBF2E8E589
:101E0000202D202564000000000000000000D1EE1D
:101E1000E1FBF2E8E5202D20256400000000000031
:101E2000000000CDE5E8F1EFF020F7F22FE7E0EF5A
:101E300020464C4153480000CDE5E8F1EFF020F793
:101E4000F22FE7E0EF203252414D000000CDE5E8EF
:101E5000F1EFF020F7F22FE7E0EF20CFCBC8D10071
:101E60000000D1EEE1FBF2E8E5202D202564000022
:101E700000000000000000CDE5E8F1EFF020F2E501
:101E8000F1F2E020CFD0C40000000000CDE5E8F181
:101E9000EFF020E2FBEAEB2EF2E5F1F220CFD0C426
:101EA00000CDE5E8F1EFF020F2E5F1F2E020CFD04F
:101EB000CC0000000000CDE5E8F1EFF020F7F22EB5
:101EC000EAEEECE0EDE420C1D1CA00CDE5F220E17C
:101ED000EBEEEAE020C1D1CA0000000000000000E3
:101EE000CEF8E8E1EAE020E2E5F0F1E8E820C1D14F
:101EF000CA00000000CEF2EAE0E720F0E5E7E5F0F6
:101F0000E22E20EBE8EDE8E80000CDE5E8F1EFF0A7
:101F1000E0E2EDEEF1F2FC20F7E0F1EEE20000CDC0
:101F2000E5F220E1EBEEEAE020C1D1C700000000BD
:101F300000000000CEF8E8E1EAE020E2E5F0F1E898
:101F4000E820C1D1C700000000CDE5E8F1EFF020A6
:101F5000EFE5F0E5EAEB2DE5E920C1D1C700CDE5DD
:101F6000F220F1E8E3EDE0EBE020CCC0CD00000092
:101F7000000000C2EAEB2EEFE8F22FCFE5F0E5E734
:101F8000E0EFF3F1EA000000C8E7ECE5EDE5EDE88D
:101F9000E520F0E5E6E8ECE00000000000CDE5E833
:101FA000F1EFF020F6E5EFE820E2FBF52E0000006F
:101FB0000000C2EEF1F1F2E0ED2DE520CAD120EDF6
:101FC000E020CFD0CC0000CEF8E8E1EAE020F0E05D
:101FD000E1EEF2FB20D6CF0000000000C2EEF1F1EE
:101FE000F2E0ED2DE520F0E0E1EEF2FB20D6CF00AF
:101FF00000CEF2F1F3F22DE520F1E8E3EDE0EBE0C5
:1020000020CFF3F1EA00CEF2F1F3F22DE520F1E872
:10201000E3ED20CEF1F2E0EDEEE200C2FBEAEBFEF2
:10202000F7E5EDE8E520EFE8F2E0EDE8FF0000007D
:10203000CDE5F220CAD10000000000000000000041
:102040000000000000CDE5F220CAD1203520F1E5E6
:10205000EAF3EDE4000000000000D3E43A20EFEEE4
:10206000F1F220EDE5E8F1EFF0E0E2E5ED0000D37C
:10207000E43A20CFD0C420EDE5E8F1EFF0E0E2E56E
:10208000ED000000D3E43A20CFD0CC20EDE5E8F11C
:10209000EFF0E0E2E5ED000000C8E7ECE5EDE5ED8E
:1020A000E8E520E4E0F2E02FE2F0E5ECFF00C8E72D
:1020B000ECE5EDE5EDE8E520EFE0F0E0ECE5F2F051
:1020C000EEE200D1EEE1FBF2E8E5202D20256400F0
:1020D0000000000000000000D1EEE1FBF2E8E52086
:1020E0002D202564000000000000000000D1EEE17A
:1020F000FBF2E8E5202D2025640000000000000030
:102100000000D1EEE1FBF2E8E5202D20256400007F
:1021100000000000000000D1EEE1FBF2E8E5202D18
:10212000202564000000000000000000D1EEE1FB6B
:10213000F2E8E5202D2025640000000000000000EA
:1021400000D1EEE1FBF2E8E5202D2025640000003F
:10215000000000000000D1EEE1FBF2E8E5202D20B8
:102160002564000000000000000000D1EEE1FBF259
:10217000E8E5202D2025640000000000000000009C
:10218000C6F3F0EDE0EB5CD1EEE1FBF2E8FF0025F9
:10219000642E20CFE5F0E5E4E0F2F7E8EA002564FC
:1021A0002E20CFF0E8E5ECEDE8EA0025642E20C70C
:1021B000E0F9E8F2E00025642E20D1EEE1FBF2E840
:1021C000FF00CCE5EDFE5CC6F3F0EDE0EB00C1D125
:1021D000CF20CCCA202000C1D1CF20D6D1CF200023
:1021E000D6D1CF20CFCBC8D100CFC82020CCCA2099
:1021F0002000C1D1CA20CFD0C43100C1D1CA20CF64
:10220000D0C43200C1D1CA20CFD0CC3100C1D1CA94
:1022100020CFD0CC3200C1D1C720CFCBC8D100EE67
:10222000F8E8E1EAE00000003A20253032582E2597
:1022300030325800CCE5EDFE5CC8EDF4EEF0ECE099
:10224000F6E8FF0025642E20C8E7ECE5F0E5EDE8B0
:10225000FF0025642E20C8EDF4EEF0ECE0F6E8FF78
:102260000025642E20D2E5F1F2FB0025642E20CD5E
:10227000E0F1F2F0EEE9EAE00025642E20D3EFF081
:10228000E0E2EBE5EDE8E50025642E20C6F3F0ED95
:10229000E0EB00CCE5EDFE00C0C2C0CDD220D034D2
:1022A00030300000CFC2C72D3930000000000000E0
:1022B000C0C2C7CA2D38300000000000CFC2C7D34B
:1022C0002DC5000000000000CFC2C7CB00000000F9
:1022D00000000000CBC8CDC8DF2DD00000000000FA
:1022E000CFC2C7CA0000000000000000D1EEE2EC3F
:1022F000E5F1F2E8EC2E200020202020C8EDE8F6E1
:10230000E8E0EBE8E7E0F6E8FF20202000202020CE
:10231000EDE520EEEFF0E5E4E5EBE5ED2121212010
:10232000200020202020D2E8EF20E0EFEFE0F0E0D6
:10233000F2E02020202000CDE5F220D0C7003F3081
:102340007830453F00CFD0C420CAD7253031750042
:10235000CDE5F220CAD700CFD0CC20CAD725303166
:102360007500CDE5F220CAD7003F307830453F00F8
:10237000CFF0E5E4F3EFF0E5E6E4E5EDE8E500CDE8
:10238000E5E8F1EFF0E0E2EDEEF1F2FC00CDE5F290
:1023900020CAD100CFD0C420CAD12530317500CD9C
:1023A000E5F220CAD100CFD0CC20CAD1253031757A
:1023B00000CDE5F220CAD100CDE5E8F1EFF02EF72F
:1023C000F22E20464C41534800CDE5E8F1EFF02EC7
:1023D000E7E0EF2E464C41534800CDE5E8F1EFF041
:1023E0002EF7F22E20504C495300CDE5E8F1EFF0E6
:1023F0002EE7E0EF2E504C495300CDE5E8F1EFF029
:102400002EE7E0EF2E3252414D00CDE5E8F1EFF03E
:102410002EF7F22E203252414D2000D3F1F2E0EDA2
:10242000EEE2E8F2E520F7E0F1FB00CEF2EAE0E7C9
:1024300020F0E5E7E5F0E22EEBE8ED00CAEEEC2E49
:10244000EDE520E2E5F0EDF3EBE0F1FC00CAEEEBA8
:10245000FCF6EE20EDE0F0F3F8E5EDEE00CAEEEB71
:10246000FCF6EE203120EDE0F0F3F82E00CAEEEBA2
:10247000FCF6EE203220EDE0F0F3F82E00D3E4E09D
:10248000EB2ECFCED1D220EDE5E8F1EFF000D3E492
:10249000E0EB2ECFD0C420EDE5E8F1EFF000D3E47F
:1024A000E0EB2ECFD0CC20EDE5E8F1EFF000CDE56C
:1024B000F220CAD120EDE020C1D6CA3100CDE5F22C
:1024C00020CAD120EDE020C1D6CA3200CEF8E8E122
:1024D000EAE020F0E0E1EEF2FB20D6CF00CDE5F21D
:1024E00020E1EBEEEAE020C1D1C700CDE5E8F1EF55
:1024F000F02EE2E5F0F12EC1D1C700CDE5E8F1EF15
:10250000F02EEFE5F0E5EAEB2E00CDE5F220CAD1A2
:1025100000CDE5E8F1EFF02EE2F5EEE42ECFD3D1D9
:10252000CA00CDE5E8F1EFF02EE2F5EEE42ED1D2CF
:10253000CECF00CDE5E8F1EFF02EF6E5EFFC20C2BE
:10254000DBD500CDE5E8F1EFF02EE7E0EF2E20C27D
:10255000DBD500CDE5F220CAD100CDE5F220F1E8CF
:10256000E3EDE0EBE020CCC0CD00CDE5F220E1EBE7
:10257000EEEAE020C1D1CA00CDE5E8F1EFF02EE2AD
:10258000E5F0F12E20C1D1CA00CDE5F220CAD1007C
:10259000CDE5E8F1EFF02EE7E0EF2E20C1D1CA0043
:1025A000CDE5E8F1EFF02EE2FBEAEB2EEAEEEC2EC1
:1025B00000CDE5E8F1EFF02EE2EAEB2E20EAEEECBA
:1025C0002E00CDE5E8F1EFF02EEAEEEDF2F02EEA86
:1025D000EEEC00CDE5F220CAD100CDE5F220E1EB32
:1025E000EEEAE020C1D1CA00CDE5E8F1EFF02EE23D
:1025F000E5F0F12E20C1D1CA00CDE5E8F1EFF02ED3
:10260000F7F22EEAEEECE0EDE400CDE5E8F1EFF0D4
:102610002EE2FBEAEB2ED2E5F1F200CDE5E8F1EF98
:10262000F02EE2EAEB2E20D2E5F1F200CDE5E8F162
:10263000EFF02EE2F5EEE42E20EAEEEC00C0CA2D1B
:10264000CDE5F220EEF2E2E5F2E000C0CA2DD1EDD8
:10265000E8E6E5ED2EE7E0EFE0F1E000CFEEECE5B7
:10266000F5E020E220EBE8EDE8E800CDE5E8F1EF69
:10267000F02E445350203252414D2000D2EEEA2039
:10268000EFEEEAEEFF00CDE8E7EAEEE520EDE0EF61
:10269000F02EE2FBF500C2FBF1EEEAEEE520EDE004
:1026A000EFF02EE2FBF500CDE5E8F1EFF02E20CCC7
:1026B000CA20D3CC00C2D720F2F0E0EAF220E2EE4A
:1026C000F1F1F22E00C0CA2DCDE5F220EEF2E2E5E6
:1026D000F2E0257300CDE5E8F1EFF02EF3E42EC42F
:1026E000D4C7257300CDE5E8F1EFF02EF3E42EC258
:1026F000DBD5257300D3E4E0EB2EE1E5E720EEF235
:10270000E22E257300D3E4E0EB2EEEE1ED2EEFEEAA
:10271000EC2E257300CFEEECE5F5E020E220EBE8AF
:10272000EDE8E800CDE5E8F1EFF02E20C4D4C700D5
:10273000C0CA2DD1ED2EE7E0EFE0F1E020257300D7
:10274000CFEEF0EEE320EFEE20EFEEECE5F5E50066
:10275000C0E2F2EEEAEEEDF2F0EEEBFC00CEE4EDDC
:10276000EEF1F22E00CEE4EDEEF1F22E00C2D72013
:10277000F2F0E0EAF220E2EEF1F1F22E00CDE5F225
:1027800020F1E8E3EDE0EBE020D0C700D3E4E0EB9C
:102790002E20EDE5E8F1EFF0E0E2E5ED00CDE8E731
:1027A000EAE8E920F3F0EEE22E20D0C700CFF0E80F
:1027B000E5EC20D0C720E220EEE4EDEEF100CDE51F
:1027C000F220CAD700D1EDE8E62E20F3F0EEE2EDDC
:1027D000FF20CFD0CC00CEF8E8E1EAE020F0E0E145
:1027E000EEF2FB20D6CF00C2F5EEE420525820D600
:1027F000CF20EFF3F1F200C2FBF1EEEAE0FF20F2AE
:10280000E5ECEFE5F0E0F200CDE8E7EAE0FF20F2EA
:10281000E5ECEFE5F0E0F200CDE5E8F1EFF02E2099
:10282000E4E0F22EF2E5ECEF00CDE8E7EAE8E9209B
:10283000F3F0EEE2E5EDFC204400CEF8E8E1EAE05A
:1028400020F0E0E1EEF2FB20D6CF00C2F5EEE4206E
:10285000525820D6CF20EFF3F1F200CDE8E7EAE8B6
:10286000E920F3F0EEE2E5EDFC20440020CDE5F2B6
:1028700020F1E2FFE7E820F120C1D1CF2121212082
:1028800000C8F1F5EEE4ED2E00CAEEEDF2F0EEEB4D
:10289000FC00CFF3F1EA00CEF1F2E0EDEEE200CD84
:1028A000E5E8F1EFF02E00CF2EEDE5E8F1EFF000D6
:1028B000CEE6E8E4E0EDE8E500CDE0EB2EEFF3F165
:1028C000EA00D3E42EEFF3F1EA00D0E5F7FC00CF05
:1028D000D0C400CFD0CC00D3EFF02E20D2CC00CE8D
:1028E000F8E8E1EAE000C8F1F5EEE4ED2E00CFD023
:1028F000CC20CFC02530327500CDE5E8F1EFF02EC9
:1029000000CF2EEDE5E8F1EFF000CEE6E8E4E0EDF3
:10291000E8E500C1CBCA20CACC25303275003F3073
:102920007830383F003F307830393F00D0E5F7FC51
:1029300000CFD0C400CFD0CC00D3EFF02E20D2CC2B
:1029400000C8F1F5EEE4ED2E00CFD0C420CFC025B5
:1029500030327500CDE5E8F1EFF02E00CF2EEDE539
:10296000E8F1EFF000CEE6E8E4E0EDE8E5003F3026
:102970007830373F00CFD0C420D6CF253032750015
:10298000D1E8F1F2E5EC2E00D0E5F7FC00CFD0C4A1
:1029900000CFD0CC00D3EFF02E20D2CC003F307847
:1029A00030453F00CFD0C400CFD0CC00C7C0D90045
:1029B000CDC5D200020801060307010504020F0C71
:1029C00010091112130D0208010603070405010284
:1029D000010E0B090101010A0208010603070105A6
:1029E00004020F0C0B090D0E010100000000000095
:1029F000004F00000007000700147F147F14242AF2
:102A00007F2A1223130864623649552240000503C9
:102A10000000001C2241000041221C0014083E0856
:102A20001408083E0808005030000008080808088C
:102A3000006060000020100804023E5149453E003D
:102A4000427F400042615149462141454B311814B3
:102A5000127F1027454545393C4A494930017109E3
:102A600005033649494936064949291E00363600CC
:102A700000005636000008142241001414141414E7
:102A800000412214080201510906324971413E7E7B
:102A90001111117E7F494949363E414141227F4112
:102AA00041221C7F494949417F090909013E4149A9
:102AB000493A7F0808087F00417F41002040413F9C
:102AC000017F081422417F404040407F020C027F7A
:102AD0007F0408107F3E4141413E7F090909063EBF
:102AE0004151215E7F091929464649494931010171
:102AF0007F01013F4040403F1F2040201F3F40706A
:102B0000403F631408146307087008076151494582
:102B100043007F41410002040810200041417F0032
:102B20000402010204404040404000010204002031
:102B3000545454787F4844443838444444203844FA
:102B400044487F3854545418087E0901020C5252EC
:102B5000523E7F0804047800447D40002040443DFC
:102B6000007F1028440000417F40007C0418047856
:102B70007C0804047838444444387C14141408084D
:102B80001414187C7C080404084854545420043F4E
:102B90004440203C4040207C1C2040201C3C4030D5
:102BA000403C44281028440C5050503C4464544C41
:102BB00044000836410000007F0000004136080054
:102BC000020102020114141414140E0A0E0000244F
:102BD000242F24247F7F7F7F7F7F7F7F7F7F7F7F66
:102BE0007F7F7F7F7F7F7F7F7F7F7F7F7F7F7F7FF5
:102BF0007F7F7F7F7F7F7F7F7F7F7F7F7F7F7F7FE5
:102C00007F7F7F7F7F7F7F7F7F7F7F7F7F7F7F7FD4
:102C10007F7F7F7F7F7F7F7F7F7F7E1111117E7F10
:102C2000494949337F494949367F01010103E05150
:102C30004F41FF7F4949494177087F08774149491A
:102C400049367F1008047F7C2112097C7F081422FA
:102C50004120413F017F7F020C027F7F0808087FEF
:102C60003E4141413E7F0101017F7F090909063E46
:102C70004141412201017F010147281008071C2220
:102C80007F221C63140814637F404040FF0708083C
:102C9000087F7F407F407F7F407F40FF017F484823
:102CA000307F4830007F007F484830224149493E0C
:102CB0007F083E413E462919097F20545454783CF0
:102CC0004A4A49317C545428007C0404040CE054E2
:102CD0004C44FC38545454186C107C106C444454CC
:102CE00054287C2010087C7C4122117C7C102844D4
:102CF0000020443C047C7C0810087C7C1010107C74
:102D000038444444387C0404047C7C14141408388B
:102D10004444442004047C04040C5050503C30488B
:102D2000FC483044281028447C404040FC0C1010E3
:102D3000107C7C407C407C7C407C40FC047C50507F
:102D4000207C5050207C7C50502000284454543823
:102D50007C10384438085434147C242E4B2E722EA8
:102D6000992EC02EE72E0E2F352F5C2F832FAA2FE2
:102D7000D12FF82F1F3046306D309430BB30E23009
:102D80000931303157317E31A531CC31F3311A322E
:102D9000413268328F32B632DD3204332B33523354
:102DA0007933A033C733EE3315343C3463348A347B
:102DB000B134D834FF3426354D3574359B35C235A2
:102DC000E935103637365E368536AC36D336FA36C8
:102DD000213748376F379637BD37E4370B383238ED
:102DE00059388038A738CE38F5381C3943396A3914
:102DF0009139B839DF39063A2D3A543A7B3AA23A3A
:102E0000C93AF03A173B3E3B653B8C3BB33BDA3B60
:102E1000013C283C4F3C763C9D3CC43CEB3C123D85
:102E2000393D603D0000000000000000000000008F
:102E300000000000000000000000000100A50401E7
:102E40000000010001010001000001D1E8EDF5F0F2
:102E5000EEEDE8E7E0F6E8FF20F7E0F1EEE2000053
:102E600035010100873D010000020001010201005F
:102E70000001D1E8EDF5F0EEEDE8E7E0F6E8FF203F
:102E8000F7E0F1EEE20000350100009F3D01000097
:102E9000030001010201000001CDEEECE5F020E0AD
:102EA000EFEFE0F0E0F2E0000000000000003B0285
:102EB0000200A5040101000300010101010200015B
:102EC000CDEEECE5F020E0EFEFE0F0E0F2E0000026
:102ED00000000000003B020200A504010100FF0009
:102EE00001010101000001CAEEEDF2F0EEEBFC2061
:102EF000E2FBF52EF1E8E3EDE0EBE0003D0101003F
:102F0000873D010000020001010101000001CFEE38
:102F1000F0EEE320EFF0E5E4F3EFF0E5E6E4E5EDD5
:102F2000E8FF003C020209A50401000016000101AF
:102F30000301000001CFEEF0EEE320EFF0E5E4F353
:102F4000EFF02E20EFEE20CA43003C020209A50458
:102F5000010000160001010301000001C2F0E5ECD0
:102F6000FF20EFE5F0E5E7E0EFF3F1EAE000000035
:102F70000039020207A5040100000500010101015A
:102F8000000001D3E4E5F0E62E20F0E5EBE520EAD1
:102F9000EEEC2E20CFD0C40037010100873D0100A8
:102FA00000020001010201000001D3E4E5F0E62E79
:102FB00020F0E5EBE520EAEEEC2E20CFD0CC003679
:102FC000010100873D010000020001010101000034
:102FD00001C7E0E3F0F3E1EB2E20F7F3E2F1F2E2D8
:102FE0002E20CFD0CC003C020209A504020000161E
:102FF0000001010302000101D1E5F2E5E2EEE92062
:10300000E0E4F0E5F10000000000000000380202FA
:1030100000A504010100F7000101010100000055B5
:10302000E2FBF520EDEEECE8EDE0EBFCEDEEE5008B
:103030000000000036020204A50401120032000163
:10304000010101000001D7E0F1F2EEF2E000000022
:1030500000000000000000000000003A02020BA582
:1030600004010000E80301010401000001D1EEE2C7
:10307000ECE5F1F2E8ECEEF1F2FC000000000000FB
:10308000000037010000C33D0100000700010102FC
:1030900001000001D1EDE8E6E5EDE8E520EEF2E221
:1030A000E5F2E020C0CA00000039020209A50401CF
:1030B0000000140001010301000001D2E8EF20E448
:1030C000E5F2E5EAF2EEF0E00000000000000000AA
:1030D00035020200A5040101000300010102020003
:1030E0000001CAEEF0F0E5EAF6E8FF20EDE0EFF0CF
:1030F000FFE6E5EDE8FF0033030404A50401A8FDA5
:10310000580201010701000000CAEEF0F0E5EAF6FE
:10311000E8FF20F2EEEAE0000000000000003304C7
:103120000501A5040119FCE70301010802000000E4
:10313000CFF0EEF2EEEAEEEB20EEE1ECE5EDE000B2
:10314000000000000039010000173E0101000200EC
:1031500001010301000001CFF0E8E7EDE0EA20F70C
:10316000E5F2EDEEF1F2E8000000000039010000A8
:103170002F3E010100020001010302000001C4EE24
:10318000EFF3F1F2E8ECFBE520EFF0EEE2E0EBFB31
:103190000000003902020CA50401000050000201E9
:1031A0000303000001CFEEF0EEE320EFEE20EFEEA0
:1031B000ECE5F5E500000000000039020207A50477
:1031C000010000FF0001010304000001C4EEEFF361
:1031D000F1F2E8ECE0FF20EFEEECE5F5E0000000B6
:1031E000003902020CA5040114005000140103056B
:1031F000000001D2E8EF20E0E2F2EEEAEEEDF2F0BC
:10320000EEEBFF000000000039010000473E010125
:1032100000030001010306000001CFE5F0E8EEE441
:1032200020E1E5E3EBEEE3EE20C0CA000000003948
:10323000020207A504010100FF00010103070000CD
:1032400001CFE5F0E8EEE420EFEEE2F22EE1E5E377
:10325000EB2E20C0CA0039020207A504010100FFBD
:103260000001010308000001D0E5E7E5F0E2E8F025
:10327000EEE2E0EDE8E500000000000000330101AF
:1032800000873D010000020001010301000001D19F
:10329000EEE2ECE5F1F2E8ECEEF1F2FC0000000009
:1032A00000000000370100006B3E0100000D00012E
:1032B000010202000001D2E8EF20EBE8EDE8E800AF
:1032C00000000000000000000000000201000007F4
:1032D0003F010100020001010101000001D2E5EB04
:1032E000E5ECE5F5E0EDE8EAE000000000000000B4
:1032F000000037010100873D0100000200010102CA
:1033000003000001CFEEF0EEE320EFF0E5E4F3EF91
:10331000F02E20EFEE2044000037020209A5040140
:10332000C0FF400001010204000001CFEEF0EEE317
:1033300020E0E2E0F0E8E820EFEE204400000000AA
:1033400037020209A50401C0FF4000010102050087
:103350000001CAEEEDF2F0EEEBFC20F2E5ECEFE559
:10336000F0E0F2F3F0FB0037010100873D010000BF
:10337000020001010206000001C2E5F0F52EE7EDB2
:10338000E0F7E5EDE8E520F2E5ECEFE5F0003702E7
:10339000020CA50401000064000101020700000105
:1033A000CDE8E6ED2EE7EDE0F7E5EDE8E520F2E526
:1033B000ECEFE5F0003702020CA504010000640008
:1033C00001010208000001D1EAEEF0EEF1F2FC206A
:1033D000D2CC000000000000000000003701000017
:1033E0001F3F010000020001010209000001D1EEAF
:1033F000E2ECE5F1F2E8ECEEF1F2FC000000000096
:1034000000000037010000373F0100000300010108
:103410000202000001D2E8EF20E7E0F9E8F2FB0049
:1034200000000000000000000000010100005B3F00
:10343000010000080001010101000001C4EEEF2EAF
:1034400020E2F0E5ECFF20E1E5E720ECE0ED2E00E6
:103450000003020208A5040100006300010101014C
:10346000000001CFE5F0E5EAF0FBF2E8E520E8EC4A
:10347000EFF3EBFCF1EEE2000502020CA504010003
:1034800000360002010101000001CFE5F0E5EAF09D
:10349000FBF2E8E520E8ECEFF3EBFCF1EEE20005EF
:1034A00002020CA504011200360002010101000015
:1034B00001CFE5F0E5EAF0FBF2E8E520E8ECEFF318
:1034C000EBFCF1EEE2000502020CA504010000365F
:1034D0000001010101000001CAEEECEFE5EDF1E0B1
:1034E000F6E8FF20E7E0E4E5F0E6EAE8000402029F
:1034F0000CA504020000120002010201000101CA31
:10350000EEECEFE5EDF1E0F6E8FF20E7E0E4E5F0D2
:10351000E6EAE8000402020CA50402000012000121
:10352000010201000101CFEEF0EEE320EFF0E5E44F
:10353000F3EFF02E20EFEE20D0C70009020209A51C
:1035400004010000100001010101000001C7E0E3D7
:10355000F0F3E1EBE5EDE8E520F7F3E2F1F2E2E884
:10356000F20006020209A504010000200001010189
:1035700001000001C7E0E3F0F3E1EB2E20F7F3E2F6
:10358000F1F2E22E20D0C7000006020209A50402D3
:103590000000200001010301000101D2E8EF20EF4B
:1035A000F0E8E5ECEDE8EAE00000000000000000D3
:1035B00007010000BB3F0100000300010101010001
:1035C0000001D1EDE8E6E5EDE8E520F3F0EEE2ED0F
:1035D000FF20C0CA00000007010100873D01000074
:1035E000020001010101000001D7E0F1F2EEF2E07A
:1035F00020CFD0C40000000000000000000008013F
:103600000000DF3F01000005000101010100000191
:10361000D7E0F1F2EEF2E020CFD0CC0000000000C5
:10362000000000000009010000DF3F01000005006C
:1036300001010101000001D1E4E2E8E320EFE5F03F
:103640002EF4F0EEEDF2E020CFD0C4000502020C23
:10365000A504010000FF0001010201000001D1E406
:10366000E2E8E320E7E0E42EF4F0EEEDF2E020CF34
:10367000D0C4000502020CA504010000FF000101F6
:103680000202000001D1E4E2E8E320CFD0CC000048
:10369000000000000000000000000502020CA5046C
:1036A000010000FF0001010203000001D1E4E2E893
:1036B000E320C2D720CFD0C420EEF220CFD3D1CA8E
:1036C000000502020CA504010000FF000101020434
:1036D000000001CEE3F0E0EDE8F72E20EFEEEBEE98
:1036E000F1FB20CFD0C400000B010100873D010099
:1036F00000020001010201000001C7E0E4E5F0E67C
:10370000EAE020E2FBEAEB2E20CFD0CC0000000B59
:1037100002020CA504010000FF00010102020000EA
:1037200001C7E0E4E5F0E6EAE020E2EAEB2E20CF94
:10373000D0CC000000000B02020CA504010000FF29
:103740000001010203000001C7E0E4E5F0E6EAE061
:1037500020E2EAEB2E20CFD0C4000000000B0202D2
:103760000CA504010000FF0001010204000001CCCF
:10377000E8ED2E20E4EBE8F22E20CFD0C4000000CC
:10378000000000000B02020CA504010000FF000174
:10379000010205000001CEE4EDEEF1F2EEF0EEEDF7
:1037A000EDE8E920F0E5E6E8EC00000A0101008719
:1037B0003D010000020001010101000000C7E0E43A
:1037C000E5F0E6EAE020F1F0E0E1E0F22E20CFD0F3
:1037D000C40021020206A504010000140001010139
:1037E00001000001C4EBE8F2E5EBFCEDEEF1F2FCC8
:1037F00020EAEEECE0EDE4FB0022020206A5040163
:103800001E00640001010101000001C4EBE8F2E5C3
:10381000EBFCEDEEF1F2FC20EAEEECE0EDE4FB0077
:1038200022020206A504011E00F4010A0A01010099
:103830000001D2E5F1F2EEE2E0FF20EAEEECE0ED8D
:10384000E4E0000000000026010100873D010000C7
:10385000020001010101000001D1EBE5E4FFF9E8FC
:10386000E520EAEEECE0EDE4FB00000000002505B9
:103870000100873D20000002000101050100020156
:10388000C1EBEEEAE8F0EEE22E20EAEEECE0EDE449
:10389000FB0000000024050100873D20000002001D
:1038A00001010501000201D2F0E0EDF1EBFFF6E8C5
:1038B000FF20D6CF0000000000000000270101001B
:1038C000873D010000020001010101000001C1EB80
:1038D000EEEAE8F0EEE22E20EAEEECE0EDE4FB208A
:1038E000D6CF0028050100873D200000020001011D
:1038F0000501000201CAEEEBE8F7E5F1F2E2EE2085
:10390000EAEEECE0EDE4000000002C020200A50469
:10391000010400200004040101000001CAEEEBE8EC
:10392000F7E5F1F2E2EE20EAEEECE0EDE420C00093
:103930000029020200A5040100002000010101018C
:10394000010001CAEEF0F0E5EAF6E8FF20F7E0F149
:10395000F2EEF2FB000000002302050AA504019C20
:10396000FF640001010101000001D1EDE8E6E5ED91
:10397000E8E520F3F0EEE2EDFF20CAD10000002DD3
:10398000020209A504010000140001010301000066
:1039900001D1EDE8E6E5EDE8E520F3F0EEE2EDFF3C
:1039A00020D2CC0000002D020209A5040100001461
:1039B0000001010302000001CAD120EFEE20F3EC68
:1039C000EEEBF7E0EDE8FE0000000000002D010046
:1039D000001B40010000020001010303000001D1AF
:1039E000E8E3EDE0EBE8E7E0F6E8FF20EAEEECE004
:1039F000EDE400002E050100873D200000020001DB
:103A0000010501000201C7E0E4E5F0E6EAE020ED8F
:103A1000E020F4E8EAF12EEAEEEC0011020206A53D
:103A2000040100000A0001010101000001C1EBEEE8
:103A3000EAE8F0EEE22E20EAEEECE0EDE4FB000036
:103A4000000014050100873D20000002000101056F
:103A500001000301C7E0E4E5F0E6EAE020EDE02044
:103A6000E2FBEAEB2EEAEEEC0013020206A50420CC
:103A70000000E803320A0301000301D2F0E0EDF197
:103A8000EBFFF6E8FF20D6CF0000000000000000AA
:103A900017010100873D0100000200010101010042
:103AA0000001C1EBEEEAE8F0EEE22E20EAEEECE0F7
:103AB000EDE4FB20D6CF0018050100873D20000073
:103AC000020001010501000301CAEEECE0EDE4E0B3
:103AD00020CFD0CC20E220D6CF0000000000190279
:103AE0000200A504200100200001010301000301E0
:103AF000CAEEEBE8F7E5F1F2E2EE20EAEEECE0EDFB
:103B0000E4000000001C020200A5040104002000E3
:103B100004040101000001CFF0E8E5EC20F2E5F13A
:103B2000F2EEE2EEE920EAEEEC2E000012010100D6
:103B3000873D010000020001010101000001CAEE01
:103B4000F0F0E5EAF6E8FF20F7E0F1F2EEF2FB0034
:103B50000000001502050AA504019CFF6400010194
:103B60000101000001D1E8E3EDE0EBE8E7E0F6E871
:103B7000FF20EAEEECE0EDE400001D050100873DCA
:103B8000200000020001010501000301CFEEE2FB6D
:103B9000F8E5EDE8E520E1E5E7EEEFE0F12DF2E80C
:103BA0000016010000873D01000002000101010133
:103BB000000001C8EDF2E5F0F4E5E9F120F1E2FFE3
:103BC000E7E80000000000000001000033400100B1
:103BD00000020001010001000000CFF0EEF2EEEA69
:103BE000EEEB0000000000000000000000000000FC
:103BF0000100004B40010000030001010001000032
:103C000000D1EAEEF0EEF1F2FC20EFE5F0E5E4E0C1
:103C1000F7E800000000000100006F40010000060E
:103C20000001010001000000C1E8F2FB20E4E0ED2A
:103C3000EDFBF500000000000000000000000100A6
:103C400000B740010000010001010001000000D7A1
:103C5000E5F2EDEEF1F2FC000000000000000000D3
:103C60000000000000010000C3400100000300014B
:103C7000010001000000D1F2EEEFEEE2FBE520E1F1
:103C8000E8F2FB000000000000000000010000E777
:103C900040010000020001010001000000C2F0E547
:103CA000ECFF20EEE6E8E4E0EDE8FF20EAEEEC2EA3
:103CB000000037020206A504010000FF0001010216
:103CC0000A000001D2F0E0EDE7E8F2EDFBE520EAC2
:103CD000EEECE0EDE4FB00000037050100873D60FD
:103CE000000002000101060B000001CFE5F0E5ED48
:103CF000E0E7EDE0F7E5EDE8E520CFD0CC0000000F
:103D00001B010000FF4020000061000101030100D1
:103D10000301CFE5F0E5EDE0E7EDE0F7E5EDE8E5FF
:103D200020CFD0C40000002B010000FF4020000085
:103D3000610001010301000301D2E5F1F2EEE2FBB3
:103D4000E920F1E8E3EDE0EB0000000000000001F5
:103D500000008B45010000A20001010001000001EC
:103D6000D0E5E6E8EC0000000000000000000000E4
:103D7000000000000000010000234D0100000400CD
:103D800001010001000001E2FBEAEB2E000000004F
:103D9000000000E2EAEB2E0000000000000000E25C
:103DA000FBEAEB2E00000000000000EAE0EDE0EB93
:103DB00020F1E22E000000C0D1D320D2CF000000BD
:103DC000000000C0C2C0CDD220D03430300000CFBF
:103DD000C2C72D3930000000000000C0C2C7CA2D84
:103DE00038300000000000CFC2C7D32DC50000004E
:103DF000000000CFC2C7CB0000000000000000CBD5
:103E0000C8CDC8DF2DD00000000000CFC2C7CA0057
:103E100000000000000000E1FBF1F2F0FBE900000F
:103E2000000000ECE5E4EBE5EDEDFBE9000000E26D
:103E3000EAEB2E0000000000000000E2FBEAEB2E9F
:103E400000000000000000F2F0E5E2EEE6EDFBE924
:103E5000000000EDEEF0ECE0EBFCEDFBE90000F122
:103E6000EFEEEAEEE9EDFBE9000000C0C2C0CDD202
:103E700000000000000000C0C2C0CDD220CFD0C4DE
:103E8000000000C0C2C0CDD220CFD0CC000000C006
:103E9000CACFC020CFD0C400000000C0CACFC0200D
:103EA000CFD0CC00000000CAC5C4D020CFD0C40001
:103EB000000000CAC5C4D020CFD0CC00000000D381
:103EC000CFCA2DD620CFD0C4000000D3CFCA2DD664
:103ED00020CFD0CC000000C2D7D2CE20CFD0C4009B
:103EE000000000C2D7D2CE20CFD0CC00000000C04E
:103EF000CDCAC020CFD0C400000000C0CDCAC020B1
:103F0000CFD0CC000000003220EAEEEDF6E5E2E092
:103F1000FF00003320EAEEEDF6E5E2E0FF000032BC
:103F2000303000000000000000000034303000009D
:103F300000000000000000D0C7D1CA00000000004F
:103F4000000000D0C7D1CAEC00000000000000D083
:103F5000C7D1CA2D332038EA000000C4D4C72DCF02
:103F6000F0CFE400000000C4D4C72DCCCA3100005B
:103F7000000000C4D4C72DCCCA320000000000C429
:103F8000D4C72D4C36300000000000CDC72DCFF037
:103F9000CFE40000000000CDC72DCCCA0000000017
:103FA000000000CFCFC72DCFF0CFE400000000CF3E
:103FB000CFC72DCCCA000000000000E0EAF22BEFD2
:103FC000E0F1F100000000E0EAF2E8E2EDFBE900D8
:103FD000000000EFE0F1F1E8E2EDFBE90000002D68
:103FE00031303030C3F600000000002D353030C3D2
:103FF000F600000000000030C3F6000000000000E2
:104000000000002B353030C3F60000000000002B0C
:1040100031303030C3F60000000000CAD13100005A
:1040200000000000000000CAD132000000000000C3
:104030000000005553420000000000000000005244
:104040005334383500000000000000D1D2C0CDC488
:10405000C0D0D2000000004D4F4442555300000034
:10406000000000CCDDCA2D313031000000000036E8
:10407000303000000000000000000031323030001D
:10408000000000000000003234303000000000006A
:10409000000000343830300000000000000000391B
:1040A000363030000000000000000031393230307E
:1040B00000000000000000380000000000000000C8
:1040C000000000EDE5F2000000000000000000F735
:1040D000E5F2000000000000000000EDE5F7E5F269
:1040E000000000000000003100000000000000009F
:1040F000000000320000000000000000000000305E
:10410000000000000000000000000031410000003D
:10411000000000000000003241000000000000002C
:1041200000000033410000000000000000000034E7
:1041300041000000000000000000003541000000C8
:1041400000000000000000364100000000000000F8
:1041500000000037410000000000000000000038AF
:104160004100000000000000000000394100000094
:10417000000000000000003130410000000000009D
:10418000000000313141000000000000000000315B
:104190003241000000000000000000313341000007
:1041A0000000000000000031344100000000000069
:1041B0000000003135410000000000000000003127
:1041C00036410000000000000000003137410000CF
:1041D0000000000000000031384100000000000035
:1041E00000000031394100000000000000000032F2
:1041F00030410000000000000000003231410000AA
:104200000000000000000032324100000000000009
:1042100000000032334100000000000000000032C6
:104220003441000000000000000000323541000071
:1042300000000000000000323641000000000000D5
:104240000000003237410000000000000000003292
:104250003841000000000000000000323941000039
:1042600000000000000000333041000000000000AA
:104270000000003331410000000000000000003366
:104280003241000000000000000000314200000048
:1042900000000000000000324200000000000000AA
:1042A0000000003342000000000000000000003465
:1042B0004200000000000000000000354200000045
:1042C0000000000000000036420000000000000076
:1042D000000000374200000000000000000000382D
:1042E0004200000000000000000000394200000011
:1042F000000000000000003130420000000000001B
:1043000000000031314200000000000000000031D8
:104310003242000000000000000000313342000083
:1043200000000000000000313442000000000000E6
:1043300000000031354200000000000000000031A4
:10434000364200000000000000000031374200004B
:1043500000000000000000313842000000000000B2
:10436000000000313942000000000000000000326F
:104370003042000000000000000000323142000026
:104380000000000000000032324200000000000087
:104390000000003233420000000000000000003244
:1043A00034420000000000000000003235420000EE
:1043B0000000000000000032364200000000000053
:1043C0000000003237420000000000000000003210
:1043D00038420000000000000000003239420000B6
:1043E0000000000000000033304200000000000028
:1043F00000000033314200000000000000000033E4
:1044000032420000000000000000003143000000C4
:104410000000000000000032430000000000000027
:1044200000000033430000000000000000000034E2
:1044300043000000000000000000003543000000C1
:1044400000000000000000364300000000000000F3
:1044500000000037430000000000000000000038AA
:10446000430000000000000000000039430000008D
:104470000000000000000031304300000000000098
:104480000000003131430000000000000000003156
:104490003243000000000000000000313343000000
:1044A0000000000000000031344300000000000064
:1044B0000000003135430000000000000000003122
:1044C00036430000000000000000003137430000C8
:1044D0000000000000000031384300000000000030
:1044E00000000031394300000000000000000032ED
:1044F00030430000000000000000003231430000A3
:104500000000000000000032324300000000000004
:1045100000000032334300000000000000000032C1
:10452000344300000000000000000032354300006A
:1045300000000000000000323643000000000000D0
:10454000000000323743000000000000000000328D
:104550003843000000000000000000323943000032
:1045600000000000000000333043000000000000A5
:104570000000003331430000000000000000003361
:104580003243000000000000000000E2FBEAEB2ED6
:1045900000000000000000CAD7000000000000007A
:1045A000000000CAD731000000000000000000CA6F
:1045B000D732000000000000000000CAD73300001E
:1045C00000000000000000CAD73400000000000016
:1045D000000000CAD731000000000000000000CA3F
:1045E000D73120F120E1EBEEEA0000CAD73200001B
:1045F00000000000000000CAD73220F120E1EBEEFD
:10460000EA0000D0C700000000000000000000CA5F
:10461000EEECE0EDE4E03100000000CAEEECE0ED8D
:10462000E4E03200000000CAEEECE0EDE4E033002C
:10463000000000CAEEECE0EDE4E03400000000CA47
:10464000EEECE0EDE4E03500000000CAEEECE0ED59
:10465000E4E03600000000CAEEECE0EDE4E03700F4
:10466000000000CAEEECE0EDE4E03800000000CA13
:10467000EEEC312BE1EBEEEA000000CAEEEC322B5F
:10468000E1EBEEEA000000CAEEEC332BE1EBEEEAE0
:10469000000000CAEEEC342BE1EBEEEA000000CAA9
:1046A000EEEC352BE1EBEEEA000000CAEEEC362B27
:1046B000E1EBEEEA000000CAEEEC372BE1EBEEEAAC
:1046C000000000CAEEEC382BE1EBEEEA000000CA75
:1046D000EEECE0EDE4E03100000000CAEEECE0EDCD
:1046E000E4E03200000000CAEEECE0EDE4E033006C
:1046F000000000CAEEECE0EDE4E03400000000CA87
:10470000EEECE0EDE4E03500000000CAEEECE0ED98
:10471000E4E03600000000CAEEECE0EDE4E0370033
:10472000000000CAEEECE0EDE4E03800000000CA52
:10473000EEECE0EDE4E03900000000CAEEECE0ED64
:10474000E4E03130000000CAEEECE0EDE4E03131AD
:10475000000000CAEEECE0EDE4E03132000000CAF7
:10476000EEECE0EDE4E03133000000CAEEECE0ED09
:10477000E4E03134000000CAEEECE0EDE4E0313575
:10478000000000CAEEECE0EDE4E03136000000CAC3
:10479000EEECE0EDE4E03137000000CAEEECE0EDD5
:1047A000E4E03138000000CAEEECE0EDE4E031393D
:1047B000000000CAEEECE0EDE4E03230000000CA98
:1047C000EEECE0EDE4E03231000000CAEEECE0EDAA
:1047D000E4E03232000000CAEEECE0EDE4E0323317
:1047E000000000CAEEECE0EDE4E03234000000CA64
:1047F000EEECE0EDE4E03235000000CAEEECE0ED76
:10480000E4E03236000000CAEEECE0EDE4E03237DE
:10481000000000CAEEECE0EDE4E03238000000CA2F
:10482000EEECE0EDE4E03239000000CAEEECE0ED41
:10483000E4E03330000000CAEEECE0EDE4E03331B8
:10484000000000CAEEECE0EDE4E03332000000CA04
:10485000D720E820D0C70000000000CAD73120E8E8
:1048600020D0C700000000CAD73220E820D0C700FF
:10487000000000CAD73320E820D0C700000000CADB
:10488000D73420E820D0C700000000CAD1000000C3
:1048900000000000000000CAEEECE0EDE4E0314171
:1048A000000000CAEEECE0EDE4E03241000000CA96
:1048B000EEECE0EDE4E03341000000CAEEECE0EDA8
:1048C000E4E03441000000CAEEECE0EDE4E0354104
:1048D000000000CAEEECE0EDE4E03641000000CA62
:1048E000EEECE0EDE4E03741000000CAEEECE0ED74
:1048F000E4E03841000000CAEEECE0EDE4E03941CC
:10490000000000CAEEECE0EDE4E03130410000CA06
:10491000EEECE0EDE4E03131410000CAEEECE0ED18
:10492000E4E03132410000CAEEECE0EDE4E0313386
:10493000410000CAEEECE0EDE4E03134410000CA91
:10494000EEECE0EDE4E03135410000CAEEECE0EDE4
:10495000E4E03136410000CAEEECE0EDE4E031374E
:10496000410000CAEEECE0EDE4E03138410000CA5D
:10497000EEECE0EDE4E03139410000CAEEECE0EDB0
:10498000E4E03230410000CAEEECE0EDE4E0323128
:10499000410000CAEEECE0EDE4E03232410000CA32
:1049A000EEECE0EDE4E03233410000CAEEECE0ED85
:1049B000E4E03234410000CAEEECE0EDE4E03235F0
:1049C000410000CAEEECE0EDE4E03236410000CAFE
:1049D000EEECE0EDE4E03237410000CAEEECE0ED51
:1049E000E4E03238410000CAEEECE0EDE4E03239B8
:1049F000410000CAEEECE0EDE4E03330410000CAD3
:104A0000EEECE0EDE4E03331410000CAEEECE0ED25
:104A1000E4E03332410000CAEEECE0EDE4E0314284
:104A2000000000CAEEECE0EDE4E03242000000CA13
:104A3000EEECE0EDE4E03342000000CAEEECE0ED25
:104A4000E4E03442000000CAEEECE0EDE4E0354280
:104A5000000000CAEEECE0EDE4E03642000000CADF
:104A6000EEECE0EDE4E03742000000CAEEECE0EDF1
:104A7000E4E03842000000CAEEECE0EDE4E0394248
:104A8000000000CAEEECE0EDE4E03130420000CA84
:104A9000EEECE0EDE4E03131420000CAEEECE0ED96
:104AA000E4E03132420000CAEEECE0EDE4E0313304
:104AB000420000CAEEECE0EDE4E03134420000CA0E
:104AC000EEECE0EDE4E03135420000CAEEECE0ED62
:104AD000E4E03136420000CAEEECE0EDE4E03137CC
:104AE000420000CAEEECE0EDE4E03138420000CADA
:104AF000EEECE0EDE4E03139420000CAEEECE0ED2E
:104B0000E4E03230420000CAEEECE0EDE4E03231A5
:104B1000420000CAEEECE0EDE4E03232420000CAAE
:104B2000EEECE0EDE4E03233420000CAEEECE0ED02
:104B3000E4E03234420000CAEEECE0EDE4E032356D
:104B4000420000CAEEECE0EDE4E03236420000CA7A
:104B5000EEECE0EDE4E03237420000CAEEECE0EDCE
:104B6000E4E03238420000CAEEECE0EDE4E0323935
:104B7000420000CAEEECE0EDE4E03330420000CA4F
:104B8000EEECE0EDE4E03331420000CAEEECE0EDA3
:104B9000E4E03332420000CAEEECE0EDE4E0314301
:104BA000000000CAEEECE0EDE4E03243000000CA91
:104BB000EEECE0EDE4E03343000000CAEEECE0EDA3
:104BC000E4E03443000000CAEEECE0EDE4E03543FD
:104BD000000000CAEEECE0EDE4E03643000000CA5D
:104BE000EEECE0EDE4E03743000000CAEEECE0ED6F
:104BF000E4E03843000000CAEEECE0EDE4E03943C5
:104C0000000000CAEEECE0EDE4E03130430000CA01
:104C1000EEECE0EDE4E03131430000CAEEECE0ED13
:104C2000E4E03132430000CAEEECE0EDE4E0313381
:104C3000430000CAEEECE0EDE4E03134430000CA8A
:104C4000EEECE0EDE4E03135430000CAEEECE0EDDF
:104C5000E4E03136430000CAEEECE0EDE4E0313749
:104C6000430000CAEEECE0EDE4E03138430000CA56
:104C7000EEECE0EDE4E03139430000CAEEECE0EDAB
:104C8000E4E03230430000CAEEECE0EDE4E0323123
:104C9000430000CAEEECE0EDE4E03232430000CA2B
:104CA000EEECE0EDE4E03233430000CAEEECE0ED80
:104CB000E4E03234430000CAEEECE0EDE4E03235EB
:104CC000430000CAEEECE0EDE4E03236430000CAF7
:104CD000EEECE0EDE4E03237430000CAEEECE0ED4C
:104CE000E4E03238430000CAEEECE0EDE4E03239B3
:104CF000430000CAEEECE0EDE4E03330430000CACC
:104D0000EEECE0EDE4E03331430000CAEEECE0ED20
:104D1000E4E03332430000EEF8E8E1EAE0000000AE
:104D2000000000C2FBE2E5E4E5ED0000000000C287
:104D3000E2E5E4E5ED000000000000D2E5F1F2203C
:104D400031000000000000D2E5F1F2203200000046
:104D500000000000EF577AB511241FBECFEFD0E15D
:104D6000DEBFCDBF80B58B7F80BD9FEF9ABB1BBAE6
:104D700017BA98BB80EE84BB8FE185BB80E381BB13
:104D80008FEC82BB80EC82B993B98EE08093610096
:104D900081EF80936200109264009093650017BECB
:104DA0008BE083BF88E181BF87B7826087BF1FBC6C
:104DB0008CE08EBD10927A001DBC1CBC80E792E096
:104DC0009BBD8ABD87B7806187BF2CE088E190E0FA
:104DD0000FB6F894A89581BD0FBE21BD11E0A0E0EB
:104DE000B1E0E6E6F7E701E00BBF02C007900D92E5
:104DF000AE36B107D9F71CE0AEE6B1E001C01D92B6
:104E0000A636B107E1F71DE4C8E5DDE404C022974A
:104E1000FE010E945BB8C435D107C9F70E94D0B625
:104E20000C94B1BB0C940000FC01CB0120E005C048
:104E300080FD05C02F5F969587950097C9F7EE59BD
:104E4000FF4F219371836083E356F04080E004C0FC
:104E500060FD8F5F7695679561157105C9F7EB5910
:104E6000FF4F808381E00895FC01CB0120E005C065
:104E700080FD05C02F5F969587950097C9F7EA5981
:104E8000FF4F219371836083E756F04080E004C0B8
:104E900060FD8F5F7695679561157105C9F7E759D4
:104EA000FF4F808381E00895FC018589833019F4E8
:104EB00091E089E208C0823091F0813081F088234E
:104EC00061F09FEF80E0691728F0861718F0678B74
:104ED00081E00895878B80E008958FE0F6CF82E02F
:104EE000F4CF0F931F93CF93DF938C01EB01FC0161
:104EF000B196A0E050E08991808341E020E030E06D
:104F0000682F70E0842F90E086239723892B09F087
:104F1000AF5F440F2F5F3F4F2830310599F75F5F38
:104F20003196543041F7F801A1A781E0DF91CF918C
:104F30001F910F910895FC01262F30E0C90154E024
:104F4000969587955A95E1F78170828FC90145E062
:104F5000969587954A95E1F78170838FC901B6E0F0
:104F600096958795BA95E1F78170848FC901817014
:104F70009070858F36952795822F8170868F369514
:104F800027952170278F60A381E00895FC0120E020
:104F9000CB018070907C892B09F021E027A77F73DB
:104FA00085A596A58617970710F480E0089522231B
:104FB00031F094A783A771AB60AB81E0089574A72B
:104FC00063A711AA10AA81E00895FC01EF57FF4FD3
:104FD0008081E158F040823029F1833030F4882319
:104FE00009F449C0813041F409C0843039F084307B
:104FF00068F1863009F43FC080E00895673018F00A
:1050000067E094E001C090E0EB57FF4F8081E558E6
:10501000F040861711F082E001C081E0892BEB5748
:10502000FF4F27C0633018F094E063E001C090E0C8
:10503000E957FF4F8081E758F040861711F082E072
:1050400001C081E0892BE957FF4F13C06D3018F084
:1050500094E06DE001C090E0EA57FF4F8081E65890
:10506000F040861711F082E001C081E0892BEA57F9
:10507000FF4F60830895673018F097E074E002C036
:10508000962F70E0EB57FF4F8081E558F04089176D
:1050900011F032E001C031E0EB57FF4F9083E5584B
:1050A000F040633018F054E093E002C0962F50E0D7
:1050B000E957FF4F8081E758F040891711F042E02F
:1050C00001C041E0E957FF4F9083E758F0406D3051
:1050D00018F024E06DE001C020E0EA57FF4F808126
:1050E000E658F040861711F092E001C091E0922B53
:1050F000EA57FF4F6083842F852B372B832B892B17
:105100000895FC018285868380E00895DF92EF9206
:10511000FF920F931F93CF93DF937C01162FDC0137
:105120001496CD91DC911597CB5ADD4FE881C5558A
:10513000D240F0E0EE0FFF1FEC0FFD1FEF5DFD4FC3
:105140000081802F0E94D356DD24811709F082C090
:10515000DD24D394CF5DDD4F0E30B1F00F3018F465
:105160000B30E1F505C00231C1F00331B9F52AC0B9
:10517000F70102811381CE010E949455080F111D81
:10518000D80114968C9161C0D7011296ED91FC91D3
:105190001397948180E025811DC0D7011296ED916F
:1051A000FC91139724818AE02802900111248581C3
:1051B0006AE00E9403B8682F772767FD7095620F39
:1051C000731F45C0D7011296ED91FC9113979681FC
:1051D00080E02781BC01620F711D39C0802F0E94C1
:1051E0005D57853061F4CE010E94945590E001979F
:1051F00068E070E00E9424B8162F1C5F05C0CE0145
:105200000E949455182F1D5F802F0E947757882386
:1052100029F0802F0E9477571150180FCE010E945D
:10522000F955D7011296ED91FC911397612F70E01B
:1052300097FF08C0E60FF71F8081682F772767FD6B
:10524000709505C0E60FF71F8081682F70E0CE01D2
:105250000E9463568D2DDF91CF911F910F91FF908A
:10526000EF90DF900895CF93DF93EC01862F80734A
:1052700099F4613C41F1623C09F040C0EC81FD8150
:10528000DF01AC54BD4F3C9111962C918381843049
:1052900059F1CE0162EC2FC0803129F4613D99F0C3
:1052A000623D61F506C0803261F4613E61F0623EAC
:1052B00029F5EC81FD81EC54FD4F20814181CE0127
:1052C00015C0613F21F4CE010E949F3718C0623F94
:1052D000A9F4EC81FD81DF01AC54BD4F3C911196E6
:1052E0002C918381843029F4CE01432F0E944137D1
:1052F00006C0CE0162EF422F232FF8CF80E0DF916E
:10530000CF910895CF92DF92EF92FF920F931F9368
:10531000CF93DF93EC01613EE1F1623E09F44CC0B2
:105320006C3209F058C1AC81BD8113968C911397F2
:10533000833011F090E027C0EA81FB819481990FBE
:10534000990F913218F024E090E001C020E0FD01B7
:10535000E457FE4F8081891719F4922F91600BC09A
:105360009083FD01E557FE4F1082992311F081E0F3
:105370008083922F9260EC81FD81E457FE4F808103
:10538000E253FF4F808391FF26C1EC81FD811082A3
:1053900022C1EA81FB8164817581EC81FD81E85243
:1053A000FD4F8081E85DF240823009F014C1CF01E9
:1053B0008D539D4FEBDD10C1EC81FD81E852FD4F17
:1053C0008081E85DF240823009F005C1442309F094
:1053D00002C18381AA81BB819F012D533D4F85303E
:1053E00009F081C0C90118966C9141E00E94FF5AF2
:1053F0008C819D81EA81FB818D539D4F618541E0C8
:105400000E942A5B8C819D81EA81FB818D539D4F97
:10541000628541E00E94575B8C819D81EA81FB811E
:105420008D539D4F638541E00E94935B8C819D81EC
:10543000EA81FB818D539D4F648541E00E94BE5BF4
:105440008C819D81EA81FB818D539D4F658541E073
:105450000E94E95BEA81FB818C819D81768560E019
:105460002785620F711D8D539D4F0E94AC5A8C8110
:105470009D816A817B816C5F7F4F8D539D4F31DDB4
:10548000EA81FB818381803108F49EC0CC80DD807D
:10549000A60148515D4F70E0A4E0EA2EF12CEE0E1B
:1054A000FF1E8089DA018C9361E020E030E0082F54
:1054B00010E0862F90E080239123892B09F07F5FF5
:1054C000660F2F5F3F4F2830310599F731964F5FB8
:1054D0005F4FEE15FF0529F7EDEEF2E0CE0EDF1E71
:1054E000D6017C9371C0C90153966C9141E00E9432
:1054F000FF5A8C819D81EA81FB818D539D4F62898A
:1055000041E00E942A5B8C819D81EA81FB818D5361
:105510009D4F618941E00E94575B8C819D81EA81AA
:10552000FB818D539D4F678541E00E94935B8C8189
:105530009D81EA81FB818D539D4F668541E00E94EC
:10554000BE5B8C819D81EA81FB818D539D4F65857A
:1055500041E00E94E95BEA81FB818C819D81748539
:1055600060E02385620F711D8D539D4F0E94AC5AE0
:10557000AC81BD81EA81FB818481A752BD4F863019
:1055800008F086E08C932C813D81EA81FB81958136
:10559000892F8150803228F4F901E950FD4F908322
:1055A00011828C819D81EA81FB818D539D4F6681A3
:1055B0007BDCAC81BD81EA81FB818781833008F08F
:1055C00082E0A750BD4F8C93EC81FD81E650FD4FEA
:1055D00081E0808301C080E0DF91CF911F910F9126
:1055E000FF90EF90DF90CF9008951F93CF93DF93BC
:1055F000EC01613DD9F1623D09F44BC06C3109F019
:1056000029C1AC81BD8113968C911397833011F021
:1056100090E026C0EA81FB819481990F990F913225
:1056200010F024E001C020E0FD01ED5EFE4F80811E
:10563000891719F4922F91600BC09083FD01EE5EE3
:10564000FE4F1082992311F081E08083922F9260A7
:10565000EC81FD81ED5EFE4F8081EA5BFE4F808331
:1056600091FFF8C0EC81FD811082F4C0EA81FB81DA
:1056700064817581EC81FD81E852FD4F8081E85D98
:10568000F240813009F0E6C0CF018D539D4F7EDCA2
:10569000E2C0EC81FD81E852FD4F1081E85DF240EF
:1056A000113009F0D7C0442309F0D4C08381AA8106
:1056B000BB819F012D533D4F853009F055C0C90175
:1056C00018966C9141E00E94FF5A8C819D81EA817D
:1056D000FB818D539D4F618541E00E942A5B8C8147
:1056E0009D81EA81FB818D539D4F628541E00E943F
:1056F000575B8C819D81EA81FB818D539D4F638532
:1057000041E00E94935B8C819D81EA81FB818D53F6
:105710009D4F648541E00E94BE5B8C819D81EA8142
:10572000FB818D539D4F658541E00E94E95BEA81D5
:10573000FB818C819D81768560E02785620F711DDC
:105740008D539D4F0E94AC5A8C819D816A817B81D3
:105750006C5F7F4F8D539D4FC4DBEC81FD81E65024
:10576000FD4F108381E077C0C90153966C9141E0F1
:105770000E94FF5A8C819D81EA81FB818D539D4F50
:10578000628941E00E942A5B8C819D81EA81FB81D4
:105790008D539D4F618941E00E94575B8C819D81B3
:1057A000EA81FB818D539D4F678541E00E94935BA9
:1057B0008C819D81EA81FB818D539D4F668541E0FF
:1057C0000E94BE5B8C819D81EA81FB818D539D4F40
:1057D000658541E00E94E95BEA81FB818C819D81C6
:1057E000748560E02385620F711D8D539D4F0E946B
:1057F000AC5AAC81BD81EA81FB818481A752BD4F47
:10580000863008F086E08C932C813D81EA81FB8113
:105810009581892F8150803228F4F901E950FD4F9C
:10582000908311828C819D81EA81FB818D539D4FF4
:1058300066813ADBAC81BD81A552BD4FEA81FB8117
:10584000878187708C93EC81FD81E650FD4F81E06C
:10585000808301C080E0DF91CF911F910895FF9276
:105860000F931F93CF93DF93EC01623009F03FC099
:10587000AC81BD81EA81FB818481882349F083303A
:1058800038F4A556BF4F8C93AB59B04041E002C0ED
:1058900083E040E0A556BF4F8C932C813D81EA8187
:1058A000FB819481892F8150823010F094E00AC0EE
:1058B000F901E75EFD4F8081891711F491E002C084
:1058C000908392E0EC81FD81E75EFD4F8081E9519C
:1058D000F240823011F082E001C083E0E55AFD4FD2
:1058E000808391FF38C1EC81FD81108234C16A3020
:1058F00009F041C0AA81BB8113968C911397853022
:1059000008F428C1EC81FD8114969C91892F815067
:10591000893010F0FF2405C0E456FF4F9083FF2428
:10592000F3940C811D81EA81FB81658176818781F9
:10593000908528EE33E040E050E00E9437B8C9017E
:10594000DA0181362AEE920720E0A20720E0B207B2
:1059500010F080E006C003561F4FF801918380834A
:1059600081E090E02F2D30E0822B932B40E0892BBB
:1059700009F4F1C087C0613CA1F4EA81FB81648134
:105980007581EC81FD81E852FD4F8081E85DF24038
:10599000882309F0DFC0CF018D539D4FF7DA482FE0
:1059A000DAC0623C09F0D6C0EC81FD81E852FD4FBF
:1059B0008081E85DF240882309F0CCC0442309F0DF
:1059C000C9C08381AA81BB819F012D533D4F853082
:1059D00009F05AC0C90116966C9141E00E94FF5A25
:1059E0008C819D81EA81FB818D539D4F678141E0D0
:1059F0000E942A5B8C819D81EA81FB818D539D4FA2
:105A0000608541E00E94575B8C819D81EA81FB812A
:105A10008D539D4F618541E00E94935B8C819D81F8
:105A2000EA81FB818D539D4F628541E00E94BE5B00
:105A30008C819D81EA81FB818D539D4F638541E07F
:105A40000E94E95BEA81FB818C819D81748560E025
:105A50002585620F711D8D539D4F0E94AC5AEA81BE
:105A6000FB818C819D8165816F7024812295207FCF
:105A7000620F8D539D4F5FDAEC81FD81E650FD4F43
:105A800081E0808341E067C0C90153966C9141E099
:105A90000E94FF5A8C819D81EA81FB818D539D4F2D
:105AA000628941E00E942A5B8C819D81EA81FB81B1
:105AB0008D539D4F618941E00E94575B8C819D8190
:105AC000EA81FB818D539D4F678541E00E94935B86
:105AD0008C819D81EA81FB818D539D4F668541E0DC
