:100000000C9477260C94DD260C94DD260C94DD26CA
:100010000C94DD260C94DD260C94DD260C94DD2654
:100020000C94DD260C94DD260C94DD260C94DD2644
:100030000C94ABBC0C94DD260C94DD260C94E3BC34
:100040000C94DD260C94DD260C94D7BB0C943DBBA0
:100050000C9406BC0C94DD260C94DD260C94DD2655
:100060000C94DD260C94DD260C94DD260C94DD2604
:100070000C94DD260C94DD260C9440BC0C94FDBA47
:100080000C9471BC0C947DBB0C94DD26D766FA668B
:1000900022673D675A6777679267AF672E6849683E
:1000A0006668CC67F66712688D68A968C468E468FA
:1000B00000C1814001C0804101C0804100C1814038
:1000C00001C0804100C1814000C1814001C0804128
:1000D00001C0804100C1814000C1814001C0804118
:1000E00000C1814001C0804101C0804100C1814008
:1000F00001C0804100C1814000C1814001C08041F8
:1001000000C1814001C0804101C0804100C18140E7
:1001100000C1814001C0804101C0804100C18140D7
:1001200001C0804100C1814000C1814001C08041C7
:1001300001C0804100C1814000C1814001C08041B7
:1001400000C1814001C0804101C0804100C18140A7
:1001500000C1814001C0804101C0804100C1814097
:1001600001C0804100C1814000C1814001C0804187
:1001700000C1814001C0804101C0804100C1814077
:1001800001C0804100C1814000C1814001C0804167
:1001900001C0804100C1814000C1814001C0804157
:1001A00000C1814001C0804101C0804100C1814047
:1001B00000C0C101C30302C2C60607C705C5C40407
:1001C000CC0C0DCD0FCFCE0E0ACACB0BC90908C877
:1001D000D81819D91BDBDA1A1EDEDF1FDD1D1CDC67
:1001E00014D4D515D71716D6D21213D311D1D010D7
:1001F000F03031F133F3F23236F6F737F53534F4C7
:100200003CFCFD3DFF3F3EFEFA3A3BFB39F9F83836
:1002100028E8E929EB2B2AEAEE2E2FEF2DEDEC2C26
:10022000E42425E527E7E62622E2E323E12120E096
:10023000A06061A163A3A26266A6A767A56564A486
:100240006CACAD6DAF6F6EAEAA6A6BAB69A9A868F6
:1002500078B8B979BB7B7ABABE7E7FBF7DBDBC7CE6
:10026000B47475B577B7B67672B2B373B17170B056
:100270005090915193535292965657975595945446
:100280009C5C5D9D5F9F9E5E5A9A9B5B99595898B6
:10029000884849894B8B8A4A4E8E8F4F8D4D4C8CA6
:1002A0004484854587474686824243834181804016
:1002B0005669727475616C00C0C2C0CDD220CECFB9
:1002C000D2CE2D2564256425642DCE00C0C2C0CDBC
:1002D000D220CA3430302D25642564C200C0C2C08B
:1002E000CDD220D0C7D1CA2D2564256425642DC266
:1002F00000C0C2C0CDD220D0343030EC2D313030EF
:100300002DC200C900CA00CB00CC00CD00CE00CF6A
:10031000002D012E012F0130013101320133013452
:1003200001350136013701380139013A013B013C01
:10033000013D013E013F01400141014201430144B1
:1003400001450146014701480149014A014B014C61
:1003500001900191019201930194019501960197F9
:1003600001980199019A019B019C019D019E019FA9
:1003700001A001A101A201A301A401A501A601A759
:1003800001A801A901AA01AB01AC01AD01AE01AF09
:1003900001B001C201C301C401C501C601C701C842
:1003A00001C901CA01CB01CC01CD01CE01CF01D0E1
:1003B00001D101D201D301D401D501D601D701D891
:1003C00001D901DA01DB01DC01DD01DE01DF01E041
:1003D00001E101E501E601E701F401F501F601F7AC
:1003E00001F801F901FA01FB01FC01FD01FE01FF29
:1003F00001000201020202030204020502060207D2
:1004000002080209020A020B020C020D020E020F80
:1004100002100211021202130214022602270228FD
:100420000229022A022B022C022D022E022F023058
:100430000231023202330234023502360237023808
:100440000239023A023B023C023D023E023F0240B8
:10045000024102420243024402450249024A024B5F
:10046000024C02580259025A025B025C025D025EB3
:10047000025F026002610262026302640265026658
:10048000026702680269026A026B026C026D026E08
:10049000026F0270027102720273027402750276B8
:1004A000027702780200C2FBE7EEE20000000000E3
:1004B00000000000000000000000720107CFF3F10F
:1004C000EA20C0CA00000000000000000000000098
:1004D000008A0107CFF3F1EA20C0CA20F1E2EEE979
:1004E00000000000000000008A0106D0E5E6E8EC0C
:1004F00020C0CA00000000000000000000000072E0
:10050000010ED1E1F0EEF120C0CA000000000000B1
:10051000000000000000720103D1E1F0EEF120E8DC
:10052000EDE4E8EAE0F6E8E800000000009A0000E8
:10053000CFF3F1EA20F1E2EEE5E3EE20E2EAEB2E82
:1005400000000000720108CFF3F1EA20F1E2EEE5CD
:10055000E3EE20E2FBEAEB2E000000720109CFF38C
:10056000F1EA20EFF0E8E5ECEDE8EAE00000000059
:100570000000510000CFF3F1EA20C0CA20F3E4E00C
:10058000EBE5EDEDEEE3EE000072010ACFF3F1EAE8
:1005900020F3E4E0EBE5EDEDEEE3EE2031000000CA
:1005A000720104CFF3F1EA20F3E4E0EBE5EDEDFBBB
:1005B000F5000000000000720106D1E1F0EEF1004C
:1005C00000000000000000000000000000007201B8
:1005D000010020C8E7ECE5EDE8F2FC20EFE0F0E0F8
:1005E000ECE5F2F02020002020ECEEE6EDEE20F22B
:1005F000EEEBFCEAEE20E220202020002020F0E5B7
:10060000E6E8ECE520C2DBC2C5C4C5CD2020202031
:1006100000C0CA2DEEF8E8E10000C0CA2DEDEEF0F2
:10062000EC0000C0CA2DEDEEF0EC0000C0CA2DF3C6
:10063000F1EAEEF000C0CA2DE2FBEAEB0000C0CA0E
:100640002DE1E5E3EB0000C0CA2DE8F1EFFBF2007D
:10065000C0CA2DEFF3F1EA0000C0CA2DEEE4EDEEC2
:10066000F100C0CA2DEEF8E8E10000C0CA2DE0E2BA
:10067000F2EE0000C0CA2DEFF0EEE20000253032AD
:10068000643A253032643A253032640000000000BC
:1006900000ECC0000000C000000000EAC000000044
:1006A000C200000000EAC2000000ECF1000000639C
:1006B00000000000F7E0F10000E4C1000000C3F614
:1006C000000000EAC3F60000E3F0E0E400F7F2E522
:1006D000EDE8E52E2E00F7F2E5EDE8E52E002564C5
:1006E00000EEF8E8E1EAE021212100C7EDE0F7E5BE
:1006F000EDE8E53A200025642E2EB125640025643E
:100700002E2E256400E2EAEB2E2FE2FBEAEB2E0010
:10071000F1EFE8F1EEEA00C4E8E0EFE0E7EEED3AF1
:100720002000CDEEECE5F03A2025752F257500CDA3
:10073000EEECE5F03A2000CFE0F0E0ECE5F2F03A44
:10074000257520C2F1E5E3EE3A257500C2FBE2E52E
:10075000E4E5ED00C3EEF2EEE2000000C2E2E5E403
:10076000E5ED0000D0E5F7FC00000000D2E5F1F275
:1007700000000000D2E5F1F200000000EEF8E8E130
:10078000EAE000002020200000000000000000003F
:100790002031200000000000000000002032200076
:1007A00000000000000000003120320000000000C6
:1007B00000000000203320000000000000000000C6
:1007C0003120330000000000000000003220330020
:1007D0000000000000000000203F2000000000009A
:1007E00000000000CFF0E5E4F3EFF02E2025632DAC
:1007F0002530345800CDE5E8F1EFF02E2025632DAB
:10080000253034580064463D25303264C3F6005428
:100810003D25303264B04300443D25303264E4C1AC
:1008200000253032753A253032753A253032750060
:10083000253032752E253032752E25303275005315
:10084000E43D25303275B00055F825753D25303230
:1008500064E4C10055F83D25303264E4C10055EA36
:1008600025753D25303264E4C10055EA3D2530321E
:1008700064E4C10055E725753D25303264E4C100CC
:1008800055E73D25303264E4C100523D25303375D3
:10089000CEEC00493D25303375ECC000553D253088
:1008A00032752E25303175C200CDEEE2FBE920EF26
:1008B000E0F0EEEBFC3A202530347500CFE0F0EEAE
:1008C000EBFC3A2025303475002020202020202009
:1008D000C2E2E5E4E5ED20202020202020002020B9
:1008E0002020EDE5EFF0E0E2E8EBFCEDFBE9202075
:1008F00020200020202020202020EFE0F0EEEBFC44
:100900002020202020202000C2E2EEE43A202530E2
:1009100031752E2530317500C2E2EEE43A202530E3
:10092000316400C2E2EEE43A2000C7EDE0F7E5ED05
:10093000E8E53A2000CFD0CC323A2000CFD0CC31FD
:100940003A2000D1E8E3EDE0EBFB20EFF0E8E5EC46
:10095000EDE8EAE000D2E5F1F2FB5CCFF0E8E5EC8F
:10096000EDE8EA00D1E8E3EDE0EBFB20EFE5F0E5B0
:10097000E4E0F2F7E8EAE000D2E5F1F2FB5CCFE573
:10098000F0E5E4E0F2F7E8EA0020202020CFE5F0EF
:10099000E5E9E4E8F2E520E2202020202000202004
:1009A00020F0E5E6E8EC20C2DBC2C5C4C5CD2020BE
:1009B00020200025642E20D2E5F1F220EFF0E8E5BA
:1009C000ECEDE8EAE00025642E20D2E5F1F220EF1C
:1009D000E5F0E5E4E0F2F7E8EAE000CDE0F1F2F07E
:1009E000EEE9EAE05CD2E5F1F2FB00CCE5EDFE5C7D
:1009F000C8E7ECE5F0E5EDE8FF0025642E20D1E541
:100A0000EAF3EDE4FB0025642E20CCE8EDF3F2FBE5
:100A10000025642E20D7E0F1FB0025642E20C4E5DC
:100A2000EDFC0025642E20CCE5F1FFF60025642EB8
:100A300020C3EEE400CDE0F1F2F0EEE9EAE05CC2C2
:100A4000F0E5ECFF26E4E0F2E000CDE0F1F2F0EEBC
:100A5000E9EAE05CC8EDF2E5F0F4E5E9F100CFE0A9
:100A6000F0E0ECE5F2F0FB5CCAEEEBFCF6EE00CF5A
:100A7000E0F0E0ECE5F2F0FB5CCEE1F9E8E500CF78
:100A8000E0F0E0ECE5F2F0FB5CCFE5F0E5E4E0F26D
:100A9000F7E8EA00CFE0F0E0ECE5F2F0FB5CCFF045
:100AA000E8E5ECEDE8EA00CFE0F0E0ECE5F2F0FBA1
:100AB0005CC7E0F9E8F2E00025642E20CAEEEBFC0A
:100AC000F6EE0025642E20CEE1F9E8E50025642E3F
:100AD00020CFE5F0E5E4E0F2F7E8EA0025642E2017
:100AE000CFF0E8E5ECEDE8EA0025642E20C7E0F958
:100AF000E8F2E000CDE0F1F2F0EEE9EAE05CCFE010
:100B0000F0E0ECE5F2F0FB0025642E20C0CA20E105
:100B1000E5E3EBFBE90025642E20C0CA20EDEEF0F2
:100B2000ECE0EBFCEDFBE90025642E20C0CA20E8D8
:100B3000F1EFFBF2E0EDE8FF0025642E20C0CA20B3
:100B4000E2FBEAEBFEF7E5ED0025642E20C0CA20AB
:100B5000F3F1EAEEF0E5EDEDFBE90025642E20C0AF
:100B6000CA20E0E2F2EEECE0F2E8F7E5F1EA2E006E
:100B7000CCE5EDFE5CD0E5E6E8EC20C0CA00CDE0B7
:100B8000F1F2F0EEE9EAE05CD0E5E6E8EC0025649D
:100B90002E20C8EDF2E5F0F4E5E9F10025642E2001
:100BA000CFE0F0EEEBFC0025642E20CFE0F0E0EC8F
:100BB000E5F2F0FB0025642E20C2F0E5ECFF20E812
:100BC00020E4E0F2E00025642E20D0E5E6E8EC0029
:100BD000CCE5EDFE5CCDE0F1F2F0EEE9EAE00025D7
:100BE000642E20D3E4E0EB2E20CFF3F1EA20C0CA3C
:100BF0000025642E20CFF3F1EA20C0CA0025642E20
:100C000020D1E1F0EEF120E2F1E5F50025642E209F
:100C1000D1E1F0EEF120E8EDE4E8EAE0F6E8E80002
:100C200025642E20D1E1F0EEF120F3E4E0EBE5EDD8
:100C30002E20330025642E20D1E1F0EEF120F3E4E4
:100C4000E0EBE5ED2E20320025642E20D1E1F0EE20
:100C5000F120F3E4E0EBE5ED2E20310025642E20B9
:100C6000C0CA20E2EAEBFEF7E5ED0025642E20CFB6
:100C7000F3F1EA20F3E4E0EB2DFBF520CCC0CD004E
:100C800025642E20CFF3F1EA20F3E4E0EB2E20CC14
:100C9000C0CD20330025642E20CFF3F1EA20F3E409
:100CA000E0EB2E20CCC0CD20320025642E20CFF3E7
:100CB000F1EA20F3E4E0EB2E20CCC0CD203100257A
:100CC000642E20CFF3F1EA20F3E4E0EBE5EDEDFB59
:100CD000F50025642E20CFF3F1EA20F3E4E0EBE504
:100CE000EDED2E20330025642E20CFF3F1EA20F322
:100CF000E4E0EBE5EDED2E20320025642E20CFF36D
:100D0000F1EA20F3E4E0EBE5EDED2E20310025647F
:100D10002E20D1E1F0EEF120F3E4E0EBE5EDEDFB88
:100D2000F50025642E20C0CA20E1E5E3EBFBE900D5
:100D300025642E20C0CA20EDEEF0ECE0EBFCEDFBCC
:100D4000E90025642E20C0CA20E8F1EFFBF2E0EDB7
:100D5000E8FF0025642E20C0CA20E2FBEAEBFEF784
:100D6000E5ED0025642E20C0CA20F3F1EAEEF0E59F
:100D7000EDEDFBE90025642E20C0CA20E0E2F2EE92
:100D8000ECE0F2E8F7E5F1EA2E0025642E20CFF33F
:100D9000F1EA20CFD0C40025642E20CFF3F1EA2061
:100DA000C0CA20F3E4E0EBE5EDED2E0025642E2033
:100DB000CFF3F1EA20C0CA20F1E2EEE90025642E6B
:100DC00020D1E1F0EEF120C0CA0025642E20C0CA77
:100DD00020EAEEEDF2F02EEFF0EEE2E5F02E002547
:100DE000642E20CFF3F1EA20F3E4E0EBE5ED2E20D2
:100DF000CCC0CD0025642E20C0CA20EFF3F1EA005C
:100E000025642E20CFF3F1EA20EDE0EBE0E42E2084
:100E1000E2FBEAEB0025642E20CFF3F1EA20EDE0BF
:100E2000EBE0E42E20E2EAEB2E0025642E20C2FB4C
:100E3000E7EEE20025642E20D1E1F0EEF120F3E4AC
:100E4000E0EBE5EDEDEEE3EE0025642E20D1E1F0E0
:100E5000EEF120F1E2EEE5E3EE0025642E20CFF383
:100E6000F1EA20F3E4E0EBE5EDEDEEE3EE00CCE5B6
:100E7000EDFE5CD3EFF0E0E2EBE5EDE8E500C7E086
:100E8000EFE8F1FC202575202F20257520282575F9
:100E90002900C7E0EFE8F1FC202575202F202575FB
:100EA00000C6D3D0CDC0CB20CFD3D1D200D1D7C8AC
:100EB000D2DBC2C0CDC8C520C7C0CFC8D1C800CA08
:100EC000EEECE0EDE4E03A202575000000000000C3
:100ED00028D6CF290028CED82900C4E0F2E03A2055
:100EE000253032752E253032752E2530327500C2F0
:100EF000F0E5ECFF3A20253032753A253032753A6C
:100F0000253032752E2530337500CAEEECE0EDE465
:100F1000E020EFE5F0E5E4E0E5F2F1FF00CAEEECF9
:100F2000E0EDE420EDE5F200CEEAEEEDF7E0EDE8ED
:100F3000E520EAEEECE0EDE4FB00000000CDE0F798
:100F4000E0EBEE20EAEEECE0EDE4FB000000000058
:100F50000000CEF8E8E1EEF7EDEEE520E7EDE0F792
:100F6000E5EDE8E5000000C6F3F0EDE0EB5CCFE571
:100F7000F0E5E4E0F2F7E8EA00202020202020005D
:100F800028CFD0CC32290028CFD0CC332900202044
:100F900020202020002020202020200028CF322CBC
:100FA0003329002020202020200020202020202065
:100FB00000CAEEECE0EDE4E03A2025752025730050
:100FC0002020202020200028CFD0CC31290028CF7D
:100FD000D0CC3329002020202020200020202020D9
:100FE00020200028CF312C33290020202020202051
:100FF0000020202020202000202020202020002849
:10100000CFD0CC31290028CFD0CC322900202020CD
:10101000202020002020202020200028CF312C322A
:101020002900202020202020002020202020200017
:10103000CAEEECE0EDE4E020EFF0E8EDE8ECE0E50E
:10104000F2F1FF00C6F3F0EDE0EB5CCFF0E8E5EC89
:10105000EDE8EA00D1EEF1F2EEFFEDE8E53A00CF7F
:101060002564D12564CC256420CFC42564CFCC254C
:1010700064C2DBD5256400C6F3F0EDE0EB5CC7E0AD
:10108000F9E8F2E000D0E5E6E8EC3A00D1EEE1FB69
:10109000F2E8E5202D20256400000000000000009B
:1010A00000CDE5E8F1EFF020F7F22FE7E0EF204682
:1010B0004C4153480000C2D720F2F0E0EAF220E2AF
:1010C000EEF1F1F2E0EDEEE2EB2E00CDE5E8F1EF2E
:1010D000F020F7F22FE7E0EF20CFCBC8D1000000DF
:1010E000C0E2F2EEEAEEEDF2F0EEEBFC0000000002
:1010F0000000000000D2EEEA20EFEEEAEEFF000072
:1011000000000000000000000000CDE5E8F1EFF075
:1011100020F7F22FE7E0EF203252414D000000CDE2
:10112000E5E8F1EFF020F0E0E1EEF2FB204453506F
:1011300000000000C2EEF1F1F2E0ED2DE520F0E05C
:10114000E1EEF2FB2044535000CDE8E7EAEEE52063
:10115000EDE0EFF02E20E2FBF5EEE4E00000C2FB54
:10116000F1EEEAEEE520EDE0EFF02E20E2FBF5EE09
:10117000E4E000CDE0F0F3F8E5ED20EEE1ECE5EDA4
:1011800020F120D3CC000000CDE5E8F1EFF0E0E263
:10119000EDEEF1F2FC20F7E0F1EEE20000CDE5F239
:1011A00020E1EBEEEAE020C1D1C700000000000022
:1011B0000000CEF8E8E1EAE020E2E5F0F1E8E8201E
:1011C000C1D1C700000000CDE5E8F1EFF020EFE568
:1011D000F0E5EAEB2DE5E920C1D1C700CDE5F2202D
:1011E000F1E8E3EDE0EBE020CCC0CD000000000032
:1011F00000C2EAEB2EEFE8F22FCFE5F0E5E7E0EFF3
:10120000F3F1EA000000C8E7ECE5EDE5EDE8E520E4
:10121000F0E5E6E8ECE00000000000CDE5E8F1EFE5
:10122000F020E7E0EF2E20E2FBF52EF6E5EFE800F8
:10123000CEF8E8E120EAEEEDF2F02E20E2FBF52E0A
:10124000F6E5EFE800C0CA202D20D1EDE8E6E5ED97
:10125000E8E520E7E0EFE0F1E000C0CA202D20CD76
:10126000E5F220EEF2E2E5F2E0000000000000CE40
:10127000F2F1F3F22DE520F1E8E3EDE0EBE020CF31
:10128000F3F1EA00CEF2F1F3F22DE520F1E8E3ED1F
:1012900020CEF1F2E0EDEEE200C2FBEAEBFEF7E574
:1012A000EDE8E520E0EFEFE0F0E0F2E00000CFEE67
:1012B000ECE5F5E020E220EBE8EDE8E800000000D6
:1012C000000000CDE5E8F1EFF0E0E2EDEEF1F2FC38
:1012D00020C4D4C700000000D3E43A20C0CA202DA7
:1012E00020EDE5F220EEF2E2E5F2E00000D3E43A90
:1012F00020CFEEECE5F5E020E220EBE8EDE8E800B9
:101300000000D3E43A20CDE5E8F1EFF02E20C4D47C
:10131000C7000000000000D3E43A20CDE5E8F1EF7B
:10132000F02E20F6E5EFE820E2FBF500CFEEF0EE40
:10133000E320EFEE20EFEEECE5F5E5000000000025
:1013400000D1EEE1FBF2E8E5202D2025640000004D
:10135000000000000000D1EEE1FBF2E8E5202D20C6
:101360002564000000000000000000D1EEE1FBF267
:10137000E8E5202D202564000000000000000000AA
:10138000D1EEE1FBF2E8E5202D202564000000000D
:101390000000000000D1EEE1FBF2E8E5202D202561
:1013A00064000000000000000000D1EEE1FBF2E864
:1013B000E5202D202564000000000000000000C78B
:1013C000C0D90000CFD0CC3100CFD0CC3200CFD0AC
:1013D000C40000CEC1D90000CF312C3200CED8C11C
:1013E0000000D1EEE1FBF2E8E5202D203000000006
:1013F00000000000000000C2EAEB2E20EFE8F2E05F
:10140000EDE8FF2FEFE5F0E5E7E0EF00C2FBEAEBE8
:10141000FEF7E5EDE8E520EFE8F2E0EDE8FF00009B
:1014200000C8E7ECE5EDE5EDE8E520F0E5E6E8EC01
:10143000E020F0E0E100C8E7ECE5EDE5EDE8E520CF
:10144000EFE0F0E0ECE5F2F0EEE200CDE5E8F1EF00
:10145000F020F2E5F1F2E020CFD0C400000000005F
:10146000CDE5E8F1EFF020F2E5F1F2E020CFD0CCCD
:101470000000000000D1EEE1FBF2E8E5202D20376E
:1014800000000000000000000000CDE5E8F1EFF0F2
:1014900020E1EBEEEAE020C1D1CA0000000000C864
:1014A000E7ECE5EDE5EDE8E520E4E0F2E02FE2F041
:1014B000E5ECFF00D1EEE1FBF2E8E5202D20313034
:1014C000000000000000000000D1EEE1FBF2E8E5C2
:1014D000202D203131000000000000000000D1EE7E
:1014E000E1FBF2E8E5202D20313200000000000091
:1014F000000000C0E2E0F0E8FF20EFEE2044000032
:101500000000000000000000CFF0E5E4F3EFF0E59C
:10151000E6E4E5EDE8E520EFEE20440000CDE5E867
:10152000F1EFF020F7F2E5EDE8FF20EAEEECE0ED78
:10153000E400C2EEF1F1F2E0EDEEE2EBE5EDE8E51C
:1015400020440000000000CDE5E8F1EFF02E20F08F
:10155000E0E1EEF2FB20445350000000C2EEF1F156
:10156000F2E0ED2DE520F0E0E1EEF2FB20445350F7
:1015700000CDE8E7EAEEE520EDE0EFF02E20E2FB1B
:10158000F5EEE4E00000C2FBF1EEEAEEE520EDE06E
:10159000EFF02E20E2FBF5EEE4E000CDE5F220CA0C
:1015A000D7203520F1E5EA20EDE02025730000008A
:1015B000CDE5F220CAD720EDE02025730000000021
:1015C0000000000000C2EEF1F1F2E0ED2DE520CACE
:1015D000D720EDE0202573000000C2EEF1F1F22EDD
:1015E000F3F02E20CAD720EDE0202573000000CDB7
:1015F000E5E8F1EFF020F7F22FE7E0EF203252417B
:101600004D000000CDE5E8F1EFF020F7F22FE7E024
:10161000EF20CFCBC8D1000000CDE5E8F1EFF020FE
:10162000F7F22FE7E0EF20464C4153480000CDE5AC
:10163000E8F1EFF0E0E2EDEEF1F2FC20F7E0F1EEA0
:10164000E20000D1EDE8E62EF3F02E20CAD720ED1F
:10165000E020257300000000CEF8E8E1EAE020F089
:10166000E0E1EEF2FB20D6CF0000000000C2F5EE74
:10167000E420525820D6CF20EFF3F1F20000000012
:101680000000D0E0E1EEF2E020D6CF20E2EEF1F172
:10169000F2E0EDEEE2EB00C2FBF1EEEAE0FF20F259
:1016A000E5ECEFE5F0E0F2F3F0E00000CDE8E7EA8A
:1016B000E0FF20F2E5ECEFE5F0E0F2F3F0E000000F
:1016C00000CDEEF0ECE0EB2E20F2E5ECEFE5F0E003
:1016D000F2F3F0E00000CDE5E8F1EFF02EE4E0F207
:1016E000F7E8EA20F2E5ECEFE5F000C8F1EFF0E012
:1016F000E22EE4E0F2F7E8EA20F2E5ECEFE5F000B4
:10170000D1EEE1FBF2E8E5202D2025640000000089
:101710000000000000D1EEE1FBF2E8E5202D2025DD
:1017200064000000000000000000C2EAEB2E20EF81
:10173000E8F2E0EDE8FF2FEFE5F0E5E7E0EF00C2CB
:10174000FBEAEBFEF7E5EDE8E520EFE8F2E0EDE897
:10175000FF000000C8E7ECE5EDE5EDE8E520F0E589
:10176000E6E8ECE020F0E0E100D3E4E0EBE5EDEDCD
:10177000FBE920EDE5E8F1EFF0E0E2E5ED00CDE595
:10178000E8F1EFF020F2E5F1F2E020CFD0C4000064
:10179000000000CDE5E8F1EFF020F2E5F1F2E02005
:1017A000CFD0CC0000000000CDE5E8F1EFF020E163
:1017B000EBEEEAE020C1D1C70000000000CDE5E873
:1017C000F1EFF020E1EBEEEAE020C1D1CA00000029
:1017D0000000CDE5E8F1EFF020EFE5F0E5EAEB2DD4
:1017E000E5E920C1D1C700CDE5F220F1E8E3EDE065
:1017F000EBE020ECE0EDE8EFF3EB2E00CDE5E8F1D7
:10180000EFF020E2FBF5EEE4EDEEE920F6E5EFE89F
:1018100000CDE5F220D0C7203520F1E5EA20EDE04B
:10182000202573000000CEF2F1F3F22DE520F1E85F
:10183000E3EDE0EBE020CFF3F1EA00CEF2F1F3F2DA
:101840002DE520F1E8E3EDE0EBE020D1F2EEEF0052
:10185000CDE5E8F1EFF020F7F2E5EDE8FF20EAEE64
:10186000ECE0EDE400D1EDE8E62E20F3F02E20CA06
:10187000D720EDE0202573000000CDE5E8F1EFF082
:101880002E20F0E0E1EEF2FB20445350000000C2B5
:10189000EEF1F1F2E0ED2DE520F0E0E1EEF2FB20DB
:1018A00044535000CDE8E7EAEEE520EDE0EFF02EFE
:1018B00020E2FBF5EEE4E00000C2FBF1EEEAEEE52B
:1018C00020EDE0EFF02E20E2FBF5EEE4E000CDE5C8
:1018D000F220CAD7203520F1E5EA20EDE02025737B
:1018E000000000CDE5F220CAD720EDE020257300EE
:1018F0000000000000000000C2EEF1F1F2E0ED2D6A
:10190000E520CAD720EDE0202573000000C2EEF1EB
:10191000F1F22E20F3F02ECAD720EDE0202573003F
:101920000000CDE5E8F1EFF020F7F22FE7E0EF203F
:101930003252414D000000CDE5E8F1EFF020F7F222
:101940002FE7E0EF20CFCBC8D1000000CDE5E8F1D4
:10195000EFF020F7F22FE7E0EF20464C415348002C
:1019600000CDE5E8F1EFF0E0E2EDEEF1F2FC20F77A
:10197000E0F1EEE20000D1EDE8E62E20F3F02E20BB
:10198000D0C720EDE0202573000000C2EEF1F1F297
:10199000E0ED2DE520D0C720EDE02025730000000C
:1019A000CDE5F220D0C720EDE02025730000000037
:1019B0000000000000C2EEF1F1F22E20F3F02ED074
:1019C000C720EDE0202573000000C8E7ECE5EDE559
:1019D000EDE8E520EFE0F0E0ECE5F2F0EEE200C843
:1019E000E7ECE5EDE5EDE8E520E4E0F2E02FE2F0FC
:1019F000E5ECFF00D1EEE1FBF2E8E5202D202564C7
:101A0000000000000000000000D1EEE1FBF2E8E57C
:101A1000202D202564000000000000000000D1EE11
:101A2000E1FBF2E8E5202D20256400000000000025
:101A3000000000D1EEE1FBF2E8E5202D2025640056
:101A40000000000000000000D1EEE1FBF2E8E5201C
:101A50002D202564000000000000000000CDE5E816
:101A6000F1EFF020F7F22FE7E0EF20464C4153482A
:101A70000000CDE5E8F1EFF020F7F22FE7E0EF20EE
:101A80003252414D000000CDE5E8F1EFF020F7F2D1
:101A90002FE7E0EF20CFCBC8D1000000CAEEEBFC6F
:101AA000F6EE20EDE0F0F3F8E5EDEE0000000000CA
:101AB00000CDE5E8F1EFF020F2E5F1F2E020CFD043
:101AC000C40000000000CDE5E8F1EFF020E2FBEA01
:101AD000EB2EF2E5F1F220CFD0C400CDE5E8F1EF36
:101AE000F020F2E5F1F2E020CFD0CC0000000000C1
:101AF000CDE5E8F1EFF020F7F22EEAEEECE0EDE4D0
:101B000020C1D1CA00CDE5F220E1EBEEEAE020C130
:101B1000D1CA0000000000000000CEF8E8E1EAE0D1
:101B200020E2E5F0F1E8E820C1D1CA00000000CED3
:101B3000F2EAE0E720F0E5E7E5F0E22E20EBE8ED61
:101B4000E8E80000CDE5E8F1EFF0E0E2EDEEF1F2DB
:101B5000FC20F7E0F1EEE20000CAEEEBFCF6EE202E
:101B6000E2EEF1F1F2E0EDEEE2EBE5EDEE00C4E8DD
:101B7000F1F2E0EDF6E8EEEDEDFBE920F1E1F0EE5B
:101B8000F10000CAEEECE0EDE4E020EDE520E2E556
:101B9000F0EDF3EBE0F1FC00CDE5F220F1E8E3ED50
:101BA000E0EBE020CCC0CD000000000000C2EAEB7A
:101BB0002EEFE8F22FCFE5F0E5E7E0EFF3F1EA00F2
:101BC0000000C8E7ECE5EDE5EDE8E520F0E5E6E846
:101BD000ECE00000000000CDE5E8F1EFF020F6E5D4
:101BE000EFE820E2FBF52E0000000000C2EEF1F16C
:101BF000F2E0ED2DE520CAD120EDE020CFD0CC00E1
:101C000000C2EEF1F1F2E0ED2DE520CAD120C1D6FF
:101C1000CA3100000000C2EEF1F1F2E0ED2DE52046
:101C2000CAD120C1D6CA3200000000CDE5F220CAD8
:101C3000D120C1D6CA310000000000000000000021
:101C4000CDE5F220CAD120C1D6CA32000000000082
:101C50000000000000C2FBEAEBFEF7E5EDE8E5203E
:101C6000EFE8F2E0EDE8FF000000CDE5F220CAD198
:101C7000000000000000000000000000000000CD97
:101C8000E5F220CAD1203520F1E5EAF3EDE40000C9
:101C900000000000D3E43A20EFEEF1F220EDE5E899
:101CA000F1EFF0E0E2E5ED0000D3E43A20CFD0C45C
:101CB00020EDE5E8F1EFF0E0E2E5ED000000D3E42F
:101CC0003A20CFD0CC20EDE5E8F1EFF0E0E2E5ED11
:101CD000000000C8E7ECE5EDE5EDE8E520E4E0F222
:101CE000E02FE2F0E5ECFF00C8E7ECE5EDE5EDE81C
:101CF000E520EFE0F0E0ECE5F2F0EEE200D1EEE11D
:101D0000FBF2E8E5202D2025640000000000000023
:101D10000000D1EEE1FBF2E8E5202D202564000073
:101D200000000000000000D1EEE1FBF2E8E5202D0C
:101D3000202564000000000000000000D1EEE1FB5F
:101D4000F2E8E5202D2025640000000000000000DE
:101D500000D1EEE1FBF2E8E5202D20256400000033
:101D6000000000000000D1EEE1FBF2E8E5202D20AC
:101D70002564000000000000000000D1EEE1FBF24D
:101D8000E8E5202D20256400000000000000000090
:101D9000CDE5E8F1EFF020F7F22FE7E0EF20464C39
:101DA0004153480000CDE5E8F1EFF020F7F22FE7CE
:101DB000E0EF203252414D000000CDE5E8F1EFF0B8
:101DC00020F7F22FE7E0EF20CFCBC8D1000000D101
:101DD000EEE1FBF2E8E5202D202564000000000084
:101DE00000000000CDE5E8F1EFF020F2E5F1F2E0CF
:101DF00020CFD0C40000000000CDE5E8F1EFF020D6
:101E0000E2FBEAEB2EF2E5F1F220CFD0C400CDE503
:101E1000E8F1EFF020F2E5F1F2E020CFD0CC0000C5
:101E2000000000CDE5E8F1EFF020F7F22EEAEEEC4D
:101E3000E0EDE420C1D1CA00CDE5F220E1EBEEEA0D
:101E4000E020C1D1CA0000000000000000CEF8E888
:101E5000E1EAE020E2E5F0F1E8E820C1D1CA0000C3
:101E60000000CEF2EAE0E720F0E5E7E5F0E22E2020
:101E7000EBE8EDE8E80000CDE5E8F1EFF0E0E2EDB9
:101E8000EEF1F2FC20F7E0F1EEE20000CDE5F22009
:101E9000E1EBEEEAE020C1D1C70000000000000045
:101EA00000CEF8E8E1EAE020E2E5F0F1E8E820C160
:101EB000D1C700000000CDE5E8F1EFF020EFE5F03C
:101EC000E5EAEB2DE5E920C1D1C700CDE5F220F12F
:101ED000E8E3EDE0EBE020CCC0CD00000000000026
:101EE000C2EAEB2EEFE8F22FCFE5F0E5E7E0EFF303
:101EF000F1EA000000C8E7ECE5EDE5EDE8E520F0EB
:101F0000E5E6E8ECE00000000000CDE5E8F1EFF0E8
:101F100020F6E5EFE820E2FBF52E0000000000C20D
:101F2000EEF1F1F2E0ED2DE520CAD120EDE020CF79
:101F3000D0CC0000CEF8E8E1EAE020F0E0E1EEF2FB
:101F4000FB20D6CF0000000000C2EEF1F1F2E0ED80
:101F50002DE520F0E0E1EEF2FB20D6CF0000CEF23E
:101F6000F1F3F22DE520F1E8E3EDE0EBE020CFF333
:101F7000F1EA00CEF2F1F3F22DE520F1E8E3ED20F5
:101F8000CEF1F2E0EDEEE200C2FBEAEBFEF7E5EDAA
:101F9000E8E520EFE8F2E0EDE8FF000000CDE5F233
:101FA00020CAD10000000000000000000000000076
:101FB0000000CDE5F220CAD1203520F1E5EAF3EDAD
:101FC000E4000000000000D3E43A20EFEEF1F2203C
:101FD000EDE5E8F1EFF0E0E2E5ED0000D3E43A20D2
:101FE000CFD0C420EDE5E8F1EFF0E0E2E5ED000050
:101FF00000D3E43A20CFD0CC20EDE5E8F1EFF0E0DB
:10200000E2E5ED000000C8E7ECE5EDE5EDE8E520F0
:10201000E4E0F2E02FE2F0E5ECFF00C8E7ECE5EDEC
:10202000E5EDE8E520EFE0F0E0ECE5F2F0EEE200CF
:10203000D1EEE1FBF2E8E5202D2025640000000050
:102040000000000000D1EEE1FBF2E8E5202D2025A4
:1020500064000000000000000000D1EEE1FBF2E8A7
:10206000E5202D202564000000000000000000D1C4
:10207000EEE1FBF2E8E5202D2025640000000000E1
:1020800000000000D1EEE1FBF2E8E5202D20256400
:10209000000000000000000000D1EEE1FBF2E8E5E6
:1020A000202D202564000000000000000000C6F381
:1020B000F0EDE0EB5CD1EEE1FBF2E8FF0025642EF1
:1020C00020CFE5F0E5E4E0F2F7E8EA0025642E2011
:1020D000CFF0E8E5ECEDE8EA0025642E20C7E0F952
:1020E000E8F2E00025642E20D1EEE1FBF2E8FF00EB
:1020F000CCE5EDFE5CC6F3F0EDE0EB00C1D1CF2006
:10210000CCCA202000C1D1CF20D6D1CF2000D6D13B
:10211000CF20CFCBC8D100CFC82020CCCA202000F0
:10212000C1D1CA20CFD0C43100C1D1CA20CFD0C4C0
:102130003200C1D1CA20CFD0CC3100C1D1CA20CF0A
:10214000D0CC3200C1D1C720CFCBC8D100EEF8E847
:10215000E1EAE00000003A20253032582E253032E6
:102160005800CCE5EDFE5CC8EDF4EEF0ECE0F6E8EE
:10217000FF0025642E20D0E5E6E8EC20C0CA00254B
:10218000642E20C8E7ECE5F0E5EDE8FF0025642EBD
:1021900020C8EDF4EEF0ECE0F6E8FF0025642E2018
:1021A000D2E5F1F2FB0025642E20CDE0F1F2F0EE55
:1021B000E9EAE00025642E20D3EFF0E0E2EBE5ED64
:1021C000E8E50025642E20C6F3F0EDE0EB00CCE559
:1021D000EDFE00C0C2C0CDD220D03430300000CFE0
:1021E000C2C72D3930000000000000C0C2C7CA2D90
:1021F00038300000000000CFC2C7D32DC50000005A
:10220000000000CFC2C7CB0000000000000000CBE0
:10221000C8CDC8DF2DD00000000000CFC2C7CA0063
:1022200000000000000000D1EEE2ECE5F1F2E8EC85
:102230002E200020202020C8EDE8F6E8E0EBE8E7BB
:10224000E0F6E8FF20202000202020EDE520EEEF42
:10225000F0E5E4E5EBE5ED21212120200020202020
:1022600020D2E8EF20E0EFEFE0F0E0F2E0202020E5
:102270002000CFF0E5E4F3EFF0E5E6E4E5EDE8E596
:1022800000CDE5E8F1EFF0E0E2EDEEF1F2FC00CD9B
:10229000E5F220CAD100CFD0C420CAD12530317593
:1022A00000CDE5F220CAD100CFD0CC20CAD1253054
:1022B000317500CDE5F220CAD100CDE5E8F1EFF0AF
:1022C0002EF7F22E20464C41534800CDE5E8F1EFC1
:1022D000F02EE7E0EF2E464C41534800CDE5E8F103
:1022E000EFF02EF7F22E20504C495300CDE5E8F1E7
:1022F000EFF02EE7E0EF2E504C495300CDE5E8F12A
:10230000EFF02EE7E0EF2E3252414D00CDE5E8F13F
:10231000EFF02EF7F22E203252414D2000D3F1F291
:10232000E0EDEEE2E8F2E520F7E0F1FB00CEF2EAC4
:10233000E0E720F0E5E7E5F0E22EEBE8ED00CAEE9D
:10234000EC2EEDE520E2E5F0EDF3EBE0F1FC00CA68
:10235000EEEBFCF6EE20EDE0F0F3F8E5EDEE00CA72
:10236000EEEBFCF6EE203120EDE0F0F3F82E00CAA3
:10237000EEEBFCF6EE203220EDE0F0F3F82E00D389
:10238000E4E0EB2ECFCED1D220EDE5E8F1EFF00086
:10239000D3E4E0EB2ECFD0C420EDE5E8F1EFF00080
:1023A000D3E4E0EB2ECFD0CC20EDE5E8F1EFF00068
:1023B000CDE5F220CAD120EDE020C1D6CA3100CD52
:1023C000E5F220CAD120EDE020C1D6CA3200CEF815
:1023D000E8E1EAE020F0E0E1EEF2FB20D6CF00CD2C
:1023E000E5F220E1EBEEEAE020C1D1C700CDE5E85F
:1023F000F1EFF02EE2E5F0F12EC1D1C700CDE5E816
:10240000F1EFF02EEFE5F0E5EAEB2E00CDE5F2205E
:10241000CAD100CDE5E8F1EFF02EE2F5EEE42ECFE3
:10242000D3D1CA00CDE5E8F1EFF02EE2F5EEE42ECF
:10243000D1D2CECF00CDE5E8F1EFF02EF6E5EFFCFE
:1024400020C2DBD500CDE5E8F1EFF02EE7E0EF2E7E
:1024500020C2DBD500CDE5F220CAD100CDE5F220C7
:10246000F1E8E3EDE0EBE020CCC0CD00CDE5F220DB
:10247000E1EBEEEAE020C1D1CA00CDE5E8F1EFF0F2
:102480002EE2E5F0F12E20C1D1CA00CDE5F220CA3E
:10249000D100CDE5E8F1EFF02EE7E0EF2E20C1D13D
:1024A000CA00CDE5E8F1EFF02EE2FBEAEB2EEAEE12
:1024B000EC2E00CDE5E8F1EFF02EE2EAEB2E20EA7B
:1024C000EEEC2E00CDE5E8F1EFF02EEAEEEDF2F0C5
:1024D0002EEAEEEC00CDE5F220CAD100CDE5F220E7
:1024E000E1EBEEEAE020C1D1CA00CDE5E8F1EFF082
:1024F0002EE2E5F0F12E20C1D1CA00CDE5E8F1EFE2
:10250000F02EF7F22EEAEEECE0EDE400CDE5E8F196
:10251000EFF02EE2FBEAEB2ED2E5F1F200CDE5E89A
:10252000F1EFF02EE2EAEB2E20D2E5F1F200CDE55C
:10253000E8F1EFF02EE2F5EEE42E20EAEEEC00CD2D
:10254000E5F220D0C700CFD0C420CAD725303175DE
:1025500000CDE5F220CAD700CFD0CC20CAD7253095
:10256000317500CDE5F220CAD700C0CA2DCDE5F205
:1025700020EEF2E2E5F2E000C0CA2DD1EDE8E6E59A
:10258000ED2EE7E0EFE0F1E000CFEEECE5F5E02046
:10259000E220EBE8EDE8E800CDE5E8F1EFF02E44CD
:1025A0005350203252414D2000D2EEEA20EFEEEAA5
:1025B000EEFF00CDE8E7EAEEE520EDE0EFF02EE2F9
:1025C000FBF500C2FBF1EEEAEEE520EDE0EFF02EC8
:1025D000E2FBF500CDE5E8F1EFF02E20CCCA20D3E8
:1025E000CC00C2D720F2F0E0EAF220E2EEF1F1F204
:1025F0002E00C0CA2DCDE5F220EEF2E2E5F2E02594
:102600007300CDE5E8F1EFF02EF3E42EC4D4C72536
:102610007300CDE5E8F1EFF02EF3E42EC2DBD52513
:102620007300D3E4E0EB2EE1E5E720EEF2E22E25A5
:102630007300D3E4E0EB2EEEE1ED2EEFEEEC2E2571
:102640007300CFEEECE5F5E020E220EBE8EDE8E802
:1026500000CDE5E8F1EFF02E20C4D4C700C0CA2DAC
:10266000D1ED2EE7E0EFE0F1E020257300CFEEF0B2
:10267000EEE320EFEE20EFEEECE5F5E500C0E2F250
:10268000EEEAEEEDF2F0EEEBFC00CFF0E8E5EC2048
:10269000E4E0EBFCEDE8E900C0E2F2EEEAEEEDF298
:1026A000F0EEEBFC00CDE5F220F1E8E3EDE0EBE04D
:1026B00020D0C700D3E4E0EB2E20EDE5E8F1EFF009
:1026C000E0E2E5ED00CDE8E7EAE8E920F3F0EEE24C
:1026D0002E20D0C700CCE0EBFBE920E7E0EFE0F1F3
:1026E00000CDE5F220CAD700D1EDE8E62E20F3F0C8
:1026F000EEE2EDFF20CFD0CC00CEF8E8E1EAE0201A
:10270000F0E0E1EEF2FB20D6CF00C2F5EEE420527D
:102710005820D6CF20EFF3F1F200C2FBF1EEEAE051
:10272000FF20F2E5ECEFE5F0E0F200CDE8E7EAE0CB
:10273000FF20F2E5ECEFE5F0E0F200CDE5E8F1EFA7
:10274000F02E20E4E0F22EF2E5ECEF00CDE8E7EA2F
:10275000E8E920F3F0EEE2E5EDFC204400CEF8E8F5
:10276000E1EAE020F0E0E1EEF2FB20D6CF00C2F596
:10277000EEE420525820D6CF20EFF3F1F200CDE85E
:10278000E7EAE8E920F3F0EEE2E5EDFC2044002082
:10279000CDE5F220F1E2FFE7E820F120C1D1CF2121
:1027A00021212000C8F1F5EEE4ED2E00CAEEEDF295
:1027B000F0EEEBFC00CFF3F1EA00CEF1F2E0EDEE4B
:1027C000E200CDE5E8F1EFF02E00CF2EEDE5E8F1E7
:1027D000EFF000CEE6E8E4E0EDE8E500CDE0EB2E3A
:1027E000EFF3F1EA00D3E42EEFF3F1EA00D0E5F7DE
:1027F000FC00CFD0C400CFD0CC00D3EFF02E20D23D
:10280000CC00CEF8E8E1EAE000C8F1F5EEE4ED2E08
:1028100000CFD0CC20CFC02530327500CDE5E8F117
:10282000EFF02E00CF2EEDE5E8F1EFF000CEE6E878
:10283000E4E0EDE8E500C1CBCA20CACC2530327512
:10284000003F307830383F003F307830393F00D09B
:10285000E5F7FC00CFD0C400CFD0CC00D3EFF02EF2
:1028600020D2CC00C8F1F5EEE4ED2E00CFD0C4208C
:10287000CFC02530327500CDE5E8F1EFF02E00CF66
:102880002EEDE5E8F1EFF000CEE6E8E4E0EDE8E576
:10289000003F307830373F00CFD0C420D6CF25302E
:1028A000327500D1E8F1F2E5EC2E00D0E5F7FC003E
:1028B000CFD0C400CFD0CC00D3EFF02E20D2CC00AC
:1028C000CFD0C400CFD0CC00C7C0D900CDC5D20076
:1028D000020801060307010504020F0C100911127A
:1028E000130D02080106030704050102010E0B097E
:1028F0000101010A020801060307010504020F0C89
:102900000B090D0E0101000000000000004F000047
:102910000007000700147F147F14242A7F2A122343
:102920001308646236495522400005030000001C6C
:102930002241000041221C0014083E081408083EF1
:10294000080800503000000808080808006060000F
:102950000020100804023E5149453E00427F4000DD
:1029600042615149462141454B311814127F1027CD
:10297000454545393C4A4949300171090503364905
:10298000494936064949291E0036360000005636A8
:1029900000000814224100141414141400412214DD
:1029A000080201510906324971413E7E1111117E22
:1029B0007F494949363E414141227F4141221C7FA6
:1029C000494949417F090909013E4149493A7F087E
:1029D00008087F00417F41002040413F017F0814EB
:1029E00022417F404040407F020C027F7F0408105C
:1029F0007F3E4141413E7F090909063E4151215E2A
:102A00007F09192946464949493101017F01013FA2
:102A10004040403F1F2040201F3F4070403F631414
:102A200008146307087008076151494543007F4156
:102A3000410002040810200041417F00040201020D
:102A400004404040404000010204002054545478A7
:102A50007F484444383844444420384444487F380C
:102A600054545418087E0901020C5252523E7F08F9
:102A700004047800447D40002040443D007F10283D
:102A8000440000417F40007C041804787C08040462
:102A90007838444444387C14141408081414187CFE
:102AA0007C080404084854545420043F4440203C0B
:102AB0004040207C1C2040201C3C4030403C4428AE
:102AC0001028440C5050503C4464544C4400083688
:102AD000410000007F0000004136080002010202B0
:102AE0000114141414140E0A0E000024242F24249C
:102AF0007F7F7F7F7F7F7F7F7F7F7F7F7F7F7F7FE6
:102B00007F7F7F7F7F7F7F7F7F7F7F7F7F7F7F7FD5
:102B10007F7F7F7F7F7F7F7F7F7F7F7F7F7F7F7FC5
:102B20007F7F7F7F7F7F7F7F7F7F7F7F7F7F7F7FB5
:102B30007F7F7F7F7F7F7E1111117E7F49494933DF
:102B40007F494949367F01010103E0514F41FF7F31
:102B50004949494177087F087741494949367F10FB
:102B600008047F7C2112097C7F0814224120413F08
:102B7000017F7F020C027F7F0808087F3E414141B0
:102B80003E7F0101017F7F090909063E4141412243
:102B900001017F010147281008071C227F221C63C6
:102BA000140814637F404040FF070808087F7F40F7
:102BB0007F407F7F407F40FF017F4848307F483023
:102BC000007F007F484830224149493E7F083E410E
:102BD0003E462919097F20545454783C4A4A4931C9
:102BE0007C545428007C0404040CE0544C44FC380D
:102BF000545454186C107C106C44445454287C2059
:102C000010087C7C4122117C7C1028440020443C2C
:102C1000047C7C0810087C7C1010107C38444444F0
:102C2000387C0404047C7C14141408384444442084
:102C300004047C04040C5050503C3048FC483044A0
:102C4000281028447C404040FC0C1010107C7C4034
:102C50007C407C7C407C40FC047C5050207C50506C
:102C6000207C7C5050200028445454387C10384438
:102C700038085434147C462D6D2D942DBB2DE22D37
:102C8000092E302E572E7E2EA52ECC2EF32E1A2F47
:102C9000412F682F8F2FB62FDD2F04302B3052306D
:102CA0007930A030C730EE3015313C3163318A3194
:102CB000B131D831FF3126324D3274329B32C232BB
:102CC000E932103337335E338533AC33D333FA33E1
:102CD000213448346F349634BD34E4340B35323506
:102CE00059358035A735CE35F5351C3643366A362D
:102CF0009136B836DF3606372D3754377B37A23753
:102D0000C937F03717383E3865388C38B338DA3879
:102D1000013928394F3976399D39C439EB39123A9E
:102D2000393A603A873AAE3AD53AFC3A233B4A3BC5
:102D3000713B983BBF3BE63B0D3C343C5B3C823CEB
:102D4000A93CD03CF73C000000000000000000005F
:102D5000000000000000000000000000000100A5CD
:102D600004010000010001010001000001D1E8EDB3
:102D7000F5F0EEEDE8E7E0F6E8FF20F7E0F1EEE24F
:102D80000000350101001E3D0100000200010102AA
:102D900001000001D1E8EDF5F0EEEDE8E7E0F6E83E
:102DA000FF20F7E0F1EEE2000035010000363D01C2
:102DB0000000030001010201000001CDEEECE5F08E
:102DC00020E0EFEFE0F0E0F2E000000000000000A3
:102DD0003B020200A5040101000300010101010200
:102DE0000001CDEEECE5F020E0EFEFE0F0E0F2E006
:102DF000000000000000003B020200A504010100E9
:102E0000FF0001010101000001CAEEEDF2F0EEEB5E
:102E1000FC20E2FBF52EF1E8E3EDE0EBE0003D0104
:102E200001001E3D0100000200010101010000013E
:102E3000CFEEF0EEE320EFF0E5E4F3EFF0E5E6E4CB
:102E4000E5EDE8FF003C020209A5040100001600C0
:102E500001010301000001CFEEF0EEE320EFF0E509
:102E6000E4F3EFF02E20EFEE20CA43003C0202090B
:102E7000A504010000160001010301000001C2F0D9
:102E8000E5ECFF20EFE5F0E5E7E0EFF3F1EAE00045
:102E900000000039020207A504010000050001013D
:102EA0000101000001D3E4E5F0E62E20F0E5EBE5BA
:102EB00020EAEEEC2E20CFD0C400370101001E3DE9
:102EC000010000020001010201000001D3E4E5F06D
:102ED000E62E20F0E5EBE520EAEEEC2E20CFD0CC7C
:102EE00000360101001E3D01000002000101010148
:102EF000000001C7E0E3F0F3E1EB2E20F7F3E2F18D
:102F0000F2E22E20CFD0CC003C020209A504020040
:102F100000160001010302000101D1E5F2E5E2EE35
:102F2000E920E0E4F0E5F1000000000000000038D6
:102F3000020200A504010100F700010101010000E7
:102F40000055E2FBF520EDEEECE8EDE0EBFCEDEEFC
:102F5000E5000000000036020204A5040112003260
:102F60000001010101000001D7E0F1F2EEF2E00002
:102F7000000000000000000000000000003A020213
:102F80000BA504010000E80301010401000001D7C2
:102F9000E0F1F2EEF2E020CFD0C40000000000002B
:102FA000000000003A02020BA504010000E8030142
:102FB000010501000001D7E0F1F2EEF2E020CFD0F0
:102FC000CC000000000000000000003A02020BA547
:102FD00004010000E80301010502000001C8EDE260
:102FE000E5F0F1E8FF20F1EFE5EAF2F0E020CFD0E4
:102FF000C400370101001E3D010000020001010272
:1030000018000001C8EDE2E5F0F1E8FF20F1EFE57E
:10301000EAF2F0E020CFD0CC00370101001E3D01E4
:103020000000020001010219000001D1EEE2ECE50E
:10303000F1F2E8ECEEF1F2FC00000000000000000C
:10304000370100005A3D01000007000101020100A4
:103050000001D1EDE8E6E5EDE8E520EEF2E2E5F28B
:10306000E020C0CA00000039020209A504010000E6
:10307000140001010301000001D2E8EF20E4E5F2B1
:10308000E5EAF2EEF0E0000000000000000035028A
:103090000200A50401010003000101020200000179
:1030A000CAEEF0F0E5EAF6E8FF20EDE0EFF0FFE62B
:1030B000E5EDE8FF0033030404A50401A8FD580270
:1030C00001010801000000CAEEF0F0E5EAF6E8FFB1
:1030D00020F2EEEAE00000000000000033040501E9
:1030E000A5040119FCE70301010902000000CFF06B
:1030F000EEF2EEEAEEEB20EEE1ECE5EDE0000000B2
:1031000000000039010000AE3D0101000200010194
:103110000301000001CFF0E8E7EDE0EA20F7E5F277
:10312000EDEEF1F2E8000000000039010000C63DBC
:10313000010100020001010302000001C4EEEFF3EF
:10314000F1F2E8ECFBE520EFF0EEE2E0EBFB000053
:10315000003902020CA50401000050000201030323
:10316000000001CFEEF0EEE320EFEE20EFEEECE515
:10317000F5E500000000000039020207A504010087
:1031800000FF0001010304000001C4EEEFF3F1F2BF
:10319000E8ECE0FF20EFEEECE5F5E00000000039A0
:1031A00002020CA5040114005000140103050000E4
:1031B00001D2E8EF20E0E2F2EEEAEEEDF2F0EEEB23
:1031C000FF000000000039010000DE3D01010003A6
:1031D0000001010306000001CFE5F0E8EEE420E184
:1031E000E5E3EBEEE3EE20C0CA0000000039020286
:1031F00007A504010100FF0001010307000001CF42
:10320000E5F0E8EEE420EFEEE2F22EE1E5E3EB2E6E
:1032100020C0CA0039020207A504010100FF000115
:10322000010308000001D0E5E7E5F0E2E8F0EEE296
:10323000E0EDE8E500000000000000330101001EA1
:103240003D010000020001010301000001D1EEE296
:10325000ECE5F1F2E8ECEEF1F2FC00000000000019
:10326000000037010000023E0100000D00010102D4
:1032700002000001D2E8EF20EBE8EDE8E8000000F2
:10328000000000000000000000020100009E3E015E
:103290000100020001010101000001D2E5EBE5ECB3
:1032A000E5F5E0EDE8EAE0000000000000000000C5
:1032B000370101001E3D0100000200010102030070
:1032C0000001CFEEF0EEE320EFF0E5E4F3EFF02EB7
:1032D00020EFEE2044000037020209A50401C0FFE0
:1032E000400001010204000001CFEEF0EEE320E017
:1032F000E2E0F0E8E820EFEE2044000000003702B2
:103300000209A50401C0FF400001010205000001FF
:10331000CAEEEDF2F0EEEBFC20F2E5ECEFE5F0E0CA
:10332000F2F3F0FB00370101001E3D010000020036
:1033300001010206000001C2E5F0F52EE7EDE0F71D
:10334000E5EDE8E520F2E5ECEFE5F0003702020CF0
:10335000A504010000640001010207000001CDE89E
:10336000E6ED2EE7EDE0F7E5EDE8E520F2E5ECEF40
:10337000E5F0003702020CA5040100006400010121
:103380000208000001D1EAEEF0EEF1F2FC20D2CC0E
:103390000000000000000000000037010000B63E01
:1033A000010000020001010209000001D1EEE2EC7F
:1033B000E5F1F2E8ECEEF1F2FC00000000000000A4
:1033C0000037010000CE3E010000030001010202AF
:1033D000000001D2E8EF20E7E0F9E8F2FB0000008E
:1033E000000000000000000001010000F23E0100AA
:1033F00000080001010101000001C4EEEF2E20E2EF
:10340000F0E5ECFF20E1E5E720ECE0ED2E00000325
:10341000020208A50401000063000101010100008F
:1034200001CFE5F0E5EAF0FBF2E8E520E8ECEFF3A8
:10343000EBFCF1EEE2000502020CA50401000036EF
:103440000002010101000001CFE5F0E5EAF0FBF226
:10345000E8E520E8ECEFF3EBFCF1EEE20005020218
:103460000CA504011200360002010101000001CF89
:10347000E5F0E5EAF0FBF2E8E520E8ECEFF3EBFC41
:10348000F1EEE2000502020CA50401000036000185
:10349000010101000001CAEEECEFE5EDF1E0F6E814
:1034A000FF20E7E0E4E5F0E6EAE8000402020CA50C
:1034B00004020000120002010201000101CAEEEC48
:1034C000EFE5EDF1E0F6E8FF20E7E0E4E5F0E6EA1D
:1034D000E8000402020CA50402000012000101022F
:1034E00001000101CFEEF0EEE320EFF0E5E4F3EFB1
:1034F000F02E20EFEE20D0C70009020209A504013A
:103500000000100001010101000001C7E0E3F0F339
:10351000E1EBE5EDE8E520F7F3E2F1F2E2E8F200B5
:1035200006020209A50401000020000101010100BA
:103530000001C7E0E3F0F3E1EB2E20F7F3E2F1F254
:10354000E22E20D0C7000006020209A504020000F6
:10355000200001010301000101D2E8EF20EFF0E8B3
:10356000E5ECEDE8EAE000000000000000000701E3
:103570000000523F010000030001010101000001B1
:10358000D1EDE8E6E5EDE8E520F3F0EEE2EDFF2031
:10359000C0CA000000070101001E3D01000002003A
:1035A00001010101000001D7E0F1F2EEF2E020CFCD
:1035B000D0C400000000000000000000080100006E
:1035C000763F010000050001010101000001D7E084
:1035D000F1F2EEF2E020CFD0CC00000000000000BD
:1035E00000000009010000763F0100000500010114
:1035F0000101000001D1E4E2E8E320EFE5F02EF460
:10360000F0EEEDF2E020CFD0C4000502020CA504DC
:10361000010000FF0001010201000001D1E4E2E825
:10362000E320E7E0E42EF4F0EEEDF2E020CFD0C4AA
:10363000000502020CA504010000FF0001010202C6
:10364000000001D1E4E2E8E320CFD0CC000000008C
:1036500000000000000000000502020CA5040100AB
:1036600000FF0001010203000001D1E4E2E8E320D1
:10367000C2D720CFD0C420EEF220CFD3D1CA0005CC
:1036800002020CA504010000FF0001010204000079
:1036900001CEE3F0E0EDE8F72E20EFEEEBEEF1FBEC
:1036A00020CFD0C400000B0101001E3D010000022C
:1036B0000001010201000001C7E0E4E5F0E6EAE0F4
:1036C00020E2FBEAEB2E20CFD0CC0000000B020260
:1036D0000CA504010000FF0001010202000001C767
:1036E000E0E4E5F0E6EAE020E2EAEB2E20CFD0CC01
:1036F000000000000B02020CA504010000FF000105
:10370000010203000001C7E0E4E5F0E6EAE020E2A0
:10371000EAEB2E20CFD0C4000000000B02020CA563
:1037200004010000FF0001010204000001CCE8EDEB
:103730002E20E4EBE8F22E20CFD0C40000000000E1
:1037400000000B02020CA504010000FF00010102B1
:1037500005000001C7E0E4E5F0E6EAE020F1F0E072
:10376000E1E0F22E20CFD0C40021020206A5040120
:103770000000140001010101000001C4EBE8F2E5C2
:10378000EBFCEDEEF1F2FC20EAEEECE0EDE4FB0008
:1037900022020206A504011E0064000101010100CD
:1037A0000001C4EBE8F2E5EBFCEDEEF1F2FC20EAFF
:1037B000EEECE0EDE4FB0022020206A504011E008F
:1037C000F4010A0A0101000001D2E5F1F2EEE2E0A3
:1037D000FF20EAEEECE0EDE4E0000000000026014E
:1037E00001001E3D01000002000101010100000175
:1037F000D1EBE5E4FFF9E8E520EAEEECE0EDE4FBEF
:103800000000000000250501001E3D200000020010
:1038100001010601000201C1EBEEEAE8F0EEE22E42
:1038200020EAEEECE0EDE4FB0000000024050100DE
:103830001E3D200000020001010601000201D2F03D
:10384000E0EDF1EBFFF6E8FF20D6CF00000000002E
:10385000000000270101001E3D01000002000101DF
:103860000101000001C1EBEEEAE8F0EEE22E20EAF1
:10387000EEECE0EDE4FB20D6CF00280501001E3D74
:10388000200000020001010601000201CAEEEBE87F
:10389000F7E5F1F2E2EE20EAEEECE0EDE400000004
:1038A000002C020200A50401040020000404010110
:1038B000000001CAEEEBE8F7E5F1F2E2EE20EAEEF5
:1038C000ECE0EDE420C0000029020200A5040100A4
:1038D00000200001010101010001CAEEF0F0E5EA5B
:1038E000F6E8FF20F7E0F1F2EEF2FB000000002323
:1038F00002050AA504019CFF64000101010100000A
:1039000001D1EDE8E6E5EDE8E520F3F0EEE2EDFFCC
:1039100020CAD10000002D020209A50401000014F4
:103920000001010301000001D1EDE8E6E5EDE8E565
:1039300020F3F0EEE2EDFF20D2CC0000002D0202D9
:1039400009A504010000140001010302000001CADE
:10395000D120EFEE20F3ECEEEBF7E0EDE8FE000017
:10396000000000002D010000B23F01000002000134
:10397000010303000001D1E8E3EDE0EBE8E7E0F646
:10398000E8FF20EAEEECE0EDE400002E0501001E69
:103990003D200000020001010601000201C7E0E431
:1039A000E5F0E6EAE020EDE020F4E8EAF12EEAEEC8
:1039B000EC0011020206A5040100000A0001010149
:1039C00001000001C1EBEEEAE8F0EEE22E20EAEEA3
:1039D000ECE0EDE4FB00000000140501001E3D20BA
:1039E0000000020001010601000301C7E0E4E5F068
:1039F000E6EAE020EDE020E2FBEAEB2EEAEEEC0066
:103A000013020206A504200000E803320A030100A5
:103A10000301D2F0E0EDF1EBFFF6E8FF20D6CF0096
:103A200000000000000000170101001E3D01000021
:103A3000020001010101000001C1EBEEEAE8F0EE35
:103A4000E22E20EAEEECE0EDE4FB20D6CF001805F4
:103A500001001E3D200000020001010601000301DB
:103A6000CAEEECE0EDE4E020CFD0CC20E220D6CFCF
:103A7000000000000019020200A50420010020003F
:103A800001010301000301CAEEEBE8F7E5F1F2E200
:103A9000EE20EAEEECE0EDE4000000001C02020083
:103AA000A504010400200004040101000001CFF07E
:103AB000E8E5EC20F2E5F1F2EEE2EEE920EAEEECE8
:103AC0002E0000120101001E3D0100000200010154
:103AD0000101000001CAEEF0F0E5EAF6E8FF20F788
:103AE000E0F1F2EEF2FB000000001502050AA50469
:103AF000019CFF640001010101000001D1E8E3ED38
:103B0000E0EBE8E7E0F6E8FF20EAEEECE0EDE400C9
:103B1000001D0501001E3D200000020001010601FC
:103B2000000301CFEEE2FBF8E5EDE8E520E1E5E793
:103B3000EEEFE0F12DF2E800160100001E3D01005D
:103B400000020001010101000001C8EDF2E5F0F4FE
:103B5000E5E9F120F1E2FFE7E800000000000000E5
:103B6000010000CA3F010000020001010001000045
:103B700000CFF0EEF2EEEAEEEB00000000000000F5
:103B800000000000000000010000E23F010000030F
:103B90000001010001000000D1EAEEF0EEF1F2FCBC
:103BA00020EFE5F0E5E4E0F7E800000000000100A8
:103BB000000640010000060001010001000000C1F4
:103BC000E8F2FB20E4E0EDEDFBF500000000000072
:103BD00000000000000100004E4001000001000153
:103BE000010001000000D7E5F2EDEEF1F2FC00006B
:103BF0000000000000000000000000000100005A6A
:103C000040010000030001010001000000D1F2EEBC
:103C1000EFEEE2FBE520E1E8F2FB0000000000002F
:103C20000000000100007E400100000200010100D0
:103C300001000000C2F0E5ECFF20EEE6E8E4E0ED74
:103C4000E8FF20EAEEEC2E000037020206A5040190
:103C50000000FF000101020A000001D2F0E0EDE7E0
:103C6000E8F2EDFBE520EAEEECE0EDE4FB0000001D
:103C7000370501001E3D60000002000101070B0036
:103C80000001CFE5F0E5EDE0E7EDE0F7E5EDE8E593
:103C900020CFD0CC0000001B010000964020000087
:103CA000610001010301000301CFE5F0E5EDE0E76C
:103CB000EDE0F7E5EDE8E520CFD0C40000002B01F2
:103CC0000000964020000061000101030100030193
:103CD000D2E5F1F2EEE2FBE920F1E8E3EDE0EB0002
:103CE0000000000000000100002245010000A200C9
:103CF00001010001000001D0E5E6E8EC0000000051
:103D000000000000000000000000000000010000B2
:103D1000BA4C010000040001010001000001E2FBB7
:103D2000EAEB2E00000000000000E2EAEB2E0000AB
:103D3000000000000000E2FBEAEB2E0000000000A3
:103D40000000EAE0EDE0EB20F1E22E000000C0D13F
:103D5000D320D2CF000000000000C0C2C0CDD220CE
:103D6000D03430300000CFC2C72D39300000000001
:103D70000000C0C2C7CA2D38300000000000CFC20A
:103D8000C7D32DC5000000000000CFC2C7CB000084
:103D9000000000000000CBC8CDC8DF2DD00000001F
:103DA0000000CFC2C7CA0000000000000000E1FB15
:103DB000F1F2F0FBE90000000000ECE5E4EBE5EDDA
:103DC000EDFBE9000000E2EAEB2E0000000000003D
:103DD0000000E2FBEAEB2E00000000000000F2F021
:103DE000E5E2EEE6EDFBE9000000EDEEF0ECE0EBE5
:103DF000FCEDFBE90000F1EFEEEAEEE9EDFBE90096
:103E00000000C0C2C0CDD200000000000000C0C24F
:103E1000C0CDD220CFD0C4000000C0C2C0CDD220BF
:103E2000CFD0CC000000C0CACFC020CFD0C400008B
:103E30000000C0CACFC020CFD0CC00000000CAC54F
:103E4000C4D020CFD0C400000000CAC5C4D020CF49
:103E5000D0CC00000000D3CFCA2DD620CFD0C400D4
:103E60000000D3CFCA2DD620CFD0CC000000C2D7BF
:103E7000D2CE20CFD0C400000000C2D7D2CE20CFF7
:103E8000D0CC00000000C0CDCAC020CFD0C40000FC
:103E90000000C0CDCAC020CFD0CC0000000032202E
:103EA000EAEEEDF6E5E2E0FF00003320EAEEEDF6A3
:103EB000E5E2E0FF000032303000000000000000CA
:103EC0000000343030000000000000000000D0C7C7
:103ED000D1CA0000000000000000D0C7D1CAEC0029
:103EE000000000000000D0C7D1CA2D332038EA00FE
:103EF0000000C4D4C72DCFF0CFE400000000C4D42C
:103F0000C72DCCCA310000000000C4D4C72DCCCAD4
:103F1000320000000000C4D4C72D4C363000000031
:103F20000000CDC72DCFF0CFE40000000000CDC7CA
:103F30002DCCCA00000000000000CFCFC72DCFF06D
:103F4000CFE400000000CFCFC72DCCCA0000000096
:103F50000000E0EAF22BEFE0F1F100000000E0EAFF
:103F6000F2E8E2EDFBE900000000EFE0F1F1E8E249
:103F7000EDFBE90000002D31303030C3F6000000C9
:103F800000002D353030C3F600000000000030C3C3
:103F9000F60000000000000000002B353030C3F6B2
:103FA0000000000000002B31303030C3F60000006C
:103FB0000000CAD131000000000000000000CAD19A
:103FC00032000000000000000000555342000000D5
:103FD000000000000000525334383500000000009B
:103FE0000000D1D2C0CDC4C0D0D2000000004D4FDF
:103FF00044425553000000000000CCDDCA2D313092
:1040000031000000000036303000000000000000E9
:104010000000313230300000000000000000323477
:104020003030000000000000000034383030000064
:1040300000000000000039363030000000000000B1
:10404000000031393230300000000000000038003C
:1040500000000000000000000000EDE5F20000009C
:10406000000000000000F7E5F20000000000000082
:104070000000EDE5F7E5F20000000000000031006F
:1040800000000000000000000000320000000000FE
:1040900000000000000030000000000000000000F0
:1040A000000031410000000000000000000032412B
:1040B000000000000000000000003341000000008C
:1040C000000000000000344100000000000000007B
:1040D00000003541000000000000000000003641F3
:1040E0000000000000000000000037410000000058
:1040F0000000000000003841000000000000000047
:1041000000003941000000000000000000003130D4
:1041100041000000000000000000313141000000BB
:1041200000000000000031324100000000000000EB
:104130000000313341000000000000000000313475
:104140004100000000000000000031354100000087
:1041500000000000000031364100000000000000B7
:10416000000031374100000000000000000031383D
:104170004100000000000000000031394100000053
:10418000000000000000323041000000000000008C
:104190000000323141000000000000000000323217
:1041A0004100000000000000000032334100000028
:1041B0000000000000003234410000000000000058
:1041C00000003235410000000000000000003236DF
:1041D00041000000000000000000323741000000F4
:1041E0000000000000003238410000000000000024
:1041F00000003239410000000000000000003330B0
:1042000041000000000000000000333141000000C8
:1042100000000000000033324100000000000000F8
:1042200000003142000000000000000000003242A7
:104230000000000000000000000033420000000009
:1042400000000000000034420000000000000000F8
:10425000000035420000000000000000000036426F
:1042600000000000000000000000374200000000D5
:1042700000000000000038420000000000000000C4
:104280000000394200000000000000000000313052
:104290004200000000000000000031314200000038
:1042A0000000000000003132420000000000000069
:1042B00000003133420000000000000000003134F3
:1042C0004200000000000000000031354200000004
:1042D0000000000000003136420000000000000035
:1042E00000003137420000000000000000003138BB
:1042F00042000000000000000000313942000000D0
:104300000000000000003230420000000000000009
:104310000000323142000000000000000000323294
:1043200042000000000000000000323342000000A4
:1043300000000000000032344200000000000000D5
:10434000000032354200000000000000000032365C
:104350004200000000000000000032374200000070
:1043600000000000000032384200000000000000A1
:10437000000032394200000000000000000033302D
:104380004200000000000000000033314200000045
:104390000000000000003332420000000000000076
:1043A0000000314300000000000000000000324324
:1043B0000000000000000000000033430000000087
:1043C0000000000000003443000000000000000076
:1043D00000003543000000000000000000003643EC
:1043E0000000000000000000000037430000000053
:1043F0000000000000003843000000000000000042
:1044000000003943000000000000000000003130CF
:1044100043000000000000000000313143000000B4
:1044200000000000000031324300000000000000E6
:104430000000313343000000000000000000313470
:104440004300000000000000000031354300000080
:1044500000000000000031364300000000000000B2
:104460000000313743000000000000000000313838
:10447000430000000000000000003139430000004C
:104480000000000000003230430000000000000087
:104490000000323143000000000000000000323212
:1044A0004300000000000000000032334300000021
:1044B0000000000000003234430000000000000053
:1044C00000003235430000000000000000003236DA
:1044D00043000000000000000000323743000000ED
:1044E000000000000000323843000000000000001F
:1044F00000003239430000000000000000003330AB
:1045000043000000000000000000333143000000C1
:1045100000000000000033324300000000000000F3
:104520000000E2FBEAEB2E00000000000000CAD70A
:1045300000000000000000000000CAD731000000A9
:10454000000000000000CAD7320000000000000098
:104550000000CAD733000000000000000000CAD7E6
:1045600034000000000000000000CAD73100000045
:10457000000000000000CAD73120F120E1EBEEEA94
:104580000000CAD732000000000000000000CAD7B7
:104590003220F120E1EBEEEA0000D0C7000000007D
:1045A000000000000000CAEEECE0EDE4E0310000A5
:1045B0000000CAEEECE0EDE4E03200000000CAEEDC
:1045C000ECE0EDE4E03300000000CAEEECE0EDE4E6
:1045D000E03400000000CAEEECE0EDE4E03500005D
:1045E0000000CAEEECE0EDE4E03600000000CAEEA8
:1045F000ECE0EDE4E03700000000CAEEECE0EDE4B2
:10460000E03800000000CAEEEC312BE1EBEEEA00EE
:104610000000CAEEEC322BE1EBEEEA000000CAEE3D
:10462000EC332BE1EBEEEA000000CAEEEC342BE1B8
:10463000EBEEEA000000CAEEEC352BE1EBEEEA000F
:104640000000CAEEEC362BE1EBEEEA000000CAEE09
:10465000EC372BE1EBEEEA000000CAEEEC382BE180
:10466000EBEEEA000000CAEEECE0EDE4E031000021
:104670000000CAEEECE0EDE4E03200000000CAEE1B
:10468000ECE0EDE4E03300000000CAEEECE0EDE425
:10469000E03400000000CAEEECE0EDE4E03500009C
:1046A0000000CAEEECE0EDE4E03600000000CAEEE7
:1046B000ECE0EDE4E03700000000CAEEECE0EDE4F1
:1046C000E03800000000CAEEECE0EDE4E039000064
:1046D0000000CAEEECE0EDE4E03130000000CAEE8C
:1046E000ECE0EDE4E03131000000CAEEECE0EDE496
:1046F000E03132000000CAEEECE0EDE4E0313300DE
:104700000000CAEEECE0EDE4E03134000000CAEE57
:10471000ECE0EDE4E03135000000CAEEECE0EDE461
:10472000E03136000000CAEEECE0EDE4E0313700A5
:104730000000CAEEECE0EDE4E03138000000CAEE23
:10474000ECE0EDE4E03139000000CAEEECE0EDE42D
:10475000E03230000000CAEEECE0EDE4E03231007F
:104760000000CAEEECE0EDE4E03232000000CAEEF8
:10477000ECE0EDE4E03233000000CAEEECE0EDE402
:10478000E03234000000CAEEECE0EDE4E032350047
:104790000000CAEEECE0EDE4E03236000000CAEEC4
:1047A000ECE0EDE4E03237000000CAEEECE0EDE4CE
:1047B000E03238000000CAEEECE0EDE4E03239000F
:1047C0000000CAEEECE0EDE4E03330000000CAEE99
:1047D000ECE0EDE4E03331000000CAEEECE0EDE4A3
:1047E000E03332000000CAD720E820D0C700000024
:1047F0000000CAD73120E820D0C700000000CAD787
:104800003220E820D0C700000000CAD73320E820BB
:10481000D0C700000000CAD73420E820D0C700006D
:104820000000CAD100000000000000000000CAEE35
:10483000ECE0EDE4E03141000000CAEEECE0EDE434
:10484000E03241000000CAEEECE0EDE4E03341006C
:104850000000CAEEECE0EDE4E03441000000CAEEF6
:10486000ECE0EDE4E03541000000CAEEECE0EDE400
:10487000E03641000000CAEEECE0EDE4E037410034
:104880000000CAEEECE0EDE4E03841000000CAEEC2
:10489000ECE0EDE4E03941000000CAEEECE0EDE4CC
:1048A000E03130410000CAEEECE0EDE4E0313141AE
:1048B0000000CAEEECE0EDE4E03132410000CAEE67
:1048C000ECE0EDE4E03133410000CAEEECE0EDE471
:1048D000E03134410000CAEEECE0EDE4E031354176
:1048E0000000CAEEECE0EDE4E03136410000CAEE33
:1048F000ECE0EDE4E03137410000CAEEECE0EDE43D
:10490000E03138410000CAEEECE0EDE4E03139413D
:104910000000CAEEECE0EDE4E03230410000CAEE07
:10492000ECE0EDE4E03231410000CAEEECE0EDE411
:10493000E03232410000CAEEECE0EDE4E032334117
:104940000000CAEEECE0EDE4E03234410000CAEED3
:10495000ECE0EDE4E03235410000CAEEECE0EDE4DD
:10496000E03236410000CAEEECE0EDE4E0323741DF
:104970000000CAEEECE0EDE4E03238410000CAEE9F
:10498000ECE0EDE4E03239410000CAEEECE0EDE4A9
:10499000E03330410000CAEEECE0EDE4E0333141B9
:1049A0000000CAEEECE0EDE4E03332410000CAEE74
:1049B000ECE0EDE4E03142000000CAEEECE0EDE4B2
:1049C000E03242000000CAEEECE0EDE4E0334200E9
:1049D0000000CAEEECE0EDE4E03442000000CAEE74
:1049E000ECE0EDE4E03542000000CAEEECE0EDE47E
:1049F000E03642000000CAEEECE0EDE4E0374200B1
:104A00000000CAEEECE0EDE4E03842000000CAEE3F
:104A1000ECE0EDE4E03942000000CAEEECE0EDE449
:104A2000E03130420000CAEEECE0EDE4E03131422A
:104A30000000CAEEECE0EDE4E03132420000CAEEE4
:104A4000ECE0EDE4E03133420000CAEEECE0EDE4EE
:104A5000E03134420000CAEEECE0EDE4E0313542F2
:104A60000000CAEEECE0EDE4E03136420000CAEEB0
:104A7000ECE0EDE4E03137420000CAEEECE0EDE4BA
:104A8000E03138420000CAEEECE0EDE4E0313942BA
:104A90000000CAEEECE0EDE4E03230420000CAEE85
:104AA000ECE0EDE4E03231420000CAEEECE0EDE48F
:104AB000E03232420000CAEEECE0EDE4E032334294
:104AC0000000CAEEECE0EDE4E03234420000CAEE51
:104AD000ECE0EDE4E03235420000CAEEECE0EDE45B
:104AE000E03236420000CAEEECE0EDE4E03237425C
:104AF0000000CAEEECE0EDE4E03238420000CAEE1D
:104B0000ECE0EDE4E03239420000CAEEECE0EDE426
:104B1000E03330420000CAEEECE0EDE4E033314235
:104B20000000CAEEECE0EDE4E03332420000CAEEF1
:104B3000ECE0EDE4E03143000000CAEEECE0EDE42F
:104B4000E03243000000CAEEECE0EDE4E033430065
:104B50000000CAEEECE0EDE4E03443000000CAEEF1
:104B6000ECE0EDE4E03543000000CAEEECE0EDE4FB
:104B7000E03643000000CAEEECE0EDE4E03743002D
:104B80000000CAEEECE0EDE4E03843000000CAEEBD
:104B9000ECE0EDE4E03943000000CAEEECE0EDE4C7
:104BA000E03130430000CAEEECE0EDE4E0313143A7
:104BB0000000CAEEECE0EDE4E03132430000CAEE62
:104BC000ECE0EDE4E03133430000CAEEECE0EDE46C
:104BD000E03134430000CAEEECE0EDE4E03135436F
:104BE0000000CAEEECE0EDE4E03136430000CAEE2E
:104BF000ECE0EDE4E03137430000CAEEECE0EDE438
:104C0000E03138430000CAEEECE0EDE4E031394336
:104C10000000CAEEECE0EDE4E03230430000CAEE02
:104C2000ECE0EDE4E03231430000CAEEECE0EDE40C
:104C3000E03232430000CAEEECE0EDE4E032334310
:104C40000000CAEEECE0EDE4E03234430000CAEECE
:104C5000ECE0EDE4E03235430000CAEEECE0EDE4D8
:104C6000E03236430000CAEEECE0EDE4E0323743D8
:104C70000000CAEEECE0EDE4E03238430000CAEE9A
:104C8000ECE0EDE4E03239430000CAEEECE0EDE4A4
:104C9000E03330430000CAEEECE0EDE4E0333143B2
:104CA0000000CAEEECE0EDE4E03332430000EEF841
:104CB000E8E1EAE0000000000000C2FBE2E5E4E514
:104CC000ED0000000000C2E2E5E4E5ED00000000B8
:104CD0000000D2E5F1F22031000000000000D2E532
:104CE000F1F220320000000000000458C5BB11247E
:104CF0001FBECFEFD0E1DEBFCDBF80B58B7F80BDC3
:104D00009FEF9ABB1BBA17BA98BB80EE84BB8FE1AA
:104D100085BB80E381BB8FEC82BB80EC82B993B909
:104D20008EE08093610081EF8093620010926400B6
:104D30009093650017BE8BE083BF88E181BF87B782
:104D4000826087BF1FBC8CE08EBD10927A001DBCB4
:104D50001CBC80E792E09BBD8ABD87B7806187BF9E
:104D60002CE088E190E00FB6F894A89581BD0FBEC5
:104D700021BD11E0A0E0B1E0ECEFF3E801E00BBFF2
:104D800002C007900D92AE36B107D9F71CE0AEE62F
:104D9000B1E001C01D92A237B107E1F71CE4CEEEED
:104DA000DCE404C02297FE010E94A6BECA3ED107E1
:104DB000C9F70E941BBD0C94FCC10C940000FC01BF
:104DC000CB0120E005C080FD05C02F5F969587953B
:104DD0000097C9F7E05AFF4F219371836083E15632
:104DE000F04080E004C060FD8F5F769567956115A7
:104DF0007105C9F7ED59FF4F808381E00895FC01EB
:104E0000CB0120E005C080FD05C02F5F96958795FA
:104E10000097C9F7EC59FF4F219371836083E556E2
:104E2000F04080E004C060FD8F5F76956795611566
:104E30007105C9F7E959FF4F808381E00895FC01AE
:104E40008589833019F491E086E208C0823091F0C0
:104E5000813081F0882361F09FEF80E0691728F0AE
:104E6000861718F0678B81E00895878B80E008959E
:104E70008EE0F6CF82E0F4CF0F931F93CF93DF93B2
:104E80008C01EB01FC01B196A0E050E08991808398
:104E900041E020E030E0682F70E0842F90E086232E
:104EA0009723892B09F0AF5F440F2F5F3F4F2830C6
:104EB000310599F75F5F3196543041F7F801A1A7AA
:104EC00081E0DF91CF911F910F910895FC01262F72
:104ED00030E0C90154E0969587955A95E1F78170C5
:104EE000828FC90145E0969587954A95E1F78170D3
:104EF000838FC901B6E096958795BA95E1F78170E1
:104F0000848FC90181709070858F36952795822F87
:104F10008170868F369527952170278F60A381E059
:104F20000895FC0120E0CB018070907C892B09F072
:104F300021E027A77F7385A596A58617970710F40C
:104F400080E00895222331F094A783A771AB60AB72
:104F500081E0089574A763A711AA10AA81E00895BB
:104F6000FC01E158FF4F8081EF57F040823029F17A
:104F7000833030F4882309F449C0813041F409C0FA
:104F8000843039F0843068F1863009F43FC080E025
:104F90000895673018F094E067E001C090E0ED57A5
:104FA000FF4F8081E358F040861711F082E001C086
:104FB00081E0892BED57FF4F27C0633018F094E054
:104FC00063E001C090E0EB57FF4F8081E558F0406F
:104FD000861711F082E001C081E0892BEB57FF4F6B
:104FE00013C06D3018F094E06DE001C090E0EC5714
:104FF000FF4F8081E458F040861711F082E001C035
:1050000081E0892BEC57FF4F60830895673018F0DB
:1050100074E097E002C0962F70E0ED57FF4F80815B
:10502000E358F040891711F032E001C031E0ED574C
:10503000FF4F9083E358F040633018F054E093E062
:1050400002C0962F50E0EB57FF4F8081E558F040AB
:10505000891711F042E001C041E0EB57FF4F908308
:10506000E558F0406D3018F024E06DE001C020E01C
:10507000EC57FF4F8081E458F040861711F092E022
:1050800001C091E0922BEC57FF4F6083842F852B5A
:10509000372B832B892B0895FC018285868380E042
:1050A0000895DF92EF92FF920F931F93CF93DF93B8
:1050B0007C01162FDC011496CD91DC911597C35B12
:1050C000DD4FE881CD54D240F0E0EE0FFF1FEC0F32
:1050D000FD1FE75EFD4F0081802F0E94E856DD2412
:1050E000811709F086C0DD24D394C75EDD4F0F30F1
:1050F000D1F0003128F40B3051F00E30F1F513C02F
:105100000631D1F0073169F10031B9F52AC0F70154
:1051100002811381CE010E94A955080F111DD801EB
:1051200014968C9161C0D7011296ED91FC91139762
:10513000948180E025811DC0D7011296ED91FC91EC
:10514000139724818AE028029001112485816AE066
:105150000E944EBE682F772767FD7095620F731F00
:1051600045C0D7011296ED91FC911397968180E08E
:105170002781BC01620F711D39C0802F0E947257B8
:10518000853061F4CE010E94A95590E0019768E056
:1051900070E00E946FBE162F1C5F05C0CE010E94FA
:1051A000A955182F1D5F802F0E948C57882329F046
:1051B000802F0E948C571150180FCE010E940E565E
:1051C000D7011296ED91FC911397612F70E097FF34
:1051D00008C0E60FF71F8081682F772767FD70955D
:1051E00005C0E60FF71F8081682F70E0CE010E9496
:1051F00078568D2DDF91CF911F910F91FF90EF90F9
:10520000DF900895CF93DF93EC01862F807399F49C
:10521000613C41F1623C09F040C0EC81FD81DF015D
:10522000A455BD4F3C9111962C918381843059F146
:10523000CE0162EC2FC0803129F4613D99F0623DCE
:1052400061F506C0803261F4613E61F0623E29F58D
:10525000EC81FD81E455FD4F20814181CE0115C0D7
:10526000613F21F4CE010E94B43718C0623FA9F417
:10527000EC81FD81DF01A455BD4F3C9111962C912D
:105280008381843029F4CE01432F0E94563706C013
:10529000CE0162EF422F232FF8CF80E0DF91CF9134
:1052A0000895CF92DF92EF92FF920F931F93CF93C7
:1052B000DF93EC01613EE1F1623E09F44CC06C32D7
:1052C00009F058C1AC81BD8113968C91139783303E
:1052D00011F090E027C0EA81FB819481990F990F2A
:1052E000913218F024E090E001C020E0FD01EA577F
:1052F000FE4F8081891719F4922F91600BC0908323
:10530000FD01EB57FE4F1082992311F081E080835D
:10531000922F9260EC81FD81EA57FE4F8081E45329
:10532000FF4F808391FF26C1EC81FD81108222C155
:10533000EA81FB8164817581EC81FD81E053FD4F41
:105340008081E05DF240823009F014C1CF018554C4
:105350009D4FE7DD10C1EC81FD81E053FD4F808161
:10536000E05DF240823009F005C1442309F002C13A
:105370008381AA81BB819F0125543D4F853009F06F
:1053800081C0C90118966C9141E00E94145B8C8128
:105390009D81EA81FB8185549D4F618541E00E949A
:1053A0003F5B8C819D81EA81FB8185549D4F6285A5
:1053B00041E00E946C5B8C819D81EA81FB81855478
:1053C0009D4F638541E00E94A85B8C819D81EA81AD
:1053D000FB8185549D4F648541E00E94D35B8C81A5
:1053E0009D81EA81FB8185549D4F658541E00E9446
:1053F000FE5BEA81FB818C819D81768560E027855B
:10540000620F711D85549D4F0E94C15A8C819D81F0
:105410006A817B816C5F7F4F85549D4F2DDDEA81D2
:10542000FB818381803108F49EC0CC80DD80A601A1
:1054300040525D4F70E0A4E0EA2EF12CEE0EFF1E0C
:105440008089DA018C9361E020E030E0082F10E0E1
:10545000862F90E080239123892B09F07F5F660FD0
:105460002F5F3F4F2830310599F731964F5F5F4FDF
:10547000EE15FF0529F7E5EEF2E0CE0EDF1ED601B0
:105480007C9371C0C90153966C9141E00E94145BFA
:105490008C819D81EA81FB8185549D4F628941E029
:1054A0000E943F5B8C819D81EA81FB8185549D4FE9
:1054B000618941E00E946C5B8C819D81EA81FB8166
:1054C00085549D4F678541E00E94A85B8C819D813A
:1054D000EA81FB8185549D4F668541E00E94D35B44
:1054E0008C819D81EA81FB8185549D4F658541E0DA
:1054F0000E94FE5BEA81FB818C819D81748560E066
:105500002385620F711D85549D4F0E94C15AAC8145
:10551000BD81EA81FB818481AF52BD4F863008F0A6
:1055200086E08C932C813D81EA81FB819581892FD6
:105530008150803228F4F901E151FD4F90831182AE
:105540008C819D81EA81FB8185549D4F668177DC4A
:10555000AC81BD81EA81FB818781833008F082E0E4
:10556000AF50BD4F8C93EC81FD81EE50FD4F81E03B
:10557000808301C080E0DF91CF911F910F91FF9058
:10558000EF90DF90CF9008951F93CF93DF93EC01BE
:10559000613DD9F1623D09F44BC06C3109F029C17C
:1055A000AC81BD8113968C911397833011F090E0FC
:1055B00026C0EA81FB819481990F990F913210F0F6
:1055C00024E001C020E0FD01E15FFE4F80818917EA
:1055D00019F4922F91600BC09083FD01E25FFE4FA2
:1055E0001082992311F081E08083922F9260EC81E8
:1055F000FD81E15FFE4F8081EE5BFE4F808391FF76
:10560000F8C0EC81FD811082F4C0EA81FB816481E5
:105610007581EC81FD81E053FD4F8081E05DF240BA
:10562000813009F0E6C0CF0185549D4F7ADCE2C09D
:10563000EC81FD81E053FD4F1081E05DF2401130BF
:1056400009F0D7C0442309F0D4C08381AA81BB816B
:105650009F0125543D4F853009F055C0C90118966A
:105660006C9141E00E94145B8C819D81EA81FB81F9
:1056700085549D4F618541E00E943F5B8C819D81F7
:10568000EA81FB8185549D4F628541E00E946C5BFD
:105690008C819D81EA81FB8185549D4F638541E02A
:1056A0000E94A85B8C819D81EA81FB8185549D4F7E
:1056B000648541E00E94D35B8C819D81EA81FB81FE
:1056C00085549D4F658541E00E94FE5BEA81FB8128
:1056D0008C819D81768560E02785620F711D8554E0
:1056E0009D4F0E94C15A8C819D816A817B816C5F34
:1056F0007F4F85549D4FC0DBEC81FD81EE50FD4F07
:10570000108381E077C0C90153966C9141E00E94FB
:10571000145B8C819D81EA81FB8185549D4F628958
:1057200041E00E943F5B8C819D81EA81FB81855431
:105730009D4F618941E00E946C5B8C819D81EA8173
:10574000FB8185549D4F678541E00E94A85B8C8159
:105750009D81EA81FB8185549D4F668541E00E94D1
:10576000D35B8C819D81EA81FB8185549D4F65854A
:1057700041E00E94FE5BEA81FB818C819D81748502
:1057800060E02385620F711D85549D4F0E94C15AB0
:10579000AC81BD81EA81FB818481AF52BD4F8630EF
:1057A00008F086E08C932C813D81EA81FB81958114
:1057B000892F8150803228F4F901E151FD4F908307
:1057C00011828C819D81EA81FB8185549D4F668188
:1057D00036DBAC81BD81AD52BD4FEA81FB81878153
:1057E00087708C93EC81FD81EE50FD4F81E08083CA
:1057F00001C080E0DF91CF911F910895FF920F9338
:105800001F93CF93DF93EC01623009F03FC0AC816E
:10581000BD81EA81FB818481882349F0833038F49B
:10582000A756BF4F8C93A959B04041E002C083E016
:1058300040E0A756BF4F8C932C813D81EA81FB81CC
:105840009481892F8150823010F094E00AC0F901D0
:10585000EF5EFD4F8081891711F491E002C09083C3
:1058600092E0EC81FD81EF5EFD4F8081E151F240DD
:10587000823011F082E001C083E0ED5AFD4F808359
:1058800091FF30C1EC81FD8110822CC16A30D1F5CD
:10589000AC81BD81EA81FB819481892F815089305F
:1058A00010F0FF2405C0A656BF4F9C93FF24F3942D
:1058B0000C811D81EA81FB816581768187819085DC
:1058C00028EE33E040E050E00E9482BEC901DA01D8
:1058D00081362AEE920720E0A20720E0B20710F0FE
:1058E00080E006C005561F4FF8019183808381E058
:1058F00090E02F2D30E0822B932B40E0892B09F490
:10590000F1C087C0613CA1F4EA81FB8164817581AB
:10591000EC81FD81E053FD4F8081E05DF240882302
:1059200009F0DFC0CF0185549D4FFBDA482FDAC064
:10593000623C09F0D6C0EC81FD81E053FD4F8081CF
:10594000E05DF240882309F0CCC0442309F0C9C0CF
:105950008381AA81BB819F0125543D4F853009F089
:105960005AC0C90116966C9141E00E94145B8C816B
:105970009D81EA81FB8185549D4F678141E00E94B2
:105980003F5B8C819D81EA81FB8185549D4F6085C1
:1059900041E00E946C5B8C819D81EA81FB81855492
:1059A0009D4F618541E00E94A85B8C819D81EA81C9
:1059B000FB8185549D4F628541E00E94D35B8C81C1
:1059C0009D81EA81FB8185549D4F638541E00E9462
:1059D000FE5BEA81FB818C819D81748560E0258579
:1059E000620F711D85549D4F0E94C15AEA81FB814F
:1059F0008C819D8165816F7024812295207F620F4B
:105A000085549D4F63DAEC81FD81EE50FD4F81E0BE
:105A1000808341E067C0C90153966C9141E00E94C8
:105A2000145B8C819D81EA81FB8185549D4F628945
:105A300041E00E943F5B8C819D81EA81FB8185541E
:105A40009D4F618941E00E946C5B8C819D81EA8160
:105A5000FB8185549D4F678541E00E94A85B8C8146
:105A60009D81EA81FB8185549D4F668541E00E94BE
:105A7000D35B8C819D81EA81FB8185549D4F658537
:105A800041E00E94FE5BEA81FB818C819D817485EF
:105A900060E02385620F711D85549D4F0E94C15A9D
:105AA000AC81BD81EA81FB818481AF52BD4F8630DC
:105AB00008F086E08C93EA81FB818C819D8167816F
:105AC0006F7025812295207F620F85549D4FFED9EE
:105AD0008C819D81EA81FB8185549D4F6681AFD980
