:100000000C9409250C946F250C946F250C946F2586
:100010000C946F250C946F250C946F250C946F2510
:100020000C946F250C946F250C946F250C946F2500
:100030000C9498B20C946F250C946F250C94D0B24C
:100040000C946F250C946F250C94C4B10C942AB1B8
:100050000C94F3B10C946F250C946F250C946F25C0
:100060000C946F250C946F250C946F250C946F25C0
:100070000C946F250C946F250C942DB20C94EAB05F
:100080000C945EB20C946AB10C946F25B564DE6476
:1000900014652E654D656C658665A5653866526686
:1000A0007166C465F66517669066B166D066EF66E0
:1000B00000C1814001C0804101C0804100C1814038
:1000C00001C0804100C1814000C1814001C0804128
:1000D00001C0804100C1814000C1814001C0804118
:1000E00000C1814001C0804101C0804100C1814008
:1000F00001C0804100C1814000C1814001C08041F8
:1001000000C1814001C0804101C0804100C18140E7
:1001100000C1814001C0804101C0804100C18140D7
:1001200001C0804100C1814000C1814001C08041C7
:1001300001C0804100C1814000C1814001C08041B7
:1001400000C1814001C0804101C0804100C18140A7
:1001500000C1814001C0804101C0804100C1814097
:1001600001C0804100C1814000C1814001C0804187
:1001700000C1814001C0804101C0804100C1814077
:1001800001C0804100C1814000C1814001C0804167
:1001900001C0804100C1814000C1814001C0804157
:1001A00000C1814001C0804101C0804100C1814047
:1001B00000C0C101C30302C2C60607C705C5C40407
:1001C000CC0C0DCD0FCFCE0E0ACACB0BC90908C877
:1001D000D81819D91BDBDA1A1EDEDF1FDD1D1CDC67
:1001E00014D4D515D71716D6D21213D311D1D010D7
:1001F000F03031F133F3F23236F6F737F53534F4C7
:100200003CFCFD3DFF3F3EFEFA3A3BFB39F9F83836
:1002100028E8E929EB2B2AEAEE2E2FEF2DEDEC2C26
:10022000E42425E527E7E62622E2E323E12120E096
:10023000A06061A163A3A26266A6A767A56564A486
:100240006CACAD6DAF6F6EAEAA6A6BAB69A9A868F6
:1002500078B8B979BB7B7ABABE7E7FBF7DBDBC7CE6
:10026000B47475B577B7B67672B2B373B17170B056
:100270005090915193535292965657975595945446
:100280009C5C5D9D5F9F9E5E5A9A9B5B99595898B6
:10029000884849894B8B8A4A4E8E8F4F8D4D4C8CA6
:1002A0004484854587474686824243834181804016
:1002B0005669727475616C00C0C2C0CDD220CECFB9
:1002C000D2CE2D2564256425642DCE00C0C2C0CDBC
:1002D000D220CA3430302D25642564C200C0C2C08B
:1002E000CDD220D0C7D1CA2D2564256425642DC266
:1002F00000C0C2C0CDD220D0343030EC2D313030EF
:100300002DC200C900CA00CB00CC00CD00CE00CF6A
:10031000002D012E012F0130013101320133013452
:1003200001350136013701380139013A013B013C01
:10033000013D013E013F01400141014201430144B1
:1003400001450146014701480149014A014B014C61
:1003500001900191019201930194019501960197F9
:1003600001980199019A019B019C019D019E019FA9
:1003700001A001A101A201A301A401A501A601A759
:1003800001A801A901AA01AB01AC01AD01AE01AF09
:1003900001B001C201C301C401C501C601C701C842
:1003A00001C901CA01CB01CC01CD01CE01CF01D0E1
:1003B00001D101D201D301D401D501D601D701D891
:1003C00001D901DA01DB01DC01DD01DE01DF01E041
:1003D00001E101E501E601E701F401F501F601F7AC
:1003E00001F801F901FA01FB01FC01FD01FE01FF29
:1003F00001000201020202030204020502060207D2
:1004000002080209020A020B020C020D020E020F80
:1004100002100211021202130214022602270228FD
:100420000229022A022B022C022D022E022F023058
:100430000231023202330234023502360237023808
:100440000239023A023B023C023D023E023F0240B8
:10045000024102420243024402450249024A024B5F
:10046000024C02580259025A025B025C025D025EB3
:10047000025F026002610262026302640265026658
:10048000026702680269026A026B026C026D026E08
:10049000026F0270027102720273027402750276B8
:1004A000027702780220C8E7ECE5EDE8F2FC20EFE5
:1004B000E0F0E0ECE5F2F02020002020ECEEE6EDAC
:1004C000EE20F2EEEBFCEAEE20E2202020200020DD
:1004D00020F0E5E6E8ECE520C2DBC2C5C4C5CD20CE
:1004E000202020000000000000ECC0000000C00040
:1004F000000000EAC0000000C200000000EAC200E4
:100500000000ECF10000006300000000F7E0F100E3
:1005100000E4C1000000C3F6000000EAC3F60000DA
:10052000E3F0E0E400002D25642E2564257300250A
:10053000642E25642573002564257300F7F2E5ED2C
:10054000E8E52E2E00F7F2E5EDE8E52E0025640043
:10055000EEF8E8E1EAE021212100C7EDE0F7E5ED62
:10056000E8E53A200025642E2EB125642573002588
:10057000642E2EB1256425730025642E2E2564007B
:1005800025642E2E2564257300E2EAEB2E2FE2FB74
:10059000EAEB2E00F1EFE8F1EEEA00C4E8E0EFE06C
:1005A000E7EEED3A2000CDEEECE5F03A2025752F90
:1005B000257500CDEEECE5F03A2000CFE0F0E0EC60
:1005C000E5F2F03A257520C2F1E5E3EE3A25750033
:1005D000C2FBE2E5E4E5ED00C3EEF2EEE20000006E
:1005E000C2E2E5E4E5ED0000D0E5F7FC0000000024
:1005F000D2E5F1F200000000D2E5F1F200000000C7
:10060000EEF8E8E1EAE000003A00202020000000D7
:100610000000000000002031200000000000000069
:100620000000203220000000000000000000312007
:100630003200000000000000000020332000000015
:100640000000000000003120330000000000000026
:100650000000322033000000000000000000203FB6
:1006600020000000000000000000CFF0E5E4F3EF00
:10067000F02E2025632D2530345800CDE5E8F1EF2C
:10068000F02E2025632D253034580064463D25305A
:100690003264C3F600543D25303264B04300443D1B
:1006A00025303264E4C100253032753A2530327588
:1006B0003A2530327500253032752E253032752EB0
:1006C000253032750053E43D25303275B00055F8C1
:1006D000323D25303264E4C10055F8313D253032D9
:1006E00064E4C10055F83D25303264E4C10055EAA8
:1006F000323D25303264E4C10055EA313D253032C7
:1007000064E4C10055EA3D25303264E4C10055E798
:10071000323D25303264E4C10055E7313D253032A9
:1007200064E4C10055E73D25303264E4C100523D28
:1007300025303375CEEC00493D25303375ECC000D3
:10074000553D253032752E25303175C20025642E79
:1007500020257300CDEEE2FBE920EFE0F0EEEBFCAC
:100760003A202530347500CFE0F0EEEBFC3A20253E
:100770003034750020202020202020C2E2E5E4E56E
:10078000ED202020202020200020202020EDE5EF5B
:10079000F0E0E2E8EBFCEDFBE92020202000202047
:1007A0002020202020EFE0F0EEEBFC202020202075
:1007B000202000C2E2EEE43A20253031752E2530AB
:1007C000317500C2E2EEE43A202530316400C2E225
:1007D000EEE43A20257300E2FBEAEB2E0000000075
:1007E000000000CAD700000000000000000000CA9E
:1007F000D731000000000000000000CAD73200001E
:1008000000000000000000CAD73300000000000014
:10081000000000CAD734000000000000000000CA39
:10082000D731000000000000000000CAD73120F1DD
:1008300020E1EBEEEA0000CAD73200000000000021
:10084000000000CAD73220F120E1EBEEEA0000D030
:10085000C700000000000000000000CAEEECE0ED60
:10086000E4E03100000000CAEEECE0EDE4E032002C
:10087000000000CAEEECE0EDE4E03300000000CA46
:10088000EEECE0EDE4E03400000000CAEEEC312BC9
:10089000E1EBEEEA000000CAEEEC322BE1EBEEEA0F
:1008A000000000CAEEEC332BE1EBEEEA000000CAD8
:1008B000EEEC342BE1EBEEEA000000CAEEECE0EDEA
:1008C000E4E03100000000CAEEECE0EDE4E03200CC
:1008D000000000CAEEECE0EDE4E03300000000CAE6
:1008E000EEECE0EDE4E03400000000CAEEECE0EDF8
:1008F000E4E03500000000CAEEECE0EDE4E0360094
:10090000000000CAEEECE0EDE4E03700000000CAB1
:10091000EEECE0EDE4E03800000000CAEEECE0EDC3
:10092000E4E03900000000CAEEECE0EDE4E0313034
:10093000000000CAEEECE0EDE4E03131000000CA56
:10094000EEECE0EDE4E03132000000CAEEECE0ED68
:10095000E4E03133000000CAEEECE0EDE4E03134D5
:10096000000000CAEEECE0EDE4E03135000000CA22
:10097000EEECE0EDE4E03136000000CAEEECE0ED34
:10098000E4E03137000000CAEEECE0EDE4E031389D
:10099000000000CAEEECE0EDE4E03139000000CAEE
:1009A000EEECE0EDE4E03230000000CAEEECE0ED09
:1009B000E4E03231000000CAEEECE0EDE4E0323277
:1009C000000000CAEEECE0EDE4E03233000000CAC3
:1009D000EEECE0EDE4E03234000000CAEEECE0EDD5
:1009E000E4E03235000000CAEEECE0EDE4E032363F
:1009F000000000CAEEECE0EDE4E03237000000CA8F
:100A0000EEECE0EDE4E03238000000CAEEECE0EDA0
:100A1000E4E03239000000CAEEECE0EDE4E033300F
:100A2000000000CAEEECE0EDE4E03331000000CA63
:100A3000EEECE0EDE4E03332000000CAD720E8201D
:100A4000D0C70000000000CAD73120E820D0C7007E
:100A5000000000CAD73220E820D0C700000000CA3A
:100A6000D73320E820D0C700000000CAD73420E8E0
:100A700020D0C700000000CAD10000000000000024
:100A8000000000CAEEECE0EDE4E03141000000CAF5
:100A9000EEECE0EDE4E03241000000CAEEECE0ED07
:100AA000E4E03341000000CAEEECE0EDE4E0344164
:100AB000000000CAEEECE0EDE4E03541000000CAC1
:100AC000EEECE0EDE4E03641000000CAEEECE0EDD3
:100AD000E4E03741000000CAEEECE0EDE4E038412C
:100AE000000000CAEEECE0EDE4E03941000000CA8D
:100AF000EEECE0EDE4E03130410000CAEEECE0ED78
:100B0000E4E03131410000CAEEECE0EDE4E03132E6
:100B1000410000CAEEECE0EDE4E03133410000CAF0
:100B2000EEECE0EDE4E03134410000CAEEECE0ED43
:100B3000E4E03135410000CAEEECE0EDE4E03136AE
:100B4000410000CAEEECE0EDE4E03137410000CABC
:100B5000EEECE0EDE4E03138410000CAEEECE0ED0F
:100B6000E4E03139410000CAEEECE0EDE4E032307F
:100B7000410000CAEEECE0EDE4E03231410000CA91
:100B8000EEECE0EDE4E03232410000CAEEECE0EDE4
:100B9000E4E03233410000CAEEECE0EDE4E0323450
:100BA000410000CAEEECE0EDE4E03235410000CA5D
:100BB000EEECE0EDE4E03236410000CAEEECE0EDB0
:100BC000E4E03237410000CAEEECE0EDE4E0323818
:100BD000410000CAEEECE0EDE4E03239410000CA29
:100BE000EEECE0EDE4E03330410000CAEEECE0ED85
:100BF000E4E03331410000CAEEECE0EDE4E03332F2
:100C0000410000CAEEECE0EDE4E03142000000CA31
:100C1000EEECE0EDE4E03242000000CAEEECE0ED84
:100C2000E4E03342000000CAEEECE0EDE4E03442E0
:100C3000000000CAEEECE0EDE4E03542000000CA3E
:100C4000EEECE0EDE4E03642000000CAEEECE0ED50
:100C5000E4E03742000000CAEEECE0EDE4E03842A8
:100C6000000000CAEEECE0EDE4E03942000000CA0A
:100C7000EEECE0EDE4E03130420000CAEEECE0EDF5
:100C8000E4E03131420000CAEEECE0EDE4E0313264
:100C9000420000CAEEECE0EDE4E03133420000CA6D
:100CA000EEECE0EDE4E03134420000CAEEECE0EDC1
:100CB000E4E03135420000CAEEECE0EDE4E031362C
:100CC000420000CAEEECE0EDE4E03137420000CA39
:100CD000EEECE0EDE4E03138420000CAEEECE0ED8D
:100CE000E4E03139420000CAEEECE0EDE4E03230FD
:100CF000420000CAEEECE0EDE4E03231420000CA0E
:100D0000EEECE0EDE4E03232420000CAEEECE0ED61
:100D1000E4E03233420000CAEEECE0EDE4E03234CD
:100D2000420000CAEEECE0EDE4E03235420000CAD9
:100D3000EEECE0EDE4E03236420000CAEEECE0ED2D
:100D4000E4E03237420000CAEEECE0EDE4E0323895
:100D5000420000CAEEECE0EDE4E03239420000CAA5
:100D6000EEECE0EDE4E03330420000CAEEECE0ED02
:100D7000E4E03331420000CAEEECE0EDE4E033326F
:100D8000420000CAEEECE0EDE4E03143000000CAAE
:100D9000EEECE0EDE4E03243000000CAEEECE0ED02
:100DA000E4E03343000000CAEEECE0EDE4E034435D
:100DB000000000CAEEECE0EDE4E03543000000CABC
:100DC000EEECE0EDE4E03643000000CAEEECE0EDCE
:100DD000E4E03743000000CAEEECE0EDE4E0384325
:100DE000000000CAEEECE0EDE4E03943000000CA88
:100DF000EEECE0EDE4E03130430000CAEEECE0ED73
:100E0000E4E03131430000CAEEECE0EDE4E03132E1
:100E1000430000CAEEECE0EDE4E03133430000CAE9
:100E2000EEECE0EDE4E03134430000CAEEECE0ED3E
:100E3000E4E03135430000CAEEECE0EDE4E03136A9
:100E4000430000CAEEECE0EDE4E03137430000CAB5
:100E5000EEECE0EDE4E03138430000CAEEECE0ED0A
:100E6000E4E03139430000CAEEECE0EDE4E032307A
:100E7000430000CAEEECE0EDE4E03231430000CA8A
:100E8000EEECE0EDE4E03232430000CAEEECE0EDDF
:100E9000E4E03233430000CAEEECE0EDE4E032344B
:100EA000430000CAEEECE0EDE4E03235430000CA56
:100EB000EEECE0EDE4E03236430000CAEEECE0EDAB
:100EC000E4E03237430000CAEEECE0EDE4E0323813
:100ED000430000CAEEECE0EDE4E03239430000CA22
:100EE000EEECE0EDE4E03330430000CAEEECE0ED80
:100EF000E4E03331430000CAEEECE0EDE4E03332ED
:100F0000430000EEF8E8E1EAE0000000000000C75E
:100F1000EDE0F7E5EDE8E53A2000CFD0CC323A201D
:100F200000CFD0CC313A2000D1E8E3EDE0EBFB205C
:100F3000EFF0E8E5ECEDE8EAE000D2E5F1F2FB5C89
:100F4000CFF0E8E5ECEDE8EA00D1E8E3EDE0EBFB1B
:100F500020EFE5F0E5E4E0F2F7E8EAE000D2E5F1C1
:100F6000F2FB5CCFE5F0E5E4E0F2F7E8EA002020F0
:100F70002020CFE5F0E5E9E4E8F2E520E2202020BA
:100F8000202000202020F0E5E6E8EC20C2DBC2C5EE
:100F9000C4C5CD2020202000D2E5F1F220EFF0E8FA
:100FA000E5ECEDE8EAE000D2E5F1F220EFE5F0E56E
:100FB000E4E0F2F7E8EAE000CDE0F1F2F0EEE9EA91
:100FC000E05CD2E5F1F2FB00CCE5EDFE5CC8E7ECBD
:100FD000E5F0E5EDE8FF00D1E5EAF3EDE4FB00CC58
:100FE000E8EDF3F2FB00D7E0F1FB00C4E5EDFC0017
:100FF000CCE5F1FFF600C3EEE400CDE0F1F2F0EE57
:10100000E9EAE05CC2F0E5ECFF26E4E0F2E000CDC6
:10101000E0F1F2F0EEE9EAE05CC8EDF2E5F0F4E5CB
:10102000E9F100CFE0F0E0ECE5F2F0FB5CCFE0EDC1
:10103000E5EBFC20C2CA00CFE0F0E0ECE5F2F0FB0B
:101040005CCAEEEBFCF6EE00CFE0F0E0ECE5F2F08F
:10105000FB5CCEE1F9E8E500CFE0F0E0ECE5F2F092
:10106000FB5CCFE5F0E5E4E0F2F7E8EA00CFE0F082
:10107000E0ECE5F2F0FB5CCFF0E8E5ECEDE8EA004F
:10108000CFE0F0E0ECE5F2F0FB5CC7E0F9E8F2E07D
:1010900000CFE0EDE5EBFC20C2CA00CAEEEBFCF6A7
:1010A000EE00CEE1F9E8E500CFE5F0E5E4E0F2F7A7
:1010B000E8EA00CFF0E8E5ECEDE8EA00C7E0F9E89F
:1010C000F2E000CDE0F1F2F0EEE9EAE05CCFE0F032
:1010D000E0ECE5F2F0FB00C2FBE2E5E4E5ED000048
:1010E000000000C2E2E5E4E5ED000000000000D2EF
:1010F000E5F1F22031000000000000D2E5F1F2201D
:1011000032000000000000CDE0F1F2F0EEE9EAE08C
:101110005CD0E5E6E8EC00C8EDF2E5F0F4E5E9F1D5
:1011200000CFE0F0EEEBFC00CFE0F0E0ECE5F2F019
:10113000FB00C2F0E5ECFF20E820E4E0F2E000D0A4
:10114000E5E6E8EC00CCE5EDFE5CCDE0F1F2F0EE9A
:10115000E9EAE000D1E1F0EEF120E2F1E5F500D1BD
:10116000E1F0EEF120E8EDE4E8EAE0F6E8E800D1AD
:10117000E1F0EEF120F3E4E0EBE5ED2E203300D1D9
:10118000E1F0EEF120F3E4E0EBE5ED2E203200D1CA
:10119000E1F0EEF120F3E4E0EBE5ED2E203100C0CC
:1011A000CA20E2EAEBFEF7E5ED00CFF3F1EA20F327
:1011B000E4E0EB2DFBF520CCC0CD00CFF3F1EA202D
:1011C000F3E4E0EB2E20CCC0CD203300CFF3F1EAE6
:1011D00020F3E4E0EB2E20CCC0CD203200CFF3F1A1
:1011E000EA20F3E4E0EB2E20CCC0CD203100CFF399
:1011F000F1EA20F3E4E0EBE5EDEDFBF500CFF3F1F0
:10120000EA20F3E4E0EBE5EDED2E203300CFF3F13F
:10121000EA20F3E4E0EBE5EDED2E203200CFF3F130
:10122000EA20F3E4E0EBE5EDED2E203100D1E1F032
:10123000EEF120F3E4E0EBE5EDEDFBF500C0CA20B4
:10124000E1E5E3EBFBE900C0CA20EDEEF0ECE0EBFA
:10125000FCEDFBE900C0CA20E8F1EFFBF2E0EDE8AD
:10126000FF00C0CA20E2FBEAEBFEF7E5ED00C0CAD2
:1012700020F3F1EAEEF0E5EDEDFBE900C0CA20E075
:10128000E2F2EEECE0F2E8F7E5F1EA2E00CFF3F15E
:10129000EA20CFD0C400CFF3F1EA20C0CA20F3E4A3
:1012A000E0EBE5EDED2E00CFF3F1EA20C0CA20F12E
:1012B000E2EEE900D1E1F0EEF120C0CA00C0CA20A0
:1012C000EAEEEDF2F02EEFF0EEE2E5F02E00CFF3D5
:1012D000F1EA20F3E4E0EBE5ED2E20CCC0CD00C038
:1012E000CA20EFF3F1EA00CFF3F1EA20EDE0EBE002
:1012F000E42E20E2FBEAEB00CFF3F1EA20EDE0EB95
:10130000E0E42E20E2EAEB2E00C2FBE7EEE200D1A1
:10131000E1F0EEF120F3E4E0EBE5EDEDEEE3EE00DD
:10132000D1E1F0EEF120F1E2EEE5E3EE00CFF3F1F2
:10133000EA20F3E4E0EBE5EDEDEEE3EE00CCE5EDE5
:10134000FE5CD3EFF0E0E2EBE5EDE8E500C7E0EFAF
:10135000E8F1FC202575202F2025752028257529EA
:1013600000C7E0EFE8F1FC202575202F202575004F
:10137000C6D3D0CDC0CB20CFD3D1D200D1D7C8D205
:10138000DBC2C0CDC8C520C7C0CFC8D1C800CAEE17
:10139000ECE0EDE4E03A20257500000000000028B4
:1013A000D6CF290028CED82900C4E0F2E03A202583
:1013B0003032752E253032752E2530327500C2F050
:1013C000E5ECFF3A20253032753A253032753A2562
:1013D0003032752E2530337500CAEEECE0EDE4E0D6
:1013E00020EFE5F0E5E4E0E5F2F1FF00CAEEECE025
:1013F000EDE420EDE5F200CEEAEEEDF7E0EDE8E514
:1014000020EAEEECE0EDE4FB00000000CDE0F7E0C8
:10141000EBEE20EAEEECE0EDE4FB00000000000063
:1014200000CEF8E8E1EEF7EDEEE520E7EDE0F7E5D8
:10143000EDE8E5000000C6F3F0EDE0EB5CCFE5F091
:10144000E5E4E0F2F7E8EA00202020202020002850
:10145000CFD0CC32290028CFD0CC33290020202077
:10146000202020002020202020200028CF322C33D4
:1014700029002020202020200020202020202000C3
:10148000CAEEECE0EDE4E03A20257520257300205B
:1014900020202020200028CFD0CC31290028CFD0F8
:1014A000CC332900202020202020002020202020B4
:1014B000200028CF312C332900202020202020009C
:1014C000202020202020002020202020200028CFA5
:1014D000D0CC31290028CFD0CC32290020202020A8
:1014E0002020002020202020200028CF312C32294D
:1014F000002020202020200020202020202000CAA2
:10150000EEECE0EDE4E020EFF0E8EDE8ECE0E5F211
:10151000F1FF00C6F3F0EDE0EB5CCFF0E8E5ECEDB9
:10152000E8EA00D1EEF1F2EEFFEDE8E53A00CF2572
:1015300064D12564CC256420CFC42564CFCC256438
:10154000C2DBD5256400C6F3F0EDE0EB5CC7E0F943
:10155000E8F2E000D0E5E6E8EC3A00D1EEE1FBF29B
:10156000E8E5202D202564000000000000000000B8
:10157000CDE5E8F1EFF020F7F22FE7E0EF20464C61
:101580004153480000C2D720F2F0E0EAF220E2EE38
:10159000F1F1F2E0EDEEE2EB2E00CDE5E8F1EFF057
:1015A00020F7F22FE7E0EF20CFCBC8D1000000C03A
:1015B000E2F2EEEAEEEDF2F0EEEBFC0000000000ED
:1015C00000000000D2EEEA20EFEEEAEEFF0000009D
:1015D000000000000000000000CDE5E8F1EFF02081
:1015E000F7F22FE7E0EF203252414D000000CDE549
:1015F000E8F1EFF020F0E0E1EEF2FB204453500080
:10160000000000C2EEF1F1F2E0ED2DE520F0E0E1A6
:10161000EEF2FB2044535000CDE8E7EAEEE520ED82
:10162000E0EFF02E20E2FBF5EEE4E00000C2FBF17B
:10163000EEEAEEE520EDE0EFF02E20E2FBF5EEE441
:10164000E000CDE0F0F3F8E5ED20EEE1ECE5ED2093
:10165000F120D3CC000000CDE5E8F1EFF0E0E2EDC1
:10166000EEF1F2FC20F7E0F1EEE20000CDE5F22031
:10167000E1EBEEEAE020C1D1C7000000000000006D
:1016800000CEF8E8E1EAE020E2E5F0F1E8E820C188
:10169000D1C700000000CDE5E8F1EFF020EFE5F064
:1016A000E5EAEB2DE5E920C1D1C700CDE5F220F157
:1016B000E8E3EDE0EBE020CCC0CD0000000000004E
:1016C000C2EAEB2EEFE8F22FCFE5F0E5E7E0EFF32B
:1016D000F1EA000000C8E7ECE5EDE5EDE8E520F013
:1016E000E5E6E8ECE00000000000CDE5E8F1EFF011
:1016F00020E7E0EF2E20E2FBF52EF6E5EFE800CE46
:10170000F8E8E120EAEEEDF2F02E20E2FBF52EF60D
:10171000E5EFE800C0CA202D20D1EDE8E6E5EDE8D0
:10172000E520E7E0EFE0F1E000C0CA202D20CDE5A4
:10173000F220EEF2E2E5F2E0000000000000CEF25E
:10174000F1F3F22DE520F1E8E3EDE0EBE020CFF35B
:10175000F1EA00CEF2F1F3F22DE520F1E8E3ED201D
:10176000CEF1F2E0EDEEE200C2FBEAEBFEF7E5EDD2
:10177000E8E520E0EFEFE0F0E0F2E00000CFEEEC93
:10178000E5F5E020E220EBE8EDE8E80000000000ED
:101790000000CDE5E8F1EFF0E0E2EDEEF1F2FC2043
:1017A000C4D4C700000000D3E43A20C0CA202D20D2
:1017B000EDE5F220EEF2E2E5F2E00000D3E43A20BB
:1017C000CFEEECE5F5E020E220EBE8EDE8E8000004
:1017D00000D3E43A20CDE5E8F1EFF02E20C4D4C7E1
:1017E000000000000000D3E43A20CDE5E8F1EFF07E
:1017F0002E20F6E5EFE820E2FBF500CFEEF0EEE379
:1018000020EFEE20EFEEECE5F5E500000000000033
:10181000D1EEE1FBF2E8E5202D2025640000000078
:101820000000000000D1EEE1FBF2E8E5202D2025CC
:1018300064000000000000000000D1EEE1FBF2E8CF
:10184000E5202D202564000000000000000000D1EC
:10185000EEE1FBF2E8E5202D202564000000000009
:1018600000000000D1EEE1FBF2E8E5202D20256428
:10187000000000000000000000D1EEE1FBF2E8E50E
:10188000202D202564000000000000000000D1EEA3
:10189000E1FBF2E8E5202D20300000000000000010
:1018A000000000C2EAEB2E20EFE8F2E0EDE8FF2FA7
:1018B000EFE5F0E5E7E0EF00C2FBEAEBFEF7E5ED70
:1018C000E8E520EFE8F2E0EDE8FF000000C8E7EC13
:1018D000E5EDE5EDE8E520F0E5E6E8ECE020F0E018
:1018E000E100C8E7ECE5EDE5EDE8E520EFE0F0E04C
:1018F000ECE5F2F0EEE200CDE5E8F1EFF020F2E504
:10190000F1F2E020CFD0C40000000000CDE5E8F106
:10191000EFF020F2E5F1F2E020CFD0CC00000000A3
:1019200000D1EEE1FBF2E8E5202D203700000000B9
:10193000000000000000CDE5E8F1EFF020E1EBEE63
:10194000EAE020C1D1CA0000000000C8E7ECE5EDE4
:10195000E5EDE8E520E4E0F2E02FE2F0E5ECFF0061
:10196000D1EEE1FBF2E8E5202D203130000000004F
:101970000000000000D1EEE1FBF2E8E5202D20316F
:1019800031000000000000000000D1EEE1FBF2E8B1
:10199000E5202D203132000000000000000000C0D2
:1019A000E2E0F0E8FF20EFEE20440000000000003D
:1019B00000000000CFF0E5E4F3EFF0E5E6E4E5ED4C
:1019C000E8E520EFEE20440000CDE5E8F1EFF0205F
:1019D000F7F2E5EDE8FF20EAEEECE0EDE400C2EE20
:1019E000F1F1F2E0EDEEE2EBE5EDE8E52044000098
:1019F000000000CDE5E8F1EFF02E20F0E0E1EEF29E
:101A0000FB20445350000000C2EEF1F1F2E0ED2D56
:101A1000E520F0E0E1EEF2FB2044535000CDE8E792
:101A2000EAEEE520EDE0EFF02E20E2FBF5EEE4E05B
:101A30000000C2FBF1EEEAEEE520EDE0EFF02E2033
:101A4000E2FBF5EEE4E000CDE5F220CAD720352038
:101A5000F1E5EA20EDE0202573000000CDE5F2205D
:101A6000CAD720EDE0202573000000000000000030
:101A700000C2EEF1F1F2E0ED2DE520CAD720EDE055
:101A8000202573000000C2EEF1F1F22EF3F02E20BB
:101A9000CAD720EDE0202573000000CDE5E8F1EF86
:101AA000F020F7F22FE7E0EF203252414D00000026
:101AB000CDE5E8F1EFF020F7F22FE7E0EF20CFCB14
:101AC000C8D1000000CDE5E8F1EFF020F7F22FE7F4
:101AD000E0EF20464C4153480000CDE5E8F1EFF03F
:101AE000E0E2EDEEF1F2FC20F7E0F1EEE20000D1F1
:101AF000EDE8E62EF3F02E20CAD720EDE020257386
:101B000000000000CEF8E8E1EAE020F0E0E1EEF2CB
:101B1000FB20D6CF0000000000C2F5EEE4205258B2
:101B200020D6CF20EFF3F1F2000000000000D0E05B
:101B3000E1EEF2E020D6CF20E2EEF1F1F2E0EDEEC0
:101B4000E2EB00C2FBF1EEEAE0FF20F2E5ECEFE5AC
:101B5000F0E0F2F3F0E00000CDE8E7EAE0FF20F289
:101B6000E5ECEFE5F0E0F2F3F0E0000000CDEEF0A0
:101B7000ECE0EB2E20F2E5ECEFE5F0E0F2F3F0E044
:101B80000000CDE5E8F1EFF02EE4E0F2F7E8EA201E
:101B9000F2E5ECEFE5F000C8F1EFF0E0E22EE4E072
:101BA000F2F7E8EA20F2E5ECEFE5F000D1EEE1FB38
:101BB000F2E8E5202D202564000000000000000070
:101BC00000C7C0D90000CFD0CC3100CFD0CC32007C
:101BD000CFD0C40000CEC1D90000CF312C3200CE0E
:101BE000D8C10000D1EEE1FBF2E8E5202D2025640C
:101BF000000000000000000000C2EAEB2E20EFE829
:101C0000F2E0EDE8FF2FEFE5F0E5E7E0EF00C2FBE3
:101C1000EAEBFEF7E5EDE8E520EFE8F2E0EDE8FFBE
:101C2000000000C8E7ECE5EDE5EDE8E520F0E5E6CD
:101C3000E8ECE020F0E0E100D3E4E0EBE5EDEDFBE3
:101C4000E920EDE5E8F1EFF0E0E2E5ED00CDE5E8D3
:101C5000F1EFF020F2E5F1F2E020CFD0C400000077
:101C60000000CDE5E8F1EFF020F2E5F1F2E020CF61
:101C7000D0CC0000000000CDE5E8F1EFF020E1EB72
:101C8000EEEAE020C1D1C70000000000CDE5E8F198
:101C9000EFF020E1EBEEEAE020C1D1CA0000000045
:101CA00000CDE5E8F1EFF020EFE5F0E5EAEB2DE51A
:101CB000E920C1D1C700CDE5F220F1E8E3EDE0EB8A
:101CC000E020ECE0EDE8EFF3EB2E00CDE5E8F1EFFE
:101CD000F020E2FBF5EEE4EDEEE920F6E5EFE800BA
:101CE000CDE5F220D0C7203520F1E5EA20EDE02057
:101CF0002573000000CEF2F1F3F22DE520F1E8E3C8
:101D0000EDE0EBE020CFF3F1EA00CEF2F1F3F22DBB
:101D1000E520F1E8E3EDE0EBE020D1F2EEEF00CDDD
:101D2000E5E8F1EFF020F7F2E5EDE8FF20EAEEEC70
:101D3000E0EDE400D1EDE8E62E20F3F02E20CAD746
:101D400020EDE0202573000000CDE5E8F1EFF02E56
:101D500020F0E0E1EEF2FB20445350000000C2EE20
:101D6000F1F1F2E0ED2DE520F0E0E1EEF2FB2044B0
:101D7000535000CDE8E7EAEEE520EDE0EFF02E204D
:101D8000E2FBF5EEE4E00000C2FBF1EEEAEEE52056
:101D9000EDE0EFF02E20E2FBF5EEE4E000CDE5F221
:101DA00020CAD7203520F1E5EA20EDE02025730098
:101DB0000000CDE5F220CAD720EDE0202573000019
:101DC00000000000000000C2EEF1F1F2E0ED2DE5B0
:101DD00020CAD720EDE0202573000000C2EEF1F10B
:101DE000F22E20F3F02ECAD720EDE020257300005C
:101DF00000CDE5E8F1EFF020F7F22FE7E0EF203239
:101E000052414D000000CDE5E8F1EFF020F7F22F50
:101E1000E7E0EF20CFCBC8D1000000CDE5E8F1EF3F
:101E2000F020F7F22FE7E0EF20464C415348000046
:101E3000CDE5E8F1EFF0E0E2EDEEF1F2FC20F7E0C5
:101E4000F1EEE20000D1EDE8E62E20F3F02E20D0F6
:101E5000C720EDE0202573000000C2EEF1F1F2E0B2
:101E6000ED2DE520D0C720EDE0202573000000CD4A
:101E7000E5F220D0C720EDE020257300000000002F
:101E800000000000C2EEF1F1F22E20F3F02ED0C7D8
:101E900020EDE0202573000000D1EEE1FBF2E8E543
:101EA000202D202564000000000000000000D1EE7D
:101EB000E1FBF2E8E5202D20256400000000000091
:101EC000000000D1EEE1FBF2E8E5202D20256400C2
:101ED0000000000000000000D1EEE1FBF2E8E52088
:101EE0002D202564000000000000000000D1EEE17C
:101EF000FBF2E8E5202D2025640000000000000032
:101F00000000D1EEE1FBF2E8E5202D202564000081
:101F100000000000000000D1EEE1FBF2E8E5202D1A
:101F2000202564000000000000000000CDE5E8F17D
:101F3000EFF020F7F22FE7E0EF20464C4153480046
:101F400000CDE5E8F1EFF020F7F22FE7E0EF2032E7
:101F500052414D000000CDE5E8F1EFF020F7F22FFF
:101F6000E7E0EF20CFCBC8D1000000CAEEEBFCF6D3
:101F7000EE20EDE0F0F3F8E5EDEE000000000000EB
:101F8000CDE5E8F1EFF020F2E5F1F2E020CFD0C4AA
:101F90000000000000CDE5E8F1EFF020E2FBEAEB05
:101FA0002EF2E5F1F220CFD0C400CDE5E8F1EFF05C
:101FB00020F2E5F1F2E020CFD0CC0000000000CD0F
:101FC000E5E8F1EFF020F7F22EEAEEECE0EDE420A8
:101FD000C1D1CA00CDE5F220E1EBEEEAE020C1D1AB
:101FE000CA0000000000000000CEF8E8E1EAE020AE
:101FF000E2E5F0F1E8E820C1D1CA00000000CEF22D
:10200000EAE0E720F0E5E7E5F0E22E20EBE8EDE896
:10201000E80000CDE5E8F1EFF0E0E2EDEEF1F2FCF2
:1020200020F7E0F1EEE20000CAEEEBFCF6EE20E273
:10203000EEF1F1F2E0EDEEE2EBE5EDEE00C4E8F1F9
:10204000F2E0EDF6E8EEEDEDFBE920F1E1F0EEF186
:102050000000CAEEECE0EDE4E020EDE520E2E5F082
:10206000EDF3EBE0F1FC00CDE5E8F1EFF0E0E2EDBF
:10207000EEF1F2FC20EAE0EDE0EBE000C2EAEB2E4C
:10208000EFE8F22FCFE5F0E5E7E0EFF3F1EA00004B
:1020900000C8E7ECE5EDE5EDE8E520F0E5E6E8EC85
:1020A000E00000000000C1EBEEEAE8F0EEE2EAE05A
:1020B00020CFD0CC00000000000000D1EDFFF2E8FE
:1020C000E520E1EBEEEA2E20CFD0CC0000000000AE
:1020D000C2EEF1F1F2E0ED2DE520CAD120C1D6CA61
:1020E0003100000000C2EEF1F1F2E0ED2DE520CA72
:1020F000D120C1D6CA3200000000CDE5F220CAD1FD
:1021000020C1D6CA3100000000000000000000CD50
:10211000E5F220CAD120C1D6CA320000000000007A
:1021200000000000C2FBEAEBFEF7E5EDE8E520EF7A
:10213000E8F2E0EDE8FF000000CDE5F220CAD100B2
:102140000000000000000000000000000000CDE5DD
:10215000F220CAD1203520F1E5EAF3EDE4000000D9
:10216000000000D1EDFFF2E8E520EDE5E8F1EFF049
:1021700020EAE0EDE0EBE000CDE5F220F1E2FFE760
:10218000E820F120C1C2CF000000000000C2EEF143
:10219000F1F2E0ED2E20F1E2FFE7E820F120C1C2EC
:1021A000CF00C8E7ECE5EDE5EDE8E520E4E0F2E09E
:1021B0002FE2F0E5ECFF00C8E7ECE5EDE5EDE8E542
:1021C00020EFE0F0E0ECE5F2F0EEE200D1EEE1FB32
:1021D000F2E8E5202D20256400000000000000004A
:1021E00000D1EEE1FBF2E8E5202D2025640000009F
:1021F000000000000000D1EEE1FBF2E8E5202D2018
:102200002564000000000000000000D1EEE1FBF2B8
:10221000E8E5202D202564000000000000000000FB
:10222000D1EEE1FBF2E8E5202D202564000000005E
:102230000000000000D1EEE1FBF2E8E5202D2025B2
:1022400064000000000000000000D1EEE1FBF2E8B5
:10225000E5202D202564000000000000000000CDD6
:10226000E5E8F1EFF020F7F22FE7E0EF20464C41F0
:1022700053480000CDE5E8F1EFF020F7F22FE7E05A
:10228000EF203252414D000000CDE5E8F1EFF020A3
:10229000F7F22FE7E0EF20CFCBC8D1000000D1EE5E
:1022A000E1FBF2E8E5202D2025640000000000009D
:1022B000000000CDE5E8F1EFF020F2E5F1F2E020DA
:1022C000CFD0C40000000000CDE5E8F1EFF020E23F
:1022D000FBEAEB2EF2E5F1F220CFD0C400CDE5E829
:1022E000F1EFF020F2E5F1F2E020CFD0CC000000D9
:1022F0000000CDE5E8F1EFF020F7F22EEAEEECE099
:10230000EDE420C1D1CA00CDE5F220E1EBEEEAE038
:1023100020C1D1CA0000000000000000CEF8E8E1B2
:10232000EAE020E2E5F0F1E8E820C1D1CA000000CF
:1023300000CEF2EAE0E720F0E5E7E5F0E22E20EB60
:10234000E8EDE8E80000CDE5E8F1EFF0E0E2EDEEE1
:10235000F1F2FC20F7E0F1EEE20000CDE5F220E141
:10236000EBEEEAE020C1D1C7000000000000000051
:10237000CEF8E8E1EAE020E2E5F0F1E8E820C1D1BA
:10238000C700000000CDE5E8F1EFF020EFE5F0E553
:10239000EAEB2DE5E920C1D1C700CDE5F220F1E857
:1023A000E3EDE0EBE020CCC0CD000000000000C277
:1023B000EAEB2EEFE8F22FCFE5F0E5E7E0EFF3F1FF
:1023C000EA000000C8E7ECE5EDE5EDE8E520F0E522
:1023D000E6E8ECE00000000000CDE5E8F1EFF020D9
:1023E000F6E5EFE820E2FBF52E0000000000C2EE6B
:1023F000F1F1F2E0ED2DE520CAD120EDE020CFD0C3
:10240000CC0000CEF8E8E1EAE020F0E0E1EEF2FBFB
:1024100020D6CF0000000000C2EEF1F1F2E0ED2D79
:10242000E520F0E0E1EEF2FB20D6CF0000CEF2F1A5
:10243000F3F22DE520F1E8E3EDE0EBE020CFF3F15E
:10244000EA00CEF2F1F3F22DE520F1E8E3ED20CE43
:10245000F1F2E0EDEEE200C2FBEAEBFEF7E5EDE8BB
:10246000E520EFE8F2E0EDE8FF000000CDE5F22026
:10247000CAD10000000000000000000000000000C1
:1024800000CDE5F220CAD1203520F1E5EAF3EDE4F4
:10249000000000000000D3E43A20EFEEF1F220ED5E
:1024A000E5E8F1EFF0E0E2E5ED0000D3E43A20CF1B
:1024B000D0C420EDE5E8F1EFF0E0E2E5ED0000004A
:1024C000D3E43A20CFD0CC20EDE5E8F1EFF0E0E224
:1024D000E5ED000000C8E7ECE5EDE5EDE8E520E41A
:1024E000E0F2E02FE2F0E5ECFF00C8E7ECE5EDE517
:1024F000EDE8E520EFE0F0E0ECE5F2F0EEE200D10F
:10250000EEE1FBF2E8E5202D20256400000000004C
:1025100000000000D1EEE1FBF2E8E5202D2025646B
:10252000000000000000000000D1EEE1FBF2E8E551
:10253000202D202564000000000000000000D1EEE6
:10254000E1FBF2E8E5202D202564000000000000FA
:10255000000000D1EEE1FBF2E8E5202D202564002B
:102560000000000000000000D1EEE1FBF2E8E520F1
:102570002D202564000000000000000000C6F3F0DC
:10258000EDE0EB5CD1EEE1FBF2E8FF00CFE5F0E53A
:10259000E4E0F2F7E8EA00CFF0E8E5ECEDE8EA0085
:1025A000C7E0F9E8F2E000D1EEE1FBF2E8FF00CC91
:1025B000E5EDFE5CC6F3F0EDE0EB00C1D1CF20CC41
:1025C000CA202000C1D1CF20D6D1CF2000D6D1CF74
:1025D00020CFCBC8D100CFC82020CCCA202000C13A
:1025E000D1CA20CFD0C43100C1D1CA20CFD0C4328B
:1025F00000C1D1CA20CFD0CC3100C1D1CA20CFD0A8
:10260000CC3200C1D1C720CFCBC8D100C1C2CF20AE
:10261000CCCA202000CFC2CA20CCCA202000EEF8AD
:10262000E8E1EAE000000025733A2025752E2575C3
:1026300000CCE5EDFE5CC8EDF4EEF0ECE0F6E8FF72
:1026400000C8E7ECE5F0E5EDE8FF00C8EDF4EEF0DA
:10265000ECE0F6E8FF00D2E5F1F2FB00CDE0F1F2AC
:10266000F0EEE9EAE000D3EFF0E0E2EBE5EDE8E5DB
:1026700000C6F3F0EDE0EB00CCE5EDFE00C0C2C01B
:10268000CDD220D03430300000CFC2C72D39300039
:102690000000000000C0C2C7CA2D38300000000092
:1026A00000CFC2C7D32DC5000000000000CFC2C7B5
:1026B000CB0000000000000000CBC8CDC8DF2DD04B
:1026C0000000000000CFC2C7CA00000000000000E8
:1026D00000C0CA2DEEF8E8E10000C0CA2DEDEEF012
:1026E000EC0000C0CA2DEDEEF0EC0000C0CA2DF3E6
:1026F000F1EAEEF000C0CA2DE2FBEAEB0000C0CA2E
:102700002DE1E5E3EB0000C0CA2DE8F1EFFBF2009C
:10271000C0CA2DEFF3F1EA0000C0CA2DEEE4EDEEE1
:10272000F100C0CA2DEEF8E8E10000C0CA2DE0E2D9
:10273000F2EE0000C0CA2DEFF0EEE20000D1EEE2B2
:10274000ECE5F1F2E8EC2E20257300253032643AF6
:10275000253032643A253032640020202020C8ED34
:10276000E8F6E8E0EBE8E7E0F6E8FF2020200020CC
:102770002020EDE520EEEFF0E5E4E5EBE5ED2121AD
:102780002120200020202020D2E8EF20E0EFEFE001
:10279000F0E0F2E02020202000CFF0E5E4F3EFF0BD
:1027A000E5E6E4E5EDE8E500CDE5E8F1EFF0E0E2AF
:1027B000EDEEF1F2FC00CDE5F220CAD100CFD0C49D
:1027C00020CAD12530317500CDE5F220CAD100CF25
:1027D000D0CC20CAD12530317500CDE5F220CAD148
:1027E00000CDE5E8F1EFF02EF7F22E20464C4153F4
:1027F0004800CDE5E8F1EFF02EE7E0EF2E464C4142
:10280000534800CDE5E8F1EFF02EF7F22E20504CC2
:10281000495300CDE5E8F1EFF02EE7E0EF2E504C04
:10282000495300CDE5E8F1EFF02EE7E0EF2E32520C
:10283000414D00CDE5E8F1EFF02EF7F22E203252B7
:10284000414D2000CDE5F220F1E2FFE7E820F12044
:10285000C1C2CF00D3F1F2E0EDEEE2E8F2E520F7FD
:10286000E0F1FB00CEF2EAE0E720F0E5E7E5F0E298
:102870002EEBE8ED00CAEEEC2EEDE520E2E5F0ED02
:10288000F3EBE0F1FC00CAEEEBFCF6EE20EDE0F03D
:10289000F3F8E5EDEE00CAEEEBFCF6EE203120EDAC
:1028A000E0F0F3F82E00CAEEEBFCF6EE203220ED5D
:1028B000E0F0F3F82E00D3E4E0EB2ECFCED1D2201F
:1028C000EDE5E8F1EFF000D3E4E0EB2ECFD0C4204B
:1028D000EDE5E8F1EFF000D3E4E0EB2ECFD0CC2033
:1028E000EDE5E8F1EFF000CDE5F220CAD120EDE012
:1028F00020C1D6CA3100CDE5F220CAD120EDE020BA
:10290000C1D6CA3200CEF8E8E1EAE020F0E0E1EE1C
:10291000F2FB20D6CF00CDE5F220E1EBEEEAE0209D
:10292000C1D1C700CDE5E8F1EFF02EE2E5F0F12EE0
:10293000C1D1C700CDE5E8F1EFF02EEFE5F0E5EA13
:10294000EB2E00CDE5F220CAD100CDE5E8F1EFF0A5
:102950002EE2F5EEE42ECFD3D1CA00CDE5E8F1EFBB
:10296000F02EE2F5EEE42ED1D2CECF00CDE5E8F1A7
:10297000EFF02EF6E5EFFC20C2DBD500CDE5E8F167
:10298000EFF02EE7E0EF2E20C2DBD500CDE5F22000
:10299000CAD100CDE5F220F1E8E3EDE0EBE020CC98
:1029A000C0CD00CDE5F220E1EBEEEAE020C1D1CAD6
:1029B00000CDE5E8F1EFF02EE2E5F0F12E20C1D1F7
:1029C000CA00CDE5E8F1EFF02E20EAE0EDE0EBE023
:1029D00000CDE5E8F1EFF02EE7E0EF2E20C1D1CAFF
:1029E00000CDE5E8F1EFF02EE2FBEAEB2EEAEEECAB
:1029F0002E00CDE5E8F1EFF02EE2EAEB2E20EAEE34
:102A0000EC2E00CDE5E8F1EFF02EEAEEEDF2F02E3F
:102A1000EAEEEC00CDE5F220CAD100CDE5F220E1EE
:102A2000EBEEEAE020C1D1CA00CDE5E8F1EFF02EEF
:102A3000E2E5F0F12E20C1D1CA00CDE5E8F1EFF0DA
:102A40002EF7F22EEAEEECE0EDE400CDE5E8F1EF52
:102A5000F02EE2FBEAEB2ED2E5F1F200CDE5E8F153
:102A6000EFF02EE2EAEB2E20D2E5F1F200CDE5E820
:102A7000F1EFF02EE2F5EEE42E20EAEEEC00CDE5EB
:102A8000F220D0C700CFD0C420CAD725303175007E
:102A9000CDE5F220CAD700CFD0CC20CAD72530311F
:102AA0007500CDE5F220CAD700C0CA2DCDE5F220D1
:102AB000EEF2E2E5F2E000C0CA2DD1EDE8E6E5ED88
:102AC0002EE7E0EFE0F1E000CFEEECE5F5E020E20C
:102AD00020EBE8EDE8E800CDE5E8F1EFF02E445317
:102AE00050203252414D2000D2EEEA20EFEEEAEEC5
:102AF000FF00CDE8E7EAEEE520EDE0EFF02EE2FBA7
:102B0000F500C2FBF1EEEAEEE520EDE0EFF02EE29B
:102B1000FBF500CDE5E8F1EFF02E20CCCA20D3CCB8
:102B200000C2D720F2F0E0EAF220E2EEF1F1F22E5C
:102B300000C0CA2DCDE5F220EEF2E2E5F2E0257309
:102B400000CDE5E8F1EFF02EF3E42EC4D4C72573F1
:102B500000CDE5E8F1EFF02EF3E42EC2DBD52573CE
:102B600000D3E4E0EB2EE1E5E720EEF2E22E257360
:102B700000D3E4E0EB2EEEE1ED2EEFEEEC2E25732C
:102B800000CFEEECE5F5E020E220EBE8EDE8E80030
:102B9000CDE5E8F1EFF02E20C4D4C700C0CA2DD196
:102BA000ED2EE7E0EFE0F1E020257300CFEEF0EE50
:102BB000E320EFEE20EFEEECE5F5E500C0E2F2EE0B
:102BC000EAEEEDF2F0EEEBFC00CDE5F220F1E8E309
:102BD000EDE0EBE020D0C700D3E4E0EB2E20EDE504
:102BE000E8F1EFF0E0E2E5ED00CDE8E7EAE8E92022
:102BF000F3F0EEE22E20D0C700CDE5F220CAD700D8
:102C0000D1EDE8E62E20F3F0EEE2EDFF20CFD0CCC0
:102C100000CEF8E8E1EAE020F0E0E1EEF2FB20D6B9
:102C2000CF00C2F5EEE420525820D6CF20EFF3F1CA
:102C3000F200C2FBF1EEEAE0FF20F2E5ECEFE5F096
:102C4000E0F200CDE8E7EAE0FF20F2E5ECEFE5F0A6
:102C5000E0F200CDE5E8F1EFF02E20E4E0F22EF214
:102C6000E5ECEF00CDE8E7EAE8E920F3F0EEE2E595
:102C7000EDFC204400CEF8E8E1EAE020F0E0E1EEEF
:102C8000F2FB20D6CF00C2F5EEE420525820D6CF7A
:102C900020EFF3F1F200CDE8E7EAE8E920F3F0EE07
:102CA000E2E5EDFC20440020CDE5F220F1E2FFE773
:102CB000E820F120C1D1CF2121212000C8F1F5EE7B
:102CC000E4ED2E00CAEEEDF2F0EEEBFC00CFF3F1F6
:102CD000EA00CEF1F2E0EDEEE200CDE5E8F1EFF052
:102CE0002E00CF2EEDE5E8F1EFF000CEE6E8E4E0CF
:102CF000EDE8E500CDE0EB2EEFF3F1EA00D3E42EB2
:102D0000EFF3F1EA00D0E5F7FC00CFD0C400CFD05C
:102D1000CC00D3EFF02E20D2CC00CEF8E8E1EAE0F0
:102D200000C8F1F5EEE4ED2E00CFD0CC20CFC025C9
:102D300030327500CDE5E8F1EFF02E00CF2EEDE555
:102D4000E8F1EFF000CEE6E8E4E0EDE8E500C1CB25
:102D5000CA20CACC25303275003F307830383F0069
:102D60003F307830393F00D0E5F7FC00CFD0C400C9
:102D7000CFD0CC00D3EFF02E20D2CC00C8F1F5EEAE
:102D8000E4ED2E00CFD0C420CFC02530327500CD69
:102D9000E5E8F1EFF02E00CF2EEDE5E8F1EFF000E1
:102DA000CEE6E8E4E0EDE8E5003F307830373F007C
:102DB000CFD0C420D6CF2530327500D1E8F1F2E56E
:102DC000EC2E00D0E5F7FC00CFD0C400CFD0CC0073
:102DD000D3EFF02E20D2CC00CFD0C400CFD0CC0087
:102DE000C7C0D900CDC5D2000208010603070105FE
:102DF00004020F0C10091112130D0208010603073B
:102E000004050102010E0B090101010A0208010675
:102E10000307010504020F0C0B090D0E0101000050
:102E200000000000004F00000007000700147F149E
:102E30007F14242A7F2A12231308646236495522FC
:102E4000400005030000001C2241000041221C003C
:102E500014083E081408083E080800503000000816
:102E600008080808006060000020100804023E51B5
:102E700049453E00427F400042615149462141455B
:102E80004B311814127F1027454545393C4A4949B2
:102E90003001710905033649494936064949291E59
:102EA0000036360000005636000008142241001497
:102EB0001414141400412214080201510906324965
:102EC00071413E7E1111117E7F494949363E414193
:102ED00041227F4141221C7F494949417F0909091B
:102EE000013E4149493A7F0808087F00417F41007F
:102EF0002040413F017F081422417F404040407FF5
:102F0000020C027F7F0408107F3E4141413E7F0951
:102F10000909063E4151215E7F0919294646494962
:102F2000493101017F01013F4040403F1F204020C7
:102F30001F3F4070403F6314081463070870080780
:102F40006151494543007F414100020408102000BF
:102F500041417F0004020102044040404040000122
:102F600002040020545454787F4844443838444480
:102F70004420384444487F3854545418087E09018A
:102F8000020C5252523E7F0804047800447D4000F7
:102F90002040443D007F1028440000417F40007CD9
:102FA000041804787C0804047838444444387C14B9
:102FB000141408081414187C7C0804040848545499
:102FC0005420043F4440203C4040207C1C204020B2
:102FD0001C3C4030403C44281028440C5050503C8D
:102FE0004464544C44000836410000007F00000057
:102FF00041360800020102020114141414140E0ACE
:103000000E000024242F24247F7F7F7F7F7F7F7FFB
:103010007F7F7F7F7F7F7F7F7F7F7F7F7F7F7F7FC0
:103020007F7F7F7F7F7F7F7F7F7F7F7F7F7F7F7FB0
:103030007F7F7F7F7F7F7F7F7F7F7F7F7F7F7F7FA0
:103040007F7F7F7F7F7F7F7F7F7F7F7F7F7F7E11FF
:1030500011117E7F494949337F494949367F010132
:103060000103E0514F41FF7F4949494177087F08FB
:103070007741494949367F1008047F7C2112097C39
:103080007F0814224120413F017F7F020C027F7F95
:103090000808087F3E4141413E7F0101017F7F09D1
:1030A0000909063E4141412201017F0101472810E3
:1030B00008071C227F221C63140814637F404040D1
:1030C000FF070808087F7F407F407F7F407F40FFE9
:1030D000017F4848307F4830007F007F48483022D9
:1030E0004149493E7F083E413E462919097F205407
:1030F0005454783C4A4A49317C545428007C040496
:10310000040CE0544C44FC38545454186C107C109B
:103110006C44445454287C2010087C7C4122117C4F
:103120007C1028440020443C047C7C0810087C7CF3
:103130001010107C38444444387C0404047C7C1413
:10314000141408384444442004047C04040C5050F3
:10315000503C3048FC483044281028447C404040D3
:10316000FC0C1010107C7C407C407C7C407C40FC43
:10317000047C5050207C5050207C7C5050200028F3
:10318000445454387C10384438085434147C5A322F
:103190008132A832CF32F6321D3344336B3392334F
:1031A000B933E03307342E3455347C34A334CA3475
:1031B000F13418353F3566358D35B435DB3502369B
:1031C0002936503677369E36C536EC3613373A37C1
:1031D00061378837AF37D637FD3724384B387238E8
:1031E0009938C038E7380E3935395C398339AA390E
:1031F000D139F8391F3A463A6D3A943ABB3AE23A35
:10320000093B303B573B7E3BA53BCC3BF33B1A3C59
:10321000413C683C8F3CB63CDD3C043D2B3D523D7F
:10322000793DA03DC73DEE3D153E3C3E633E8A3EA6
:10323000B13ED83EFF3E263F4D3F743F9B3FC23FCD
:10324000E93F104037405E408540AC40D340FA40F3
:10325000214148416F419641BD41000000000000FE
:10326000000000000000000000000000000000005E
:10327000000100E441010000010001010001000023
:1032800001D1E8EDF5F0EEEDE8E7E0F6E8FF20F734
:10329000E0F1EEE2000035010100E541010000032C
:1032A0000001010201000001CDEEECE5F020E0EFAD
:1032B000EFE0F0E0F2E0000000000000003B02025E
:1032C00000E441010100030001010101020001CD00
:1032D000EEECE5F020E0EFEFE0F0E0F2E0000000DF
:1032E000000000003B020200E441010100FF000178
:1032F000010101000001CAEEEDF2F0EEEBFC20E26C
:10330000FBF52EF1E8E3EDE0EBE0003D0101000903
:1033100042010000020001010101000001CFEEF0B6
:10332000EEE320EFF0E5E4F3EFF0E5E6E4E5EDE8C9
:10333000FF003C020209E441010000160001010304
:1033400001000001CFEEF0EEE320EFF0E5E4F3EF53
:10335000F02E20EFEE20CA43003C020209E44101B6
:103360000000160001010301000001C2F0E5ECFFBE
:1033700020EFE5F0E5E7E0EFF3F1EAE00000000020
:1033800039020207E44101000005000101010100CA
:103390000001D3E4E5F0E62E20F0E5EBE520EAEECF
:1033A000EC2E20CFD0C400370101000942010000FB
:1033B000020001010201000001D3E4E5F0E62E2045
:1033C000F0E5EBE520EAEEEC2E20CFD0CC00360184
:1033D0000100094201000002000101010100000199
:1033E000C7E0E3F0F3E1EB2E20F7F3E2F1F2E22E97
:1033F00020CFD0CC003C020209E4410200001600BC
:1034000001010302000101D1E5F2E5E2EEE920E06D
:10341000E4F0E5F1000000000000000038020200C6
:10342000E441010100F7000101030100000055E241
:10343000FBF520EDEEECE8EDE0EBFCEDEEE5000059
:1034400000000036020204E44101120032000101D2
:103450000101000001D7E0F1F2EEF2E0000000000F
:10346000000000000000000000003A02030BE441ED
:10347000010000E80301010501000001D1EEE2ECCA
:10348000E5F1F2E8ECEEF1F2FC00000000000000D3
:103490000037010000214201000007000101020184
:1034A000000001D1EDE8E6E5EDE8E520EEF2E2E529
:1034B000F2E020C0CA00000039020209E441010024
:1034C00000140001010301000001D2E8EF20E4E54F
:1034D000F2E5EAF2EEF0E000000000000000003546
:1034E000020200E4410101000300010102020000A8
:1034F00001CAEEF0F0E5EAF6E8FF20EDE0EFF0FFBC
:10350000E6E5EDE8FF0033030404E44101A8FD58BB
:103510000201010801000000CAEEF0F0E5EAF6E859
:10352000FF20F2EEEAE00000000000000033040596
:1035300001E4410119FCE70301010902000000CF89
:10354000F0EEF2EEEAEEEB20EEE1ECE5EDE000006D
:103550000000000039010000754201010002000175
:10356000010301000001CFF0E8E7EDE0EA20F7E514
:10357000F2EDEEF1F2E80000000000390100008DEC
:1035800042010100020001010302000001C4EEEF4C
:10359000F3F1F2E8ECFBE520EFF0EEE2E0EBFB000C
:1035A00000003902020CE441010000500002010356
:1035B00003000001CFEEF0EEE320EFEE20EFEEECA3
:1035C000E5F5E500000000000039020207E44101D2
:1035D0000000FF0001010304000001C4EEEFF3F15D
:1035E000F2E8ECE0FF20EFEEECE5F5E00000000093
:1035F0003902020CE44101140050001401030500DB
:103600000001D2E8EF20E0E2F2EEEAEEEDF2F0EEB9
:10361000EBFF000000000039010000A5420101009D
:10362000030001010306000001CFE5F0E8EEE4200D
:10363000E1E5E3EBEEE3EE20C0CA00000000390252
:103640000207E441010100FF00010103070000013E
:10365000CFE5F0E8EEE420EFEEE2F22EE1E5E3EB79
:103660002E20C0CA0039020207E441010100FF0018
:1036700001010308000001D0E5E7E5F0E2E8F0EE23
:10368000E2E0EDE8E5000000000000003301010089
:103690000942010000020001010301000001D1EE16
:1036A000E2ECE5F1F2E8ECEEF1F2FC0000000000E3
:1036B00000000037010000C9420100000D000101B7
:1036C0000202000001D2E8EF20EBE8EDE8E800009C
:1036D000000000000000000000000201000065433F
:1036E000010100020001010101000001D2E5EBE54A
:1036F000ECE5F5E0EDE8EAE0000000000000000085
:10370000003701010009420100000200010102032B
:10371000000001CFEEF0EEE320EFF0E5E4F3EFF090
:103720002E20EFEE2044000037020209E44101C0E0
:10373000FF400001010204000001CFEEF0EEE320A3
:10374000E0E2E0F0E8E820EFEE204400000000377F
:10375000020209E44101C0FF40000101020500002E
:1037600001CAEEEDF2F0EEEBFC20F2E5ECEFE5F055
:10377000E0F2F3F0FB003701010009420100000212
:103780000001010206000001C2E5F0F52EE7EDE0C0
:10379000F7E5EDE8E520F2E5ECEFE5F000370202B1
:1037A0000CE441010000640001010207000001CDAA
:1037B000E8E6ED2EE7EDE0F7E5EDE8E520F2E5ECF3
:1037C000EFE5F0003702020CE44101000064000163
:1037D000010208000001D1EAEEF0EEF1F2FC20D285
:1037E000CC00000000000000000000370100007D58
:1037F00043010000020001010209000001D1E1F0D3
:10380000EEF120F1E8E3EDE0EBE8E7E0F6E8E800D0
:103810000000370100009543010000020001010291
:1038200017000001D2E8EF20E7E0F9E8F2FB000022
:1038300000000000000000000001010000AD430195
:103840000000080001010101000001C4EEEF2E207C
:10385000E2F0E5ECFF20E1E5E720ECE0ED2E0000F2
:1038600003020208E44101000063000101010100BC
:103870000001CFE5F0E5EAF0FBF2E8E520E8ECEF47
:10388000F3EBFCF1EEE2000502020CE44101000062
:10389000360002010101000001CFE5F0E5EAF0FB8E
:1038A000F2E8E520E8ECEFF3EBFCF1EEE2000502D4
:1038B000020CE44101120036000201010100000186
:1038C000CFE5F0E5EAF0FBF2E8E520E8ECEFF3EB1A
:1038D000FCF1EEE2000502020CE4410100003600BA
:1038E00001010101000001CAEEECEFE5EDF1E0F6A7
:1038F000E8FF20E7E0E4E5F0E6EAE8000402020C75
:10390000E441020000120002010201000101CAEEBE
:10391000ECEFE5EDF1E0F6E8FF20E7E0E4E5F0E6C6
:10392000EAE8000402020CE4410200001200010176
:103930000201000101CFEEF0EEE320EFF0E5E4F349
:10394000EFF02E20EFEE20D0C70009020209E4417B
:10395000010000100001010101000001C7E0E3F0D7
:10396000F3E1EBE5EDE8E520F7F3E2F1F2E2E8F26E
:103970000006020209E441010000200001010101EA
:10398000000001C7E0E3F0F3E1EB2E20F7F3E2F1F2
:10399000F2E22E20D0C7000006020209E441020034
:1039A00000200001010301000101D2E8EF20EFF047
:1039B000E8E5ECEDE8EAE0000000000000000007A8
:1039C0000100000D4401000003000101010100009D
:1039D00001D1EDE8E6E5EDE8E520F3F0EEE2EDFFFC
:1039E00020C0CA00000007010100094201000002D6
:1039F0000001010101000001D7E0F1F2EEF2E02048
:103A0000CFD0C4000000000000000000000801004A
:103A1000003144010000050001010101000001D74F
:103A2000E0F1F2EEF2E020CFD0CC00000000000088
:103A30000000000009010000314401000005000100
:103A4000010101000001D1E4E2E8E320EFE5F02EFE
:103A5000F4F0EEEDF2E020CFD0C4000502020CE459
:103A600041010000FF0001010201000001D1E4E278
:103A7000E8E320E7E0E42EF4F0EEEDF2E020CFD032
:103A8000C4000502020CE441010000FF0001010234
:103A900002000001D1E4E2E8E320CFD0CC00000036
:103AA0000000000000000000000502020CE44101DB
:103AB0000000FF0001010203000001D1E4E2E8E39D
:103AC00020C2D720CFD0C420EEF220CFD3D1CA005D
:103AD0000502020CE441010000FF000101020400A4
:103AE0000001CEE3F0E0EDE8F72E20EFEEEBEEF193
:103AF000FB20CFD0C400000B0101000942010000EF
:103B0000020001010201000001C7E0E4E5F0E6EA7D
:103B1000E020E2FBEAEB2E20CFD0CC0000000B022D
:103B2000020CE441010000FF00010102020000015B
:103B3000C7E0E4E5F0E6EAE020E2EAEB2E20CFD0B1
:103B4000CC000000000B02020CE441010000FF0069
:103B500001010203000001C7E0E4E5F0E6EAE0202D
:103B6000E2EAEB2E20CFD0C4000000000B02020CD2
:103B7000E441010000FF0001010204000001CCE863
:103B8000ED2E20E4EBE8F22E20CFD0C400000000A0
:103B90000000000B02020CE441010000FF000101E3
:103BA0000205000001C7E0E4E5F0E6EAE020F1F0FC
:103BB000E0E1E0F22E20CFD0C40021020206E44171
:103BC000010000140001010101000001C4EBE8F252
:103BD000E5EBFCEDEEF1F2FC20EAEEECE0EDE4FBCF
:103BE0000022020206E441011E00640001010101FD
:103BF000000001C4EBE8F2E5EBFCEDEEF1F2FC2095
:103C0000EAEEECE0EDE4FB0022020206E441011ED4
:103C100000F4010A0A0101000001D2E5F1F2EEE22E
:103C2000E0FF20EAEEECE0EDE4E00000000000261A
:103C30000101000942010000020001010101000030
:103C400001D1EBE5E4FFF9E8E520EAEEECE0EDE494
:103C5000FB000000000025050100094220000002D1
:103C60000001010601000201C1EBEEEA2E20EAEE9E
:103C7000ECE0EDE4FB20CFD0C400000000240501FF
:103C8000000942200000020001010601000200D2EA
:103C9000F0E0EDF1EBFFF6E8FF20D6CF00000000EA
:103CA000000000002701010009420100000200019C
:103CB000010101000001C1EBEEEAE8F0EEE22E2086
:103CC000EAEEECE0EDE4FB20D6CF00280501000988
:103CD00042200000020001010601000201CAEEEBD1
:103CE000E8F7E5F1F2E2EE20EAEEECE0EDE40000C8
:103CF00000002C020200E441010400200004040141
:103D000001000001CAEEEBE8F7E5F1F2E2EE20EA8D
:103D1000EEECE0EDE420C0000029020200E44101E5
:103D20000000200001010101010001CAEEF0F0E5F0
:103D3000EAF6E8FF20F7E0F1F2EEF2FB0000000007
:103D40002302020AE441019CFF6400010101010019
:103D50000001D1EDE8E6E5EDE8E520F3F0EEE2ED77
:103D6000FF20CAD10000002D020209E44101000039
:103D7000140001010301000001D1EDE8E6E5EDE8E2
:103D8000E520F3F0EEE2EDFF20D2CC0000002D02A2
:103D90000209E441010000140001010302000001D6
:103DA000CAD120EFEE20F3ECEEEBF7E0EDE8FE00F9
:103DB00000000000002D0100006D44010000020021
:103DC00001010303000001D1E8E3EDE0EBE8E7E0E7
:103DD000F6E8FF20EAEEECE0EDE400002E0501003D
:103DE0000942200000020001010601000201C7E0B3
:103DF000E4E5F0E6EAE020EDE020F4E8EAF12EEA7E
:103E0000EEEC0011020206E4410100000500010190
:103E10000101000001C7E0E4E5F0E6EAE020EDE0A2
:103E200020F4E8EAF12EEAEEEC0011020206E44189
:103E30000100000A0001010101000001C1EBEEEAEE
:103E40002E20EAEEECE0EDE4FB20CFD0CC00000029
:103E500000140501000942200000020001010601D2
:103E6000000300C7E0E4E5F0E6EAE020EDE020E250
:103E7000FBEAEB2EEAEEEC0013020206E44120001E
:103E800000E803320A0301000301D2F0E0EDF1EB98
:103E9000FFF6E8FF20D6CF0000000000000000176A
:103EA00001010009420100000200010101010000BE
:103EB00001C1EBEEEAE8F0EEE22E20EAEEECE0EDF6
:103EC000E4FB20D6CF0018050100094220000002C3
:103ED0000001010601000301CAEEECE0EDE4E02080
:103EE000CFD0CC20E220D6CF000000000019020283
:103EF00000E441200100200001010301000301CA88
:103F0000EEEBE8F7E5F1F2E2EE20EAEEECE0EDE4CC
:103F1000000000001C020200E44101040020000433
:103F2000040101000001CFF0E8E5EC20F2E5F1F238
:103F3000EEE2EEE920EAEEEC2E00001201010009AB
:103F400042010000020001010101000001CAEEF07F
:103F5000F0E5EAF6E8FF20F7E0F1F2EEF2FB000010
:103F600000001502020AE441019CFF640001010106
:103F700001000001D1E8E3EDE0EBE8E7E0F6E8FF5F
:103F800020EAEEECE0EDE400001D0501000942200E
:103F90000000020001010601000301CFEEE2FBF880
:103FA000E5EDE8E520E1E5E7EEEFE0F12DF2E800F0
:103FB0001601000009420100000200010101010098
:103FC0000001CFF0EEF2EEEAEEEB000000000000A0
:103FD00000000000000000380100008544010000DE
:103FE000030001010302000000D1EAEEF0EEF1F25D
:103FF000FC20EFE5F0E5E4E0F7E800000000380120
:104000000000A944010000060001010303000000B4
:10401000C1E8F2FB20E4E0EDEDFBF500000000005C
:10402000000000000038010000F144010000010020
:1040300001010304000000D7E5F2EDEEF1F2FC000F
:104040000000000000000000000000003801000037
:10405000FD44010000030001010305000000D1F24E
:10406000EEEFEEE2FBE520E1E8F2FB0000000000ED
:10407000000000380100002145010000020001019C
:104080000306000000C8EDF2E5F0F4E5E9F10000F8
:1040900000000000000000000000000100003945A1
:1040A000010000020001010001000000C2F0E5EC87
:1040B000FF20EEE6E8E4E0EDE8FF20EAEEEC2E007B
:1040C0000037020206E441010000FF000101020A7C
:1040D000000001D2F0E0EDE7E8F2EDFBE520EAEECA
:1040E000ECE0EDE4FB000000370501000942600050
:1040F0000002000101070B000001CFE5F0E5EDE053
:10410000E7EDE0F7E5EDE8E520CFD0CC0000001BBF
:10411000010000514520000061000101030100037E
:1041200001CFE5F0E5EDE0E7EDE0F7E5EDE8E520CE
:10413000CFD0C40000002B010000514520000061D9
:104140000001010301000301C2FBE2EEE420CFD035
:10415000CC2028534143312900000000001E0100FB
:1041600000DD49010000020001010301000000D34D
:10417000EFF0E0E2EBE5EDE8E5202853414332299A
:104180000000000038010000F549010000020001B4
:10419000010309000000C1EBEEEA2E20EDE0EFF094
:1041A000E0E2EB202853412E6D290038050000097C
:1041B0004208000002000101060A000000CFE0F002
:1041C000EEEBFC000000000000000000000000001A
:1041D000000038060600E4410100000F2701010439
:1041E0000700030100E2FBEAEB2E000000000000E4
:1041F00000EAE0EDE0EB20F1E22E000000C0D1D3B8
:1042000020D2CF000000000000E2FBEAEB2E00000D
:104210000000000000E2EAEB2E00000000000000B9
:1042200000C0C2C0CDD220D03430300000CFC2C7D1
:104230002D3930000000000000C0C2C7CA2D383040
:104240000000000000CFC2C7D32DC5000000000051
:1042500000CFC2C7CB0000000000000000CBC8CDDB
:10426000C8DF2DD00000000000CFC2C7CA00000088
:104270000000000000E1FBF1F2F0FBE900000000AB
:1042800000ECE5E4EBE5EDEDFBE9000000E2EAEB34
:104290002E0000000000000000E2FBEAEB2E000010
:1042A0000000000000F2F0E5E2EEE6EDFBE90000C0
:1042B00000EDEEF0ECE0EBFCEDFBE90000F1EFEEE1
:1042C000EAEEE9EDFBE9000000C0C2C0CDD200007B
:1042D0000000000000C0C2C0CDD220CFD0C400007A
:1042E00000C0C2C0CDD220CFD0CC000000C0CACF09
:1042F000C020CFD0C400000000C0CACFC020CFD0A3
:10430000CC00000000CAC5C4D020CFD0C40000003B
:1043100000CAC5C4D020CFD0CC00000000D3CFCA83
:104320002DD620CFD0C4000000D3CFCA2DD620CFA9
:10433000D0CC000000C2D7D2CE20CFD0C400000025
:1043400000C2D7D2CE20CFD0CC00000000C0CDCA52
:10435000C020CFD0C400000000C0CDCAC020CFD044
:10436000CC000000003220EAEEEDF6E5E2E0FF00CE
:10437000003320EAEEEDF6E5E2E0FF0000323030F7
:104380000000000000000000003430300000000099
:104390000000000000E0E2F2EEECE0F200000000BD
:1043A00000F0F3F7EDEEE9000000000000C4D4C710
:1043B0002DCFF0CFE400000000C4D4C72DCCCA310B
:1043C0000000000000C4D4C72DCCCA320000000099
:1043D00000C4D4C72D4C36300000000000CDC72DDE
:1043E000CFF0CFE40000000000CDC72DCCCA000004
:1043F0000000000000CFCFC72DCFF0CFE4000000B9
:1044000000CFCFC72DCCCA000000000000E0EAF2C8
:104410002BEFE0F1F100000000E0EAF2E8E2EDFB52
:10442000E900000000EFE0F1F1E8E2EDFBE9000057
:10443000002D31303030C3F600000000002D353043
:1044400030C3F600000000000030C3F6000000009A
:1044500000000000002B353030C3F60000000000E3
:10446000002B31303030C3F60000000000CAD131DB
:10447000000000000000000000CAD132000000006F
:104480000000000000D1D2C0CDC4C0D0D2000000D6
:10449000004D4F44425553000000000000CCDDCADF
:1044A0002D313031000000000036303000000000B7
:1044B0000000000000313230300000000000000039
:1044C000003234303000000000000000003438308A
:1044D00030000000000000000039363030000000DD
:1044E00000000000003139323030000000000000D0
:1044F00000380000000000000000000000EDE5F2C0
:10450000000000000000000000F7E5F200000000DD
:104510000000000000EDE5F7E5F2000000000000FB
:104520000031000000000000000000000032000028
:104530000000000000000000005553420000000091
:104540000000000000C1C2CF000000000000000019
:1045500000300000000000000000000000314100B9
:1045600000000000000000000032410000000000D8
:1045700000000000003341000000000000000000C7
:104580000034410000000000000000000035410040
:1045900000000000000000000036410000000000A4
:1045A0000000000000374100000000000000000093
:1045B0000038410000000000000000000039410008
:1045C0000000000000000000003130410000000049
:1045D0000000000000313141000000000000000038
:1045E0000031324100000000000000000031334182
:1045F0000000000000000000003134410000000015
:104600000000000000313541000000000000000003
:104610000031364100000000000000000031374149
:1046200000000000000000000031384100000000E0
:1046300000000000003139410000000000000000CF
:104640000032304100000000000000000032314123
:1046500000000000000000000032324100000000B5
:1046600000000000003233410000000000000000A4
:1046700000323441000000000000000000323541EB
:104680000000000000000000003236410000000081
:104690000000000000323741000000000000000070
:1046A00000323841000000000000000000323941B3
:1046B0000000000000000000003330410000000056
:1046C0000000000000333141000000000000000045
:1046D00000333241000000000000000000314200C1
:1046E0000000000000000000003242000000000056
:1046F0000000000000334200000000000000000045
:1047000000344200000000000000000000354200BC
:104710000000000000000000003642000000000021
:104720000000000000374200000000000000000010
:104730000038420000000000000000000039420084
:1047400000000000000000000031304200000000C6
:1047500000000000003131420000000000000000B5
:1047600000313242000000000000000000313342FE
:104770000000000000000000003134420000000092
:104780000000000000313542000000000000000081
:1047900000313642000000000000000000313742C6
:1047A000000000000000000000313842000000005E
:1047B000000000000031394200000000000000004D
:1047C00000323042000000000000000000323142A0
:1047D0000000000000000000003232420000000033
:1047E0000000000000323342000000000000000022
:1047F0000032344200000000000000000032354268
:1048000000000000000000000032364200000000FE
:1048100000000000003237420000000000000000ED
:10482000003238420000000000000000003239422F
:1048300000000000000000000033304200000000D3
:1048400000000000003331420000000000000000C2
:10485000003332420000000000000000003143003D
:1048600000000000000000000032430000000000D3
:1048700000000000003343000000000000000000C2
:104880000034430000000000000000000035430039
:10489000000000000000000000364300000000009F
:1048A000000000000037430000000000000000008E
:1048B0000038430000000000000000000039430001
:1048C0000000000000000000003130430000000044
:1048D0000000000000313143000000000000000033
:1048E000003132430000000000000000003133437B
:1048F0000000000000000000003134430000000010
:1049000000000000003135430000000000000000FE
:104910000031364300000000000000000031374342
:1049200000000000000000000031384300000000DB
:1049300000000000003139430000000000000000CA
:10494000003230430000000000000000003231431C
:1049500000000000000000000032324300000000B0
:10496000000000000032334300000000000000009F
:1049700000323443000000000000000000323543E4
:10498000000000000000000000323643000000007C
:10499000000000000032374300000000000000006B
:1049A00000323843000000000000000000323943AC
:1049B0000000000000000000003330430000000051
:1049C0000000000000333143000000000000000040
:1049D00000333243000000000000000000C2FBE290
:1049E000E5E4E5ED0000000000C2E2E5E4E5ED00ED
:1049F0000000000000CCE5F1F2EDEEE50000000063
:104A000000C4E8F1F2E0EDF62E00000000002657A9
:104A1000B2B111241FBECFEFD0E1DEBFCDBF80B554
:104A20008B7F80BD9FEF9ABB1BBA17BA98BB80EEF5
:104A300084BB8FE185BB80E381BB8FEC82BB80ECC4
:104A400082B993B98EE08093610081EF8093620018
:104A5000109264009093650017BE8BE083BF88E1DD
:104A600081BF87B7826087BF1FBC8CE08EBD10926C
:104A70007A001DBC1CBC80E792E09BBD8ABD87B755
:104A8000806187BF2CE088E190E00FB6F894A8958C
:104A900081BD0FBE21BD11E0A0E0B1E0ECE6FDE676
:104AA00001E00BBF02C007900D92A236B107D9F703
:104AB0001CE0A2E6B1E001C01D92A636B107E1F705
:104AC0001AE4C2E1DAE404C02297FE010E949DB319
:104AD000CE30D107C9F70E9408B30C94B4B60C9439
:104AE0000000662379F020E031E070E02F5F832F33
:104AF00090E086239723892B11F0822F0895330F9E
:104B00002830A1F780E00895EF92FF920F931F9352
:104B1000CF93DF93EC01FB01808180FF02C082E034
:104B20002CC081FF02C083E028C07B010894E11CF7
:104B3000F11CCE016181D5DF882311F08E5E1DC08E
:104B400087010F5F1F4FCE01F7016181CADF882304
:104B500011F0865E12C078010894E11CF11CCE01B0
:104B6000F8016181BEDF882311F08E5D06C0CE01A1
:104B7000F7016181B6DF8111865DDF91CF911F91D1
:104B80000F91FF90EF9008951F93FB0110811F700C
:104B900061816F7049F0A5DF12FF02C0865F24C0FB
:104BA00013FF21C0825F20C01123E9F0E12FF0E064
:104BB000CF0186709070069711F488E015C0CF0180
:104BC0008A7090700A9711F489E00EC0CF01857049
:104BD0009070059711F486E007C0E970F07039977E
:104BE00011F487E001C080E01F910895FC01CB0122
:104BF00020E005C080FD05C02F5F96958795009742
:104C0000C9F7E05AFF4F219371836083E156F0406A
:104C100080E004C060FD8F5F769567956115710532
:104C2000C9F7ED59FF4F808381E00895FC01CB0166
:104C300020E005C080FD05C02F5F96958795009701
:104C4000C9F7EC59FF4F219371836083E556F0401B
:104C500080E004C060FD8F5F7695679561157105F2
:104C6000C9F7E959FF4F808381E00895FC0167305F
:104C700010F084E00895633021F0623011F061306B
:104C800041F4EA57FF4F8081E658F040823009F442
:104C900065E0ED57FF4F8081861711F481E008959C
:104CA000608382E00895FC018589833019F491E0E6
:104CB00086E208C0823091F0813081F0882361F073
:104CC0009FEF80E0691728F0861718F0678B81E066
:104CD0000895878B80E008958EE0F6CF82E0F4CFD0
:104CE0000F931F93CF93DF938C01EB01FC01B196DF
:104CF000A0E050E08991808341E020E030E0682F1F
:104D000070E0842F90E086239723892B09F0AF5F12
:104D1000440F2F5F3F4F2830310599F75F5F319681
:104D2000543041F7F801A1A781E0DF91CF911F91A5
:104D30000F910895FC01262F30E0C90154E09695AB
:104D400087955A95E1F78170828FC90145E0969564
:104D500087954A95E1F78170838FC901B6E09695F2
:104D60008795BA95E1F78170848FC9018170907041
:104D7000858F36952795822F8170868F369527955A
:104D80002170278F60A381E00895FC0120E0CB0112
:104D90008070907C892B09F021E027A77F7385A57F
:104DA00096A58617970710F480E00895222331F026
:104DB00094A783A771AB60AB81E0089574A763A744
:104DC00011AA10AA81E00895FC018285868380E003
:104DD0000895FC01DA01653009F474C0663070F49E
:104DE000623089F1633020F4613009F0A6C013C04D
:104DF0006330F1F1643009F0A0C04FC0673009F4AE
:104E000087C0673008F470C0693009F494C06A3014
:104E100009F093C090C0222309F48FC00480F5816B
:104E2000E02D2C91822F8150873F08F085C0DF0153
:104E3000A25BBD4F8C91821709F47EC02C93E35B7B
:104E4000FD4F608379C0222309F477C00480F58187
:104E5000E02D2C91233008F06FC0DF01AC5BBD4F1B
:104E60008C91821709F468C02C93ED5BFD4F4DC007
:104E7000222309F462C00480F581E02D2C912630B4
:104E800008F05AC0DF01AA5BBD4F8C91821709F46C
:104E900053C02C93EB5BFD4F38C0222309F44DC067
:104EA0000480F581E02D8C91882309F045C0DF0155
:104EB000A85BBD4F8C91882309F43EC01C92E95B2E
:104EC000FD4F23C02223C9F10480F581E02D2C91F0
:104ED000233090F5DF01A65BBD4F8C91821761F105
:104EE0002C93E75BFD4F11C0222339F10480F5813B
:104EF000E02D2C91223000F5DF01A45BBD4F8C9199
:104F00008217D1F02C93E55BFD4F81E0808314C0C4
:104F1000223098F02C9111969C9180E0820F911D87
:104F20000480F581E02D27E28031920710F496830A
:104F3000858322E002C0211121E0822F0895FC0127
:104F4000A281B381AD014B5F5F4F14966C911497B2
:104F500013962C913EDF81E008951F93CF93DF934A
:104F6000EC0110E00CC0612F6F5F812F90E0049680
:104F7000E80FF91F211BCE01AF012BDF180FEA81CB
:104F8000FB812381121778F381E0DF91CF911F918C
:104F90000895CF93DF93EC01862F8073C1F4613CB9
:104FA000D1F1623C09F055C08C819D81815B9D4FA0
:104FB0000E9495AD382F292FEC81FD8183818430AB
:104FC00019F4CE0162EC3CC0CE0162EC3FC08031EE
:104FD00079F4613D01F1623DE1F58C819D81815B58
:104FE0009D4F0E9495AD282F492FCE0162ED29C01B
:104FF000803279F4613E79F0623E59F58C819D8171
:10500000815B9D4F0E9495AD282F492FCE0162EE06
:1050100018C0613F21F4CE010E9474371BC0623F6B
:10502000C1F48C819D81815B9D4F0E9495AD382F8D
:10503000292FEC81FD818381843031F4CE0162EF30
:10504000432F0E94163706C0CE0162EF422F232F56
:10505000F8CF80E0DF91CF910895CF92DF92EF9269
:10506000FF920F931F93CF93DF93EC01613EE1F129
:10507000623E09F44CC06C3209F058C1AC81BD816C
:1050800013968C911397833011F090E027C0EA813A
:10509000FB819481990F990F913218F024E090E0F0
:1050A00001C020E0FD01E857FE4F8081891719F407
:1050B000922F91600BC09083FD01E957FE4F108243
:1050C000992311F081E08083922F9260EC81FD8121
:1050D000E857FE4F8081E954FF4F808391FF26C13E
:1050E000EC81FD81108222C1EA81FB81648175819E
:1050F000EC81FD81E554FD4F8081EB5BF240823015
:1051000009F014C1CF018A559D4F3FDE10C1EC81DB
:10511000FD81E554FD4F8081EB5BF240823009F068
:1051200005C1442309F002C18381AA81BB819F018B
:105130002A553D4F853009F081C0C90118966C9100
:1051400041E00E9454598C819D81EA81FB818A55FE
:105150009D4F618541E00E947A598C819D81EA8151
:10516000FB818A559D4F628541E00E94A2598C8146
:105170009D81EA81FB818A559D4F638541E00E94B4
:10518000D3598C819D81EA81FB818A559D4F64852D
:1051900041E00E94FA598C819D81EA81FB818A5508
:1051A0009D4F658541E00E94215AEA81FB818C81F7
:1051B0009D81768560E02785620F711D8A559D4F20
:1051C0000E9412598C819D816A817B816C5F7F4F27
:1051D0008A559D4F85DDEA81FB818381803108F40A
:1051E0009EC0CC80DD80A60145535D4F70E064E039
:1051F000E62EF12CEE0EFF1E8089DA018C9361E021
:1052000020E030E0082F10E0862F90E080239123EB
:10521000892B09F07F5F660F2F5F3F4F28303105E4
:1052200099F731964F5F5F4FEE15FF0529F7E0EDD7
:10523000F2E0CE0EDF1ED6017C9371C0C9015396F9
:105240006C9141E00E9454598C819D81EA81FB81DF
:105250008A559D4F628941E00E947A598C819D81D7
:10526000EA81FB818A559D4F618941E00E94A259E4
:105270008C819D81EA81FB818A559D4F678541E044
:105280000E94D3598C819D81EA81FB818A559D4F73
:10529000668541E00E94FA598C819D81EA81FB81FB
:1052A0008A559D4F658541E00E94215AEA81FB8124
:1052B0008C819D81748560E02385620F711D8A5504
:1052C0009D4F0E941259AC81BD81EA81FB8184818E
:1052D000A454BD4F863008F086E08C932C813D812C
:1052E000EA81FB819581892F8150803228F4F90170
:1052F000E652FD4F908311828C819D81EA81FB8172
:105300008A559D4F6681CFDCAC81BD81EA81FB81EE
:105310008781833008F082E0A452BD4F8C93EC81EA
:10532000FD81E352FD4F81E0808301C080E0DF9189
:10533000CF911F910F91FF90EF90DF90CF90089544
:105340001F93CF93DF93EC01613DD9F1623D09F4E6
:105350004BC06C3109F029C1AC81BD8113968C9191
:105360001397833011F090E026C0EA81FB8194818D
:10537000990F990F913210F024E001C020E0FD0157
:10538000EF5EFE4F8081891719F4922F91600BC058
:105390009083FD01E05FFE4F1082992311F081E0C0
:1053A0008083922F9260EC81FD81EF5EFE4F8081C1
:1053B000E35DFE4F808391FFF8C0EC81FD81108298
:1053C000F4C0EA81FB8164817581EC81FD81E55443
:1053D000FD4F8081EB5BF240813009F0E6C0CF01E8
:1053E0008A559D4FD2DCE2C0EC81FD81E554FD4F32
:1053F0001081EB5BF240113009F0D7C0442309F073
:10540000D4C08381AA81BB819F012A553D4F85303D
:1054100009F055C0C90118966C9141E00E94545999
:105420008C819D81EA81FB818A559D4F618541E098
:105430000E947A598C819D81EA81FB818A559D4F1A
:10544000628541E00E94A2598C819D81EA81FB81A5
:105450008A559D4F638541E00E94D3598C819D817F
:10546000EA81FB818A559D4F648541E00E94FA598B
:105470008C819D81EA81FB818A559D4F658541E044
:105480000E94215AEA81FB818C819D81768560E0B2
:105490002785620F711D8A559D4F0E9412598C817C
:1054A0009D816A817B816C5F7F4F8A559D4F18DC9F
:1054B000EC81FD81E352FD4F108381E077C0C9018B
:1054C00053966C9141E00E9454598C819D81EA81F0
:1054D000FB818A559D4F628941E00E947A598C81F7
:1054E0009D81EA81FB818A559D4F618941E00E943F
:1054F000A2598C819D81EA81FB818A559D4F6785E8
:1055000041E00E94D3598C819D81EA81FB818A55BB
:105510009D4F668541E00E94FA598C819D81EA8108
:10552000FB818A559D4F658541E00E94215AEA81A1
:10553000FB818C819D81748560E02385620F711DE4
:105540008A559D4F0E941259AC81BD81EA81FB8131
:105550008481A454BD4F863008F086E08C932C8162
:105560003D81EA81FB819581892F8150803228F429
:10557000F901E652FD4F908311828C819D81EA8171
:10558000FB818A559D4F66818EDBAC81BD81A25423
:10559000BD4FEA81FB81878187708C93EC81FD810F
:1055A000E352FD4F81E0808301C080E0DF91CF9125
:1055B0001F910895FF920F931F93CF93DF93EC01F8
:1055C0006230C1F5AC81BD81EA81FB818481882391
:1055D00049F0833038F4A556BF4F8C93AB59B04097
:1055E00021E002C083E020E0A556BF4F8C934C81A0
:1055F0005D81EA81FB819481892F8150823010F096
:1056000094E00AC0FA01E95EFD4F8081891711F428
:1056100091E002C0908392E0EC81FD81E95EFD4F54
:1056200080818F5FB996808391FF30C1EC81FD81CD
:1056300010822CC16A30D1F5AC81BD81EA81FB8139
:105640009481892F8150893010F0FF2405C0A45621
:10565000BF4F9C93FF24F3940C811D81EA81FB8151
:10566000658176818781908528EE33E040E050E0C7
:105670000E9479B3C901DA0181362AEE920720E04F
:10568000A20720E0B20710F080E006C003561F4FCB
:10569000F8019183808381E090E02F2D30E0822B10
:1056A000932B20E0892B09F4F1C087C0613CA1F461
:1056B000EA81FB8164817581EC81FD81E554FD4FB8
:1056C0008081EB5BF240882309F0DFC0CF018A556F
:1056D0009D4F5BDB282FDAC0623C09F0D6C0EC811D
:1056E000FD81E554FD4F8081EB5BF240882309F09A
:1056F000CCC0442309F0C9C08381AA81BB819F012A
:105700002A553D4F853009F05AC0C90116966C9153
:1057100041E00E9454598C819D81EA81FB818A5528
:105720009D4F678141E00E947A598C819D81EA8179
:10573000FB818A559D4F608541E00E94A2598C8172
:105740009D81EA81FB818A559D4F618541E00E94E0
:10575000D3598C819D81EA81FB818A559D4F628559
:1057600041E00E94FA598C819D81EA81FB818A5532
:105770009D4F638541E00E94215AEA81FB818C8123
:105780009D81748560E02585620F711D8A559D4F4E
:105790000E941259EA81FB818C819D8165816F7025
:1057A00024812295207F620F8A559D4FC3DAEC81B8
:1057B000FD81E352FD4F81E0808321E067C0C90194
:1057C00053966C9141E00E9454598C819D81EA81ED
:1057D000FB818A559D4F628941E00E947A598C81F4
:1057E0009D81EA81FB818A559D4F618941E00E943C
:1057F000A2598C819D81EA81FB818A559D4F6785E5
:1058000041E00E94D3598C819D81EA81FB818A55B8
:105810009D4F668541E00E94FA598C819D81EA8105
:10582000FB818A559D4F658541E00E94215AEA819E
:10583000FB818C819D81748560E02385620F711DE1
:105840008A559D4F0E941259AC81BD81EA81FB812E
:105850008481A454BD4F863008F086E08C93EA81A1
:10586000FB818C819D8167816F7025812295207FCE
:10587000620F8A559D4F5EDA8C819D81EA81FB81A2
:105880008A559D4F66810FDA92CF20E0822FDF91FB
:10589000CF911F910F91FF900895CF92DF92EF92D9
:1058A000FF920F931F93CF93DF93EC01EC80FD8069
:1058B000D70113961C91683309F4EEC4693390F450
:1058C000623319F1633338F4603309F4EFC06133A4
:1058D00009F0A7C601C2643309F47CC2673309F03A
:1058E000A0C6ACC46F3309F41BC3603438F46B3307
:1058F00009F485C46E3309F094C6D1C4613F09F43C
:1059000090C5623F09F08DC6A3C5EA81FB81C7013E
:105910000996648141E00E9454598C819D81EA81FD
:10592000FB810996658141E00E947A598C819D81B5
:10593000EA81FB810996668141E00E94A2598C812F
:105940009D81EA81FB810996678141E00E94D359DC
:105950008C819D81EA81FB810996608541E00E94EE
:10596000FA598C819D81EA81FB810996618541E02C
:105970000E94215AEA81FB818081882319F460E02A
:1059800070E002C0628573858C819D8109960E94BA
:105990001259EA81FB818381EC80FD80853108F416
:1059A00072C02CEE32E0E20EF31ED7018C9124E19E
:1059B0003DEFE20EF31E8150823008F034C684853C
:1059C000F701E851FD4F863008F086E080838DEEC8
:1059D00092E0E80EF91ED7011C92ECEFFFEFEE0EFD
:1059E000FF1EEA81FB818585D7018D93EA81FB81CA
:1059F0008685FD0181937F01EA81FB818785D7013F
:105A00008C93E5E1FDEFEE0EFF1E870102521D4F64
:105A1000EA81FB81C801618941E00E945459EA8111
:105A2000FB81C801628941E00E947A59EA81FB81C9
:105A3000C801638941E00E94A259EA81FB81C80143
:105A4000648941E00E94D359EA81FB81C8016589DC
:105A500041E00E94FA59EA81FB81C801668941E070
:105A60000E94215AEA81FB816789708DC8010E94DA
:105A700012592CEE32E0E20EF31E83E0D7018C9334
:105A800010926201D0C5F701E451FD4F8081815031
:105A9000823008F0C8C580916201863018F082E03B
:105AA0008083C1C58F5F80936201BDC5EA81FB81A0
:105AB000D701A956BF4F8481873008F086E08C93C8
:105AC000AC81BD81EA81FB8185818E3008F08EE05A
:105AD000A856BF4F8C93EC81FD81E756FF4FAA81FA
